Archive member included to satisfy reference by file (symbol)

d:/progra~2/stm32c~1/gnu-to~1/bin/../lib/gcc/arm-none-eabi/9.2.1/thumb/v6-m/nofp\libgcc.a(_udivsi3.o)
                              CMakeFiles/L-ink_Card.elf.dir/Drivers/STM32L0xx_HAL_Driver/Src/stm32l0xx_hal.c.obj (__aeabi_uidiv)
d:/progra~2/stm32c~1/gnu-to~1/bin/../lib/gcc/arm-none-eabi/9.2.1/thumb/v6-m/nofp\libgcc.a(_divsi3.o)
                              CMakeFiles/L-ink_Card.elf.dir/Drivers/STM32L0xx_HAL_Driver/Src/stm32l0xx_hal_rcc.c.obj (__aeabi_idiv)
d:/progra~2/stm32c~1/gnu-to~1/bin/../lib/gcc/arm-none-eabi/9.2.1/thumb/v6-m/nofp\libgcc.a(_dvmd_tls.o)
                              d:/progra~2/stm32c~1/gnu-to~1/bin/../lib/gcc/arm-none-eabi/9.2.1/thumb/v6-m/nofp\libgcc.a(_udivsi3.o) (__aeabi_idiv0)
d:/progra~2/stm32c~1/gnu-to~1/bin/../lib/gcc/arm-none-eabi/9.2.1/thumb/v6-m/nofp\libgcc.a(_aeabi_ldivmod.o)
                              CMakeFiles/L-ink_Card.elf.dir/Drivers/STM32L0xx_HAL_Driver/Src/stm32l0xx_hal_uart.c.obj (__aeabi_ldivmod)
d:/progra~2/stm32c~1/gnu-to~1/bin/../lib/gcc/arm-none-eabi/9.2.1/thumb/v6-m/nofp\libgcc.a(_aeabi_uldivmod.o)
                              CMakeFiles/L-ink_Card.elf.dir/Drivers/STM32L0xx_HAL_Driver/Src/stm32l0xx_hal_uart.c.obj (__aeabi_uldivmod)
d:/progra~2/stm32c~1/gnu-to~1/bin/../lib/gcc/arm-none-eabi/9.2.1/thumb/v6-m/nofp\libgcc.a(_udivmoddi4.o)
                              d:/progra~2/stm32c~1/gnu-to~1/bin/../lib/gcc/arm-none-eabi/9.2.1/thumb/v6-m/nofp\libgcc.a(_aeabi_uldivmod.o) (__udivmoddi4)
d:/progra~2/stm32c~1/gnu-to~1/bin/../lib/gcc/arm-none-eabi/9.2.1/thumb/v6-m/nofp\libgcc.a(bpabi.o)
                              d:/progra~2/stm32c~1/gnu-to~1/bin/../lib/gcc/arm-none-eabi/9.2.1/thumb/v6-m/nofp\libgcc.a(_aeabi_ldivmod.o) (__gnu_ldivmod_helper)
d:/progra~2/stm32c~1/gnu-to~1/bin/../lib/gcc/arm-none-eabi/9.2.1/thumb/v6-m/nofp\libgcc.a(_clzdi2.o)
                              d:/progra~2/stm32c~1/gnu-to~1/bin/../lib/gcc/arm-none-eabi/9.2.1/thumb/v6-m/nofp\libgcc.a(_udivmoddi4.o) (__clzdi2)
d:/progra~2/stm32c~1/gnu-to~1/bin/../lib/gcc/arm-none-eabi/9.2.1/thumb/v6-m/nofp\libgcc.a(_muldi3.o)
                              d:/progra~2/stm32c~1/gnu-to~1/bin/../lib/gcc/arm-none-eabi/9.2.1/thumb/v6-m/nofp\libgcc.a(bpabi.o) (__aeabi_lmul)
d:/progra~2/stm32c~1/gnu-to~1/bin/../lib/gcc/arm-none-eabi/9.2.1/thumb/v6-m/nofp\libgcc.a(_divdi3.o)
                              d:/progra~2/stm32c~1/gnu-to~1/bin/../lib/gcc/arm-none-eabi/9.2.1/thumb/v6-m/nofp\libgcc.a(bpabi.o) (__divdi3)
d:/progra~2/stm32c~1/gnu-to~1/bin/../lib/gcc/arm-none-eabi/9.2.1/thumb/v6-m/nofp\libgcc.a(_clzsi2.o)
                              d:/progra~2/stm32c~1/gnu-to~1/bin/../lib/gcc/arm-none-eabi/9.2.1/thumb/v6-m/nofp\libgcc.a(_clzdi2.o) (__clzsi2)
d:/progra~2/stm32c~1/gnu-to~1/bin/../lib/gcc/arm-none-eabi/9.2.1/../../../../arm-none-eabi/lib/thumb/v6-m/nofp\libg_nano.a(lib_a-errno.o)
                              CMakeFiles/L-ink_Card.elf.dir/Src/syscalls.c.obj (__errno)
d:/progra~2/stm32c~1/gnu-to~1/bin/../lib/gcc/arm-none-eabi/9.2.1/../../../../arm-none-eabi/lib/thumb/v6-m/nofp\libg_nano.a(lib_a-exit.o)
                              d:/progra~2/stm32c~1/gnu-to~1/bin/../lib/gcc/arm-none-eabi/9.2.1/../../../../arm-none-eabi/lib/thumb/v6-m/nofp/crt0.o (exit)
d:/progra~2/stm32c~1/gnu-to~1/bin/../lib/gcc/arm-none-eabi/9.2.1/../../../../arm-none-eabi/lib/thumb/v6-m/nofp\libg_nano.a(lib_a-impure.o)
                              d:/progra~2/stm32c~1/gnu-to~1/bin/../lib/gcc/arm-none-eabi/9.2.1/../../../../arm-none-eabi/lib/thumb/v6-m/nofp\libg_nano.a(lib_a-exit.o) (_global_impure_ptr)
d:/progra~2/stm32c~1/gnu-to~1/bin/../lib/gcc/arm-none-eabi/9.2.1/../../../../arm-none-eabi/lib/thumb/v6-m/nofp\libg_nano.a(lib_a-init.o)
                              d:/progra~2/stm32c~1/gnu-to~1/bin/../lib/gcc/arm-none-eabi/9.2.1/../../../../arm-none-eabi/lib/thumb/v6-m/nofp/crt0.o (__libc_init_array)
d:/progra~2/stm32c~1/gnu-to~1/bin/../lib/gcc/arm-none-eabi/9.2.1/../../../../arm-none-eabi/lib/thumb/v6-m/nofp\libg_nano.a(lib_a-memset.o)
                              d:/progra~2/stm32c~1/gnu-to~1/bin/../lib/gcc/arm-none-eabi/9.2.1/../../../../arm-none-eabi/lib/thumb/v6-m/nofp/crt0.o (memset)
d:/progra~2/stm32c~1/gnu-to~1/bin/../lib/gcc/arm-none-eabi/9.2.1/../../../../arm-none-eabi/lib/thumb/v6-m/nofp\libg_nano.a(lib_a-printf.o)
                              CMakeFiles/L-ink_Card.elf.dir/BSP/app_nfc.c.obj (printf)
d:/progra~2/stm32c~1/gnu-to~1/bin/../lib/gcc/arm-none-eabi/9.2.1/../../../../arm-none-eabi/lib/thumb/v6-m/nofp\libg_nano.a(lib_a-findfp.o)
                              d:/progra~2/stm32c~1/gnu-to~1/bin/../lib/gcc/arm-none-eabi/9.2.1/../../../../arm-none-eabi/lib/thumb/v6-m/nofp\libg_nano.a(lib_a-printf.o) (__sinit)
d:/progra~2/stm32c~1/gnu-to~1/bin/../lib/gcc/arm-none-eabi/9.2.1/../../../../arm-none-eabi/lib/thumb/v6-m/nofp\libg_nano.a(lib_a-fwalk.o)
                              d:/progra~2/stm32c~1/gnu-to~1/bin/../lib/gcc/arm-none-eabi/9.2.1/../../../../arm-none-eabi/lib/thumb/v6-m/nofp\libg_nano.a(lib_a-findfp.o) (_fwalk)
d:/progra~2/stm32c~1/gnu-to~1/bin/../lib/gcc/arm-none-eabi/9.2.1/../../../../arm-none-eabi/lib/thumb/v6-m/nofp\libg_nano.a(lib_a-lock.o)
                              d:/progra~2/stm32c~1/gnu-to~1/bin/../lib/gcc/arm-none-eabi/9.2.1/../../../../arm-none-eabi/lib/thumb/v6-m/nofp\libg_nano.a(lib_a-findfp.o) (__retarget_lock_init_recursive)
d:/progra~2/stm32c~1/gnu-to~1/bin/../lib/gcc/arm-none-eabi/9.2.1/../../../../arm-none-eabi/lib/thumb/v6-m/nofp\libg_nano.a(lib_a-nano-mallocr.o)
                              d:/progra~2/stm32c~1/gnu-to~1/bin/../lib/gcc/arm-none-eabi/9.2.1/../../../../arm-none-eabi/lib/thumb/v6-m/nofp\libg_nano.a(lib_a-findfp.o) (_malloc_r)
d:/progra~2/stm32c~1/gnu-to~1/bin/../lib/gcc/arm-none-eabi/9.2.1/../../../../arm-none-eabi/lib/thumb/v6-m/nofp\libg_nano.a(lib_a-nano-vfprintf.o)
                              d:/progra~2/stm32c~1/gnu-to~1/bin/../lib/gcc/arm-none-eabi/9.2.1/../../../../arm-none-eabi/lib/thumb/v6-m/nofp\libg_nano.a(lib_a-printf.o) (_vfprintf_r)
d:/progra~2/stm32c~1/gnu-to~1/bin/../lib/gcc/arm-none-eabi/9.2.1/../../../../arm-none-eabi/lib/thumb/v6-m/nofp\libg_nano.a(lib_a-nano-vfprintf_i.o)
                              d:/progra~2/stm32c~1/gnu-to~1/bin/../lib/gcc/arm-none-eabi/9.2.1/../../../../arm-none-eabi/lib/thumb/v6-m/nofp\libg_nano.a(lib_a-nano-vfprintf.o) (_printf_i)
d:/progra~2/stm32c~1/gnu-to~1/bin/../lib/gcc/arm-none-eabi/9.2.1/../../../../arm-none-eabi/lib/thumb/v6-m/nofp\libg_nano.a(lib_a-sbrkr.o)
                              d:/progra~2/stm32c~1/gnu-to~1/bin/../lib/gcc/arm-none-eabi/9.2.1/../../../../arm-none-eabi/lib/thumb/v6-m/nofp\libg_nano.a(lib_a-nano-mallocr.o) (_sbrk_r)
d:/progra~2/stm32c~1/gnu-to~1/bin/../lib/gcc/arm-none-eabi/9.2.1/../../../../arm-none-eabi/lib/thumb/v6-m/nofp\libg_nano.a(lib_a-stdio.o)
                              d:/progra~2/stm32c~1/gnu-to~1/bin/../lib/gcc/arm-none-eabi/9.2.1/../../../../arm-none-eabi/lib/thumb/v6-m/nofp\libg_nano.a(lib_a-findfp.o) (__sread)
d:/progra~2/stm32c~1/gnu-to~1/bin/../lib/gcc/arm-none-eabi/9.2.1/../../../../arm-none-eabi/lib/thumb/v6-m/nofp\libg_nano.a(lib_a-wbuf.o)
                              d:/progra~2/stm32c~1/gnu-to~1/bin/../lib/gcc/arm-none-eabi/9.2.1/../../../../arm-none-eabi/lib/thumb/v6-m/nofp\libg_nano.a(lib_a-nano-vfprintf.o) (__swbuf_r)
d:/progra~2/stm32c~1/gnu-to~1/bin/../lib/gcc/arm-none-eabi/9.2.1/../../../../arm-none-eabi/lib/thumb/v6-m/nofp\libg_nano.a(lib_a-writer.o)
                              d:/progra~2/stm32c~1/gnu-to~1/bin/../lib/gcc/arm-none-eabi/9.2.1/../../../../arm-none-eabi/lib/thumb/v6-m/nofp\libg_nano.a(lib_a-stdio.o) (_write_r)
d:/progra~2/stm32c~1/gnu-to~1/bin/../lib/gcc/arm-none-eabi/9.2.1/../../../../arm-none-eabi/lib/thumb/v6-m/nofp\libg_nano.a(lib_a-wsetup.o)
                              d:/progra~2/stm32c~1/gnu-to~1/bin/../lib/gcc/arm-none-eabi/9.2.1/../../../../arm-none-eabi/lib/thumb/v6-m/nofp\libg_nano.a(lib_a-nano-vfprintf.o) (__swsetup_r)
d:/progra~2/stm32c~1/gnu-to~1/bin/../lib/gcc/arm-none-eabi/9.2.1/../../../../arm-none-eabi/lib/thumb/v6-m/nofp\libg_nano.a(lib_a-closer.o)
                              d:/progra~2/stm32c~1/gnu-to~1/bin/../lib/gcc/arm-none-eabi/9.2.1/../../../../arm-none-eabi/lib/thumb/v6-m/nofp\libg_nano.a(lib_a-stdio.o) (_close_r)
d:/progra~2/stm32c~1/gnu-to~1/bin/../lib/gcc/arm-none-eabi/9.2.1/../../../../arm-none-eabi/lib/thumb/v6-m/nofp\libg_nano.a(lib_a-fflush.o)
                              d:/progra~2/stm32c~1/gnu-to~1/bin/../lib/gcc/arm-none-eabi/9.2.1/../../../../arm-none-eabi/lib/thumb/v6-m/nofp\libg_nano.a(lib_a-findfp.o) (_fflush_r)
d:/progra~2/stm32c~1/gnu-to~1/bin/../lib/gcc/arm-none-eabi/9.2.1/../../../../arm-none-eabi/lib/thumb/v6-m/nofp\libg_nano.a(lib_a-fvwrite.o)
                              d:/progra~2/stm32c~1/gnu-to~1/bin/../lib/gcc/arm-none-eabi/9.2.1/../../../../arm-none-eabi/lib/thumb/v6-m/nofp\libg_nano.a(lib_a-nano-vfprintf.o) (__sfvwrite_r)
d:/progra~2/stm32c~1/gnu-to~1/bin/../lib/gcc/arm-none-eabi/9.2.1/../../../../arm-none-eabi/lib/thumb/v6-m/nofp\libg_nano.a(lib_a-lseekr.o)
                              d:/progra~2/stm32c~1/gnu-to~1/bin/../lib/gcc/arm-none-eabi/9.2.1/../../../../arm-none-eabi/lib/thumb/v6-m/nofp\libg_nano.a(lib_a-stdio.o) (_lseek_r)
d:/progra~2/stm32c~1/gnu-to~1/bin/../lib/gcc/arm-none-eabi/9.2.1/../../../../arm-none-eabi/lib/thumb/v6-m/nofp\libg_nano.a(lib_a-makebuf.o)
                              d:/progra~2/stm32c~1/gnu-to~1/bin/../lib/gcc/arm-none-eabi/9.2.1/../../../../arm-none-eabi/lib/thumb/v6-m/nofp\libg_nano.a(lib_a-wsetup.o) (__smakebuf_r)
d:/progra~2/stm32c~1/gnu-to~1/bin/../lib/gcc/arm-none-eabi/9.2.1/../../../../arm-none-eabi/lib/thumb/v6-m/nofp\libg_nano.a(lib_a-memchr-stub.o)
                              d:/progra~2/stm32c~1/gnu-to~1/bin/../lib/gcc/arm-none-eabi/9.2.1/../../../../arm-none-eabi/lib/thumb/v6-m/nofp\libg_nano.a(lib_a-nano-vfprintf.o) (memchr)
d:/progra~2/stm32c~1/gnu-to~1/bin/../lib/gcc/arm-none-eabi/9.2.1/../../../../arm-none-eabi/lib/thumb/v6-m/nofp\libg_nano.a(lib_a-memcpy-stub.o)
                              d:/progra~2/stm32c~1/gnu-to~1/bin/../lib/gcc/arm-none-eabi/9.2.1/../../../../arm-none-eabi/lib/thumb/v6-m/nofp\libg_nano.a(lib_a-fvwrite.o) (memcpy)
d:/progra~2/stm32c~1/gnu-to~1/bin/../lib/gcc/arm-none-eabi/9.2.1/../../../../arm-none-eabi/lib/thumb/v6-m/nofp\libg_nano.a(lib_a-memmove.o)
                              d:/progra~2/stm32c~1/gnu-to~1/bin/../lib/gcc/arm-none-eabi/9.2.1/../../../../arm-none-eabi/lib/thumb/v6-m/nofp\libg_nano.a(lib_a-fvwrite.o) (memmove)
d:/progra~2/stm32c~1/gnu-to~1/bin/../lib/gcc/arm-none-eabi/9.2.1/../../../../arm-none-eabi/lib/thumb/v6-m/nofp\libg_nano.a(lib_a-mlock.o)
                              d:/progra~2/stm32c~1/gnu-to~1/bin/../lib/gcc/arm-none-eabi/9.2.1/../../../../arm-none-eabi/lib/thumb/v6-m/nofp\libg_nano.a(lib_a-nano-mallocr.o) (__malloc_lock)
d:/progra~2/stm32c~1/gnu-to~1/bin/../lib/gcc/arm-none-eabi/9.2.1/../../../../arm-none-eabi/lib/thumb/v6-m/nofp\libg_nano.a(lib_a-nano-freer.o)
                              d:/progra~2/stm32c~1/gnu-to~1/bin/../lib/gcc/arm-none-eabi/9.2.1/../../../../arm-none-eabi/lib/thumb/v6-m/nofp\libg_nano.a(lib_a-wsetup.o) (_free_r)
d:/progra~2/stm32c~1/gnu-to~1/bin/../lib/gcc/arm-none-eabi/9.2.1/../../../../arm-none-eabi/lib/thumb/v6-m/nofp\libg_nano.a(lib_a-nano-reallocr.o)
                              d:/progra~2/stm32c~1/gnu-to~1/bin/../lib/gcc/arm-none-eabi/9.2.1/../../../../arm-none-eabi/lib/thumb/v6-m/nofp\libg_nano.a(lib_a-fvwrite.o) (_realloc_r)
d:/progra~2/stm32c~1/gnu-to~1/bin/../lib/gcc/arm-none-eabi/9.2.1/../../../../arm-none-eabi/lib/thumb/v6-m/nofp\libg_nano.a(lib_a-readr.o)
                              d:/progra~2/stm32c~1/gnu-to~1/bin/../lib/gcc/arm-none-eabi/9.2.1/../../../../arm-none-eabi/lib/thumb/v6-m/nofp\libg_nano.a(lib_a-stdio.o) (_read_r)
d:/progra~2/stm32c~1/gnu-to~1/bin/../lib/gcc/arm-none-eabi/9.2.1/../../../../arm-none-eabi/lib/thumb/v6-m/nofp\libg_nano.a(lib_a-reent.o)
                              d:/progra~2/stm32c~1/gnu-to~1/bin/../lib/gcc/arm-none-eabi/9.2.1/../../../../arm-none-eabi/lib/thumb/v6-m/nofp\libg_nano.a(lib_a-sbrkr.o) (errno)
d:/progra~2/stm32c~1/gnu-to~1/bin/../lib/gcc/arm-none-eabi/9.2.1/../../../../arm-none-eabi/lib/thumb/v6-m/nofp\libg_nano.a(lib_a-fstatr.o)
                              d:/progra~2/stm32c~1/gnu-to~1/bin/../lib/gcc/arm-none-eabi/9.2.1/../../../../arm-none-eabi/lib/thumb/v6-m/nofp\libg_nano.a(lib_a-makebuf.o) (_fstat_r)
d:/progra~2/stm32c~1/gnu-to~1/bin/../lib/gcc/arm-none-eabi/9.2.1/../../../../arm-none-eabi/lib/thumb/v6-m/nofp\libg_nano.a(lib_a-isattyr.o)
                              d:/progra~2/stm32c~1/gnu-to~1/bin/../lib/gcc/arm-none-eabi/9.2.1/../../../../arm-none-eabi/lib/thumb/v6-m/nofp\libg_nano.a(lib_a-makebuf.o) (_isatty_r)
d:/progra~2/stm32c~1/gnu-to~1/bin/../lib/gcc/arm-none-eabi/9.2.1/../../../../arm-none-eabi/lib/thumb/v6-m/nofp\libg_nano.a(lib_a-nano-msizer.o)
                              d:/progra~2/stm32c~1/gnu-to~1/bin/../lib/gcc/arm-none-eabi/9.2.1/../../../../arm-none-eabi/lib/thumb/v6-m/nofp\libg_nano.a(lib_a-nano-reallocr.o) (_malloc_usable_size_r)
d:/progra~2/stm32c~1/gnu-to~1/bin/../lib/gcc/arm-none-eabi/9.2.1/thumb/v6-m/nofp\libgcc.a(_thumb1_case_shi.o)
                              d:/progra~2/stm32c~1/gnu-to~1/bin/../lib/gcc/arm-none-eabi/9.2.1/../../../../arm-none-eabi/lib/thumb/v6-m/nofp\libg_nano.a(lib_a-nano-vfprintf_i.o) (__gnu_thumb1_case_shi)

Allocating common symbols
Common symbol       size              file

__lock___atexit_recursive_mutex
                    0x1               d:/progra~2/stm32c~1/gnu-to~1/bin/../lib/gcc/arm-none-eabi/9.2.1/../../../../arm-none-eabi/lib/thumb/v6-m/nofp\libg_nano.a(lib_a-lock.o)
__lock___arc4random_mutex
                    0x1               d:/progra~2/stm32c~1/gnu-to~1/bin/../lib/gcc/arm-none-eabi/9.2.1/../../../../arm-none-eabi/lib/thumb/v6-m/nofp\libg_nano.a(lib_a-lock.o)
errno               0x4               d:/progra~2/stm32c~1/gnu-to~1/bin/../lib/gcc/arm-none-eabi/9.2.1/../../../../arm-none-eabi/lib/thumb/v6-m/nofp\libg_nano.a(lib_a-reent.o)
__lock___env_recursive_mutex
                    0x1               d:/progra~2/stm32c~1/gnu-to~1/bin/../lib/gcc/arm-none-eabi/9.2.1/../../../../arm-none-eabi/lib/thumb/v6-m/nofp\libg_nano.a(lib_a-lock.o)
__lock___sinit_recursive_mutex
                    0x1               d:/progra~2/stm32c~1/gnu-to~1/bin/../lib/gcc/arm-none-eabi/9.2.1/../../../../arm-none-eabi/lib/thumb/v6-m/nofp\libg_nano.a(lib_a-lock.o)
__lock___malloc_recursive_mutex
                    0x1               d:/progra~2/stm32c~1/gnu-to~1/bin/../lib/gcc/arm-none-eabi/9.2.1/../../../../arm-none-eabi/lib/thumb/v6-m/nofp\libg_nano.a(lib_a-lock.o)
__lock___at_quick_exit_mutex
                    0x1               d:/progra~2/stm32c~1/gnu-to~1/bin/../lib/gcc/arm-none-eabi/9.2.1/../../../../arm-none-eabi/lib/thumb/v6-m/nofp\libg_nano.a(lib_a-lock.o)
__lock___dd_hash_mutex
                    0x1               d:/progra~2/stm32c~1/gnu-to~1/bin/../lib/gcc/arm-none-eabi/9.2.1/../../../../arm-none-eabi/lib/thumb/v6-m/nofp\libg_nano.a(lib_a-lock.o)
__lock___tz_mutex   0x1               d:/progra~2/stm32c~1/gnu-to~1/bin/../lib/gcc/arm-none-eabi/9.2.1/../../../../arm-none-eabi/lib/thumb/v6-m/nofp\libg_nano.a(lib_a-lock.o)
__lock___sfp_recursive_mutex
                    0x1               d:/progra~2/stm32c~1/gnu-to~1/bin/../lib/gcc/arm-none-eabi/9.2.1/../../../../arm-none-eabi/lib/thumb/v6-m/nofp\libg_nano.a(lib_a-lock.o)

Discarded input sections

 .text          0x00000000        0x0 d:/progra~2/stm32c~1/gnu-to~1/bin/../lib/gcc/arm-none-eabi/9.2.1/thumb/v6-m/nofp/crti.o
 .data          0x00000000        0x0 d:/progra~2/stm32c~1/gnu-to~1/bin/../lib/gcc/arm-none-eabi/9.2.1/thumb/v6-m/nofp/crti.o
 .bss           0x00000000        0x0 d:/progra~2/stm32c~1/gnu-to~1/bin/../lib/gcc/arm-none-eabi/9.2.1/thumb/v6-m/nofp/crti.o
 .data          0x00000000        0x4 d:/progra~2/stm32c~1/gnu-to~1/bin/../lib/gcc/arm-none-eabi/9.2.1/thumb/v6-m/nofp/crtbegin.o
 .text          0x00000000       0x78 d:/progra~2/stm32c~1/gnu-to~1/bin/../lib/gcc/arm-none-eabi/9.2.1/../../../../arm-none-eabi/lib/thumb/v6-m/nofp/crt0.o
 .data          0x00000000        0x0 d:/progra~2/stm32c~1/gnu-to~1/bin/../lib/gcc/arm-none-eabi/9.2.1/../../../../arm-none-eabi/lib/thumb/v6-m/nofp/crt0.o
 .bss           0x00000000        0x0 d:/progra~2/stm32c~1/gnu-to~1/bin/../lib/gcc/arm-none-eabi/9.2.1/../../../../arm-none-eabi/lib/thumb/v6-m/nofp/crt0.o
 .ARM.extab     0x00000000        0x0 d:/progra~2/stm32c~1/gnu-to~1/bin/../lib/gcc/arm-none-eabi/9.2.1/../../../../arm-none-eabi/lib/thumb/v6-m/nofp/crt0.o
 .ARM.exidx     0x00000000        0x8 d:/progra~2/stm32c~1/gnu-to~1/bin/../lib/gcc/arm-none-eabi/9.2.1/../../../../arm-none-eabi/lib/thumb/v6-m/nofp/crt0.o
 .ARM.attributes
                0x00000000       0x1b d:/progra~2/stm32c~1/gnu-to~1/bin/../lib/gcc/arm-none-eabi/9.2.1/../../../../arm-none-eabi/lib/thumb/v6-m/nofp/crt0.o
 .text          0x00000000        0x0 CMakeFiles/L-ink_Card.elf.dir/BSP/Display_EPD_W21.c.obj
 .data          0x00000000        0x0 CMakeFiles/L-ink_Card.elf.dir/BSP/Display_EPD_W21.c.obj
 .bss           0x00000000        0x0 CMakeFiles/L-ink_Card.elf.dir/BSP/Display_EPD_W21.c.obj
 .text.SpiDelay
                0x00000000        0x4 CMakeFiles/L-ink_Card.elf.dir/BSP/Display_EPD_W21.c.obj
 .text.DriverDelay
                0x00000000        0x8 CMakeFiles/L-ink_Card.elf.dir/BSP/Display_EPD_W21.c.obj
Memory Configuration

Name             Origin             Length             Attributes
RAM              0x20000000         0x00002000         xrw
FLASH            0x08000000         0x00010000         xr
*default*        0x00000000         0xffffffff

Linker script and memory map

LOAD d:/progra~2/stm32c~1/gnu-to~1/bin/../lib/gcc/arm-none-eabi/9.2.1/thumb/v6-m/nofp/crti.o
LOAD d:/progra~2/stm32c~1/gnu-to~1/bin/../lib/gcc/arm-none-eabi/9.2.1/thumb/v6-m/nofp/crtbegin.o
LOAD d:/progra~2/stm32c~1/gnu-to~1/bin/../lib/gcc/arm-none-eabi/9.2.1/../../../../arm-none-eabi/lib/thumb/v6-m/nofp/crt0.o
LOAD CMakeFiles/L-ink_Card.elf.dir/BSP/Display_EPD_W21.c.obj
LOAD CMakeFiles/L-ink_Card.elf.dir/BSP/app_nfc.c.obj
LOAD CMakeFiles/L-ink_Card.elf.dir/Drivers/BSP/Components/ST25DV/st25dv.c.obj
LOAD CMakeFiles/L-ink_Card.elf.dir/Drivers/BSP/Components/ST25DV/st25dv_reg.c.obj
LOAD CMakeFiles/L-ink_Card.elf.dir/Drivers/BSP/NFC04A1/nfc04a1.c.obj
LOAD CMakeFiles/L-ink_Card.elf.dir/Drivers/BSP/NFC04A1/nfc04a1_nfctag.c.obj
LOAD CMakeFiles/L-ink_Card.elf.dir/Drivers/STM32L0xx_HAL_Driver/Src/stm32l0xx_hal.c.obj
LOAD CMakeFiles/L-ink_Card.elf.dir/Drivers/STM32L0xx_HAL_Driver/Src/stm32l0xx_hal_cortex.c.obj
LOAD CMakeFiles/L-ink_Card.elf.dir/Drivers/STM32L0xx_HAL_Driver/Src/stm32l0xx_hal_dma.c.obj
LOAD CMakeFiles/L-ink_Card.elf.dir/Drivers/STM32L0xx_HAL_Driver/Src/stm32l0xx_hal_flash.c.obj
LOAD CMakeFiles/L-ink_Card.elf.dir/Drivers/STM32L0xx_HAL_Driver/Src/stm32l0xx_hal_flash_ex.c.obj
LOAD CMakeFiles/L-ink_Card.elf.dir/Drivers/STM32L0xx_HAL_Driver/Src/stm32l0xx_hal_flash_ramfunc.c.obj
LOAD CMakeFiles/L-ink_Card.elf.dir/Drivers/STM32L0xx_HAL_Driver/Src/stm32l0xx_hal_gpio.c.obj
LOAD CMakeFiles/L-ink_Card.elf.dir/Drivers/STM32L0xx_HAL_Driver/Src/stm32l0xx_hal_i2c.c.obj
LOAD CMakeFiles/L-ink_Card.elf.dir/Drivers/STM32L0xx_HAL_Driver/Src/stm32l0xx_hal_i2c_ex.c.obj
LOAD CMakeFiles/L-ink_Card.elf.dir/Drivers/STM32L0xx_HAL_Driver/Src/stm32l0xx_hal_pwr.c.obj
LOAD CMakeFiles/L-ink_Card.elf.dir/Drivers/STM32L0xx_HAL_Driver/Src/stm32l0xx_hal_pwr_ex.c.obj
LOAD CMakeFiles/L-ink_Card.elf.dir/Drivers/STM32L0xx_HAL_Driver/Src/stm32l0xx_hal_rcc.c.obj
LOAD CMakeFiles/L-ink_Card.elf.dir/Drivers/STM32L0xx_HAL_Driver/Src/stm32l0xx_hal_rcc_ex.c.obj
LOAD CMakeFiles/L-ink_Card.elf.dir/Drivers/STM32L0xx_HAL_Driver/Src/stm32l0xx_hal_tim.c.obj
LOAD CMakeFiles/L-ink_Card.elf.dir/Drivers/STM32L0xx_HAL_Driver/Src/stm32l0xx_hal_tim_ex.c.obj
LOAD CMakeFiles/L-ink_Card.elf.dir/Drivers/STM32L0xx_HAL_Driver/Src/stm32l0xx_hal_uart.c.obj
LOAD CMakeFiles/L-ink_Card.elf.dir/Drivers/STM32L0xx_HAL_Driver/Src/stm32l0xx_hal_uart_ex.c.obj
LOAD CMakeFiles/L-ink_Card.elf.dir/Src/custom_bus.c.obj
LOAD CMakeFiles/L-ink_Card.elf.dir/Src/gpio.c.obj
LOAD CMakeFiles/L-ink_Card.elf.dir/Src/main.c.obj
LOAD CMakeFiles/L-ink_Card.elf.dir/Src/stm32l0xx_hal_exti.c.obj
LOAD CMakeFiles/L-ink_Card.elf.dir/Src/stm32l0xx_hal_msp.c.obj
LOAD CMakeFiles/L-ink_Card.elf.dir/Src/stm32l0xx_it.c.obj
LOAD CMakeFiles/L-ink_Card.elf.dir/Src/syscalls.c.obj
LOAD CMakeFiles/L-ink_Card.elf.dir/Src/system_stm32l0xx.c.obj
LOAD CMakeFiles/L-ink_Card.elf.dir/Src/usart.c.obj
LOAD CMakeFiles/L-ink_Card.elf.dir/startup/startup_stm32l051xx.s.obj
START GROUP
LOAD d:/progra~2/stm32c~1/gnu-to~1/bin/../lib/gcc/arm-none-eabi/9.2.1/thumb/v6-m/nofp\libgcc.a
LOAD d:/progra~2/stm32c~1/gnu-to~1/bin/../lib/gcc/arm-none-eabi/9.2.1/../../../../arm-none-eabi/lib/thumb/v6-m/nofp\libg_nano.a
LOAD d:/progra~2/stm32c~1/gnu-to~1/bin/../lib/gcc/arm-none-eabi/9.2.1/../../../../arm-none-eabi/lib/thumb/v6-m/nofp\libc_nano.a
END GROUP
START GROUP
LOAD d:/progra~2/stm32c~1/gnu-to~1/bin/../lib/gcc/arm-none-eabi/9.2.1/thumb/v6-m/nofp\libgcc.a
LOAD d:/progra~2/stm32c~1/gnu-to~1/bin/../lib/gcc/arm-none-eabi/9.2.1/../../../../arm-none-eabi/lib/thumb/v6-m/nofp\libc_nano.a
LOAD d:/progra~2/stm32c~1/gnu-to~1/bin/../lib/gcc/arm-none-eabi/9.2.1/../../../../arm-none-eabi/lib/thumb/v6-m/nofp\libnosys.a
END GROUP
START GROUP
LOAD d:/progra~2/stm32c~1/gnu-to~1/bin/../lib/gcc/arm-none-eabi/9.2.1/thumb/v6-m/nofp\libgcc.a
LOAD d:/progra~2/stm32c~1/gnu-to~1/bin/../lib/gcc/arm-none-eabi/9.2.1/../../../../arm-none-eabi/lib/thumb/v6-m/nofp\libc_nano.a
LOAD d:/progra~2/stm32c~1/gnu-to~1/bin/../lib/gcc/arm-none-eabi/9.2.1/../../../../arm-none-eabi/lib/thumb/v6-m/nofp\libnosys.a
END GROUP
LOAD d:/progra~2/stm32c~1/gnu-to~1/bin/../lib/gcc/arm-none-eabi/9.2.1/thumb/v6-m/nofp/crtend.o
LOAD d:/progra~2/stm32c~1/gnu-to~1/bin/../lib/gcc/arm-none-eabi/9.2.1/thumb/v6-m/nofp/crtn.o
                0x20002000                _estack = 0x20002000
                0x00000200                _Min_Heap_Size = 0x200
                0x00000400                _Min_Stack_Size = 0x400

.isr_vector     0x08000000       0xc0
                0x08000000                . = ALIGN (0x4)
 *(.isr_vector)
 .isr_vector    0x08000000       0xc0 CMakeFiles/L-ink_Card.elf.dir/startup/startup_stm32l051xx.s.obj
                0x08000000                g_pfnVectors
                0x080000c0                . = ALIGN (0x4)

.text           0x080000c0     0x4bb4
                0x080000c0                . = ALIGN (0x4)
 *(.text)
 .text          0x080000c0       0x48 d:/progra~2/stm32c~1/gnu-to~1/bin/../lib/gcc/arm-none-eabi/9.2.1/thumb/v6-m/nofp/crtbegin.o
 .text          0x08000108      0x114 d:/progra~2/stm32c~1/gnu-to~1/bin/../lib/gcc/arm-none-eabi/9.2.1/thumb/v6-m/nofp\libgcc.a(_udivsi3.o)
                0x08000108                __aeabi_uidiv
                0x08000108                __udivsi3
                0x08000214                __aeabi_uidivmod
 .text          0x0800021c        0x4 d:/progra~2/stm32c~1/gnu-to~1/bin/../lib/gcc/arm-none-eabi/9.2.1/thumb/v6-m/nofp\libgcc.a(_dvmd_tls.o)
                0x0800021c                __aeabi_idiv0
                0x0800021c                __aeabi_ldiv0
 .text          0x08000220       0x40 d:/progra~2/stm32c~1/gnu-to~1/bin/../lib/gcc/arm-none-eabi/9.2.1/thumb/v6-m/nofp\libgcc.a(_aeabi_uldivmod.o)
                0x08000220                __aeabi_uldivmod
 .text          0x08000260      0x198 d:/progra~2/stm32c~1/gnu-to~1/bin/../lib/gcc/arm-none-eabi/9.2.1/thumb/v6-m/nofp\libgcc.a(_udivmoddi4.o)
                0x08000260                __udivmoddi4
 .text          0x080003f8       0x18 d:/progra~2/stm32c~1/gnu-to~1/bin/../lib/gcc/arm-none-eabi/9.2.1/thumb/v6-m/nofp\libgcc.a(_clzdi2.o)
                0x080003f8                __clzdi2
 .text          0x08000410       0x3c d:/progra~2/stm32c~1/gnu-to~1/bin/../lib/gcc/arm-none-eabi/9.2.1/thumb/v6-m/nofp\libgcc.a(_clzsi2.o)
                0x08000410                __clzsi2
 .text          0x0800044c       0x14 d:/progra~2/stm32c~1/gnu-to~1/bin/../lib/gcc/arm-none-eabi/9.2.1/thumb/v6-m/nofp\libgcc.a(_thumb1_case_shi.o)
                0x0800044c                __gnu_thumb1_case_shi
 *(.text*)
 .text.EPD_init_Full
                0x08000460      0x84c CMakeFiles/L-ink_Card.elf.dir/BSP/Display_EPD_W21.c.obj
                0x08000460                EpdInitFull
 .text.EPD_Dis_Full
                0x08000cac      0x4ac CMakeFiles/L-ink_Card.elf.dir/BSP/Display_EPD_W21.c.obj
                0x08000cac                EpdDisFull
 .text.MX_NFC_Process
                0x08001158       0xb4 CMakeFiles/L-ink_Card.elf.dir/BSP/app_nfc.c.obj
                0x08001158                MX_NFC_Process
 .text.MX_NFC4_MAILBOX_Init
                0x0800120c       0xe8 CMakeFiles/L-ink_Card.elf.dir/BSP/app_nfc.c.obj
                0x0800120c                MX_NFC4_MAILBOX_Init
 .text.MX_NFC_Init
                0x080012f4        0x8 CMakeFiles/L-ink_Card.elf.dir/BSP/app_nfc.c.obj
                0x080012f4                MX_NFC_Init
 .text.BSP_GPO_Callback
                0x080012fc        0xc CMakeFiles/L-ink_Card.elf.dir/BSP/app_nfc.c.obj
                0x080012fc                BSP_GPO_Callback
 .text.ST25DV_IsDeviceReady
                0x08001308        0xc CMakeFiles/L-ink_Card.elf.dir/Drivers/BSP/Components/ST25DV/st25dv.c.obj
                0x08001308                ST25DV_IsDeviceReady
 .text.ST25DV_ReadData
                0x08001314       0x10 CMakeFiles/L-ink_Card.elf.dir/Drivers/BSP/Components/ST25DV/st25dv.c.obj
                0x08001314                ST25DV_ReadData
 .text.ST25DV_WriteData
                0x08001324       0x90 CMakeFiles/L-ink_Card.elf.dir/Drivers/BSP/Components/ST25DV/st25dv.c.obj
                0x08001324                ST25DV_WriteData
 .text.ST25DV_ReadID
                0x080013b4        0xc CMakeFiles/L-ink_Card.elf.dir/Drivers/BSP/Components/ST25DV/st25dv.c.obj
                0x080013b4                ST25DV_ReadID
 .text.ST25DV_Init
                0x080013c0       0x34 CMakeFiles/L-ink_Card.elf.dir/Drivers/BSP/Components/ST25DV/st25dv.c.obj
                0x080013c0                ST25DV_Init
 .text.ST25DV_GetGPOStatus
                0x080013f4       0x20 CMakeFiles/L-ink_Card.elf.dir/Drivers/BSP/Components/ST25DV/st25dv.c.obj
                0x080013f4                ST25DV_GetGPOStatus
 .text.ST25DV_ConfigureGPO
                0x08001414       0x18 CMakeFiles/L-ink_Card.elf.dir/Drivers/BSP/Components/ST25DV/st25dv.c.obj
                0x08001414                ST25DV_ConfigureGPO
 .text.ReadRegWrap
                0x0800142c       0x18 CMakeFiles/L-ink_Card.elf.dir/Drivers/BSP/Components/ST25DV/st25dv.c.obj
 .text.WriteRegWrap
                0x08001444       0x50 CMakeFiles/L-ink_Card.elf.dir/Drivers/BSP/Components/ST25DV/st25dv.c.obj
 .text.ST25DV_RegisterBusIO
                0x08001494       0x44 CMakeFiles/L-ink_Card.elf.dir/Drivers/BSP/Components/ST25DV/st25dv.c.obj
                0x08001494                ST25DV_RegisterBusIO
 .text.ST25DV_WriteRegister
                0x080014d8       0xa4 CMakeFiles/L-ink_Card.elf.dir/Drivers/BSP/Components/ST25DV/st25dv.c.obj
                0x080014d8                ST25DV_WriteRegister
 .text.ST25DV_PresentI2CPassword
                0x0800157c       0x40 CMakeFiles/L-ink_Card.elf.dir/Drivers/BSP/Components/ST25DV/st25dv.c.obj
                0x0800157c                ST25DV_PresentI2CPassword
 .text.ST25DV_WriteEHMode
                0x080015bc       0x18 CMakeFiles/L-ink_Card.elf.dir/Drivers/BSP/Components/ST25DV/st25dv.c.obj
                0x080015bc                ST25DV_WriteEHMode
 .text.ST25DV_ReadMBMode
                0x080015d4       0x28 CMakeFiles/L-ink_Card.elf.dir/Drivers/BSP/Components/ST25DV/st25dv.c.obj
                0x080015d4                ST25DV_ReadMBMode
 .text.ST25DV_WriteMBMode
                0x080015fc       0x18 CMakeFiles/L-ink_Card.elf.dir/Drivers/BSP/Components/ST25DV/st25dv.c.obj
                0x080015fc                ST25DV_WriteMBMode
 .text.ST25DV_ReadMailboxData
                0x08001614       0x28 CMakeFiles/L-ink_Card.elf.dir/Drivers/BSP/Components/ST25DV/st25dv.c.obj
                0x08001614                ST25DV_ReadMailboxData
 .text.ST25DV_ReadI2CSecuritySession_Dyn
                0x0800163c       0x28 CMakeFiles/L-ink_Card.elf.dir/Drivers/BSP/Components/ST25DV/st25dv.c.obj
                0x0800163c                ST25DV_ReadI2CSecuritySession_Dyn
 .text.ST25DV_SetEHENMode_Dyn
                0x08001664       0x18 CMakeFiles/L-ink_Card.elf.dir/Drivers/BSP/Components/ST25DV/st25dv.c.obj
                0x08001664                ST25DV_SetEHENMode_Dyn
 .text.ST25DV_ReadMBCtrl_Dyn
                0x0800167c       0x40 CMakeFiles/L-ink_Card.elf.dir/Drivers/BSP/Components/ST25DV/st25dv.c.obj
                0x0800167c                ST25DV_ReadMBCtrl_Dyn
 .text.ST25DV_SetMBEN_Dyn
                0x080016bc       0x18 CMakeFiles/L-ink_Card.elf.dir/Drivers/BSP/Components/ST25DV/st25dv.c.obj
                0x080016bc                ST25DV_SetMBEN_Dyn
 .text.ST25DV_ReadMBLength_Dyn
                0x080016d4        0xc CMakeFiles/L-ink_Card.elf.dir/Drivers/BSP/Components/ST25DV/st25dv.c.obj
                0x080016d4                ST25DV_ReadMBLength_Dyn
 .text.ST25DV_GetICREF
                0x080016e0       0x18 CMakeFiles/L-ink_Card.elf.dir/Drivers/BSP/Components/ST25DV/st25dv_reg.c.obj
                0x080016e0                ST25DV_GetICREF
 .text.ST25DV_GetMB_MODE_RW
                0x080016f8       0x28 CMakeFiles/L-ink_Card.elf.dir/Drivers/BSP/Components/ST25DV/st25dv_reg.c.obj
                0x080016f8                ST25DV_GetMB_MODE_RW
 .text.ST25DV_SetMB_MODE_RW
                0x08001720       0x48 CMakeFiles/L-ink_Card.elf.dir/Drivers/BSP/Components/ST25DV/st25dv_reg.c.obj
                0x08001720                ST25DV_SetMB_MODE_RW
 .text.ST25DV_GetMBLEN_DYN_MBLEN
                0x08001768       0x1c CMakeFiles/L-ink_Card.elf.dir/Drivers/BSP/Components/ST25DV/st25dv_reg.c.obj
                0x08001768                ST25DV_GetMBLEN_DYN_MBLEN
 .text.ST25DV_SetMB_CTRL_DYN_MBEN
                0x08001784       0x4c CMakeFiles/L-ink_Card.elf.dir/Drivers/BSP/Components/ST25DV/st25dv_reg.c.obj
                0x08001784                ST25DV_SetMB_CTRL_DYN_MBEN
 .text.ST25DV_GetMB_CTRL_DYN_ALL
                0x080017d0       0x1c CMakeFiles/L-ink_Card.elf.dir/Drivers/BSP/Components/ST25DV/st25dv_reg.c.obj
                0x080017d0                ST25DV_GetMB_CTRL_DYN_ALL
 .text.ST25DV_GetGPO_ALL
                0x080017ec       0x18 CMakeFiles/L-ink_Card.elf.dir/Drivers/BSP/Components/ST25DV/st25dv_reg.c.obj
                0x080017ec                ST25DV_GetGPO_ALL
 .text.ST25DV_SetGPO_ALL
                0x08001804       0x18 CMakeFiles/L-ink_Card.elf.dir/Drivers/BSP/Components/ST25DV/st25dv_reg.c.obj
                0x08001804                ST25DV_SetGPO_ALL
 .text.ST25DV_SetEH_MODE
                0x0800181c       0x48 CMakeFiles/L-ink_Card.elf.dir/Drivers/BSP/Components/ST25DV/st25dv_reg.c.obj
                0x0800181c                ST25DV_SetEH_MODE
 .text.ST25DV_SetEH_CTRL_DYN_EH_EN
                0x08001864       0x4c CMakeFiles/L-ink_Card.elf.dir/Drivers/BSP/Components/ST25DV/st25dv_reg.c.obj
                0x08001864                ST25DV_SetEH_CTRL_DYN_EH_EN
 .text.ST25DV_GetI2C_SSO_DYN_I2CSSO
                0x080018b0       0x2c CMakeFiles/L-ink_Card.elf.dir/Drivers/BSP/Components/ST25DV/st25dv_reg.c.obj
                0x080018b0                ST25DV_GetI2C_SSO_DYN_I2CSSO
 .text.NFC04A1_GPO_Init
                0x080018dc       0x58 CMakeFiles/L-ink_Card.elf.dir/Drivers/BSP/NFC04A1/nfc04a1.c.obj
                0x080018dc                NFC04A1_GPO_Init
 .text.NFC04A1_NFCTAG_Init
                0x08001934       0x78 CMakeFiles/L-ink_Card.elf.dir/Drivers/BSP/NFC04A1/nfc04a1_nfctag.c.obj
                0x08001934                NFC04A1_NFCTAG_Init
 .text.NFC04A1_NFCTAG_ConfigIT
                0x080019ac       0x20 CMakeFiles/L-ink_Card.elf.dir/Drivers/BSP/NFC04A1/nfc04a1_nfctag.c.obj
                0x080019ac                NFC04A1_NFCTAG_ConfigIT
 .text.NFC04A1_NFCTAG_PresentI2CPassword
                0x080019cc       0x14 CMakeFiles/L-ink_Card.elf.dir/Drivers/BSP/NFC04A1/nfc04a1_nfctag.c.obj
                0x080019cc                NFC04A1_NFCTAG_PresentI2CPassword
 .text.NFC04A1_NFCTAG_WriteEHMode
                0x080019e0       0x10 CMakeFiles/L-ink_Card.elf.dir/Drivers/BSP/NFC04A1/nfc04a1_nfctag.c.obj
                0x080019e0                NFC04A1_NFCTAG_WriteEHMode
 .text.NFC04A1_NFCTAG_ReadMBMode
                0x080019f0       0x10 CMakeFiles/L-ink_Card.elf.dir/Drivers/BSP/NFC04A1/nfc04a1_nfctag.c.obj
                0x080019f0                NFC04A1_NFCTAG_ReadMBMode
 .text.NFC04A1_NFCTAG_WriteMBMode
                0x08001a00       0x10 CMakeFiles/L-ink_Card.elf.dir/Drivers/BSP/NFC04A1/nfc04a1_nfctag.c.obj
                0x08001a00                NFC04A1_NFCTAG_WriteMBMode
 .text.NFC04A1_NFCTAG_ReadMailboxData
                0x08001a10       0x10 CMakeFiles/L-ink_Card.elf.dir/Drivers/BSP/NFC04A1/nfc04a1_nfctag.c.obj
                0x08001a10                NFC04A1_NFCTAG_ReadMailboxData
 .text.NFC04A1_NFCTAG_ReadI2CSecuritySession_Dyn
                0x08001a20       0x10 CMakeFiles/L-ink_Card.elf.dir/Drivers/BSP/NFC04A1/nfc04a1_nfctag.c.obj
                0x08001a20                NFC04A1_NFCTAG_ReadI2CSecuritySession_Dyn
 .text.NFC04A1_NFCTAG_SetEHENMode_Dyn
                0x08001a30       0x10 CMakeFiles/L-ink_Card.elf.dir/Drivers/BSP/NFC04A1/nfc04a1_nfctag.c.obj
                0x08001a30                NFC04A1_NFCTAG_SetEHENMode_Dyn
 .text.NFC04A1_NFCTAG_ReadMBCtrl_Dyn
                0x08001a40       0x10 CMakeFiles/L-ink_Card.elf.dir/Drivers/BSP/NFC04A1/nfc04a1_nfctag.c.obj
                0x08001a40                NFC04A1_NFCTAG_ReadMBCtrl_Dyn
 .text.NFC04A1_NFCTAG_SetMBEN_Dyn
                0x08001a50       0x10 CMakeFiles/L-ink_Card.elf.dir/Drivers/BSP/NFC04A1/nfc04a1_nfctag.c.obj
                0x08001a50                NFC04A1_NFCTAG_SetMBEN_Dyn
 .text.NFC04A1_NFCTAG_ReadMBLength_Dyn
                0x08001a60       0x10 CMakeFiles/L-ink_Card.elf.dir/Drivers/BSP/NFC04A1/nfc04a1_nfctag.c.obj
                0x08001a60                NFC04A1_NFCTAG_ReadMBLength_Dyn
 .text.HAL_InitTick
                0x08001a70       0x30 CMakeFiles/L-ink_Card.elf.dir/Drivers/STM32L0xx_HAL_Driver/Src/stm32l0xx_hal.c.obj
                0x08001a70                HAL_InitTick
 .text.HAL_Init
                0x08001aa0       0x28 CMakeFiles/L-ink_Card.elf.dir/Drivers/STM32L0xx_HAL_Driver/Src/stm32l0xx_hal.c.obj
                0x08001aa0                HAL_Init
 .text.HAL_IncTick
                0x08001ac8       0x10 CMakeFiles/L-ink_Card.elf.dir/Drivers/STM32L0xx_HAL_Driver/Src/stm32l0xx_hal.c.obj
                0x08001ac8                HAL_IncTick
 .text.HAL_GetTick
                0x08001ad8        0xc CMakeFiles/L-ink_Card.elf.dir/Drivers/STM32L0xx_HAL_Driver/Src/stm32l0xx_hal.c.obj
                0x08001ad8                HAL_GetTick
 .text.HAL_Delay
                0x08001ae4       0x20 CMakeFiles/L-ink_Card.elf.dir/Drivers/STM32L0xx_HAL_Driver/Src/stm32l0xx_hal.c.obj
                0x08001ae4                HAL_Delay
 .text.HAL_NVIC_SetPriority
                0x08001b04       0x64 CMakeFiles/L-ink_Card.elf.dir/Drivers/STM32L0xx_HAL_Driver/Src/stm32l0xx_hal_cortex.c.obj
                0x08001b04                HAL_NVIC_SetPriority
 .text.HAL_NVIC_EnableIRQ
                0x08001b68       0x14 CMakeFiles/L-ink_Card.elf.dir/Drivers/STM32L0xx_HAL_Driver/Src/stm32l0xx_hal_cortex.c.obj
                0x08001b68                HAL_NVIC_EnableIRQ
 .text.HAL_SYSTICK_Config
                0x08001b7c       0x34 CMakeFiles/L-ink_Card.elf.dir/Drivers/STM32L0xx_HAL_Driver/Src/stm32l0xx_hal_cortex.c.obj
                0x08001b7c                HAL_SYSTICK_Config
 .text.HAL_GPIO_Init
                0x08001bb0      0x1f8 CMakeFiles/L-ink_Card.elf.dir/Drivers/STM32L0xx_HAL_Driver/Src/stm32l0xx_hal_gpio.c.obj
                0x08001bb0                HAL_GPIO_Init
 .text.HAL_GPIO_DeInit
                0x08001da8      0x130 CMakeFiles/L-ink_Card.elf.dir/Drivers/STM32L0xx_HAL_Driver/Src/stm32l0xx_hal_gpio.c.obj
                0x08001da8                HAL_GPIO_DeInit
 .text.HAL_GPIO_ReadPin
                0x08001ed8        0xc CMakeFiles/L-ink_Card.elf.dir/Drivers/STM32L0xx_HAL_Driver/Src/stm32l0xx_hal_gpio.c.obj
                0x08001ed8                HAL_GPIO_ReadPin
 .text.HAL_GPIO_WritePin
                0x08001ee4        0xc CMakeFiles/L-ink_Card.elf.dir/Drivers/STM32L0xx_HAL_Driver/Src/stm32l0xx_hal_gpio.c.obj
                0x08001ee4                HAL_GPIO_WritePin
 .text.I2C_WaitOnTXISFlagUntilTimeout
                0x08001ef0       0xc4 CMakeFiles/L-ink_Card.elf.dir/Drivers/STM32L0xx_HAL_Driver/Src/stm32l0xx_hal_i2c.c.obj
 .text.I2C_WaitOnSTOPFlagUntilTimeout
                0x08001fb4       0xd0 CMakeFiles/L-ink_Card.elf.dir/Drivers/STM32L0xx_HAL_Driver/Src/stm32l0xx_hal_i2c.c.obj
 .text.HAL_I2C_MspInit
                0x08002084        0x4 CMakeFiles/L-ink_Card.elf.dir/Drivers/STM32L0xx_HAL_Driver/Src/stm32l0xx_hal_i2c.c.obj
                0x08002084                HAL_I2C_MspInit
 .text.HAL_I2C_Init
                0x08002088       0xb4 CMakeFiles/L-ink_Card.elf.dir/Drivers/STM32L0xx_HAL_Driver/Src/stm32l0xx_hal_i2c.c.obj
                0x08002088                HAL_I2C_Init
 .text.HAL_I2C_MspDeInit
                0x0800213c        0x4 CMakeFiles/L-ink_Card.elf.dir/Drivers/STM32L0xx_HAL_Driver/Src/stm32l0xx_hal_i2c.c.obj
                0x0800213c                HAL_I2C_MspDeInit
 .text.HAL_I2C_DeInit
                0x08002140       0x34 CMakeFiles/L-ink_Card.elf.dir/Drivers/STM32L0xx_HAL_Driver/Src/stm32l0xx_hal_i2c.c.obj
                0x08002140                HAL_I2C_DeInit
 .text.HAL_I2C_Mem_Write
                0x08002174      0x264 CMakeFiles/L-ink_Card.elf.dir/Drivers/STM32L0xx_HAL_Driver/Src/stm32l0xx_hal_i2c.c.obj
                0x08002174                HAL_I2C_Mem_Write
 .text.HAL_I2C_Mem_Read
                0x080023d8      0x294 CMakeFiles/L-ink_Card.elf.dir/Drivers/STM32L0xx_HAL_Driver/Src/stm32l0xx_hal_i2c.c.obj
                0x080023d8                HAL_I2C_Mem_Read
 .text.HAL_I2C_IsDeviceReady
                0x0800266c      0x1b8 CMakeFiles/L-ink_Card.elf.dir/Drivers/STM32L0xx_HAL_Driver/Src/stm32l0xx_hal_i2c.c.obj
                0x0800266c                HAL_I2C_IsDeviceReady
 .text.HAL_I2C_GetState
                0x08002824        0x8 CMakeFiles/L-ink_Card.elf.dir/Drivers/STM32L0xx_HAL_Driver/Src/stm32l0xx_hal_i2c.c.obj
                0x08002824                HAL_I2C_GetState
 .text.HAL_I2C_GetError
                0x0800282c        0x4 CMakeFiles/L-ink_Card.elf.dir/Drivers/STM32L0xx_HAL_Driver/Src/stm32l0xx_hal_i2c.c.obj
                0x0800282c                HAL_I2C_GetError
 .text.HAL_I2CEx_ConfigAnalogFilter
                0x08002830       0x50 CMakeFiles/L-ink_Card.elf.dir/Drivers/STM32L0xx_HAL_Driver/Src/stm32l0xx_hal_i2c_ex.c.obj
                0x08002830                HAL_I2CEx_ConfigAnalogFilter
 .text.HAL_I2CEx_ConfigDigitalFilter
                0x08002880       0x4c CMakeFiles/L-ink_Card.elf.dir/Drivers/STM32L0xx_HAL_Driver/Src/stm32l0xx_hal_i2c_ex.c.obj
                0x08002880                HAL_I2CEx_ConfigDigitalFilter
 .text.HAL_RCC_GetSysClockFreq
                0x080028cc       0xa8 CMakeFiles/L-ink_Card.elf.dir/Drivers/STM32L0xx_HAL_Driver/Src/stm32l0xx_hal_rcc.c.obj
                0x080028cc                HAL_RCC_GetSysClockFreq
 .text.HAL_RCC_OscConfig
                0x08002974      0x54c CMakeFiles/L-ink_Card.elf.dir/Drivers/STM32L0xx_HAL_Driver/Src/stm32l0xx_hal_rcc.c.obj
                0x08002974                HAL_RCC_OscConfig
 .text.HAL_RCC_ClockConfig
                0x08002ec0      0x190 CMakeFiles/L-ink_Card.elf.dir/Drivers/STM32L0xx_HAL_Driver/Src/stm32l0xx_hal_rcc.c.obj
                0x08002ec0                HAL_RCC_ClockConfig
 .text.HAL_RCC_GetPCLK1Freq
                0x08003050       0x20 CMakeFiles/L-ink_Card.elf.dir/Drivers/STM32L0xx_HAL_Driver/Src/stm32l0xx_hal_rcc.c.obj
                0x08003050                HAL_RCC_GetPCLK1Freq
 .text.HAL_RCC_GetPCLK2Freq
                0x08003070       0x20 CMakeFiles/L-ink_Card.elf.dir/Drivers/STM32L0xx_HAL_Driver/Src/stm32l0xx_hal_rcc.c.obj
                0x08003070                HAL_RCC_GetPCLK2Freq
 .text.HAL_RCCEx_PeriphCLKConfig
                0x08003090      0x1e4 CMakeFiles/L-ink_Card.elf.dir/Drivers/STM32L0xx_HAL_Driver/Src/stm32l0xx_hal_rcc_ex.c.obj
                0x08003090                HAL_RCCEx_PeriphCLKConfig
 .text.UART_AdvFeatureConfig
                0x08003274       0xd0 CMakeFiles/L-ink_Card.elf.dir/Drivers/STM32L0xx_HAL_Driver/Src/stm32l0xx_hal_uart.c.obj
                0x08003274                UART_AdvFeatureConfig
 .text.UART_CheckIdleState
                0x08003344       0x9c CMakeFiles/L-ink_Card.elf.dir/Drivers/STM32L0xx_HAL_Driver/Src/stm32l0xx_hal_uart.c.obj
                0x08003344                UART_CheckIdleState
 .text.HAL_UART_Init
                0x080033e0      0x2e4 CMakeFiles/L-ink_Card.elf.dir/Drivers/STM32L0xx_HAL_Driver/Src/stm32l0xx_hal_uart.c.obj
                0x080033e0                HAL_UART_Init
 .text.BSP_I2C1_DeInit
                0x080036c4       0x4c CMakeFiles/L-ink_Card.elf.dir/Src/custom_bus.c.obj
                0x080036c4                BSP_I2C1_DeInit
 .text.BSP_I2C1_IsReady
                0x08003710       0x24 CMakeFiles/L-ink_Card.elf.dir/Src/custom_bus.c.obj
                0x08003710                BSP_I2C1_IsReady
 .text.BSP_I2C1_WriteReg16
                0x08003734       0x44 CMakeFiles/L-ink_Card.elf.dir/Src/custom_bus.c.obj
                0x08003734                BSP_I2C1_WriteReg16
 .text.BSP_I2C1_ReadReg16
                0x08003778       0x44 CMakeFiles/L-ink_Card.elf.dir/Src/custom_bus.c.obj
                0x08003778                BSP_I2C1_ReadReg16
 .text.MX_I2C1_Init
                0x080037bc       0x50 CMakeFiles/L-ink_Card.elf.dir/Src/custom_bus.c.obj
                0x080037bc                MX_I2C1_Init
 .text.BSP_I2C1_Init
                0x0800380c       0x90 CMakeFiles/L-ink_Card.elf.dir/Src/custom_bus.c.obj
                0x0800380c                BSP_I2C1_Init
 .text.MX_GPIO_Init
                0x0800389c      0x118 CMakeFiles/L-ink_Card.elf.dir/Src/gpio.c.obj
                0x0800389c                MX_GPIO_Init
 .text.SystemClock_Config
                0x080039b4       0x7c CMakeFiles/L-ink_Card.elf.dir/Src/main.c.obj
                0x080039b4                SystemClock_Config
 .text.startup.main
                0x08003a30       0x20 CMakeFiles/L-ink_Card.elf.dir/Src/main.c.obj
                0x08003a30                main
 .text.Error_Handler
                0x08003a50        0x4 CMakeFiles/L-ink_Card.elf.dir/Src/main.c.obj
                0x08003a50                Error_Handler
 .text.HAL_EXTI_RegisterCallback
                0x08003a54       0x10 CMakeFiles/L-ink_Card.elf.dir/Src/stm32l0xx_hal_exti.c.obj
                0x08003a54                HAL_EXTI_RegisterCallback
 .text.HAL_EXTI_GetHandle
                0x08003a64       0x10 CMakeFiles/L-ink_Card.elf.dir/Src/stm32l0xx_hal_exti.c.obj
                0x08003a64                HAL_EXTI_GetHandle
 .text.HAL_EXTI_IRQHandler
                0x08003a74       0x24 CMakeFiles/L-ink_Card.elf.dir/Src/stm32l0xx_hal_exti.c.obj
                0x08003a74                HAL_EXTI_IRQHandler
 .text.HAL_MspInit
                0x08003a98       0x1c CMakeFiles/L-ink_Card.elf.dir/Src/stm32l0xx_hal_msp.c.obj
                0x08003a98                HAL_MspInit
 .text.NMI_Handler
                0x08003ab4        0x4 CMakeFiles/L-ink_Card.elf.dir/Src/stm32l0xx_it.c.obj
                0x08003ab4                NMI_Handler
 .text.HardFault_Handler
                0x08003ab8        0x4 CMakeFiles/L-ink_Card.elf.dir/Src/stm32l0xx_it.c.obj
                0x08003ab8                HardFault_Handler
 .text.SVC_Handler
                0x08003abc        0x4 CMakeFiles/L-ink_Card.elf.dir/Src/stm32l0xx_it.c.obj
                0x08003abc                SVC_Handler
 .text.PendSV_Handler
                0x08003ac0        0x4 CMakeFiles/L-ink_Card.elf.dir/Src/stm32l0xx_it.c.obj
                0x08003ac0                PendSV_Handler
 .text.SysTick_Handler
                0x08003ac4        0x8 CMakeFiles/L-ink_Card.elf.dir/Src/stm32l0xx_it.c.obj
                0x08003ac4                SysTick_Handler
 .text.EXTI2_3_IRQHandler
                0x08003acc       0x10 CMakeFiles/L-ink_Card.elf.dir/Src/stm32l0xx_it.c.obj
                0x08003acc                EXTI2_3_IRQHandler
 .text._read    0x08003adc       0x1c CMakeFiles/L-ink_Card.elf.dir/Src/syscalls.c.obj
                0x08003adc                _read
 .text._write   0x08003af8       0x1c CMakeFiles/L-ink_Card.elf.dir/Src/syscalls.c.obj
                0x08003af8                _write
 .text._sbrk    0x08003b14       0x3c CMakeFiles/L-ink_Card.elf.dir/Src/syscalls.c.obj
                0x08003b14                _sbrk
 .text._close   0x08003b50        0x8 CMakeFiles/L-ink_Card.elf.dir/Src/syscalls.c.obj
                0x08003b50                _close
 .text._fstat   0x08003b58        0xc CMakeFiles/L-ink_Card.elf.dir/Src/syscalls.c.obj
                0x08003b58                _fstat
 .text._isatty  0x08003b64        0x4 CMakeFiles/L-ink_Card.elf.dir/Src/syscalls.c.obj
                0x08003b64                _isatty
 .text._lseek   0x08003b68        0x4 CMakeFiles/L-ink_Card.elf.dir/Src/syscalls.c.obj
                0x08003b68                _lseek
 .text.SystemInit
                0x08003b6c       0x5c CMakeFiles/L-ink_Card.elf.dir/Src/system_stm32l0xx.c.obj
                0x08003b6c                SystemInit
 .text.MX_USART1_UART_Init
                0x08003bc8       0x3c CMakeFiles/L-ink_Card.elf.dir/Src/usart.c.obj
                0x08003bc8                MX_USART1_UART_Init
 .text.HAL_UART_MspInit
                0x08003c04       0x64 CMakeFiles/L-ink_Card.elf.dir/Src/usart.c.obj
                0x08003c04                HAL_UART_MspInit
 .text.Reset_Handler
                0x08003c68       0x50 CMakeFiles/L-ink_Card.elf.dir/startup/startup_stm32l051xx.s.obj
                0x08003c68                Reset_Handler
 .text.Default_Handler
                0x08003cb8        0x2 CMakeFiles/L-ink_Card.elf.dir/startup/startup_stm32l051xx.s.obj
                0x08003cb8                ADC1_COMP_IRQHandler
                0x08003cb8                TIM6_IRQHandler
                0x08003cb8                PVD_IRQHandler
                0x08003cb8                I2C1_IRQHandler
                0x08003cb8                SPI1_IRQHandler
                0x08003cb8                I2C2_IRQHandler
                0x08003cb8                RTC_IRQHandler
                0x08003cb8                DMA1_Channel4_5_6_7_IRQHandler
                0x08003cb8                EXTI4_15_IRQHandler
                0x08003cb8                RCC_IRQHandler
                0x08003cb8                DMA1_Channel1_IRQHandler
                0x08003cb8                Default_Handler
                0x08003cb8                TIM22_IRQHandler
                0x08003cb8                EXTI0_1_IRQHandler
                0x08003cb8                SPI2_IRQHandler
                0x08003cb8                TIM21_IRQHandler
                0x08003cb8                WWDG_IRQHandler
                0x08003cb8                LPUART1_IRQHandler
                0x08003cb8                TIM2_IRQHandler
                0x08003cb8                DMA1_Channel2_3_IRQHandler
                0x08003cb8                USART2_IRQHandler
                0x08003cb8                FLASH_IRQHandler
                0x08003cb8                USART1_IRQHandler
                0x08003cb8                LPTIM1_IRQHandler
 *fill*         0x08003cba        0x2 
 .text.__errno  0x08003cbc        0xc d:/progra~2/stm32c~1/gnu-to~1/bin/../lib/gcc/arm-none-eabi/9.2.1/../../../../arm-none-eabi/lib/thumb/v6-m/nofp\libg_nano.a(lib_a-errno.o)
                0x08003cbc                __errno
 .text.__libc_init_array
                0x08003cc8       0x48 d:/progra~2/stm32c~1/gnu-to~1/bin/../lib/gcc/arm-none-eabi/9.2.1/../../../../arm-none-eabi/lib/thumb/v6-m/nofp\libg_nano.a(lib_a-init.o)
                0x08003cc8                __libc_init_array
 .text.memset   0x08003d10       0x10 d:/progra~2/stm32c~1/gnu-to~1/bin/../lib/gcc/arm-none-eabi/9.2.1/../../../../arm-none-eabi/lib/thumb/v6-m/nofp\libg_nano.a(lib_a-memset.o)
                0x08003d10                memset
 .text.printf   0x08003d20       0x34 d:/progra~2/stm32c~1/gnu-to~1/bin/../lib/gcc/arm-none-eabi/9.2.1/../../../../arm-none-eabi/lib/thumb/v6-m/nofp\libg_nano.a(lib_a-printf.o)
                0x08003d20                iprintf
                0x08003d20                printf
 .text.std      0x08003d54       0x48 d:/progra~2/stm32c~1/gnu-to~1/bin/../lib/gcc/arm-none-eabi/9.2.1/../../../../arm-none-eabi/lib/thumb/v6-m/nofp\libg_nano.a(lib_a-findfp.o)
 .text._cleanup_r
                0x08003d9c       0x10 d:/progra~2/stm32c~1/gnu-to~1/bin/../lib/gcc/arm-none-eabi/9.2.1/../../../../arm-none-eabi/lib/thumb/v6-m/nofp\libg_nano.a(lib_a-findfp.o)
                0x08003d9c                _cleanup_r
 .text.__sfmoreglue
                0x08003dac       0x2c d:/progra~2/stm32c~1/gnu-to~1/bin/../lib/gcc/arm-none-eabi/9.2.1/../../../../arm-none-eabi/lib/thumb/v6-m/nofp\libg_nano.a(lib_a-findfp.o)
                0x08003dac                __sfmoreglue
 .text.__sfp_lock_acquire
                0x08003dd8       0x10 d:/progra~2/stm32c~1/gnu-to~1/bin/../lib/gcc/arm-none-eabi/9.2.1/../../../../arm-none-eabi/lib/thumb/v6-m/nofp\libg_nano.a(lib_a-findfp.o)
                0x08003dd8                __sfp_lock_acquire
 .text.__sfp_lock_release
                0x08003de8       0x10 d:/progra~2/stm32c~1/gnu-to~1/bin/../lib/gcc/arm-none-eabi/9.2.1/../../../../arm-none-eabi/lib/thumb/v6-m/nofp\libg_nano.a(lib_a-findfp.o)
                0x08003de8                __sfp_lock_release
 .text.__sinit_lock_acquire
                0x08003df8       0x10 d:/progra~2/stm32c~1/gnu-to~1/bin/../lib/gcc/arm-none-eabi/9.2.1/../../../../arm-none-eabi/lib/thumb/v6-m/nofp\libg_nano.a(lib_a-findfp.o)
                0x08003df8                __sinit_lock_acquire
 .text.__sinit_lock_release
                0x08003e08       0x10 d:/progra~2/stm32c~1/gnu-to~1/bin/../lib/gcc/arm-none-eabi/9.2.1/../../../../arm-none-eabi/lib/thumb/v6-m/nofp\libg_nano.a(lib_a-findfp.o)
                0x08003e08                __sinit_lock_release
 .text.__sinit  0x08003e18       0x70 d:/progra~2/stm32c~1/gnu-to~1/bin/../lib/gcc/arm-none-eabi/9.2.1/../../../../arm-none-eabi/lib/thumb/v6-m/nofp\libg_nano.a(lib_a-findfp.o)
                0x08003e18                __sinit
 .text.__sfp    0x08003e88       0x90 d:/progra~2/stm32c~1/gnu-to~1/bin/../lib/gcc/arm-none-eabi/9.2.1/../../../../arm-none-eabi/lib/thumb/v6-m/nofp\libg_nano.a(lib_a-findfp.o)
                0x08003e88                __sfp
 .text._fwalk_reent
                0x08003f18       0x40 d:/progra~2/stm32c~1/gnu-to~1/bin/../lib/gcc/arm-none-eabi/9.2.1/../../../../arm-none-eabi/lib/thumb/v6-m/nofp\libg_nano.a(lib_a-fwalk.o)
                0x08003f18                _fwalk_reent
 .text.__retarget_lock_init_recursive
                0x08003f58        0x2 d:/progra~2/stm32c~1/gnu-to~1/bin/../lib/gcc/arm-none-eabi/9.2.1/../../../../arm-none-eabi/lib/thumb/v6-m/nofp\libg_nano.a(lib_a-lock.o)
                0x08003f58                __retarget_lock_init_recursive
 .text.__retarget_lock_acquire_recursive
                0x08003f5a        0x2 d:/progra~2/stm32c~1/gnu-to~1/bin/../lib/gcc/arm-none-eabi/9.2.1/../../../../arm-none-eabi/lib/thumb/v6-m/nofp\libg_nano.a(lib_a-lock.o)
                0x08003f5a                __retarget_lock_acquire_recursive
 .text.__retarget_lock_release_recursive
                0x08003f5c        0x2 d:/progra~2/stm32c~1/gnu-to~1/bin/../lib/gcc/arm-none-eabi/9.2.1/../../../../arm-none-eabi/lib/thumb/v6-m/nofp\libg_nano.a(lib_a-lock.o)
                0x08003f5c                __retarget_lock_release_recursive
 *fill*         0x08003f5e        0x2 
 .text._malloc_r
                0x08003f60       0xbc d:/progra~2/stm32c~1/gnu-to~1/bin/../lib/gcc/arm-none-eabi/9.2.1/../../../../arm-none-eabi/lib/thumb/v6-m/nofp\libg_nano.a(lib_a-nano-mallocr.o)
                0x08003f60                _malloc_r
 .text.__sfputc_r
                0x0800401c       0x2a d:/progra~2/stm32c~1/gnu-to~1/bin/../lib/gcc/arm-none-eabi/9.2.1/../../../../arm-none-eabi/lib/thumb/v6-m/nofp\libg_nano.a(lib_a-nano-vfprintf.o)
 .text.__sfputs_r
                0x08004046       0x24 d:/progra~2/stm32c~1/gnu-to~1/bin/../lib/gcc/arm-none-eabi/9.2.1/../../../../arm-none-eabi/lib/thumb/v6-m/nofp\libg_nano.a(lib_a-nano-vfprintf.o)
                0x08004046                __sfputs_r
 *fill*         0x0800406a        0x2 
 .text._vfprintf_r
                0x0800406c      0x274 d:/progra~2/stm32c~1/gnu-to~1/bin/../lib/gcc/arm-none-eabi/9.2.1/../../../../arm-none-eabi/lib/thumb/v6-m/nofp\libg_nano.a(lib_a-nano-vfprintf.o)
                0x0800406c                _vfprintf_r
                0x0800406c                _vfiprintf_r
 .text._printf_common
                0x080042e0       0xde d:/progra~2/stm32c~1/gnu-to~1/bin/../lib/gcc/arm-none-eabi/9.2.1/../../../../arm-none-eabi/lib/thumb/v6-m/nofp\libg_nano.a(lib_a-nano-vfprintf_i.o)
                0x080042e0                _printf_common
 *fill*         0x080043be        0x2 
 .text._printf_i
                0x080043c0      0x224 d:/progra~2/stm32c~1/gnu-to~1/bin/../lib/gcc/arm-none-eabi/9.2.1/../../../../arm-none-eabi/lib/thumb/v6-m/nofp\libg_nano.a(lib_a-nano-vfprintf_i.o)
                0x080043c0                _printf_i
 .text._sbrk_r  0x080045e4       0x24 d:/progra~2/stm32c~1/gnu-to~1/bin/../lib/gcc/arm-none-eabi/9.2.1/../../../../arm-none-eabi/lib/thumb/v6-m/nofp\libg_nano.a(lib_a-sbrkr.o)
                0x080045e4                _sbrk_r
 .text.__sread  0x08004608       0x28 d:/progra~2/stm32c~1/gnu-to~1/bin/../lib/gcc/arm-none-eabi/9.2.1/../../../../arm-none-eabi/lib/thumb/v6-m/nofp\libg_nano.a(lib_a-stdio.o)
                0x08004608                __sread
 .text.__swrite
                0x08004630       0x38 d:/progra~2/stm32c~1/gnu-to~1/bin/../lib/gcc/arm-none-eabi/9.2.1/../../../../arm-none-eabi/lib/thumb/v6-m/nofp\libg_nano.a(lib_a-stdio.o)
                0x08004630                __swrite
 .text.__sseek  0x08004668       0x2c d:/progra~2/stm32c~1/gnu-to~1/bin/../lib/gcc/arm-none-eabi/9.2.1/../../../../arm-none-eabi/lib/thumb/v6-m/nofp\libg_nano.a(lib_a-stdio.o)
                0x08004668                __sseek
 .text.__sclose
                0x08004694        0xc d:/progra~2/stm32c~1/gnu-to~1/bin/../lib/gcc/arm-none-eabi/9.2.1/../../../../arm-none-eabi/lib/thumb/v6-m/nofp\libg_nano.a(lib_a-stdio.o)
                0x08004694                __sclose
 .text.__swbuf_r
                0x080046a0       0xac d:/progra~2/stm32c~1/gnu-to~1/bin/../lib/gcc/arm-none-eabi/9.2.1/../../../../arm-none-eabi/lib/thumb/v6-m/nofp\libg_nano.a(lib_a-wbuf.o)
                0x080046a0                __swbuf_r
 .text._write_r
                0x0800474c       0x28 d:/progra~2/stm32c~1/gnu-to~1/bin/../lib/gcc/arm-none-eabi/9.2.1/../../../../arm-none-eabi/lib/thumb/v6-m/nofp\libg_nano.a(lib_a-writer.o)
                0x0800474c                _write_r
 .text.__swsetup_r
                0x08004774       0xf0 d:/progra~2/stm32c~1/gnu-to~1/bin/../lib/gcc/arm-none-eabi/9.2.1/../../../../arm-none-eabi/lib/thumb/v6-m/nofp\libg_nano.a(lib_a-wsetup.o)
                0x08004774                __swsetup_r
 .text._close_r
                0x08004864       0x24 d:/progra~2/stm32c~1/gnu-to~1/bin/../lib/gcc/arm-none-eabi/9.2.1/../../../../arm-none-eabi/lib/thumb/v6-m/nofp\libg_nano.a(lib_a-closer.o)
                0x08004864                _close_r
 .text.__sflush_r
                0x08004888      0x118 d:/progra~2/stm32c~1/gnu-to~1/bin/../lib/gcc/arm-none-eabi/9.2.1/../../../../arm-none-eabi/lib/thumb/v6-m/nofp\libg_nano.a(lib_a-fflush.o)
                0x08004888                __sflush_r
 .text._fflush_r
                0x080049a0       0x80 d:/progra~2/stm32c~1/gnu-to~1/bin/../lib/gcc/arm-none-eabi/9.2.1/../../../../arm-none-eabi/lib/thumb/v6-m/nofp\libg_nano.a(lib_a-fflush.o)
                0x080049a0                _fflush_r
 .text._lseek_r
                0x08004a20       0x28 d:/progra~2/stm32c~1/gnu-to~1/bin/../lib/gcc/arm-none-eabi/9.2.1/../../../../arm-none-eabi/lib/thumb/v6-m/nofp\libg_nano.a(lib_a-lseekr.o)
                0x08004a20                _lseek_r
 .text.__swhatbuf_r
                0x08004a48       0x50 d:/progra~2/stm32c~1/gnu-to~1/bin/../lib/gcc/arm-none-eabi/9.2.1/../../../../arm-none-eabi/lib/thumb/v6-m/nofp\libg_nano.a(lib_a-makebuf.o)
                0x08004a48                __swhatbuf_r
 .text.__smakebuf_r
                0x08004a98       0x88 d:/progra~2/stm32c~1/gnu-to~1/bin/../lib/gcc/arm-none-eabi/9.2.1/../../../../arm-none-eabi/lib/thumb/v6-m/nofp\libg_nano.a(lib_a-makebuf.o)
                0x08004a98                __smakebuf_r
 .text.memchr   0x08004b20       0x16 d:/progra~2/stm32c~1/gnu-to~1/bin/../lib/gcc/arm-none-eabi/9.2.1/../../../../arm-none-eabi/lib/thumb/v6-m/nofp\libg_nano.a(lib_a-memchr-stub.o)
                0x08004b20                memchr
 *fill*         0x08004b36        0x2 
 .text.__malloc_lock
                0x08004b38       0x10 d:/progra~2/stm32c~1/gnu-to~1/bin/../lib/gcc/arm-none-eabi/9.2.1/../../../../arm-none-eabi/lib/thumb/v6-m/nofp\libg_nano.a(lib_a-mlock.o)
                0x08004b38                __malloc_lock
 .text.__malloc_unlock
                0x08004b48       0x10 d:/progra~2/stm32c~1/gnu-to~1/bin/../lib/gcc/arm-none-eabi/9.2.1/../../../../arm-none-eabi/lib/thumb/v6-m/nofp\libg_nano.a(lib_a-mlock.o)
                0x08004b48                __malloc_unlock
 .text._free_r  0x08004b58       0x94 d:/progra~2/stm32c~1/gnu-to~1/bin/../lib/gcc/arm-none-eabi/9.2.1/../../../../arm-none-eabi/lib/thumb/v6-m/nofp\libg_nano.a(lib_a-nano-freer.o)
                0x08004b58                _free_r
 .text._read_r  0x08004bec       0x28 d:/progra~2/stm32c~1/gnu-to~1/bin/../lib/gcc/arm-none-eabi/9.2.1/../../../../arm-none-eabi/lib/thumb/v6-m/nofp\libg_nano.a(lib_a-readr.o)
                0x08004bec                _read_r
 .text._fstat_r
                0x08004c14       0x24 d:/progra~2/stm32c~1/gnu-to~1/bin/../lib/gcc/arm-none-eabi/9.2.1/../../../../arm-none-eabi/lib/thumb/v6-m/nofp\libg_nano.a(lib_a-fstatr.o)
                0x08004c14                _fstat_r
 .text._isatty_r
                0x08004c38       0x24 d:/progra~2/stm32c~1/gnu-to~1/bin/../lib/gcc/arm-none-eabi/9.2.1/../../../../arm-none-eabi/lib/thumb/v6-m/nofp\libg_nano.a(lib_a-isattyr.o)
                0x08004c38                _isatty_r
 *(.glue_7)
 .glue_7        0x08004c5c        0x0 linker stubs
 *(.glue_7t)
 .glue_7t       0x08004c5c        0x0 linker stubs
 *(.eh_frame)
 .eh_frame      0x08004c5c        0x0 d:/progra~2/stm32c~1/gnu-to~1/bin/../lib/gcc/arm-none-eabi/9.2.1/thumb/v6-m/nofp/crtbegin.o
 *(.init)
 .init          0x08004c5c        0x4 d:/progra~2/stm32c~1/gnu-to~1/bin/../lib/gcc/arm-none-eabi/9.2.1/thumb/v6-m/nofp/crti.o
                0x08004c5c                _init
 .init          0x08004c60        0x8 d:/progra~2/stm32c~1/gnu-to~1/bin/../lib/gcc/arm-none-eabi/9.2.1/thumb/v6-m/nofp/crtn.o
 *(.fini)
 .fini          0x08004c68        0x4 d:/progra~2/stm32c~1/gnu-to~1/bin/../lib/gcc/arm-none-eabi/9.2.1/thumb/v6-m/nofp/crti.o
                0x08004c68                _fini
 .fini          0x08004c6c        0x8 d:/progra~2/stm32c~1/gnu-to~1/bin/../lib/gcc/arm-none-eabi/9.2.1/thumb/v6-m/nofp/crtn.o
                0x08004c74                . = ALIGN (0x4)
                0x08004c74                _etext = .

.vfp11_veneer   0x08004c74        0x0
 .vfp11_veneer  0x08004c74        0x0 linker stubs

.v4_bx          0x08004c74        0x0
 .v4_bx         0x08004c74        0x0 linker stubs

.iplt           0x08004c74        0x0
 .iplt          0x08004c74        0x0 d:/progra~2/stm32c~1/gnu-to~1/bin/../lib/gcc/arm-none-eabi/9.2.1/thumb/v6-m/nofp/crtbegin.o

.rodata         0x08004c74      0x22c
                0x08004c74                . = ALIGN (0x4)
 *(.rodata)
 *(.rodata*)
 .rodata.LUTDefault_full
                0x08004c74       0x1f CMakeFiles/L-ink_Card.elf.dir/BSP/Display_EPD_W21.c.obj
                0x08004c74                LUTDefault_full
 *fill*         0x08004c93        0x1 
 .rodata.MX_NFC4_MAILBOX_Init.str1.4
                0x08004c94       0xf1 CMakeFiles/L-ink_Card.elf.dir/BSP/app_nfc.c.obj
 *fill*         0x08004d85        0x3 
 .rodata.HAL_UART_Init
                0x08004d88       0x48 CMakeFiles/L-ink_Card.elf.dir/Drivers/STM32L0xx_HAL_Driver/Src/stm32l0xx_hal_uart.c.obj
 .rodata.CSWTCH.55
                0x08004dd0        0x3 CMakeFiles/L-ink_Card.elf.dir/Drivers/STM32L0xx_HAL_Driver/Src/stm32l0xx_hal_uart.c.obj
 *fill*         0x08004dd3        0x1 
 .rodata.CSWTCH.56
                0x08004dd4        0xd CMakeFiles/L-ink_Card.elf.dir/Drivers/STM32L0xx_HAL_Driver/Src/stm32l0xx_hal_uart.c.obj
 *fill*         0x08004de1        0x3 
 .rodata.AHBPrescTable
                0x08004de4       0x10 CMakeFiles/L-ink_Card.elf.dir/Src/system_stm32l0xx.c.obj
                0x08004de4                AHBPrescTable
 .rodata.APBPrescTable
                0x08004df4        0x8 CMakeFiles/L-ink_Card.elf.dir/Src/system_stm32l0xx.c.obj
                0x08004df4                APBPrescTable
 .rodata.PLLMulTable
                0x08004dfc        0x9 CMakeFiles/L-ink_Card.elf.dir/Src/system_stm32l0xx.c.obj
                0x08004dfc                PLLMulTable
 *fill*         0x08004e05        0x3 
 .rodata._global_impure_ptr
                0x08004e08        0x4 d:/progra~2/stm32c~1/gnu-to~1/bin/../lib/gcc/arm-none-eabi/9.2.1/../../../../arm-none-eabi/lib/thumb/v6-m/nofp\libg_nano.a(lib_a-impure.o)
                0x08004e08                _global_impure_ptr
 .rodata.__sf_fake_stderr
                0x08004e0c       0x20 d:/progra~2/stm32c~1/gnu-to~1/bin/../lib/gcc/arm-none-eabi/9.2.1/../../../../arm-none-eabi/lib/thumb/v6-m/nofp\libg_nano.a(lib_a-findfp.o)
                0x08004e0c                __sf_fake_stderr
 .rodata.__sf_fake_stdin
                0x08004e2c       0x20 d:/progra~2/stm32c~1/gnu-to~1/bin/../lib/gcc/arm-none-eabi/9.2.1/../../../../arm-none-eabi/lib/thumb/v6-m/nofp\libg_nano.a(lib_a-findfp.o)
                0x08004e2c                __sf_fake_stdin
 .rodata.__sf_fake_stdout
                0x08004e4c       0x20 d:/progra~2/stm32c~1/gnu-to~1/bin/../lib/gcc/arm-none-eabi/9.2.1/../../../../arm-none-eabi/lib/thumb/v6-m/nofp\libg_nano.a(lib_a-findfp.o)
                0x08004e4c                __sf_fake_stdout
 .rodata._vfprintf_r.str1.1
                0x08004e6c       0x11 d:/progra~2/stm32c~1/gnu-to~1/bin/../lib/gcc/arm-none-eabi/9.2.1/../../../../arm-none-eabi/lib/thumb/v6-m/nofp\libg_nano.a(lib_a-nano-vfprintf.o)
 .rodata._printf_i.str1.1
                0x08004e7d       0x22 d:/progra~2/stm32c~1/gnu-to~1/bin/../lib/gcc/arm-none-eabi/9.2.1/../../../../arm-none-eabi/lib/thumb/v6-m/nofp\libg_nano.a(lib_a-nano-vfprintf_i.o)
                0x08004ea0                . = ALIGN (0x4)
 *fill*         0x08004e9f        0x1 

.ARM.extab
 *(.ARM.extab* .gnu.linkonce.armextab.*)

.ARM            0x08004ea0        0x8
                0x08004ea0                __exidx_start = .
 *(.ARM.exidx*)
 .ARM.exidx     0x08004ea0        0x8 d:/progra~2/stm32c~1/gnu-to~1/bin/../lib/gcc/arm-none-eabi/9.2.1/thumb/v6-m/nofp\libgcc.a(_udivmoddi4.o)
                0x08004ea8                __exidx_end = .

.rel.dyn        0x08004ea8        0x0
 .rel.iplt      0x08004ea8        0x0 d:/progra~2/stm32c~1/gnu-to~1/bin/../lib/gcc/arm-none-eabi/9.2.1/thumb/v6-m/nofp/crtbegin.o

.preinit_array  0x08004ea8        0x0
                0x08004ea8                PROVIDE (__preinit_array_start = .)
 *(.preinit_array*)
                0x08004ea8                PROVIDE (__preinit_array_end = .)

.init_array     0x08004ea8        0x4
                0x08004ea8                PROVIDE (__init_array_start = .)
 *(SORT_BY_NAME(.init_array.*))
 *(.init_array*)
 .init_array    0x08004ea8        0x4 d:/progra~2/stm32c~1/gnu-to~1/bin/../lib/gcc/arm-none-eabi/9.2.1/thumb/v6-m/nofp/crtbegin.o
                0x08004eac                PROVIDE (__init_array_end = .)

.fini_array     0x08004eac        0x4
                [!provide]                PROVIDE (__fini_array_start = .)
 *(SORT_BY_NAME(.fini_array.*))
 *(.fini_array*)
 .fini_array    0x08004eac        0x4 d:/progra~2/stm32c~1/gnu-to~1/bin/../lib/gcc/arm-none-eabi/9.2.1/thumb/v6-m/nofp/crtbegin.o
                [!provide]                PROVIDE (__fini_array_end = .)
                0x08004eb0                _sidata = LOADADDR (.data)

.data           0x20000000     0x1428 load address 0x08004eb0
                0x20000000                . = ALIGN (0x4)
                0x20000000                _sdata = .
 *(.data)
 *(.data*)
 .data.dummyLine
                0x20000000        0x2 CMakeFiles/L-ink_Card.elf.dir/BSP/Display_EPD_W21.c.obj
                0x20000000                dummyLine
 *fill*         0x20000002        0x2 
 .data.GDOControl
                0x20000004        0x4 CMakeFiles/L-ink_Card.elf.dir/BSP/Display_EPD_W21.c.obj
                0x20000004                GDOControl
 .data.gateTime
                0x20000008        0x2 CMakeFiles/L-ink_Card.elf.dir/BSP/Display_EPD_W21.c.obj
                0x20000008                gateTime
 *fill*         0x2000000a        0x2 
 .data.ramDataEntryMode
                0x2000000c        0x2 CMakeFiles/L-ink_Card.elf.dir/BSP/Display_EPD_W21.c.obj
                0x2000000c                ramDataEntryMode
 *fill*         0x2000000e        0x2 
 .data.softStart
                0x20000010        0x4 CMakeFiles/L-ink_Card.elf.dir/BSP/Display_EPD_W21.c.obj
                0x20000010                softStart
 .data.St25Dv_Drv
                0x20000014       0x1c CMakeFiles/L-ink_Card.elf.dir/Drivers/BSP/Components/ST25DV/st25dv.c.obj
                0x20000014                St25Dv_Drv
 .data.GPO_EXTI
                0x20000030        0x8 CMakeFiles/L-ink_Card.elf.dir/Drivers/BSP/NFC04A1/nfc04a1.c.obj
                0x20000030                GPO_EXTI
 .data.nfcBuffer
                0x20000038     0x1388 CMakeFiles/L-ink_Card.elf.dir/Src/main.c.obj
                0x20000038                nfcBuffer
 .data.SystemCoreClock
                0x200013c0        0x4 CMakeFiles/L-ink_Card.elf.dir/Src/system_stm32l0xx.c.obj
                0x200013c0                SystemCoreClock
 .data._impure_ptr
                0x200013c4        0x4 d:/progra~2/stm32c~1/gnu-to~1/bin/../lib/gcc/arm-none-eabi/9.2.1/../../../../arm-none-eabi/lib/thumb/v6-m/nofp\libg_nano.a(lib_a-impure.o)
                0x200013c4                _impure_ptr
 .data.impure_data
                0x200013c8       0x60 d:/progra~2/stm32c~1/gnu-to~1/bin/../lib/gcc/arm-none-eabi/9.2.1/../../../../arm-none-eabi/lib/thumb/v6-m/nofp\libg_nano.a(lib_a-impure.o)
                0x20001428                . = ALIGN (0x4)
                0x20001428                _edata = .

.igot.plt       0x20001428        0x0 load address 0x080062d8
 .igot.plt      0x20001428        0x0 d:/progra~2/stm32c~1/gnu-to~1/bin/../lib/gcc/arm-none-eabi/9.2.1/thumb/v6-m/nofp/crtbegin.o
                0x20001428                . = ALIGN (0x4)

.bss            0x20001428      0x150 load address 0x080062d8
                0x20001428                _sbss = .
                0x20001428                __bss_start__ = _sbss
 *(.bss)
 .bss           0x20001428       0x1c d:/progra~2/stm32c~1/gnu-to~1/bin/../lib/gcc/arm-none-eabi/9.2.1/thumb/v6-m/nofp/crtbegin.o
 *(.bss*)
 .bss.GPOActivated
                0x20001444        0x1 CMakeFiles/L-ink_Card.elf.dir/BSP/app_nfc.c.obj
                0x20001444                GPOActivated
 .bss.MB_mode   0x20001445        0x1 CMakeFiles/L-ink_Card.elf.dir/BSP/app_nfc.c.obj
                0x20001445                MB_mode
 .bss.i2csso    0x20001446        0x1 CMakeFiles/L-ink_Card.elf.dir/BSP/app_nfc.c.obj
                0x20001446                i2csso
 *fill*         0x20001447        0x1 
 .bss.mbctrldynstatus
                0x20001448        0x6 CMakeFiles/L-ink_Card.elf.dir/BSP/app_nfc.c.obj
                0x20001448                mbctrldynstatus
 .bss.mblength  0x2000144e        0x2 CMakeFiles/L-ink_Card.elf.dir/BSP/app_nfc.c.obj
                0x2000144e                mblength
 .bss.passwd    0x20001450        0x8 CMakeFiles/L-ink_Card.elf.dir/BSP/app_nfc.c.obj
                0x20001450                passwd
 .bss.bufferIndex       0x20001458        0x4 CMakeFiles/L-ink_Card.elf.dir/BSP/app_nfc.c.obj
                0x20001458                bufferIndex
 .bss.NfcTagObj
                0x2000145c       0x28 CMakeFiles/L-ink_Card.elf.dir/Drivers/BSP/NFC04A1/nfc04a1_nfctag.c.obj
 .bss.Nfctag_Drv
                0x20001484        0x4 CMakeFiles/L-ink_Card.elf.dir/Drivers/BSP/NFC04A1/nfc04a1_nfctag.c.obj
 .bss.uwTick    0x20001488        0x4 CMakeFiles/L-ink_Card.elf.dir/Drivers/STM32L0xx_HAL_Driver/Src/stm32l0xx_hal.c.obj
                0x20001488                uwTick
 .bss.I2C1InitCounter
                0x2000148c        0x4 CMakeFiles/L-ink_Card.elf.dir/Src/custom_bus.c.obj
 .bss.hi2c1     0x20001490       0x4c CMakeFiles/L-ink_Card.elf.dir/Src/custom_bus.c.obj
                0x20001490                hi2c1
 .bss.heap_end.6018
                0x200014dc        0x4 CMakeFiles/L-ink_Card.elf.dir/Src/syscalls.c.obj
 .bss.huart1    0x200014e0       0x80 CMakeFiles/L-ink_Card.elf.dir/Src/usart.c.obj
                0x200014e0                huart1
 .bss.__malloc_free_list
                0x20001560        0x4 d:/progra~2/stm32c~1/gnu-to~1/bin/../lib/gcc/arm-none-eabi/9.2.1/../../../../arm-none-eabi/lib/thumb/v6-m/nofp\libg_nano.a(lib_a-nano-mallocr.o)
                0x20001560                __malloc_free_list
 .bss.__malloc_sbrk_start
                0x20001564        0x4 d:/progra~2/stm32c~1/gnu-to~1/bin/../lib/gcc/arm-none-eabi/9.2.1/../../../../arm-none-eabi/lib/thumb/v6-m/nofp\libg_nano.a(lib_a-nano-mallocr.o)
                0x20001564                __malloc_sbrk_start
 *(COMMON)
 COMMON         0x20001568        0x9 d:/progra~2/stm32c~1/gnu-to~1/bin/../lib/gcc/arm-none-eabi/9.2.1/../../../../arm-none-eabi/lib/thumb/v6-m/nofp\libg_nano.a(lib_a-lock.o)
                0x20001568                __lock___atexit_recursive_mutex
                0x20001569                __lock___arc4random_mutex
                0x2000156a                __lock___env_recursive_mutex
                0x2000156b                __lock___sinit_recursive_mutex
                0x2000156c                __lock___malloc_recursive_mutex
                0x2000156d                __lock___at_quick_exit_mutex
                0x2000156e                __lock___dd_hash_mutex
                0x2000156f                __lock___tz_mutex
                0x20001570                __lock___sfp_recursive_mutex
 *fill*         0x20001571        0x3 
 COMMON         0x20001574        0x4 d:/progra~2/stm32c~1/gnu-to~1/bin/../lib/gcc/arm-none-eabi/9.2.1/../../../../arm-none-eabi/lib/thumb/v6-m/nofp\libg_nano.a(lib_a-reent.o)
                0x20001574                errno
                0x20001578                . = ALIGN (0x4)
                0x20001578                _ebss = .
                0x20001578                __bss_end__ = _ebss

._user_heap_stack
                0x20001578      0x600 load address 0x080062d8
                0x20001578                . = ALIGN (0x8)
                0x20001578                PROVIDE (end = .)
                [!provide]                PROVIDE (_end = .)
                0x20001778                . = (. + _Min_Heap_Size)
 *fill*         0x20001578      0x200 
                0x20001b78                . = (. + _Min_Stack_Size)
 *fill*         0x20001778      0x400 
                0x20001b78                . = ALIGN (0x8)

/DISCARD/
 libc.a(*)
 libm.a(*)
 libgcc.a(*)

.ARM.attributes
                0x00000000       0x28
 *(.ARM.attributes)
 .ARM.attributes
                0x00000000       0x1e d:/progra~2/stm32c~1/gnu-to~1/bin/../lib/gcc/arm-none-eabi/9.2.1/thumb/v6-m/nofp/crti.o
 .ARM.attributes
                0x0000001e       0x2c d:/progra~2/stm32c~1/gnu-to~1/bin/../lib/gcc/arm-none-eabi/9.2.1/thumb/v6-m/nofp/crtbegin.o
 .ARM.attributes
                0x0000004a       0x2c CMakeFiles/L-ink_Card.elf.dir/BSP/Display_EPD_W21.c.obj
 .ARM.attributes
                0x00000076       0x2c CMakeFiles/L-ink_Card.elf.dir/BSP/app_nfc.c.obj
 .ARM.attributes
                0x000000a2       0x2c CMakeFiles/L-ink_Card.elf.dir/Drivers/BSP/Components/ST25DV/st25dv.c.obj
 .ARM.attributes
                0x000000ce       0x2c CMakeFiles/L-ink_Card.elf.dir/Drivers/BSP/Components/ST25DV/st25dv_reg.c.obj
 .ARM.attributes
                0x000000fa       0x2c CMakeFiles/L-ink_Card.elf.dir/Drivers/BSP/NFC04A1/nfc04a1.c.obj
 .ARM.attributes
                0x00000126       0x2c CMakeFiles/L-ink_Card.elf.dir/Drivers/BSP/NFC04A1/nfc04a1_nfctag.c.obj
 .ARM.attributes
                0x00000152       0x2c CMakeFiles/L-ink_Card.elf.dir/Drivers/STM32L0xx_HAL_Driver/Src/stm32l0xx_hal.c.obj
 .ARM.attributes
                0x0000017e       0x2c CMakeFiles/L-ink_Card.elf.dir/Drivers/STM32L0xx_HAL_Driver/Src/stm32l0xx_hal_cortex.c.obj
 .ARM.attributes
                0x000001aa       0x2c CMakeFiles/L-ink_Card.elf.dir/Drivers/STM32L0xx_HAL_Driver/Src/stm32l0xx_hal_gpio.c.obj
 .ARM.attributes
                0x000001d6       0x2c CMakeFiles/L-ink_Card.elf.dir/Drivers/STM32L0xx_HAL_Driver/Src/stm32l0xx_hal_i2c.c.obj
 .ARM.attributes
                0x00000202       0x2c CMakeFiles/L-ink_Card.elf.dir/Drivers/STM32L0xx_HAL_Driver/Src/stm32l0xx_hal_i2c_ex.c.obj
 .ARM.attributes
                0x0000022e       0x2c CMakeFiles/L-ink_Card.elf.dir/Drivers/STM32L0xx_HAL_Driver/Src/stm32l0xx_hal_rcc.c.obj
 .ARM.attributes
                0x0000025a       0x2c CMakeFiles/L-ink_Card.elf.dir/Drivers/STM32L0xx_HAL_Driver/Src/stm32l0xx_hal_rcc_ex.c.obj
 .ARM.attributes
                0x00000286       0x2c CMakeFiles/L-ink_Card.elf.dir/Drivers/STM32L0xx_HAL_Driver/Src/stm32l0xx_hal_uart.c.obj
 .ARM.attributes
                0x000002b2       0x2c CMakeFiles/L-ink_Card.elf.dir/Src/custom_bus.c.obj
 .ARM.attributes
                0x000002de       0x2c CMakeFiles/L-ink_Card.elf.dir/Src/gpio.c.obj
 .ARM.attributes
                0x0000030a       0x2c CMakeFiles/L-ink_Card.elf.dir/Src/main.c.obj
 .ARM.attributes
                0x00000336       0x2c CMakeFiles/L-ink_Card.elf.dir/Src/stm32l0xx_hal_exti.c.obj
 .ARM.attributes
                0x00000362       0x2c CMakeFiles/L-ink_Card.elf.dir/Src/stm32l0xx_hal_msp.c.obj
 .ARM.attributes
                0x0000038e       0x2c CMakeFiles/L-ink_Card.elf.dir/Src/stm32l0xx_it.c.obj
 .ARM.attributes
                0x000003ba       0x2c CMakeFiles/L-ink_Card.elf.dir/Src/syscalls.c.obj
 .ARM.attributes
                0x000003e6       0x2c CMakeFiles/L-ink_Card.elf.dir/Src/system_stm32l0xx.c.obj
 .ARM.attributes
                0x00000412       0x2c CMakeFiles/L-ink_Card.elf.dir/Src/usart.c.obj
 .ARM.attributes
                0x0000043e       0x22 CMakeFiles/L-ink_Card.elf.dir/startup/startup_stm32l051xx.s.obj
 .ARM.attributes
                0x00000460       0x1e d:/progra~2/stm32c~1/gnu-to~1/bin/../lib/gcc/arm-none-eabi/9.2.1/thumb/v6-m/nofp\libgcc.a(_udivsi3.o)
 .ARM.attributes
                0x0000047e       0x1e d:/progra~2/stm32c~1/gnu-to~1/bin/../lib/gcc/arm-none-eabi/9.2.1/thumb/v6-m/nofp\libgcc.a(_dvmd_tls.o)
 .ARM.attributes
                0x0000049c       0x1e d:/progra~2/stm32c~1/gnu-to~1/bin/../lib/gcc/arm-none-eabi/9.2.1/thumb/v6-m/nofp\libgcc.a(_aeabi_uldivmod.o)
 .ARM.attributes
                0x000004ba       0x2c d:/progra~2/stm32c~1/gnu-to~1/bin/../lib/gcc/arm-none-eabi/9.2.1/thumb/v6-m/nofp\libgcc.a(_udivmoddi4.o)
 .ARM.attributes
                0x000004e6       0x1e d:/progra~2/stm32c~1/gnu-to~1/bin/../lib/gcc/arm-none-eabi/9.2.1/thumb/v6-m/nofp\libgcc.a(_clzdi2.o)
 .ARM.attributes
                0x00000504       0x1e d:/progra~2/stm32c~1/gnu-to~1/bin/../lib/gcc/arm-none-eabi/9.2.1/thumb/v6-m/nofp\libgcc.a(_clzsi2.o)
 .ARM.attributes
                0x00000522       0x2c d:/progra~2/stm32c~1/gnu-to~1/bin/../lib/gcc/arm-none-eabi/9.2.1/../../../../arm-none-eabi/lib/thumb/v6-m/nofp\libg_nano.a(lib_a-errno.o)
 .ARM.attributes
                0x0000054e       0x2c d:/progra~2/stm32c~1/gnu-to~1/bin/../lib/gcc/arm-none-eabi/9.2.1/../../../../arm-none-eabi/lib/thumb/v6-m/nofp\libg_nano.a(lib_a-impure.o)
 .ARM.attributes
                0x0000057a       0x2c d:/progra~2/stm32c~1/gnu-to~1/bin/../lib/gcc/arm-none-eabi/9.2.1/../../../../arm-none-eabi/lib/thumb/v6-m/nofp\libg_nano.a(lib_a-init.o)
 .ARM.attributes
                0x000005a6       0x2c d:/progra~2/stm32c~1/gnu-to~1/bin/../lib/gcc/arm-none-eabi/9.2.1/../../../../arm-none-eabi/lib/thumb/v6-m/nofp\libg_nano.a(lib_a-memset.o)
 .ARM.attributes
                0x000005d2       0x2c d:/progra~2/stm32c~1/gnu-to~1/bin/../lib/gcc/arm-none-eabi/9.2.1/../../../../arm-none-eabi/lib/thumb/v6-m/nofp\libg_nano.a(lib_a-printf.o)
 .ARM.attributes
                0x000005fe       0x2c d:/progra~2/stm32c~1/gnu-to~1/bin/../lib/gcc/arm-none-eabi/9.2.1/../../../../arm-none-eabi/lib/thumb/v6-m/nofp\libg_nano.a(lib_a-findfp.o)
 .ARM.attributes
                0x0000062a       0x2c d:/progra~2/stm32c~1/gnu-to~1/bin/../lib/gcc/arm-none-eabi/9.2.1/../../../../arm-none-eabi/lib/thumb/v6-m/nofp\libg_nano.a(lib_a-fwalk.o)
 .ARM.attributes
                0x00000656       0x2c d:/progra~2/stm32c~1/gnu-to~1/bin/../lib/gcc/arm-none-eabi/9.2.1/../../../../arm-none-eabi/lib/thumb/v6-m/nofp\libg_nano.a(lib_a-lock.o)
 .ARM.attributes
                0x00000682       0x2c d:/progra~2/stm32c~1/gnu-to~1/bin/../lib/gcc/arm-none-eabi/9.2.1/../../../../arm-none-eabi/lib/thumb/v6-m/nofp\libg_nano.a(lib_a-nano-mallocr.o)
 .ARM.attributes
                0x000006ae       0x2c d:/progra~2/stm32c~1/gnu-to~1/bin/../lib/gcc/arm-none-eabi/9.2.1/../../../../arm-none-eabi/lib/thumb/v6-m/nofp\libg_nano.a(lib_a-nano-vfprintf.o)
 .ARM.attributes
                0x000006da       0x2c d:/progra~2/stm32c~1/gnu-to~1/bin/../lib/gcc/arm-none-eabi/9.2.1/../../../../arm-none-eabi/lib/thumb/v6-m/nofp\libg_nano.a(lib_a-nano-vfprintf_i.o)
 .ARM.attributes
                0x00000706       0x2c d:/progra~2/stm32c~1/gnu-to~1/bin/../lib/gcc/arm-none-eabi/9.2.1/../../../../arm-none-eabi/lib/thumb/v6-m/nofp\libg_nano.a(lib_a-sbrkr.o)
 .ARM.attributes
                0x00000732       0x2c d:/progra~2/stm32c~1/gnu-to~1/bin/../lib/gcc/arm-none-eabi/9.2.1/../../../../arm-none-eabi/lib/thumb/v6-m/nofp\libg_nano.a(lib_a-stdio.o)
 .ARM.attributes
                0x0000075e       0x2c d:/progra~2/stm32c~1/gnu-to~1/bin/../lib/gcc/arm-none-eabi/9.2.1/../../../../arm-none-eabi/lib/thumb/v6-m/nofp\libg_nano.a(lib_a-wbuf.o)
 .ARM.attributes
                0x0000078a       0x2c d:/progra~2/stm32c~1/gnu-to~1/bin/../lib/gcc/arm-none-eabi/9.2.1/../../../../arm-none-eabi/lib/thumb/v6-m/nofp\libg_nano.a(lib_a-writer.o)
 .ARM.attributes
                0x000007b6       0x2c d:/progra~2/stm32c~1/gnu-to~1/bin/../lib/gcc/arm-none-eabi/9.2.1/../../../../arm-none-eabi/lib/thumb/v6-m/nofp\libg_nano.a(lib_a-wsetup.o)
 .ARM.attributes
                0x000007e2       0x2c d:/progra~2/stm32c~1/gnu-to~1/bin/../lib/gcc/arm-none-eabi/9.2.1/../../../../arm-none-eabi/lib/thumb/v6-m/nofp\libg_nano.a(lib_a-closer.o)
 .ARM.attributes
                0x0000080e       0x2c d:/progra~2/stm32c~1/gnu-to~1/bin/../lib/gcc/arm-none-eabi/9.2.1/../../../../arm-none-eabi/lib/thumb/v6-m/nofp\libg_nano.a(lib_a-fflush.o)
 .ARM.attributes
                0x0000083a       0x2c d:/progra~2/stm32c~1/gnu-to~1/bin/../lib/gcc/arm-none-eabi/9.2.1/../../../../arm-none-eabi/lib/thumb/v6-m/nofp\libg_nano.a(lib_a-lseekr.o)
 .ARM.attributes
                0x00000866       0x2c d:/progra~2/stm32c~1/gnu-to~1/bin/../lib/gcc/arm-none-eabi/9.2.1/../../../../arm-none-eabi/lib/thumb/v6-m/nofp\libg_nano.a(lib_a-makebuf.o)
 .ARM.attributes
                0x00000892       0x2c d:/progra~2/stm32c~1/gnu-to~1/bin/../lib/gcc/arm-none-eabi/9.2.1/../../../../arm-none-eabi/lib/thumb/v6-m/nofp\libg_nano.a(lib_a-memchr-stub.o)
 .ARM.attributes
                0x000008be       0x2c d:/progra~2/stm32c~1/gnu-to~1/bin/../lib/gcc/arm-none-eabi/9.2.1/../../../../arm-none-eabi/lib/thumb/v6-m/nofp\libg_nano.a(lib_a-mlock.o)
 .ARM.attributes
                0x000008ea       0x2c d:/progra~2/stm32c~1/gnu-to~1/bin/../lib/gcc/arm-none-eabi/9.2.1/../../../../arm-none-eabi/lib/thumb/v6-m/nofp\libg_nano.a(lib_a-nano-freer.o)
 .ARM.attributes
                0x00000916       0x2c d:/progra~2/stm32c~1/gnu-to~1/bin/../lib/gcc/arm-none-eabi/9.2.1/../../../../arm-none-eabi/lib/thumb/v6-m/nofp\libg_nano.a(lib_a-readr.o)
 .ARM.attributes
                0x00000942       0x2c d:/progra~2/stm32c~1/gnu-to~1/bin/../lib/gcc/arm-none-eabi/9.2.1/../../../../arm-none-eabi/lib/thumb/v6-m/nofp\libg_nano.a(lib_a-reent.o)
 .ARM.attributes
                0x0000096e       0x2c d:/progra~2/stm32c~1/gnu-to~1/bin/../lib/gcc/arm-none-eabi/9.2.1/../../../../arm-none-eabi/lib/thumb/v6-m/nofp\libg_nano.a(lib_a-fstatr.o)
 .ARM.attributes
                0x0000099a       0x2c d:/progra~2/stm32c~1/gnu-to~1/bin/../lib/gcc/arm-none-eabi/9.2.1/../../../../arm-none-eabi/lib/thumb/v6-m/nofp\libg_nano.a(lib_a-isattyr.o)
 .ARM.attributes
                0x000009c6       0x1e d:/progra~2/stm32c~1/gnu-to~1/bin/../lib/gcc/arm-none-eabi/9.2.1/thumb/v6-m/nofp\libgcc.a(_thumb1_case_shi.o)
 .ARM.attributes
                0x000009e4       0x1e d:/progra~2/stm32c~1/gnu-to~1/bin/../lib/gcc/arm-none-eabi/9.2.1/thumb/v6-m/nofp/crtn.o
OUTPUT(L-ink_Card.elf elf32-littlearm)

.debug_info     0x00000000    0x2581c
 .debug_info    0x00000000     0x2c83 CMakeFiles/L-ink_Card.elf.dir/BSP/Display_EPD_W21.c.obj
 .debug_info    0x00002c83     0x1a96 CMakeFiles/L-ink_Card.elf.dir/BSP/app_nfc.c.obj
 .debug_info    0x00004719     0x3b06 CMakeFiles/L-ink_Card.elf.dir/Drivers/BSP/Components/ST25DV/st25dv.c.obj
 .debug_info    0x0000821f     0x74ef CMakeFiles/L-ink_Card.elf.dir/Drivers/BSP/Components/ST25DV/st25dv_reg.c.obj
 .debug_info    0x0000f70e      0xfd2 CMakeFiles/L-ink_Card.elf.dir/Drivers/BSP/NFC04A1/nfc04a1.c.obj
 .debug_info    0x000106e0     0x31f3 CMakeFiles/L-ink_Card.elf.dir/Drivers/BSP/NFC04A1/nfc04a1_nfctag.c.obj
 .debug_info    0x000138d3      0x8c0 CMakeFiles/L-ink_Card.elf.dir/Drivers/STM32L0xx_HAL_Driver/Src/stm32l0xx_hal.c.obj
 .debug_info    0x00014193      0xace CMakeFiles/L-ink_Card.elf.dir/Drivers/STM32L0xx_HAL_Driver/Src/stm32l0xx_hal_cortex.c.obj
 .debug_info    0x00014c61      0x761 CMakeFiles/L-ink_Card.elf.dir/Drivers/STM32L0xx_HAL_Driver/Src/stm32l0xx_hal_gpio.c.obj
 .debug_info    0x000153c2     0x5d1e CMakeFiles/L-ink_Card.elf.dir/Drivers/STM32L0xx_HAL_Driver/Src/stm32l0xx_hal_i2c.c.obj
 .debug_info    0x0001b0e0      0x98a CMakeFiles/L-ink_Card.elf.dir/Drivers/STM32L0xx_HAL_Driver/Src/stm32l0xx_hal_i2c_ex.c.obj
 .debug_info    0x0001ba6a      0xc91 CMakeFiles/L-ink_Card.elf.dir/Drivers/STM32L0xx_HAL_Driver/Src/stm32l0xx_hal_rcc.c.obj
 .debug_info    0x0001c6fb      0x5d8 CMakeFiles/L-ink_Card.elf.dir/Drivers/STM32L0xx_HAL_Driver/Src/stm32l0xx_hal_rcc_ex.c.obj
 .debug_info    0x0001ccd3     0x22eb CMakeFiles/L-ink_Card.elf.dir/Drivers/STM32L0xx_HAL_Driver/Src/stm32l0xx_hal_uart.c.obj
 .debug_info    0x0001efbe     0x1082 CMakeFiles/L-ink_Card.elf.dir/Src/custom_bus.c.obj
 .debug_info    0x00020040      0xbe8 CMakeFiles/L-ink_Card.elf.dir/Src/gpio.c.obj
 .debug_info    0x00020c28     0x16cd CMakeFiles/L-ink_Card.elf.dir/Src/main.c.obj
 .debug_info    0x000222f5      0x301 CMakeFiles/L-ink_Card.elf.dir/Src/stm32l0xx_hal_exti.c.obj
 .debug_info    0x000225f6      0x820 CMakeFiles/L-ink_Card.elf.dir/Src/stm32l0xx_hal_msp.c.obj
 .debug_info    0x00022e16      0x764 CMakeFiles/L-ink_Card.elf.dir/Src/stm32l0xx_it.c.obj
 .debug_info    0x0002357a     0x1156 CMakeFiles/L-ink_Card.elf.dir/Src/syscalls.c.obj
 .debug_info    0x000246d0      0x3d4 CMakeFiles/L-ink_Card.elf.dir/Src/system_stm32l0xx.c.obj
 .debug_info    0x00024aa4      0xd78 CMakeFiles/L-ink_Card.elf.dir/Src/usart.c.obj

.debug_abbrev   0x00000000     0x39ee
 .debug_abbrev  0x00000000      0x32b CMakeFiles/L-ink_Card.elf.dir/BSP/Display_EPD_W21.c.obj
 .debug_abbrev  0x0000032b      0x2aa CMakeFiles/L-ink_Card.elf.dir/BSP/app_nfc.c.obj
 .debug_abbrev  0x000005d5      0x405 CMakeFiles/L-ink_Card.elf.dir/Drivers/BSP/Components/ST25DV/st25dv.c.obj
 .debug_abbrev  0x000009da      0x23a CMakeFiles/L-ink_Card.elf.dir/Drivers/BSP/Components/ST25DV/st25dv_reg.c.obj
 .debug_abbrev  0x00000c14      0x233 CMakeFiles/L-ink_Card.elf.dir/Drivers/BSP/NFC04A1/nfc04a1.c.obj
 .debug_abbrev  0x00000e47      0x2a1 CMakeFiles/L-ink_Card.elf.dir/Drivers/BSP/NFC04A1/nfc04a1_nfctag.c.obj
 .debug_abbrev  0x000010e8      0x2ce CMakeFiles/L-ink_Card.elf.dir/Drivers/STM32L0xx_HAL_Driver/Src/stm32l0xx_hal.c.obj
 .debug_abbrev  0x000013b6      0x29f CMakeFiles/L-ink_Card.elf.dir/Drivers/STM32L0xx_HAL_Driver/Src/stm32l0xx_hal_cortex.c.obj
 .debug_abbrev  0x00001655      0x216 CMakeFiles/L-ink_Card.elf.dir/Drivers/STM32L0xx_HAL_Driver/Src/stm32l0xx_hal_gpio.c.obj
 .debug_abbrev  0x0000186b      0x400 CMakeFiles/L-ink_Card.elf.dir/Drivers/STM32L0xx_HAL_Driver/Src/stm32l0xx_hal_i2c.c.obj
 .debug_abbrev  0x00001c6b      0x1d7 CMakeFiles/L-ink_Card.elf.dir/Drivers/STM32L0xx_HAL_Driver/Src/stm32l0xx_hal_i2c_ex.c.obj
 .debug_abbrev  0x00001e42      0x300 CMakeFiles/L-ink_Card.elf.dir/Drivers/STM32L0xx_HAL_Driver/Src/stm32l0xx_hal_rcc.c.obj
 .debug_abbrev  0x00002142      0x216 CMakeFiles/L-ink_Card.elf.dir/Drivers/STM32L0xx_HAL_Driver/Src/stm32l0xx_hal_rcc_ex.c.obj
 .debug_abbrev  0x00002358      0x3ae CMakeFiles/L-ink_Card.elf.dir/Drivers/STM32L0xx_HAL_Driver/Src/stm32l0xx_hal_uart.c.obj
 .debug_abbrev  0x00002706      0x31b CMakeFiles/L-ink_Card.elf.dir/Src/custom_bus.c.obj
 .debug_abbrev  0x00002a21      0x1e9 CMakeFiles/L-ink_Card.elf.dir/Src/gpio.c.obj
 .debug_abbrev  0x00002c0a      0x2cb CMakeFiles/L-ink_Card.elf.dir/Src/main.c.obj
 .debug_abbrev  0x00002ed5      0x16b CMakeFiles/L-ink_Card.elf.dir/Src/stm32l0xx_hal_exti.c.obj
 .debug_abbrev  0x00003040      0x169 CMakeFiles/L-ink_Card.elf.dir/Src/stm32l0xx_hal_msp.c.obj
 .debug_abbrev  0x000031a9      0x1ea CMakeFiles/L-ink_Card.elf.dir/Src/stm32l0xx_it.c.obj
 .debug_abbrev  0x00003393      0x321 CMakeFiles/L-ink_Card.elf.dir/Src/syscalls.c.obj
 .debug_abbrev  0x000036b4      0x12c CMakeFiles/L-ink_Card.elf.dir/Src/system_stm32l0xx.c.obj
 .debug_abbrev  0x000037e0      0x20e CMakeFiles/L-ink_Card.elf.dir/Src/usart.c.obj

.debug_loc      0x00000000    0x1bd50
 .debug_loc     0x00000000     0x1255 CMakeFiles/L-ink_Card.elf.dir/BSP/Display_EPD_W21.c.obj
 .debug_loc     0x00001255     0x34fb CMakeFiles/L-ink_Card.elf.dir/Drivers/BSP/Components/ST25DV/st25dv.c.obj
 .debug_loc     0x00004750     0x9962 CMakeFiles/L-ink_Card.elf.dir/Drivers/BSP/Components/ST25DV/st25dv_reg.c.obj
 .debug_loc     0x0000e0b2       0x34 CMakeFiles/L-ink_Card.elf.dir/Drivers/BSP/NFC04A1/nfc04a1.c.obj
 .debug_loc     0x0000e0e6     0x1875 CMakeFiles/L-ink_Card.elf.dir/Drivers/BSP/NFC04A1/nfc04a1_nfctag.c.obj
 .debug_loc     0x0000f95b      0x14c CMakeFiles/L-ink_Card.elf.dir/Drivers/STM32L0xx_HAL_Driver/Src/stm32l0xx_hal.c.obj
 .debug_loc     0x0000faa7      0x4e9 CMakeFiles/L-ink_Card.elf.dir/Drivers/STM32L0xx_HAL_Driver/Src/stm32l0xx_hal_cortex.c.obj
 .debug_loc     0x0000ff90      0x493 CMakeFiles/L-ink_Card.elf.dir/Drivers/STM32L0xx_HAL_Driver/Src/stm32l0xx_hal_gpio.c.obj
 .debug_loc     0x00010423     0x7745 CMakeFiles/L-ink_Card.elf.dir/Drivers/STM32L0xx_HAL_Driver/Src/stm32l0xx_hal_i2c.c.obj
 .debug_loc     0x00017b68      0x19b CMakeFiles/L-ink_Card.elf.dir/Drivers/STM32L0xx_HAL_Driver/Src/stm32l0xx_hal_i2c_ex.c.obj
 .debug_loc     0x00017d03      0x692 CMakeFiles/L-ink_Card.elf.dir/Drivers/STM32L0xx_HAL_Driver/Src/stm32l0xx_hal_rcc.c.obj
 .debug_loc     0x00018395      0x2f9 CMakeFiles/L-ink_Card.elf.dir/Drivers/STM32L0xx_HAL_Driver/Src/stm32l0xx_hal_rcc_ex.c.obj
 .debug_loc     0x0001868e     0x29a6 CMakeFiles/L-ink_Card.elf.dir/Drivers/STM32L0xx_HAL_Driver/Src/stm32l0xx_hal_uart.c.obj
 .debug_loc     0x0001b034      0x472 CMakeFiles/L-ink_Card.elf.dir/Src/custom_bus.c.obj
 .debug_loc     0x0001b4a6       0x48 CMakeFiles/L-ink_Card.elf.dir/Src/main.c.obj
 .debug_loc     0x0001b4ee      0x108 CMakeFiles/L-ink_Card.elf.dir/Src/stm32l0xx_hal_exti.c.obj
 .debug_loc     0x0001b5f6      0x4e9 CMakeFiles/L-ink_Card.elf.dir/Src/syscalls.c.obj
 .debug_loc     0x0001badf      0x1f0 CMakeFiles/L-ink_Card.elf.dir/Src/system_stm32l0xx.c.obj
 .debug_loc     0x0001bccf       0x81 CMakeFiles/L-ink_Card.elf.dir/Src/usart.c.obj

.debug_aranges  0x00000000     0x1380
 .debug_aranges
                0x00000000       0x40 CMakeFiles/L-ink_Card.elf.dir/BSP/Display_EPD_W21.c.obj
 .debug_aranges
                0x00000040       0x40 CMakeFiles/L-ink_Card.elf.dir/BSP/app_nfc.c.obj
 .debug_aranges
                0x00000080      0x290 CMakeFiles/L-ink_Card.elf.dir/Drivers/BSP/Components/ST25DV/st25dv.c.obj
 .debug_aranges
                0x00000310      0x498 CMakeFiles/L-ink_Card.elf.dir/Drivers/BSP/Components/ST25DV/st25dv_reg.c.obj
 .debug_aranges
                0x000007a8       0x70 CMakeFiles/L-ink_Card.elf.dir/Drivers/BSP/NFC04A1/nfc04a1.c.obj
 .debug_aranges
                0x00000818      0x290 CMakeFiles/L-ink_Card.elf.dir/Drivers/BSP/NFC04A1/nfc04a1_nfctag.c.obj
 .debug_aranges
                0x00000aa8       0xf0 CMakeFiles/L-ink_Card.elf.dir/Drivers/STM32L0xx_HAL_Driver/Src/stm32l0xx_hal.c.obj
 .debug_aranges
                0x00000b98       0x90 CMakeFiles/L-ink_Card.elf.dir/Drivers/STM32L0xx_HAL_Driver/Src/stm32l0xx_hal_cortex.c.obj
 .debug_aranges
                0x00000c28       0x58 CMakeFiles/L-ink_Card.elf.dir/Drivers/STM32L0xx_HAL_Driver/Src/stm32l0xx_hal_gpio.c.obj
 .debug_aranges
                0x00000c80      0x1f0 CMakeFiles/L-ink_Card.elf.dir/Drivers/STM32L0xx_HAL_Driver/Src/stm32l0xx_hal_i2c.c.obj
 .debug_aranges
                0x00000e70       0x48 CMakeFiles/L-ink_Card.elf.dir/Drivers/STM32L0xx_HAL_Driver/Src/stm32l0xx_hal_i2c_ex.c.obj
 .debug_aranges
                0x00000eb8       0x80 CMakeFiles/L-ink_Card.elf.dir/Drivers/STM32L0xx_HAL_Driver/Src/stm32l0xx_hal_rcc.c.obj
 .debug_aranges
                0x00000f38       0x58 CMakeFiles/L-ink_Card.elf.dir/Drivers/STM32L0xx_HAL_Driver/Src/stm32l0xx_hal_rcc_ex.c.obj
 .debug_aranges
                0x00000f90      0x198 CMakeFiles/L-ink_Card.elf.dir/Drivers/STM32L0xx_HAL_Driver/Src/stm32l0xx_hal_uart.c.obj
 .debug_aranges
                0x00001128       0x70 CMakeFiles/L-ink_Card.elf.dir/Src/custom_bus.c.obj
 .debug_aranges
                0x00001198       0x20 CMakeFiles/L-ink_Card.elf.dir/Src/gpio.c.obj
 .debug_aranges
                0x000011b8       0x38 CMakeFiles/L-ink_Card.elf.dir/Src/main.c.obj
 .debug_aranges
                0x000011f0       0x30 CMakeFiles/L-ink_Card.elf.dir/Src/stm32l0xx_hal_exti.c.obj
 .debug_aranges
                0x00001220       0x20 CMakeFiles/L-ink_Card.elf.dir/Src/stm32l0xx_hal_msp.c.obj
 .debug_aranges
                0x00001240       0x38 CMakeFiles/L-ink_Card.elf.dir/Src/stm32l0xx_it.c.obj
 .debug_aranges
                0x00001278       0xb0 CMakeFiles/L-ink_Card.elf.dir/Src/syscalls.c.obj
 .debug_aranges
                0x00001328       0x28 CMakeFiles/L-ink_Card.elf.dir/Src/system_stm32l0xx.c.obj
 .debug_aranges
                0x00001350       0x30 CMakeFiles/L-ink_Card.elf.dir/Src/usart.c.obj

.debug_ranges   0x00000000     0x4958
 .debug_ranges  0x00000000     0x10c0 CMakeFiles/L-ink_Card.elf.dir/BSP/Display_EPD_W21.c.obj
 .debug_ranges  0x000010c0       0x88 CMakeFiles/L-ink_Card.elf.dir/BSP/app_nfc.c.obj
 .debug_ranges  0x00001148      0x390 CMakeFiles/L-ink_Card.elf.dir/Drivers/BSP/Components/ST25DV/st25dv.c.obj
 .debug_ranges  0x000014d8     0x17c8 CMakeFiles/L-ink_Card.elf.dir/Drivers/BSP/Components/ST25DV/st25dv_reg.c.obj
 .debug_ranges  0x00002ca0       0x60 CMakeFiles/L-ink_Card.elf.dir/Drivers/BSP/NFC04A1/nfc04a1.c.obj
 .debug_ranges  0x00002d00      0x280 CMakeFiles/L-ink_Card.elf.dir/Drivers/BSP/NFC04A1/nfc04a1_nfctag.c.obj
 .debug_ranges  0x00002f80       0xe0 CMakeFiles/L-ink_Card.elf.dir/Drivers/STM32L0xx_HAL_Driver/Src/stm32l0xx_hal.c.obj
 .debug_ranges  0x00003060      0x190 CMakeFiles/L-ink_Card.elf.dir/Drivers/STM32L0xx_HAL_Driver/Src/stm32l0xx_hal_cortex.c.obj
 .debug_ranges  0x000031f0       0x48 CMakeFiles/L-ink_Card.elf.dir/Drivers/STM32L0xx_HAL_Driver/Src/stm32l0xx_hal_gpio.c.obj
 .debug_ranges  0x00003238      0xf80 CMakeFiles/L-ink_Card.elf.dir/Drivers/STM32L0xx_HAL_Driver/Src/stm32l0xx_hal_i2c.c.obj
 .debug_ranges  0x000041b8       0x38 CMakeFiles/L-ink_Card.elf.dir/Drivers/STM32L0xx_HAL_Driver/Src/stm32l0xx_hal_i2c_ex.c.obj
 .debug_ranges  0x000041f0      0x108 CMakeFiles/L-ink_Card.elf.dir/Drivers/STM32L0xx_HAL_Driver/Src/stm32l0xx_hal_rcc.c.obj
 .debug_ranges  0x000042f8       0x60 CMakeFiles/L-ink_Card.elf.dir/Drivers/STM32L0xx_HAL_Driver/Src/stm32l0xx_hal_rcc_ex.c.obj
 .debug_ranges  0x00004358      0x348 CMakeFiles/L-ink_Card.elf.dir/Drivers/STM32L0xx_HAL_Driver/Src/stm32l0xx_hal_uart.c.obj
 .debug_ranges  0x000046a0       0xa0 CMakeFiles/L-ink_Card.elf.dir/Src/custom_bus.c.obj
 .debug_ranges  0x00004740       0x80 CMakeFiles/L-ink_Card.elf.dir/Src/gpio.c.obj
 .debug_ranges  0x000047c0       0x28 CMakeFiles/L-ink_Card.elf.dir/Src/main.c.obj
 .debug_ranges  0x000047e8       0x20 CMakeFiles/L-ink_Card.elf.dir/Src/stm32l0xx_hal_exti.c.obj
 .debug_ranges  0x00004808       0x10 CMakeFiles/L-ink_Card.elf.dir/Src/stm32l0xx_hal_msp.c.obj
 .debug_ranges  0x00004818       0x28 CMakeFiles/L-ink_Card.elf.dir/Src/stm32l0xx_it.c.obj
 .debug_ranges  0x00004840       0xb8 CMakeFiles/L-ink_Card.elf.dir/Src/syscalls.c.obj
 .debug_ranges  0x000048f8       0x18 CMakeFiles/L-ink_Card.elf.dir/Src/system_stm32l0xx.c.obj
 .debug_ranges  0x00004910       0x48 CMakeFiles/L-ink_Card.elf.dir/Src/usart.c.obj

.debug_line     0x00000000    0x16c89
 .debug_line    0x00000000     0x1687 CMakeFiles/L-ink_Card.elf.dir/BSP/Display_EPD_W21.c.obj
 .debug_line    0x00001687      0x650 CMakeFiles/L-ink_Card.elf.dir/BSP/app_nfc.c.obj
 .debug_line    0x00001cd7     0x1ac0 CMakeFiles/L-ink_Card.elf.dir/Drivers/BSP/Components/ST25DV/st25dv.c.obj
 .debug_line    0x00003797     0x3912 CMakeFiles/L-ink_Card.elf.dir/Drivers/BSP/Components/ST25DV/st25dv_reg.c.obj
 .debug_line    0x000070a9      0x4b6 CMakeFiles/L-ink_Card.elf.dir/Drivers/BSP/NFC04A1/nfc04a1.c.obj
 .debug_line    0x0000755f      0xe77 CMakeFiles/L-ink_Card.elf.dir/Drivers/BSP/NFC04A1/nfc04a1_nfctag.c.obj
 .debug_line    0x000083d6      0x664 CMakeFiles/L-ink_Card.elf.dir/Drivers/STM32L0xx_HAL_Driver/Src/stm32l0xx_hal.c.obj
 .debug_line    0x00008a3a      0x731 CMakeFiles/L-ink_Card.elf.dir/Drivers/STM32L0xx_HAL_Driver/Src/stm32l0xx_hal_cortex.c.obj
 .debug_line    0x0000916b      0x74a CMakeFiles/L-ink_Card.elf.dir/Drivers/STM32L0xx_HAL_Driver/Src/stm32l0xx_hal_gpio.c.obj
 .debug_line    0x000098b5     0x67eb CMakeFiles/L-ink_Card.elf.dir/Drivers/STM32L0xx_HAL_Driver/Src/stm32l0xx_hal_i2c.c.obj
 .debug_line    0x000100a0      0x560 CMakeFiles/L-ink_Card.elf.dir/Drivers/STM32L0xx_HAL_Driver/Src/stm32l0xx_hal_i2c_ex.c.obj
 .debug_line    0x00010600      0xf49 CMakeFiles/L-ink_Card.elf.dir/Drivers/STM32L0xx_HAL_Driver/Src/stm32l0xx_hal_rcc.c.obj
 .debug_line    0x00011549      0x7b4 CMakeFiles/L-ink_Card.elf.dir/Drivers/STM32L0xx_HAL_Driver/Src/stm32l0xx_hal_rcc_ex.c.obj
 .debug_line    0x00011cfd     0x2bfc CMakeFiles/L-ink_Card.elf.dir/Drivers/STM32L0xx_HAL_Driver/Src/stm32l0xx_hal_uart.c.obj
 .debug_line    0x000148f9      0x608 CMakeFiles/L-ink_Card.elf.dir/Src/custom_bus.c.obj
 .debug_line    0x00014f01      0x3b4 CMakeFiles/L-ink_Card.elf.dir/Src/gpio.c.obj
 .debug_line    0x000152b5      0x4ef CMakeFiles/L-ink_Card.elf.dir/Src/main.c.obj
 .debug_line    0x000157a4      0x2e3 CMakeFiles/L-ink_Card.elf.dir/Src/stm32l0xx_hal_exti.c.obj
 .debug_line    0x00015a87      0x295 CMakeFiles/L-ink_Card.elf.dir/Src/stm32l0xx_hal_msp.c.obj
 .debug_line    0x00015d1c      0x2e2 CMakeFiles/L-ink_Card.elf.dir/Src/stm32l0xx_it.c.obj
 .debug_line    0x00015ffe      0x542 CMakeFiles/L-ink_Card.elf.dir/Src/syscalls.c.obj
 .debug_line    0x00016540      0x369 CMakeFiles/L-ink_Card.elf.dir/Src/system_stm32l0xx.c.obj
 .debug_line    0x000168a9      0x3e0 CMakeFiles/L-ink_Card.elf.dir/Src/usart.c.obj

.debug_str      0x00000000     0x5eab
 .debug_str     0x00000000      0x4fd CMakeFiles/L-ink_Card.elf.dir/BSP/Display_EPD_W21.c.obj
                                0x556 (size before relaxing)
 .debug_str     0x000004fd      0xcb7 CMakeFiles/L-ink_Card.elf.dir/BSP/app_nfc.c.obj
                               0x10ab (size before relaxing)
 .debug_str     0x000011b4     0x1323 CMakeFiles/L-ink_Card.elf.dir/Drivers/BSP/Components/ST25DV/st25dv.c.obj
                               0x1818 (size before relaxing)
 .debug_str     0x000024d7      0x7cf CMakeFiles/L-ink_Card.elf.dir/Drivers/BSP/Components/ST25DV/st25dv_reg.c.obj
                               0x101f (size before relaxing)
 .debug_str     0x00002ca6      0x357 CMakeFiles/L-ink_Card.elf.dir/Drivers/BSP/NFC04A1/nfc04a1.c.obj
                                0xc4a (size before relaxing)
 .debug_str     0x00002ffd      0x820 CMakeFiles/L-ink_Card.elf.dir/Drivers/BSP/NFC04A1/nfc04a1_nfctag.c.obj
                               0x1eff (size before relaxing)
 .debug_str     0x0000381d      0x404 CMakeFiles/L-ink_Card.elf.dir/Drivers/STM32L0xx_HAL_Driver/Src/stm32l0xx_hal.c.obj
                                0x802 (size before relaxing)
 .debug_str     0x00003c21      0x2ef CMakeFiles/L-ink_Card.elf.dir/Drivers/STM32L0xx_HAL_Driver/Src/stm32l0xx_hal_cortex.c.obj
                                0x785 (size before relaxing)
 .debug_str     0x00003f10       0xf5 CMakeFiles/L-ink_Card.elf.dir/Drivers/STM32L0xx_HAL_Driver/Src/stm32l0xx_hal_gpio.c.obj
                                0x4fd (size before relaxing)
 .debug_str     0x00004005      0x8c0 CMakeFiles/L-ink_Card.elf.dir/Drivers/STM32L0xx_HAL_Driver/Src/stm32l0xx_hal_i2c.c.obj
                                0xfcb (size before relaxing)
 .debug_str     0x000048c5      0x11e CMakeFiles/L-ink_Card.elf.dir/Drivers/STM32L0xx_HAL_Driver/Src/stm32l0xx_hal_i2c_ex.c.obj
                                0x8d5 (size before relaxing)
 .debug_str     0x000049e3      0x346 CMakeFiles/L-ink_Card.elf.dir/Drivers/STM32L0xx_HAL_Driver/Src/stm32l0xx_hal_rcc.c.obj
                                0x72a (size before relaxing)
 .debug_str     0x00004d29      0x213 CMakeFiles/L-ink_Card.elf.dir/Drivers/STM32L0xx_HAL_Driver/Src/stm32l0xx_hal_rcc_ex.c.obj
                                0x58b (size before relaxing)
 .debug_str     0x00004f3c      0x8e7 CMakeFiles/L-ink_Card.elf.dir/Drivers/STM32L0xx_HAL_Driver/Src/stm32l0xx_hal_uart.c.obj
                                0xea9 (size before relaxing)
 .debug_str     0x00005823      0x124 CMakeFiles/L-ink_Card.elf.dir/Src/custom_bus.c.obj
                                0xa35 (size before relaxing)
 .debug_str     0x00005947       0x3f CMakeFiles/L-ink_Card.elf.dir/Src/gpio.c.obj
                                0xa30 (size before relaxing)
 .debug_str     0x00005986       0x79 CMakeFiles/L-ink_Card.elf.dir/Src/main.c.obj
                               0x100f (size before relaxing)
 .debug_str     0x000059ff       0x8f CMakeFiles/L-ink_Card.elf.dir/Src/stm32l0xx_hal_exti.c.obj
                                0x36b (size before relaxing)
 .debug_str     0x00005a8e       0x3f CMakeFiles/L-ink_Card.elf.dir/Src/stm32l0xx_hal_msp.c.obj
                                0x7e1 (size before relaxing)
 .debug_str     0x00005acd       0x96 CMakeFiles/L-ink_Card.elf.dir/Src/stm32l0xx_it.c.obj
                                0x7b4 (size before relaxing)
 .debug_str     0x00005b63      0x28a CMakeFiles/L-ink_Card.elf.dir/Src/syscalls.c.obj
                                0x8bb (size before relaxing)
 .debug_str     0x00005ded       0x80 CMakeFiles/L-ink_Card.elf.dir/Src/system_stm32l0xx.c.obj
                                0x34f (size before relaxing)
 .debug_str     0x00005e6d       0x3e CMakeFiles/L-ink_Card.elf.dir/Src/usart.c.obj
                                0xaa2 (size before relaxing)

.comment        0x00000000       0x79
 .comment       0x00000000       0x79 CMakeFiles/L-ink_Card.elf.dir/BSP/Display_EPD_W21.c.obj
                                 0x7a (size before relaxing)
 .comment       0x00000079       0x7a CMakeFiles/L-ink_Card.elf.dir/BSP/app_nfc.c.obj
 .comment       0x00000079       0x7a CMakeFiles/L-ink_Card.elf.dir/Drivers/BSP/Components/ST25DV/st25dv.c.obj
 .comment       0x00000079       0x7a CMakeFiles/L-ink_Card.elf.dir/Drivers/BSP/Components/ST25DV/st25dv_reg.c.obj
 .comment       0x00000079       0x7a CMakeFiles/L-ink_Card.elf.dir/Drivers/BSP/NFC04A1/nfc04a1.c.obj
 .comment       0x00000079       0x7a CMakeFiles/L-ink_Card.elf.dir/Drivers/BSP/NFC04A1/nfc04a1_nfctag.c.obj
 .comment       0x00000079       0x7a CMakeFiles/L-ink_Card.elf.dir/Drivers/STM32L0xx_HAL_Driver/Src/stm32l0xx_hal.c.obj
 .comment       0x00000079       0x7a CMakeFiles/L-ink_Card.elf.dir/Drivers/STM32L0xx_HAL_Driver/Src/stm32l0xx_hal_cortex.c.obj
 .comment       0x00000079       0x7a CMakeFiles/L-ink_Card.elf.dir/Drivers/STM32L0xx_HAL_Driver/Src/stm32l0xx_hal_gpio.c.obj
 .comment       0x00000079       0x7a CMakeFiles/L-ink_Card.elf.dir/Drivers/STM32L0xx_HAL_Driver/Src/stm32l0xx_hal_i2c.c.obj
 .comment       0x00000079       0x7a CMakeFiles/L-ink_Card.elf.dir/Drivers/STM32L0xx_HAL_Driver/Src/stm32l0xx_hal_i2c_ex.c.obj
 .comment       0x00000079       0x7a CMakeFiles/L-ink_Card.elf.dir/Drivers/STM32L0xx_HAL_Driver/Src/stm32l0xx_hal_rcc.c.obj
 .comment       0x00000079       0x7a CMakeFiles/L-ink_Card.elf.dir/Drivers/STM32L0xx_HAL_Driver/Src/stm32l0xx_hal_rcc_ex.c.obj
 .comment       0x00000079       0x7a CMakeFiles/L-ink_Card.elf.dir/Drivers/STM32L0xx_HAL_Driver/Src/stm32l0xx_hal_uart.c.obj
 .comment       0x00000079       0x7a CMakeFiles/L-ink_Card.elf.dir/Src/custom_bus.c.obj
 .comment       0x00000079       0x7a CMakeFiles/L-ink_Card.elf.dir/Src/gpio.c.obj
 .comment       0x00000079       0x7a CMakeFiles/L-ink_Card.elf.dir/Src/main.c.obj
 .comment       0x00000079       0x7a CMakeFiles/L-ink_Card.elf.dir/Src/stm32l0xx_hal_exti.c.obj
 .comment       0x00000079       0x7a CMakeFiles/L-ink_Card.elf.dir/Src/stm32l0xx_hal_msp.c.obj
 .comment       0x00000079       0x7a CMakeFiles/L-ink_Card.elf.dir/Src/stm32l0xx_it.c.obj
 .comment       0x00000079       0x7a CMakeFiles/L-ink_Card.elf.dir/Src/syscalls.c.obj
 .comment       0x00000079       0x7a CMakeFiles/L-ink_Card.elf.dir/Src/system_stm32l0xx.c.obj
 .comment       0x00000079       0x7a CMakeFiles/L-ink_Card.elf.dir/Src/usart.c.obj

.debug_frame    0x00000000     0x43f4
 .debug_frame   0x00000000       0xa4 CMakeFiles/L-ink_Card.elf.dir/BSP/Display_EPD_W21.c.obj
 .debug_frame   0x000000a4       0x8c CMakeFiles/L-ink_Card.elf.dir/BSP/app_nfc.c.obj
 .debug_frame   0x00000130      0x858 CMakeFiles/L-ink_Card.elf.dir/Drivers/BSP/Components/ST25DV/st25dv.c.obj
 .debug_frame   0x00000988     0x101c CMakeFiles/L-ink_Card.elf.dir/Drivers/BSP/Components/ST25DV/st25dv_reg.c.obj
 .debug_frame   0x000019a4      0x118 CMakeFiles/L-ink_Card.elf.dir/Drivers/BSP/NFC04A1/nfc04a1.c.obj
 .debug_frame   0x00001abc      0x770 CMakeFiles/L-ink_Card.elf.dir/Drivers/BSP/NFC04A1/nfc04a1_nfctag.c.obj
 .debug_frame   0x0000222c      0x1f4 CMakeFiles/L-ink_Card.elf.dir/Drivers/STM32L0xx_HAL_Driver/Src/stm32l0xx_hal.c.obj
 .debug_frame   0x00002420      0x11c CMakeFiles/L-ink_Card.elf.dir/Drivers/STM32L0xx_HAL_Driver/Src/stm32l0xx_hal_cortex.c.obj
 .debug_frame   0x0000253c       0xd4 CMakeFiles/L-ink_Card.elf.dir/Drivers/STM32L0xx_HAL_Driver/Src/stm32l0xx_hal_gpio.c.obj
 .debug_frame   0x00002610      0x830 CMakeFiles/L-ink_Card.elf.dir/Drivers/STM32L0xx_HAL_Driver/Src/stm32l0xx_hal_i2c.c.obj
 .debug_frame   0x00002e40       0xb0 CMakeFiles/L-ink_Card.elf.dir/Drivers/STM32L0xx_HAL_Driver/Src/stm32l0xx_hal_i2c_ex.c.obj
 .debug_frame   0x00002ef0      0x154 CMakeFiles/L-ink_Card.elf.dir/Drivers/STM32L0xx_HAL_Driver/Src/stm32l0xx_hal_rcc.c.obj
 .debug_frame   0x00003044       0xc0 CMakeFiles/L-ink_Card.elf.dir/Drivers/STM32L0xx_HAL_Driver/Src/stm32l0xx_hal_rcc_ex.c.obj
 .debug_frame   0x00003104      0x584 CMakeFiles/L-ink_Card.elf.dir/Drivers/STM32L0xx_HAL_Driver/Src/stm32l0xx_hal_uart.c.obj
 .debug_frame   0x00003688      0x138 CMakeFiles/L-ink_Card.elf.dir/Src/custom_bus.c.obj
 .debug_frame   0x000037c0       0x38 CMakeFiles/L-ink_Card.elf.dir/Src/gpio.c.obj
 .debug_frame   0x000037f8       0x6c CMakeFiles/L-ink_Card.elf.dir/Src/main.c.obj
 .debug_frame   0x00003864       0x48 CMakeFiles/L-ink_Card.elf.dir/Src/stm32l0xx_hal_exti.c.obj
 .debug_frame   0x000038ac       0x20 CMakeFiles/L-ink_Card.elf.dir/Src/stm32l0xx_hal_msp.c.obj
 .debug_frame   0x000038cc       0x80 CMakeFiles/L-ink_Card.elf.dir/Src/stm32l0xx_it.c.obj
 .debug_frame   0x0000394c      0x19c CMakeFiles/L-ink_Card.elf.dir/Src/syscalls.c.obj
 .debug_frame   0x00003ae8       0x38 CMakeFiles/L-ink_Card.elf.dir/Src/system_stm32l0xx.c.obj
 .debug_frame   0x00003b20       0x5c CMakeFiles/L-ink_Card.elf.dir/Src/usart.c.obj
 .debug_frame   0x00003b7c       0x20 d:/progra~2/stm32c~1/gnu-to~1/bin/../lib/gcc/arm-none-eabi/9.2.1/thumb/v6-m/nofp\libgcc.a(_udivsi3.o)
 .debug_frame   0x00003b9c       0x3c d:/progra~2/stm32c~1/gnu-to~1/bin/../lib/gcc/arm-none-eabi/9.2.1/thumb/v6-m/nofp\libgcc.a(_udivmoddi4.o)
 .debug_frame   0x00003bd8       0x20 d:/progra~2/stm32c~1/gnu-to~1/bin/../lib/gcc/arm-none-eabi/9.2.1/../../../../arm-none-eabi/lib/thumb/v6-m/nofp\libg_nano.a(lib_a-errno.o)
 .debug_frame   0x00003bf8       0x2c d:/progra~2/stm32c~1/gnu-to~1/bin/../lib/gcc/arm-none-eabi/9.2.1/../../../../arm-none-eabi/lib/thumb/v6-m/nofp\libg_nano.a(lib_a-init.o)
 .debug_frame   0x00003c24       0x20 d:/progra~2/stm32c~1/gnu-to~1/bin/../lib/gcc/arm-none-eabi/9.2.1/../../../../arm-none-eabi/lib/thumb/v6-m/nofp\libg_nano.a(lib_a-memset.o)
 .debug_frame   0x00003c44       0x50 d:/progra~2/stm32c~1/gnu-to~1/bin/../lib/gcc/arm-none-eabi/9.2.1/../../../../arm-none-eabi/lib/thumb/v6-m/nofp\libg_nano.a(lib_a-printf.o)
 .debug_frame   0x00003c94      0x170 d:/progra~2/stm32c~1/gnu-to~1/bin/../lib/gcc/arm-none-eabi/9.2.1/../../../../arm-none-eabi/lib/thumb/v6-m/nofp\libg_nano.a(lib_a-findfp.o)
 .debug_frame   0x00003e04       0x58 d:/progra~2/stm32c~1/gnu-to~1/bin/../lib/gcc/arm-none-eabi/9.2.1/../../../../arm-none-eabi/lib/thumb/v6-m/nofp\libg_nano.a(lib_a-fwalk.o)
 .debug_frame   0x00003e5c       0xb0 d:/progra~2/stm32c~1/gnu-to~1/bin/../lib/gcc/arm-none-eabi/9.2.1/../../../../arm-none-eabi/lib/thumb/v6-m/nofp\libg_nano.a(lib_a-lock.o)
 .debug_frame   0x00003f0c       0x30 d:/progra~2/stm32c~1/gnu-to~1/bin/../lib/gcc/arm-none-eabi/9.2.1/../../../../arm-none-eabi/lib/thumb/v6-m/nofp\libg_nano.a(lib_a-nano-mallocr.o)
 .debug_frame   0x00003f3c       0x9c d:/progra~2/stm32c~1/gnu-to~1/bin/../lib/gcc/arm-none-eabi/9.2.1/../../../../arm-none-eabi/lib/thumb/v6-m/nofp\libg_nano.a(lib_a-nano-vfprintf.o)
 .debug_frame   0x00003fd8       0x54 d:/progra~2/stm32c~1/gnu-to~1/bin/../lib/gcc/arm-none-eabi/9.2.1/../../../../arm-none-eabi/lib/thumb/v6-m/nofp\libg_nano.a(lib_a-nano-vfprintf_i.o)
 .debug_frame   0x0000402c       0x2c d:/progra~2/stm32c~1/gnu-to~1/bin/../lib/gcc/arm-none-eabi/9.2.1/../../../../arm-none-eabi/lib/thumb/v6-m/nofp\libg_nano.a(lib_a-sbrkr.o)
 .debug_frame   0x00004058       0x90 d:/progra~2/stm32c~1/gnu-to~1/bin/../lib/gcc/arm-none-eabi/9.2.1/../../../../arm-none-eabi/lib/thumb/v6-m/nofp\libg_nano.a(lib_a-stdio.o)
 .debug_frame   0x000040e8       0x48 d:/progra~2/stm32c~1/gnu-to~1/bin/../lib/gcc/arm-none-eabi/9.2.1/../../../../arm-none-eabi/lib/thumb/v6-m/nofp\libg_nano.a(lib_a-wbuf.o)
 .debug_frame   0x00004130       0x2c d:/progra~2/stm32c~1/gnu-to~1/bin/../lib/gcc/arm-none-eabi/9.2.1/../../../../arm-none-eabi/lib/thumb/v6-m/nofp\libg_nano.a(lib_a-writer.o)
 .debug_frame   0x0000415c       0x2c d:/progra~2/stm32c~1/gnu-to~1/bin/../lib/gcc/arm-none-eabi/9.2.1/../../../../arm-none-eabi/lib/thumb/v6-m/nofp\libg_nano.a(lib_a-wsetup.o)
 .debug_frame   0x00004188       0x2c d:/progra~2/stm32c~1/gnu-to~1/bin/../lib/gcc/arm-none-eabi/9.2.1/../../../../arm-none-eabi/lib/thumb/v6-m/nofp\libg_nano.a(lib_a-closer.o)
 .debug_frame   0x000041b4       0x68 d:/progra~2/stm32c~1/gnu-to~1/bin/../lib/gcc/arm-none-eabi/9.2.1/../../../../arm-none-eabi/lib/thumb/v6-m/nofp\libg_nano.a(lib_a-fflush.o)
 .debug_frame   0x0000421c       0x2c d:/progra~2/stm32c~1/gnu-to~1/bin/../lib/gcc/arm-none-eabi/9.2.1/../../../../arm-none-eabi/lib/thumb/v6-m/nofp\libg_nano.a(lib_a-lseekr.o)
 .debug_frame   0x00004248       0x54 d:/progra~2/stm32c~1/gnu-to~1/bin/../lib/gcc/arm-none-eabi/9.2.1/../../../../arm-none-eabi/lib/thumb/v6-m/nofp\libg_nano.a(lib_a-makebuf.o)
 .debug_frame   0x0000429c       0x20 d:/progra~2/stm32c~1/gnu-to~1/bin/../lib/gcc/arm-none-eabi/9.2.1/../../../../arm-none-eabi/lib/thumb/v6-m/nofp\libg_nano.a(lib_a-memchr-stub.o)
 .debug_frame   0x000042bc       0x40 d:/progra~2/stm32c~1/gnu-to~1/bin/../lib/gcc/arm-none-eabi/9.2.1/../../../../arm-none-eabi/lib/thumb/v6-m/nofp\libg_nano.a(lib_a-mlock.o)
 .debug_frame   0x000042fc       0x2c d:/progra~2/stm32c~1/gnu-to~1/bin/../lib/gcc/arm-none-eabi/9.2.1/../../../../arm-none-eabi/lib/thumb/v6-m/nofp\libg_nano.a(lib_a-nano-freer.o)
 .debug_frame   0x00004328       0x2c d:/progra~2/stm32c~1/gnu-to~1/bin/../lib/gcc/arm-none-eabi/9.2.1/../../../../arm-none-eabi/lib/thumb/v6-m/nofp\libg_nano.a(lib_a-readr.o)
 .debug_frame   0x00004354       0x48 d:/progra~2/stm32c~1/gnu-to~1/bin/../lib/gcc/arm-none-eabi/9.2.1/../../../../arm-none-eabi/lib/thumb/v6-m/nofp\libg_nano.a(lib_a-reent.o)
 .debug_frame   0x0000439c       0x2c d:/progra~2/stm32c~1/gnu-to~1/bin/../lib/gcc/arm-none-eabi/9.2.1/../../../../arm-none-eabi/lib/thumb/v6-m/nofp\libg_nano.a(lib_a-fstatr.o)
 .debug_frame   0x000043c8       0x2c d:/progra~2/stm32c~1/gnu-to~1/bin/../lib/gcc/arm-none-eabi/9.2.1/../../../../arm-none-eabi/lib/thumb/v6-m/nofp\libg_nano.a(lib_a-isattyr.o)
