:020000040800F2
:1000000048280020CD010008D5010008011700088C
:10001000D9010008DB010008DD0100080000000034
:10002000939D939B08999697FE000000DF010008BE
:10003000E1010008C66F0008E30100082518000868
:10004000E7010008E7010008E7010008E7010008F0
:10005000E7010008E7010008E7010008E7010008E0
:10006000E7010008E7010008E7010008E7010008D0
:10007000E7010008E7010008E7010008E7010008C0
:10008000E7010008E7010008E7010008E7010008B0
:1000900081340008E7010008E7010008E7010008D3
:1000A000E7010008E7010008E7010008E701000890
:1000B000E7010008E7010008E7010008E701000880
:1000C000E7010008E7010008E7010008E701000870
:1000D000E7010008E7010008F51A0008E701000839
:1000E000E7010008E7010008E701000800F002F856
:1000F00000F05AF80AA090E8000C82448344AAF168
:100100000107DA4501D100F04FF8AFF2090EBAE865
:100110000F0013F0010F18BFFB1A43F0010318473B
:10012000AC7D0000CC7D00000A444FF0000C10F8BC
:10013000013B13F0070408BF10F8014B1D1108BF65
:1001400010F8015B641E05D010F8016B641E01F805
:10015000016BF9D113F0080F1EBF10F8014BAD1C55
:100160000C1B09D16D1E58BF01F801CBFAD505E073
:1001700014F8016B01F8016B6D1EF9D59142D6D3CD
:10018000704700000023002400250026103A28BFF5
:1001900078C1FBD8520728BF30C148BF0B607047F9
:1001A0001FB51FBD10B510BD00F08EFA1146FFF748
:1001B000F7FF04F01BFC00F0ACFA03B4FFF7F2FF0A
:1001C00003BC00F0B3FA00008546084709488047A1
:1001D00009480047FEE7FEE7FEE7FEE7FEE7FEE729
:1001E000FEE7FEE7FEE7FEE704480549054A064B41
:1001F00070470000C1180008ED00000848220020E8
:10020000482800204824002048240020B2F1200380
:100210000AD5C2F1200320FA02F001FA03F321FA11
:1002200002F140EA0300704721FA03F04FF00001A9
:10023000704740EA010310B59B070FD1042A0DD384
:1002400010C808C9121F9C42F8D020BA19BA8842B7
:1002500001D9012010BD4FF0FF3010BD1AB1D307F6
:1002600003D0521C07E0002010BD10F8013B11F82C
:10027000014B1B1B07D110F8013B11F8014B1B1B55
:1002800001D1921EF1D1184610BD10B5431C02E0F9
:1002900010F8011B71B18107FAD14FF0013202C889
:1002A0008C1A8C4314EAC211F9D0C01A0A0603D082
:1002B000C01E10BDC01A10BD0A0401D0801E10BDA2
:1002C0000902FCD0401E10BD40EA010370B59B0737
:1002D0002ED14FF00136042A2AD308C810C99D1B1D
:1002E0009D43121F15EAC61517D0D8B2E1B2401AC5
:1002F00050EA056110D198B2A1B2401A50EA054106
:100300000AD123F07F4024F07F41401A50EA0521B2
:1003100002D1180EA0EB146070BDA342DBD018BA56
:1003200021BA884201D9012070BD4FF0FF3070BD65
:100330000AB9002070BD10F8013B11F8014B63B100
:10034000A3420AD1521E08D010F8013B11F8014B0C
:100350001BB1A34201D1521EEDD1181B70BD421E2C
:1003600012F8013F002BFBD111F8013B002B02F8E2
:10037000013BF9D17047032A40F2568010F0030C7C
:1003800000F0158011F8013BBCF1020F624498BFE8
:1003900011F801CB00F8013B38BF11F8013BA2F185
:1003A000040298BF00F801CB38BF00F8013B11F000
:1003B000030300F0B080121FC0F03680A1EB0301F0
:1003C000022BD1F800C000F0118000F21E804FEA2D
:1003D0001C2351F804CF121F43EA0C6340F8043B7E
:1003E000BFF4F5AF01F1010100F01EB84FEA1C4364
:1003F00051F804CF121F43EA0C4340F8043BBFF40A
:10040000F5AF01F1020100F00FB84FEA1C6351F89B
:1004100004CF121F43EA0C2340F8043BBFF4F5AFAE
:1004200001F10301AFF30080D20724BF11F8013BB3
:1004300011F801CB48BF11F8012B24BF00F8013B94
:1004400000F801CB48BF00F8012B7047431A28BFC2
:100450009A427FF690AF032A1044114440F249803B
:1004600010F0030F1EBF11F8013D521E00F8013DB0
:1004700010F0030F7FF4F6AF11F0030300F0FA80E1
:10048000121FC0F03680A1EB0301022BD1F800C08F
:10049000C0F0118000F21E804FEA0C4351F804CDE9
:1004A000121F43EA1C4340F8043DBFF4F5AF01F1CD
:1004B000020100F01EB84FEA0C6351F804CD121F80
:1004C00043EA1C2340F8043DBFF4F5AF01F10101FC
:1004D00000F00FB84FEA0C2351F804CD121F43EA85
:1004E0001C6340F8043DBFF4F5AF01F10301AFF325
:1004F0000080D20724BF11F8013D11F801CD48BF9B
:1005000011F8012C24BF00F8013D00F801CD48BFCF
:1005100000F8012C704710B5203AC0F00B80B1E80C
:100520001850203AA0E81850B1E81850A0E8185028
:10053000BFF4F5AF5FEA027C24BFB1E81850A0E831
:10054000185044BF18C918C0BDE810405FEA827C4B
:1005500024BF51F8043B40F8043B08BF7047D20762
:1005600028BF31F8023B48BF11F8012B28BF20F803
:10057000023B48BF00F8012B704702F0FF0343EA3B
:10058000032242EA024200F002B84FF000020429BE
:10059000C0F0128010F0030C00F01B80CCF1040CB2
:1005A000BCF1020F18BF00F8012BA8BF20F8022BE6
:1005B000A1EB0C0100F00DB85FEAC17C24BF00F88C
:1005C000012B00F8012B48BF00F8012B70474FF0BA
:1005D000000200B5134694469646203922BFA0E893
:1005E0000C50A0E80C50B1F12001BFF4F7AF09079F
:1005F00028BFA0E80C5048BF0CC05DF804EB890090
:1006000028BF40F8042B08BF704748BF20F8022BD2
:1006100011F0804F18BF00F8012B70474278017825
:100620008378C07841EA022141EA034141EA00604F
:1006300070474FEA102208704A704FEA10428A70E1
:100640004FEA1062CA707047704770477047431A8C
:1006500028BF9A427FF65FAF104410F0030F114499
:100660001EBF11F8013D521E00F8013D10F0030FAE
:100670007FF4F6AF103AC0F00A8010B531E9185097
:10068000103A20E91850BFF4F9AFBDE81040530705
:1006900024BF31E9081020E9081044BF51F8043D97
:1006A00040F8043D12F0030F08BF7047D20728BF7F
:1006B00031F8023D48BF11F8012C28BF20F8023D57
:1006C00048BF00F8012C7047754600F02BF8AE4685
:1006D00005006946534620F00700854618B020B54E
:1006E000FFF782FDBDE820404FF000064FF0000705
:1006F0004FF000084FF0000B21F00701AC46ACE8CA
:10070000C009ACE8C009ACE8C009ACE8C0098D4636
:10071000704710B50446AFF300802046BDE8104096
:10072000FFF74BBD00487047E82100200149182021
:10073000ABBEFEE7260002007047000001078A0EEC
:1007400007490A44D2F8001C000602D548F6CF70CB
:1007500001E04CF68F700140C2F8001C70470000A9
:10076000005000400207930E0C4A30B51344D3F8F2
:10077000002C000648F68F7402EA040048F2800557
:1007800082EA010202D502F0300101E002F4405198
:1007900008432843C3F8000C30BD0000005000405F
:1007A00030B585B00546002400F03CF90120002159
:1007B00003900091CDE9011504A9684600F092F874
:1007C00000B1012400F0E2F805B0204630BD000081
:1007D00006490020C8610648016941F00401016131
:1007E000016941F04001016170470000881B002051
:1007F00000200240064A0021D16106490A6942F000
:1008000002020A614861086940F0400008617047CF
:10081000881B002000200240044B0022DA61044AB9
:10082000136943F00103136101807047881B0020A6
:10083000002002400E49C868C2060E4803D5C269AE
:1008400042F00202C261CA68520703D5C26942F08F
:100850000102C261CA69D20707D0C26942F004022C
:10086000C261C86920F00100C8611420C8607047E7
:1008700000200240881B002070B5044600F0CEF92D
:100880000546114E09E0601C07D024B100F0C6F9FE
:10089000401BA04201D9032070BDF068C007F2D10F
:1008A000F068800601D52020F060F068C00605D40D
:1008B000F069C00702D1F068400703D5FFF7BAFF1F
:1008C000012070BD002070BD0020024031B500F055
:1008D000A5F9044600F0A2F90099001B8842F9D35B
:1008E00038BD00002DE9F047054626480F46012691
:1008F000017E01290FD00121814601762868DFF8A9
:1009000088804CF25034022808D0A2462046FFF7D7
:10091000B3FFA8B131E00220BDE8F0872046FFF721
:10092000ABFF08BB0120FFF753FF2046FFF7A4FFF2
:10093000D8F81010064621F00401C8F810101CE089
:100940004FF0FF303860AC6811E02046FFF752FFEF
:100950005046FFF791FFD8F81010060021F0020171
:10096000C8F8101001D03C6007E004F58064D5E9B8
:10097000020100EB8120A042E7D8002189F818107D
:100980003046C9E7881B0020002002400348016967
:1009900041F080010161002070470000002002400A
:1009A0002DE9F05F05461D4888460024017E164665
:1009B0001F46012909D00121814601764CF2503AA7
:1009C0005046FFF759FF18B123E00220BDE8F09F21
:1009D000012D02D0022D00D00425D346DFF840A01F
:1009E00015E0220130463946FFF710FC81B208EBD2
:1009F0004400FFF711FF5846FFF73EFFDAF81020DA
:100A000022F00102CAF8102018B9641CE4B2AC420A
:100A1000E7D3002289F81820D8E70000881B0020BF
:100A20000020024005480169090605D504494160D6
:100A300004494160002070470120704700200240B7
:100A400023016745AB89EFCD2DE9F84FDFF8A09181
:100A5000002309F1040A0AF1040B1C464FF00F08A9
:100A60000BF1040E01270A68A7403A40BA4272D13E
:100A7000DFF880C14D68A5EB0C0665452BD00DDC79
:100A8000032D34D005DC35B3012D19D0022D2FD123
:100A90001BE0112D16D0122D2AD119E0B6F5881FB2
:100AA00019D006DCB6F5803F15D0B6F5801F1FD1F2
:100AB00011E0B6F5001F0ED0B6F5041F18D10AE0FC
:100AC000CB6815E0CB681B1D12E0CB6808330FE044
:100AD000CB680C330CE08B682BB1012B4FF0080373
:100AE00003D0476104E0042302E0076100E0002333
:100AF000FF2A01D8064601E000F104064FEA84050A
:100B000001D9A5F12005376808FA05FC27EA0C078A
:100B100003FA05F547EA050737604D68ED0060D533
:100B2000354DAE6946F00106AE61AD6924F00306AD
:100B300005F001050095314D7719BE68A5072D0F09
:100B400008FA05FC26EA0C06DFF8B4C0604503D1BC
:100B50004FF0000C17E044E0DFF8A8C0604502D178
:100B60004FF0010C0FE0DFF8A0C0604502D14FF05C
:100B7000020C08E0DFF894C0604502D14FF0030C8E
:100B800001E04FF0040C0CFA05FC4CEA060CC7F827
:100B900008C04D68D9F80060ED034D4601D51643F5
:100BA00000E096432E604D68DAF80060AD035546CC
:100BB00001D5164300E096432E604D68DBF80060D7
:100BC000ED025D4601D5164300E096432E604D6868
:100BD000DEF80060AD02754601D5164300E096438D
:100BE0002E60641C102CFFF43DAFBDE8F88F0000B0
:100BF00000040140000011100010024000000140FC
:100C000000080140000C01400010014000140140A8
:100C10000AB1016170470904FBE70000EFF310809F
:100C200010F0010F72B608480068406A074B4FEA9F
:100C300090021868A2EB0002C2F30D021044186083
:100C400000D162B670470000481B0020B4020020AB
:100C5000074810B5016841F010010160032000F061
:100C60005DF80F2000F006F800F056F8002010BDE7
:100C70000020024010B588B005A9684600F020F9B0
:100C80000398B0F5806F08D0B0F5A06F35D0B0F5FF
:100C9000C06F34D0B0F5E06F33D001201A494FF067
:100CA000804200240968B1FBF0F04FF47A61B0FB98
:100CB000F1F11648491E02604FF6FF72C0E90324A5
:100CC000C0E9011444611248C16941F00101C161E8
:100CD000C06900F0010006900C4800F012FC0028EA
:100CE00009D10C480460094800F027FC002802D113
:100CF000064800F03FFC08B010BD0220CEE70420FB
:100D0000CCE70820CAE70000B8020020481B0020FA
:100D100000100240B402002070470000064A00F0B4
:100D2000070110684FF6FF03184040EA012003490D
:100D300008431060704700000CED00E00000FA0569
:100D40002DE9F047DFF8688104460E46D8F8000028
:100D500000F00700B0420CD2D8F8001021F00701D3
:100D60003143C8F80010D8F8000000F00700B04286
:100D700073D120784F4F800705D57868A16820F09F
:100D8000F000084378602078C00755D060680122E1
:100D900001280CD0022828D0022393FAA3F1B1FA3B
:100DA00081F141F02001490904D0396803E04FF492
:100DB0000033F2E7796A93FAA3F3B3FA83F303F00B
:100DC0001F039A40114248D0796821F00301014382
:100DD0007960FFF723FF0546606841F288310128FA
:100DE0000CD00228894615D022E04FF00073D4E7DA
:100DF000FFF714FF411B494501D916E08946786881
:100E0000C0F381000128F3D116E0FFF707FF411B73
:100E100049450AD87868C0F381000228F5D10BE073
:100E2000FFF7FCFE411B494502D90320BDE8F087CE
:100E3000786810F00C0FF3D1D8F80010404601F09C
:100E40000701B1420BD9016821F00701314301606C
:100E5000006800F00700B04201D00120E6E72078EA
:100E6000400705D57868E16820F4E06008437860C1
:100E70002078000706D57868216920F4605040EAA0
:100E8000C100786000F03CF87968F02292FAA2F292
:100E900001F0F001B2FA82F2D140074A515CC84039
:100EA000064908600F20FFF7E5FE0020BEE70000BE
:100EB0000020024000100240E8740008B802002040
:100EC0000F2202600C4A536803F003034360536827
:100ED00003F0F0038360536803F4E063C360526877
:100EE0004FF4E06303EAD20202610448006800F0B4
:100EF0000700086070470000001002400020024018
:100F000010B519A085B00FC88DE80F001AA01B4BB3
:100F10000068049059681A4801F00C02042A1DD098
:100F2000082A1BD14FF4701494FAA4F401F470123F
:100F3000B4FA84F4E240C9031DF8022010D55968C0
:100F40004FF4003393FAA3F301F40031B3FA83F3BF
:100F5000D94004AB595CB0FBF1F0504305B010BD73
:100F600008485043FAE70000020304050607080991
:100F70000A0B0C0D0E0F10100102000000100240B1
:100F800000127A0000093D002DE9F84F0446007870
:100F9000FE4EC0074FF001057FD070684FF4003857
:100FA000C0F38100012807D07068C0F381000228D7
:100FB0001BD17068C00318D598FAA8F0B0FA80F079
:100FC00040F02000400901D0306800E0706A98FAD3
:100FD000A8F1B1FA81F101F01F0105FA01F108420F
:100FE0005BD06068002879D057E06068B0F5803F3A
:100FF0000BD010B1B0F5A02F11D0306820F48030A4
:101000003060306820F4802002E0306840F48030A6
:101010003060606818B3FFF701FE074609E03068EA
:1010200040F480203060F0E7FFF7F8FDC01B642833
:1010300070D898FAA8F0B0FA80F040F0200040098B
:1010400001D0306800E0706A98FAA8F1B1FA81F135
:1010500001F01F0105FA01F10842E5D01DE0FFF79C
:10106000DDFD074604E0FFF7D9FDC01B6428DFD88B
:1010700098FAA8F0B0FA80F040F02000400901D0C2
:10108000306800E0706A98FAA8F1B1FA81F101F0D5
:101090001F0105FA01F10842E5D12078DFF8F0825E
:1010A00080074FF0000A4FF002075AD570684FF0E2
:1010B000F80B10F00C0F07D07068C0F38100022805
:1010C0001CD17068C00319D497FAA7F0B0FA80F069
:1010D00040F02000400902D0306801E08AE0706AE8
:1010E00097FAA7F1B1FA81F101F01F0105FA01F1B8
:1010F00008422BD0206901287CD127E0206988B3E1
:1011000095FAA5F0B0FA80F048F82050FFF786FD78
:10111000814606E04DE1FFF781FDA0EB09000228C2
:1011200086D897FAA7F0B0FA80F040F02000400986
:1011300001D0306800E0706A97FAA7F1B1FA81F146
:1011400001F01F0105FA01F10842E4D030689BFA72
:10115000ABF220F0F8016069B2FA82F290400143EC
:10116000316025E0FFE795FAA5F1B1FA81F148F881
:1011700021A0FFF753FD814605E0FFF74FFDA0EBEF
:1011800009000228CCD897FAA7F0B0FA80F040F016
:101190002000400901D0306800E0706A97FAA7F19A
:1011A000B1FA81F101F01F0105FA01F10842E4D121
:1011B000207800076DD5A069B8B395FAA5F0B0FA0C
:1011C00080F008EB8000C0F88054FFF727FD8146CF
:1011D00005E0FFF723FDA0EB09000228A0D897FA4D
:1011E000A7F0B0FA80F040F06000B5EB501F02D1DC
:1011F00030680CE063E197FAA7F0B0FA80F040F0B5
:101200006000B7EB501F01D1306A00E0706A97FAB6
:10121000A7F1B1FA81F101F01F0105FA01F21042C4
:10122000D7D00120FFF752FB33E0FFE795FAA5F195
:10123000B1FA81F108EB8101C1F880A4FFF7EEFC5F
:10124000814605E0FFF7EAFCA0EB0900022899D8E7
:1012500097FAA7F0B0FA80F040F06000B5EB501FAD
:1012600001D130680BE097FAA7F0B0FA80F040F0B7
:101270006000B7EB501F01D1306A00E0706A97FA46
:10128000A7F1B1FA81F101F01F0105FA01F2104254
:10129000D8D12078400763D5F06940F08050F061E4
:1012A000F069DFF8F0B000F080500090DBF800103B
:1012B00041F48071CBF80010FFF7B0FC814605E0E7
:1012C000FFF7ACFCA0EB0900642872D8DBF8000043
:1012D000C005F5D5E06801280AD008B1052813D06B
:1012E000306A20F001003062306A20F0040002E031
:1012F000306A40F001003062E06841F2883B80B320
:10130000FFF78CFC81460AE0306A40F0040030624E
:10131000EEE7FFF783FCA0EB0901594549D897FA9E
:10132000A7F0B0FA80F040F04000B5EB501F01D1BB
:1013300030680BE097FAA7F0B0FA80F040F0400078
:10134000B7EB501F01D1306A00E0706A97FAA7F13D
:10135000B1FA81F101F01F0205FA02F10842D8D07A
:1013600033E0FFE7FFF75AFC814605E0FFF756FC44
:10137000A0EB090159451CD897FAA7F0B0FA80F004
:1013800040F04000B5EB501F08D105E000100240CE
:10139000000042420070004030680CE097FAA7F06D
:1013A000B0FA80F040F04000B7EB501F02D1306A35
:1013B00001E08AE0706A97FAA7F1B1FA81F101F0D1
:1013C0001F0205FA02F10842D0D1E06998B37168B2
:1013D000C1F38101022972D002284FF080714FF0D1
:1013E000007B50460AD091FAA1F1B1FA81F148F898
:1013F0002100FFF713FC04465F4669E08A4691FA34
:10140000A1F1B1FA81F1C14648F82100FFF706FCCD
:10141000A84607465D4604E0FFF700FCC01B022813
:1014200053D895FAA5F0B0FA80F040F020004009BA
:1014300002D0306801E060E0706A95FAA5F1B1FA77
:1014400081F101F01F0208FA02F10842E4D1206A9A
:10145000B0F5803F05D17068A16820F400300843E2
:101460007060D4E908010843716821F474110843DD
:1014700070609AFAAAF0B0FA80F0474649F82080E6
:10148000FFF7CCFB044604E0FFF7C8FB001B022873
:101490001BD895FAA5F0B0FA80F040F02000400982
:1014A00001D0306800E0706A95FAA5F1B1FA81F1D7
:1014B00001F01F0107FA01F10842E5D01DE01EE02E
:1014C000FFF7ACFB001B022802D90320BDE8F88F10
:1014D00097FAA7F0B0FA80F040F02000400901D060
:1014E000306800E0706A97FAA7F1B1FA81F101F073
:1014F0001F0105FA01F10842E2D10020E6E70120D0
:10150000E4E710B50446022084F839002068016A37
:1015100041F21112114207D1016A9210114203D116
:10152000016821F001010160204600F021F800204F
:1015300084F8390084F8380010BD10B5040003D0D9
:1015400094F8390010B107E0012010BD002084F8A4
:101550003800204600F00DF8022084F83900211DE3
:10156000206800F0E1F9012084F83900002010BD66
:1015700070477047022180F8391001680A6842F00C
:1015800001020A60012180F839100020704770B50F
:10159000044690F838000D4601280DD0012684F845
:1015A0003860022084F8390042B1042A18D0082A91
:1015B0002AD00C2A4DD139E0022070BD206800F0FD
:1015C000F1F92068816941F0080181612068816931
:1015D00021F004018161206881692A69114311E0C9
:1015E000206800F00BFA2068816941F40061816194
:1015F0002068816921F480618161206881692A699C
:1016000041EA0221816124E0206800F025FA206887
:10161000C16941F00801C1612068C16921F004017C
:10162000C1612068C1692A69114311E0206800F096
:101630003FFA2068C16941F40061C1612068C16955
:1016400021F48061C1612068C1692A6941EA0221EF
:10165000C16184F83960002084F8380070BD10B58D
:101660000446022084F839002068016A41F2111210
:10167000114207D1016A9210114203D1016821F091
:1016800001010160204600F021F8002084F83900B3
:1016900084F8380010BD10B5040003D094F8390068
:1016A00010B107E0012010BD002084F8380020466A
:1016B00000F00DF8022084F83900211D206800F0A8
:1016C00033F9012084F83900002010BD70477047BD
:1016D00010B504460068012200F058F90749206857
:1016E000884203D1416C41F40041416420680168A3
:1016F00041F001010160002010BD0000002C0140FC
:10170000EFF308840EF00F000D2801D1EFF30984E8
:10171000A08B04F12005800500D52D1D5FEACE6069
:1017200000D44835704602F05DF8EFF3098002F00E
:1017300059F8EFF3088002F055F8EFF3148002F047
:1017400051F8284602F04EF8606902F04BF8A069A3
:1017500002F048F8E06902F045F81248006802F02B
:1017600041F81048001F006802F03CF80D48001DC9
:10177000006802F037F80B481030006802F032F8C9
:1017800008480830006802F02DF806480C30006860
:1017900002F028F84A2204A1002001F0C5FE00F062
:1017A000B3F8FEE72CED00E02866696C65290000BF
:1017B0000020704700F01F02012191404009800085
:1017C00000F1E020C0F80011704700002DE9F04161
:1017D00017460D4680460026FFF724F9A80706D0D5
:1017E00000206E220DA101F09FFE00240DE00120DB
:1017F000F7E757F8242008EB840100230220FFF7C5
:10180000CFF808B1012603E0641CB4EB950FF0D3C8
:10181000FFF7BCF83046BDE8F08100002866696C2F
:101820006529000010B50B4CE16849B1206938B159
:101830002268B2FBF0F300FB132008B900208847B0
:101840002068401C2060A068002802D0A068401ECC
:10185000A06010BDDC020020144A10B55068144B83
:1018600010F00C01134803D0042901D0082901D03D
:10187000036012E05168536801F470114FF00204E4
:1018800013F4803F04EB914102D053689B0301D5D0
:10189000094B00E0064B594301605168074AC1F308
:1018A0000311515C0268CA40026010BD0010024082
:1018B00000127A00B802002000093D00E874000818
:1018C0000D48016841F00101016041680B4A114077
:1018D000416001680A4A11400160016821F48021D9
:1018E0000160416821F4FE0141604FF41F018160F5
:1018F0000449C00308607047001002400000FFF870
:10190000FFFFF6FE08ED00E0BFF34F8F04480168CB
:10191000044A01F4E06111430160BFF34F8FFEE719
:101920000CED00E00400FA05F0B50268144C154D0A
:10193000154E4FF08047A04205D0B84203D0A842D0
:1019400001D0B04203D122F070034A681A43A0428A
:1019500005D0B84203D0A84201D0B04203D122F44E
:101960004073CA681A4302608A68C2620A68826267
:10197000A04201D10969016301214161F0BD00006C
:10198000002C0140000400400008004010B5012375
:10199000046A8B409C430462036A8A4013430362D7
:1019A00010BD000030B5026A22F001020262036A33
:1019B0004268846924F073050C682C4323F0020507
:1019C0008B682B430C4DA84206D123F00805CB6849
:1019D00043EA050323F0040307D14D6922F4407262
:1019E00045EA02058A6942EA050242608461496863
:1019F0004163036230BD0000002C014030B5026A33
:101A000022F010020262026A436884690D6824F4BD
:101A1000E64444EA05248D6822F0200242EA0512D9
:101A20000C4DA84206D1CD6822F0800242EA051290
:101A300022F0400207D14D6923F4406343EA850355
:101A40008D6943EA8503436084614968816302626A
:101A500030BD0000002C014030B5026A22F48072D3
:101A60000262036A4268C46923F4007324F07305B8
:101A70000C682C438D6843EA05230C4DA84206D11F
:101A8000CD6823F4006343EA052323F4806307D180
:101A90004D6922F4405242EA05128D6942EA05126C
:101AA0004260C4614968C163036230BD002C0140DB
:101AB00030B5026A22F480520262036A4268C46945
:101AC0000D6824F4E64444EA05248D6823F40053A9
:101AD00043EA0533064DA84204D14D6922F4804201
:101AE00042EA85124260C46149680164036230BD04
:101AF000002C014070B515480468154DA00612D59C
:101B00002868C6B2134801F06FFD132804D9314686
:101B1000104801F0BDFD06E005D14FF013020EA103
:101B20000C4801F0E5FD200607D5104801F06DFDD9
:101B300020B10E4801F07CFD286070BD04480830DB
:101B400001680B4A1140016070BD00000044004074
:101B500004440040B81D00203C4441504C696E6B69
:101B60003A4F766572666C6F773E0A00A81B0020BC
:101B70007FFFFFEF00B50346FEF7E0FD43F23001C3
:101B800018465DF804EBFEF7EDBD0000F0B5827875
:101B9000224D4179047902F00F0344EA012116062F
:101BA0006F682C8802F00F0207EB021204D5491C63
:101BB00021F00101146011E094603E2909D91F3120
:101BC00021F01F014FF0FF3404EB411444F40044B2
:101BD00003E0491C21F001014C02D4602A880A4428
:101BE0002A80C07810F0030006D0012807D0022810
:101BF00008D003280AD107E04FF4007106E04FF443
:101C0000806103E0002101E04FF4C061044A194300
:101C100002EB8300C0F8001CF0BD0000C8020020E9
:101C200000500040002802D10149B02008807047D0
:101C3000C80200200949CA1350B1012008600020E1
:101C400008600B1D18604FF4E0500860044803E082
:101C5000032008600248001F02607047405C00409B
:101C6000140C014010B50B4C0B48A288007882423E
:101C700000D902461AB9074900201439087180209A
:101C8000216801F0C7FB216801442160A188081A7E
:101C9000A08010BD08030020FB74000810B5064C9E
:101CA0000020A288216801F033F8216801442160F6
:101CB000A188081AA08010BD0803002070470021E9
:101CC000FEF750BD43F22001FEF74CBD2DE9F04771
:101CD0006E4F0446A7F1080580074FF00009A5F1F3
:101CE000140622D501F060FB3878C009FFF7E6FF43
:101CF000F888A8803878C0F3411121B101295AD061
:101D000002296FD165E07978DFF884810C2969D2E6
:101D1000DFE801F0060C6813681827682B31384695
:101D200001F0EEF81FE0FFF79DFF67E0002005E0FF
:101D300001F04AFBD8F8000039E0012001F020F959
:101D4000C0B3F5E710F01F0F4CD1B878012140F077
:101D50008000307000F07F0001F018FB01F034FBD0
:101D60004CE001F003F828B3DDE710F01F0F39D184
:101D700046481B3812E001F053F9D8B101F024FBBA
:101D8000444813E000F01F0001282BD1707888B17F
:101D90003879B178884225D23F4908442860C2E7A3
:101DA00001F004FA30B101F00FFB3C48006828B3A1
:101DB000804723E016E010F01F0013D0012811D156
:101DC00000F074F8D0B900F073F8B8B900F06CF80E
:101DD00007E010F01F0F05D100F09EF870B900F079
:101DE0009DF858B93878000603D4F88808B1002067
:101DF00000E0802001F0D4FAA5F80490600721D516
:101E0000387800061CD4A888E0B1FFF747FFA888FF
:101E1000C0B93878C0F3411161B101290AD110F07D
:101E20001F0007D0012805D100F03CF850B900F0A0
:101E300037F838B9802001F0B3FAA5F8049001E032
:101E400001F0C8FA200712D53878000606D5A88810
:101E5000317908430BD0FFF705FF08E03078010621
:101E600005D500F07F003070002101F08FFA600688
:101E700002D50020FFF77EFE200604D5BDE8F0471E
:101E80008020FFF777BEBDE8F08700001003002038
:101E90006075000858750008C60200205C750008CF
:101EA00000207047002070470020704700207047D6
:101EB00010B51548154A01791278914222D1014690
:101EC0004278C8788B788C7943EA0020CB79FE2A57
:101ED00044EA032109D0FF2A14D198B991B900F03E
:101EE0005DFE78B101F070FA0AE058B9012909D114
:101EF00000F038FB30B1074905480860FFF7B2FE33
:101F0000012010BD002010BD10030020C5020020DC
:101F10009020002008030020002070470020704718
:101F20002DE9F041EFF3108010F0010F72B6DFF8E9
:101F3000E8804FF00002D8F81040C8F8102000D117
:101F400062B6600507D501F0CBF904F0D9F9334842
:101F5000006800B18047200505D501F045FA3048FA
:101F6000006800B18047E00405D501F049FA2D482A
:101F7000006800B18047A00503D52B48006800B178
:101F800080472A4D600403D5296809B1022088479B
:101F9000274FA0042BD5296849B3012026E0EFF391
:101FA000108010F0010F72B622484FF0070250F86F
:101FB000210001F10101B1FBF2F602FB1611C8F894
:101FC000081000D162B686B2050C280604D557F871
:101FD000261009B108208847280408D557F826108C
:101FE00029B1280501D5022000E0042088472004FB
:101FF0000FD5EFF3108000F0010272B6D8E902109D
:10200000814201D1012000E0002002B962B600281F
:10201000C5D0BDE8F0810000C802002004750008AA
:10202000087500080C750008107500081475000884
:102030001875000810210020064810B5C16941F448
:102040000001C1611420FFF7B5FB03494FF40040C4
:10205000086010BD00100240100C014070B500F087
:102060000FF900282AD016480224164E0470447036
:1020700003203463307014480546FEF7CFFA022877
:1020800008D9114920461F39FEF7D3FA29462046C0
:10209000FEF7CFFA0D4822460949007840F080004B
:1020A00001F0B8F92846FEF7B9FA316B401A294613
:1020B000FEF7BFFA044901200839087370BD00001B
:1020C000D020002018030020E0210020FC7400082C
:1020D000114910B50878022808D0032810D0042828
:1020E00012D0052801D10020087010BD0B48C07B1C
:1020F000282801D0A828F8D1BDE8104000F076BA11
:10210000BDE8104000F088BD0548007840F0800030
:1021100000F09CFDF4E7000018030020B921002026
:10212000FC7400081F4A10B51178B1B301290ED014
:102130001D48052900781BD0072929D000F086FD0D
:102140001A4902200873BDE8104000F065BD174829
:102150001F38C07B2A2803D02F2805D0AA2820D1D9
:10216000BDE8104000F020BBBDE8104000F0ACBA64
:10217000012181400E480068014201D0012000E0A9
:102180000020BDE810404FF488620AA101F0CCB9EC
:1021900000201070106B1F2803D1BDE8104000F024
:1021A000DBB810BD18030020FD740008D821002002
:1021B000000300202866696C6529000010B5134CE7
:1021C0006068E06008B1012010BD1148FEF726FAF2
:1021D000A0B10F480838007B000604D50D480078F0
:1021E00040F0800008E00A481F30FEF717FA216B24
:1021F000884203D00848007800F028FD04490120F7
:102200001731087300F008FD002010BD18030020EE
:10221000C1210020FC740008FD740008134810B5AB
:10222000007900F08F01080605D501F00F004FF48A
:102230008032824001E001228A400D48007840F05F
:1022400080048C4210D10B48006810420CD00A4820
:10225000FEF7E4F90949884206D12046BDE810405E
:102260000D22054901F0D6B810BD00001003002072
:10227000FC74000800030020D8210020555342536D
:1022800070B50B48FEF7CAF9094C0225173440B166
:10229000A4F11F00007B000608D40648007800F077
:1022A000D5FC257300F0B8FC002070BD012070BD86
:1022B000C1210020FD74000870B51148FEF7AEF989
:1022C000104C216B884202D82063032000E00420D8
:1022D00020700D480D49226B007840F0800001F01D
:1022E00099F807481F300546FEF798F9216B401A08
:1022F0002946FEF79EF9024900201731087370BD88
:10230000C121002018030020FC740008D020002008
:10231000064810B5028807480549007800F0F8FC27
:1023200005490863BDE81040FFF7FCBE02750008D0
:10233000D0200020FD7400081803002010B50446CA
:10234000400702D50020FFF7E3FF200703D5BDE8D3
:102350001040FFF7BDBE10BD2DE9F05F7A4E326B25
:102360001F2A01D2134600E01F230020774D784931
:1023700002E00C5C2C54401C9842FAD3DFF8D88160
:102380000127DFF8D0A198F800001F2A40F0800B49
:1023900069D16E48FEF742F97049884263D1281D21
:1023A000FEF73CF9694C1F34211DFEF742F9A4F1F8
:1023B0001700FEF733F904F10801FEF73AF9687BDC
:1023C00018B9A87B08B1102801D9277389E0E87BE8
:1023D0004FF002092A283ED022DC1A2850D00FDC08
:1023E0000428F2D006DCE8B30328EED1BDE8F05FA4
:1023F00000F092BB1228E8D1BDE8F05F00F0BAB857
:10240000232845D007DC1B2836D01E28DDD1BDE8A7
:10241000F05F00F0DDB825283ED02828D5D147E070
:102420009E2841D00FDC5528CFD004DC2F2853D074
:102430003528CAD103E05A2826D09128C5D1BDE855
:10244000F05F00F033BCA1282AD0A3285CD0A828D4
:102450002ED0AA28B9D100F09BFA002806D0287BFC
:10246000000601E004E053E049D43770BDE8F09F76
:10247000BDE8F05F00F022BCBDE8F05F00F0FCBBFF
:10248000BDE8F05F00F054BABDE8F05F00F01CBAA0
:10249000BDE8F05F00F002BBBDE8F05F00F0D6BA27
:1024A000BDE8F05FFFF7DABDBDE8F05F00F088BB84
:1024B00000F06EFA0028D9D0287B000605D586F8F2
:1024C0000090BDE8F05F00F091B89AF8000000F0CD
:1024D000BDFB84F80C9004E0287C800705D4002024
:1024E0002073BDE8F05F00F097BB00F051FA0028C0
:1024F000BCD0287B000602D437703762B6E798F864
:10250000000040F08000E2E7584600F09FFB5CE7E7
:102510004446584600F09AFB2078114C00F00F0119
:102520004FF48030884021685546084320609AF86F
:10253000000000F08BFB28788740206807430620C6
:102540002760307092E7000018030020B9210020B6
:10255000D0200020FD740008FC740008555342434D
:102560000403002002490020087001207047000089
:102570009020002010B5FFF783FE002820D0114BDB
:10258000002080211870597002219970D970202480
:102590001C7158719871D8710B48016808200A782D
:1025A00012B11A54491C00E01C54401CC0B224282B
:1025B000F5D3064924200863BDE81040FFF77CBE30
:1025C00010BD0000D0200020C00200201803002011
:1025D0000548C07CC107044800F11F0000D001215C
:1025E000017300F019BB0000B92100202DE9F04172
:1025F000304D314FDFF8C480A969686A00268842EF
:102600000AD33878002440F0800000F01FFB88F8DF
:102610000C6000F001FB08E02A492948097830F8ED
:102620001140E86A844200D30446FFF7C7FD00B9B1
:102630000024A86A68B374B1A96AE8692246014413
:10264000387840F0800000F0E5FEA86A2044A862D7
:10265000E86A001BE862D5E90410AA6A4143914286
:1026600003D1AE62696A08446862144808300746BC
:10267000FDF7D4FF001B3946FDF7DBFF002C06D029
:10268000E86A002803D10320287088F80C60BDE8B0
:10269000F081002CDFD0E96A28690144491EB1FBB2
:1026A000F0F26869824200D90246E969686A03F07B
:1026B000DFFDC1E718030020FC740008D8210020CA
:1026C000FE740008F70200202DE9F041324EDFF8D9
:1026D000CC800025B169706A884208D330483563E0
:1026E000007800F0B3FA88F80C5000F095FAFFF784
:1026F00065FD20B1306B10B3B06A10B10FE03563E7
:102700001DE0F16A30690144491EB1FBF0F27069C5
:10271000824200D90246F169706A03F0A9FD0020E7
:10272000204A336BB16A08E0F7690C183C5D175C0E
:10273000BC4201D0356202E0401C9842F4D3346BB5
:10274000B06A0119B162F06A071BF762D6E904208A
:1027500042438A4203D1B562716A084470620F48ED
:1027600008300546FDF75AFF001B2946FDF761FFBB
:10277000002C0ED017B1307805280AD1306A30B15C
:10278000002088F80C00BDE8F04100F045BA0120B7
:10279000F7E7BDE8F081000018030020D8210020F1
:1027A000FD740008D02000202DE9F041DFF8008101
:1027B000404F0026D8F81810D8F82400884208D3D3
:1027C0003D48C8F83060007800F040FA3E7300F0F1
:1027D00023FAFFF7F3FC08B9C8F83060D8F83010D6
:1027E000D8F828000844D8F81010884206D9BDE867
:1027F000F041FF2231A1002000F096BE00203149B7
:1028000007E0D8F82830D8F81C400A5C0344401C84
:10281000E254D8F830209042F3D3D8F828001100C1
:102820000844C8F82800D8F82C20A2EB0102C8F808
:102830002C2022D0454692B988B129690844401E0F
:10284000B0FBF1F46869844200D904462246E96984
:10285000686A03F027FDAE62686A20440CE0D5E99F
:1028600004125143814208D1E969686A03F01AFDF4
:10287000AE626969686A084468620E4808300546B5
:10288000FDF7CCFED8F830402946001BFDF7D1FEFD
:10289000002C0BD0D8F82C0018B198F800000528AF
:1028A00004D13E73BDE8F04100F0B6B9BDE8F08157
:1028B00018030020D8210020FD7400082866696CE8
:1028C00065290000D020002070B5FFF7D9FC002852
:1028D00026D0FFF773FC002822D0124800210622E0
:1028E0000170114B427081701A7A0824D201C270B3
:1028F000017141718171C1710C481C630546FDF77E
:102900008DFE082808D9094920461F39FDF791FE98
:1029100029462046FDF78DFEBDE87040FFF7CCBC90
:1029200070BD0000D020002018030020E02100200E
:1029300070B5FFF7A5FC002822D0FFF73FFC002868
:102940001ED010480321002201700F494270042458
:102950000B7ADB018370C2700C480C630546FDF7EF
:102960005DFE042808D9094920461F39FDF761FE9C
:1029700029462046FDF75DFEBDE87040FFF79CBC90
:1029800070BD0000D020002018030020E0210020AE
:102990002DE9F0412948FDF741FE284D00BA113DCF
:1029A00020F0FF04287D264E04430020C6E909409C
:1029B000E87B2F280AD004DC28280BD02A281CD139
:1029C00004E0A82810D0AA2817D109E0FFF7F6FBE9
:1029D00000282FD0E87DA97D41EA002044BA0CE010
:1029E000FFF7ECFB002825D01448001DFDF716FE6C
:1029F00000BA20F0FF04287E0443306944430F48A6
:102A0000F4620938FDF70AFE0C4F01260E3768B153
:102A1000A04211D0287B000604D50A48007840F077
:102A2000800001E00848007800F010F93E7300F0E3
:102A3000F3F80020BDE8F0810120FBE7CA21002067
:102A400018030020FC740008FD74000810B5FFF79F
:102A500017FC00281CD0FFF7B1FB002818D00D4A46
:102A60000D489169491E0B0E03700B0C43700B0A45
:102A70008370C17011690B0E03710B0C43710B0A4B
:102A80008371C17108201063BDE81040FFF714BCCA
:102A900010BD000018030020D020002070B5FFF703
:102AA000EFFB002830D0FFF789FB00282CD0174817
:102AB0000021174A0170417081700821C17091692D
:102AC0000C240B0E03710B0C43710B0A8371C17143
:102AD0000221017211690B0C43720B0A8372C172DD
:102AE0000C4814630546FDF799FD0C2808D90949DF
:102AF00020461F39FDF79DFD29462046FDF799FD2B
:102B0000BDE87040FFF7D8BB70BD0000D0200020AA
:102B100018030020E021002010B5FFF7B1FB0028CA
:102B200035D01B4870211B4B017000214170DC68BF
:102B30005A6832EA040406D00624847028240473F8
:102B40004173DA6008E0DAB1134A127BE2B1052280
:102B50008270202202734173C170017141718171D1
:102B60000A22C271017241728172C1728173C17392
:102B70000174417412201863BDE81040FFF79CBB3C
:102B8000022282703A22E5E781700173E3E710BD0B
:102B9000D020002018030020D8210020054910B5BE
:102BA000002008600449FDF744FD0449072008702F
:102BB000012010BD04030020D821002018030020AC
:102BC00070B5FFF75DFB00281DD00F4820220021C3
:102BD000027041700D4CC1770320226320700C48B5
:102BE0000949007840F0800000F014FC09480546CF
:102BF000FDF714FD216B401A2946FDF71AFD054922
:102C000001200839087370BDD0200020180300206F
:102C1000FC740008E021002010B508490848FDF7C1
:102C200008FD08480D220549007840F0800000F0BA
:102C3000F1FB05490520087010BD0000D8210020D7
:102C400055534253FC7400081803002010B5044685
:102C500000F0A6FB200605D504F00F014FF48030EC
:102C6000884001E00120A04002490A681043086042
:102C700010BD0000000300200A4810B5817C00F15F
:102C80001F0429B101202073BDE81040FFF7C4BF25
:102C9000C07C054900F00100486003F001FB002002
:102CA000F1E70000B92100201803002002490020AC
:102CB0000873FFF7B1BF0000D821002010B51048FD
:102CC000FDF7ACFC0E4C173478B1A4F11F00007B6B
:102CD000000604D50B48007840F0800001E00A4867
:102CE0000078FFF7B3FF012004E0FFF767FA002840
:102CF00005D000202073BDE81040FFF78DBF10BD48
:102D0000C1210020FC740008FD7400087047000019
:102D100070B5134B064600F00F005B68114C03EBD7
:102D200000108368808904EB4304C0F309059542D1
:102D300000D9154600236A1C07E034F8040B01F89B
:102D4000010B000A01F8010B5B1CB3EB520FF4D32B
:102D50004FF440513046FDF705FD284670BD000098
:102D6000C802002000600040FFF758BA2DE9FC417E
:102D7000574BA3F11C051878A3F1080410F01F00AD
:102D800002D001287BD18AE05249D878524E0A7885
:102D90004F49524F1C390628C97810D006DC01284B
:102DA00009D0022814D0032869D14FE007282DD07C
:102DB0000F2864D164E04A48206012206DE0002AA8
:102DC0005DD019B1474820600A2066E04648FAE71E
:102DD0000AB9012979D0022021B10097787000202A
:102DE0009B780CE000967070F9E700990A782AB198
:102DF000CA788E7846EA022211440091401C834230
:102E0000F3D100980178D1B3206042E0BAB3072033
:102E100021B10096707000209B780CE000977870CC
:102E2000F9E700990A782AB1CA788E7846EA022230
:102E300011440091401C8342F3D100980178F1B114
:102E40002060C278817841EA022026E0274800907D
:102E50009878032801D0002008E001F00DFD0BE078
:102E600000990A780AB111440091401C9978814276
:102E7000F6D10098017811B1206000780DE024E0CF
:102E80001B48007800281ED01A4800902060017866
:102E9000D9B1C178827842EA0120019005E001A908
:102EA000684600F02BF800280DD0A18801988142D7
:102EB00008D9114980B2A0800978491E084201D181
:102EC000012028710120BDE8FC810020FBE7000003
:102ED00010030020F9740008C81F0020C40200205D
:102EE0006475000877750008767500087A75000823
:102EF000FA74000878750008FB7400080020704719
:102F000070B51D481C4C0078A4F1080410F01F0097
:102F10000AD0194AA4F11405184B697812790128CE
:102F200006D0022826D109E01348163820601FE099
:102F300001B3A87882421DD2002015E002F08F0074
:102F4000020605D500F00F064FF48032B24001E0D2
:102F50000122824009B900070CD1A868104209D0AB
:102F6000E868104000D001201870000A58702360F3
:102F7000012070BD002070BD1003002090200020B3
:102F800070B5264B024619461878498810F01F0084
:102F9000A3F11C0604D0012829D0022827D111E072
:102FA000012924D132B1012000F032FAF08840F03A
:102FB000020005E0002000F02BFAF08820F002006B
:102FC000F08029E0187900F08F04200605D504F080
:102FD0000F004FF48035854001E00125A540707851
:102FE00028B1200703D0B068284200D009B10020E2
:102FF00070BD2AB1204600F0D3F9F06828430AE0FA
:103000003069284208D12046FEF7B4FD2046FFF77C
:10301000ABFEF068A843F060012070BD10030020F3
:103020002DE9F05F5B480026017811F01F0F70D189
:10303000584F80781C3FB1464FF0010A4FF4803B57
:1030400000287CD0544801783846C07809B9012856
:103050005FD008B1514C6EE0514C6CE060780228B2
:1030600005D0042848D0052848D0072861D1494810
:103070006179807881423AD1787020794A49B87074
:103080000020484A098802E002F80090401C88426B
:10309000FAD30125B8460AFA05F0D8F80810084214
:1030A00002D02846FEF70BFED8F808100BFA05F000
:1030B000084203D045F08000FEF701FE6D1C102D84
:1030C000E9D34FF00110C8E902090120C8F81090B7
:1030D000FEF7A8FDE0794006B8F8060002D540F0FA
:1030E000010001E020F00100A8F8060021E0E078EE
:1030F000A17841EA00201DE0E6781AE0CEB9A07878
:1031000000F08F05280606D505F00F010BFA01F037
:1031100003E03AE013E00AFA05F0B96801432046FB
:10312000B960FEF733FD2846FEF7CCFD284600F0D7
:103130002BF920780444207800288FD120E04D46D8
:1031400087F8019001245E46B9680AFA04F0084243
:1031500002D02046FEF7B3FDB96806FA04F0084233
:1031600003D044F08000FEF7AAFD641C102CEBD3C2
:103170004FF00110C7E9020500203D61FEF752FD46
:10318000044879788078884202D00020BDE8F09F1A
:103190000120FBE710030020F9740008C40200209E
:1031A000C81F0020C6020020BC0200202DE9F84FF5
:1031B000464800273E460078BA4600F01F00B94650
:1031C00001287DD141491C394878002877D000205A
:1031D00000903F4802780846C0780AB9012872D0AA
:1031E0008B4608B13B4C66E03B4C64E060780228BB
:1031F00005D004280DD005281DD0072859D16179A4
:103200009BF80100814254D0E078A17841EA002087
:1032100050E02E48A778E67801794FF00009B942CE
:1032200047D18078B04244D1012000902B4810F85B
:1032300007A0C6553DE025490879B84239D1A078A4
:1032400000F08F085FEA086005D508F00F004FF422
:103250008035854002E0012505FA08F58878B042FE
:1032600015D1DBF8081020462943CBF80810DBF80D
:103270000C10A943CBF80C10FEF788FC4046FEF773
:1032800021FD404600F080F849EA050911E0564565
:103290000FD119EA050F0CD1DBF808104046A943FD
:1032A000CBF80810DBF80C10A943CBF80C10FEF794
:1032B00006FD207804442078002897D1009800E08B
:1032C00001E0BDE8F88F0020F9E7000010030020BE
:1032D000F9740008C4020020C81F0020C6020020A4
:1032E0004FF0E0214FF480100022C1F880011E4809
:1032F00002601E48006818B14FF40050410001E020
:103300000020014608431A490968002901D04FF4FA
:10331000007140EA010002D04FF4807101E04FF0EB
:10332000000140EA0100134940F41C4008601348C2
:1033300011494FF03003026048684FF0700203609B
:1033400082604FF0B0020A8048F2FF71C1600C4900
:103350004FF4485008600B494FF0800008604FF070
:103360001400FEF727BA0000445C00401475000802
:1033700010750008405C0040C8020020505C00400E
:10338000005C00404C5C0040FDF7D8B9002903D137
:10339000024940F080000860704700004C5C00402B
:1033A00041F21001FDF7DEB9082202490020FFF7C3
:1033B000AFBC00001003002002484FF40071806889
:1033C00001F00FBCF401002000221146802000F023
:1033D00021B800000248034902780020FFF798BC9A
:1033E000FB740008902000200448016841F00801A7
:1033F0000160016841F0040101607047405C0040D9
:103400000248016821F0080101607047405C0040FB
:1034100070470000F0B5174F154606467A6800F071
:103420000F0002EB0012144B126803EB420400235E
:103430006A1C08E091F801C011F802EB5B1C4EEA2F
:103440000C2C44F804CBB3EB520FF3D3796801EBA7
:1034500000114D60094901EB8000D0F8000CC0F369
:103460000110012803D030213046FDF77BF92846B2
:10347000F0BD0000C8020020006000400050004085
:103480002DE9F047244A1068244F20F01F013B69C2
:103490001943396100F4FE41C9431160DFF880909F
:1034A000000448F2800632D59046D8F800000104A6
:1034B0002DD510F00F0009EB8005D5F8004C07D191
:1034C000210405D5210503D479688989890515D09A
:1034D00064F31F4002F07EF9200406D544EA06009A
:1034E00040F68F710840C5F8000C2006DDD5344346
:1034F00048F60F700440C5F8004CD6E72106EDD51C
:10350000C4F30E0161F31F4002F064F9E6E7BDE881
:10351000F047FFF751BF0000445C0040C8020020A4
:1035200000500040002070472DE9F04116460F463C
:1035300000281AD1EFF3108000F0010572B60023C5
:103540001A461946184600F071F9040003D13146B5
:10355000384600F0C9F905B962B6002C05D1EFF381
:103560000380C00601D103F079F9BDE8F0810000C5
:1035700010B528220D490E48FCF7CDFF03F032FAB2
:103580000C4803F029FA03F08DF80B490B4A0C4B59
:1035900008604FF40071B0FBF1F01160094901229D
:1035A0001A60086009490848086010BD28710008C1
:1035B000E00F00201D3D00084C03002028030020E0
:1035C0002C03002030030020E00D002034030020F5
:1035D000044841788078814201D001207047002062
:1035E000704700008402002030B50546EFF31080DC
:1035F00000F0010472B6284600F007F8A968081A1E
:10360000401E002C00D162B630BDEFF3108101F0F6
:10361000010372B6D0E900128A4201D3501A02E0C7
:1036200080681044401A002B00D162B67047000039
:1036300070B50446EFF3108000F0010572B6D4E9CE
:103640000001884201D0012000E0002043220EA1A9
:10365000FFF76AFFE16820680E5C401C2060A168EB
:1036600088420CD302D14FF0010001E04FF000007E
:103670004FF0480204A1FFF757FF0020206005B972
:1036800062B6304670BD00002866696C652900008E
:1036900070B50446EFF3108000F0010572B6626861
:1036A000E06881546068401C6060A16888420CD367
:1036B00002D14FF0010001E04FF000004FF0310265
:1036C00009A1FFF731FF00206060D4E900018842C2
:1036D00001D0012000E00020362203A1FFF724FFE3
:1036E000002D00D162B670BD2866696C65290000A6
:1036F0002DE9F04114460E460746FFF775FF844258
:1037000000D220460546002404E0315D3846FFF72C
:10371000BFFF641CAC42F8D32846BDE8F08100F03E
:10372000E1BB00F0DFBB00207047012070470020A4
:10373000704700002DE9F0418D212748FCF725FF57
:103740008D252648FCF76AFF254F244C224EB842AF
:1037500013D16079217941EA00258D2D01D22A46C5
:1037600001E04FF08D0201D84FF08D051B491A483A
:10377000FCF701FE002086F847008D211748FCF772
:1037800004FF16493846FCF754FF2571280A60717A
:1037900041223546F11DE01DFCF7EDFD95F849008D
:1037A00015F8481F41EA002004F8480F000A60702D
:1037B000A878A070E878E0708200074907484C318B
:1037C0004C30FCF7D8FD95F8440084F84400BDE87F
:1037D000F04100F0C3B800002C210020004F002071
:1037E000646C766B10B5094C94F84B10102901D31A
:1037F000002010BD04EB81014C31FCF71AFF14F8D6
:103800004B0F401CC0B2207010BD0000004F0020C4
:1038100010B5054C4121E01DFCF7B7FE002104F86E
:10382000481F6170E17010BD004F00202DE9F04786
:103830001A4F81461D4616468846F81DFCF725FDA1
:10384000441CB9F1000002D04146FCF79EFE002066
:1038500006B1308005B12870F87900281CD04445A5
:1038600002D8F91D224604E0A4EB0800C119424623
:10387000C91DB9F1000F06D097F8490097F84830F4
:1038800043EA0020308016B14846FCF774FD15B1BC
:1038900097F84A0028700120BDE8F087004F00200B
:1038A000014890F88C007047004F0020054991F8BE
:1038B0004B202AB101F14C02026091F84B00704795
:1038C00000207047004F002002488079002800D077
:1038D00001207047004F002002488079002800D066
:1038E000012070472C2100202DE9F0418846074631
:1038F000FCF7CBFC124D441C41263146E81DFCF779
:1039000044FE412C02D83946224602E0413CE119EE
:1039100032462C46E81DFCF72EFD84F848804FEA1D
:10392000182084F8490000F099F808B1012003E05C
:1039300000F096F800B1022084F84A00BDE8F0815A
:10394000004F0020014981F88C007047004F002093
:103950000149887170470000004F00207047704790
:10396000704770472DE9F0410F4606464FF0FF348F
:103970000025DFF83C8012E0705D082101F03EFD7B
:1039800084EA006408204146002C02DA81EA4404FB
:1039900000E06400401E10F0FF00F5D16D1CBD4238
:1039A000EADB2021204601F029FDC043BDE8F0817B
:1039B000B71DC1042DE9F0410E4617462021C04332
:1039C00001F01CFD04460025DFF83C8012E0705D2C
:1039D000082101F013FD84EA006408204146002C10
:1039E00002DA81EA440400E06400401E10F0FF00A7
:1039F000F5D16D1CBD42EADB2021204601F0FEFC22
:103A0000C043BDE8F0810000B71DC10470B5144685
:103A10000D460646B2F5806F07D24FF4EF720AA149
:103A20000020FFF781FD022070BD00F039FC08B1D5
:103A3000102070BD2A462146304600F03FFD002888
:103A4000F7D01F2070BD00002866696C6529000052
:103A5000C10600F00F0000D4093070470120704704
:103A60000020704710B500231A4600F05DFA0028C8
:103A700000D0012010BD10B502F036FD012800D0A5
:103A8000002010BD2DE9F041164E144C144D307835
:103A9000012806D04FF49C7213A10020FFF744FDCB
:103AA00009E0B078022748B14FF49F720EA10020C0
:103AB000FFF73AFD37700220BDE8F081204600F0A4
:103AC00017F810B137702120F6E704F58064AC4296
:103AD000F4D30120B0700020EEE7000000C0000821
:103AE00000FC0108600200202866696C652900005E
:103AF0002DE9F0412A4E04463078012806D04FF4D3
:103B0000807228A10020FFF70FFD19E04FF48068B4
:103B10004046B4FBF0F108FB1141022511B14FF40E
:103B2000847208E0F17871B1D6E902121144A14221
:103B300009D040F20F121BA10020FFF7F5FC3570F1
:103B40000220BDE8F0811949B4F1006F01D38C4225
:103B500023D30121F170164FC6E902481548BC4233
:103B600001D3844201D322200CE0FFF779FF01004A
:103B70004FF0250006D039468C4203D142463846E4
:103B8000FFF744FF252803D00028DAD03570D8E7A6
:103B9000204600F085FB0028D3D035702020D0E7E8
:103BA000600200202866696C6529000000BC0008DE
:103BB00000C0000800FC01084FF48060704700005E
:103BC00010B5272804D2064951F82000002805D155
:103BD000ED2204A10020FFF7A7FC04A010BD000007
:103BE0004C7000082866696C652900000000000020
:103BF00001460120272901D20148405C704700009E
:103C0000A80100202DE9F04789460446804600E0DF
:103C1000641C2078402802D00028F9D163E0607845
:103C2000622847D012DC522853D008DC422841D009
:103C3000442848D0482840D04D2817D133E0542894
:103C40003ED0552832D0562810D13FE0722840D0BF
:103C500006DC642837D068282FD06D2806D122E0F2
:103C600074282DD0752821D076282FD020A5204665
:103C7000FCF70BFB07462846FCF707FB0646A01996
:103C8000C11908EB0902891E91422BD2BA1EA11C50
:103C9000FCF7DCFB324629462046FCF76CFB20781B
:103CA0000028B6D11FE000F0DBFD01E000F0E0FDF0
:103CB0000546DCE700F07EFDFAE700F0ADFDF7E732
:103CC00000F0D2FDF4E700F0A3FDF1E700F0D8FD2D
:103CD000EEE7094890F82A0010B1074D2A35C6E7EB
:103CE00006A5C4E73C44A4EB0800BDE8F08700004B
:103CF0004552524F52000000C66F0008687474703D
:103D00003A2F2F7777772E70656E677A68696875B6
:103D1000692E636F6D000000704700002DE9F041CF
:103D20001E4615460C46074602F00AFF2C4890F83E
:103D3000201003290FD0022C0FD004B3012C0AD17C
:103D40000168A94207D190F82210A9B300214A1EA8
:103D5000016082608161BDE8F0810068A842FAD10B
:103D6000304602F07BFC0446304602F07BFC0646FF
:103D7000384601F0C5FD03462246314617E0384675
:103D800001F0BEFD0328E6D0304602F065FC800756
:103D9000E1D4384601F0B4FD0746304602F05EFC3F
:103DA0000446304602F05EFC01463B462246284669
:103DB000BDE8F04101F016BF28220A490848FCF787
:103DC000AAFB01F001FE08488178012903D141785E
:103DD000022900D18170BDE8F04101F0FDBD000075
:103DE000E00F002028710008840200202DE9F04136
:103DF0001D4E0446174696F822008846550260B9C3
:103E00002946404601F04EFD032802D0214601F02C
:103E1000ADFE96F8220000280FD07068A0420CD8A2
:103E2000F068A0420BD008D93069401C00D1346141
:103E30003069A04200D204463461BDE8F081F069E7
:103E40002A461044F061E019F06096F8230020B192
:103E5000BDE8F041002001F0FFBE41462046BDE82C
:103E6000F04101F03FBE0000E00F0020F0B518A1C6
:103E700085B0096804910278002104AB5C5C94422F
:103E800024D0491C0329F9D312A1002291E878001B
:103E90006F46815C8DE87800A1F1610CBCF1190FCF
:103EA00014D9202901D2052910D14FF0000C17F8A0
:103EB0000CE08E450AD00CF1010CBCF1100FF6D3CA
:103EC000521C0B2AE5D3012005B0F0BD0020FBE712
:103ED000E5002000222A2B2C2E2F3A3B3C3D3E3F72
:103EE0005B5C5D7C70B50D4D00202C7874B10021B9
:103EF0002970A97809B100F0ADFA022C05D06978D3
:103F0000032902D0002800D1242070BD4FF4A272F2
:103F100003A10020FFF708FB022070BD3002002043
:103F20002866696C65290000FEB51C4605463029E7
:103F300001D3012000E00020422215A1FFF7F4FA8E
:103F40000C2205F120016846FCF715FA124E0CB957
:103F5000002030711149019888420BD11049009816
:103F6000884201D10220FEBD0D49FC3988420CD1A6
:103F70000120FEBD284602F053FA18B11CB90120F9
:103F8000307100E00CB10320FEBD0020FEBD00003A
:103F90002866696C65290000300200200899969710
:103FA0008F9E939B2DE9FF5F4FF00004DDF8389062
:103FB0005FEA030893460746254613D05FEA0900E7
:103FC00010D00020C8F800000646C9F80000FFF72E
:103FD00045FDDFF8CCA088B13248022F04D0032F72
:103FE0000AD042E06C2254E0BBF1000F04D00199EA
:103FF000814201D01B2439E0064612E0FFF730FD74
:1040000090B3012F02D0032F0ED02EE04FF00061AD
:10401000BBF1000F04D00198884201D01A2425E09A
:104020000E46DAF8005021E01F48FCF7F7FAD8B145
:1040300000F10C0506E005F10800FCF7EFFA012895
:104040000DD014352846FCF7E9FA0028F3D1281DD5
:10405000FCF7E4FA0028EED11448056806E028468B
:10406000FCF7DCFA0646F7E7FFE71C24FFF75DFBE9
:1040700008B9012F04D02CB1204604B0BDE8F09F50
:104080001C24F9E725B1C8F80060C9F80050F3E72F
:10409000AE2207A10020FFF747FA0220EDE700005B
:1040A0002471000800C00008D66F0008FC700008EA
:1040B0002866696C652900002DE9F0411C49064617
:1040C000002548789046012804D0022804D003280F
:1040D0002CD103E0174D22E0174D20E0087928B3DA
:1040E0001648FCF79BFA08B300F10C040CE0B74249
:1040F00009D8201DFCF792FAB04204D3201DFCF72A
:104100008DFA05460AE014342046FCF787FA0700CA
:10411000EDD1201DFCF782FA0028E8D135B106EB7D
:104120000800A84202D30120BDE8F0810020FBE78F
:104130003002002000BC000800FC0108D66F000817
:1041400010B50C4C207830B1BD220BA10020FFF738
:10415000EBF9022010BDFF2230210948FCF70DFACF
:104160000120207000206070A060E0602061A070DD
:10417000E07010BD300200202866696C65290000DF
:10418000640500202DE9FE4F414F064689463878E8
:104190001546012807D0D2223EA10020FFF7C4F91E
:1041A0000220BDE8FE8FF8784FF0010A18B9FE60D2
:1041B0003E6187F803A0B8784FF00308002853D178
:1041C00039698E4201D1012000E000202944396183
:1041D00030B3B868C0F13004AC4200D914462F495E
:1041E000224608444946FCF7C6F8B8682D1B20440F
:1041F000A1442644B86030282CD302D14FF00100EE
:1042000001E04FF000004FF0F40222A1FFF78CF91B
:10421000D7E9021201232148FFF786FE787001E0FA
:1042200087F8018001A8009002AB01227878F96834
:10423000FFF7B8FEF0B9B87840F20D1280F0010037
:1042400014A1FFF771F9019800F0BCF890B987F854
:1042500002A001E0B87880B1D7E902200F4900F050
:104260002BF838B9B87840B12A464946304600F0B4
:1042700023F810B187F8008093E72A464946304674
:10428000FFF71AFF00288CD002203870132088E72F
:10429000300200202866696C652900006405002052
:1042A00010B5EFF3108101F0010472B6FCF778FA53
:1042B000002C00D162B610BD2DE9F0473D4E0546F9
:1042C0000024707817468846012807D07C223AA13E
:1042D0000020FFF729F90220BDE8F087F0784FF0C1
:1042E000020A50B9284601F0B1F9040002D086F85C
:1042F00001A05CE00120F0707561B068B5FBF0F1E1
:1043000000FB11516A1A7169B1FBF0F300FB131045
:10431000081A824204D0284600F0DCF80400E6D1F6
:104320003069B5FBF0F100FB11516A1A7169B1FBFC
:10433000F0F300FB1310081A824204D0284601F063
:1043400085F90400D3D1B1464E46D6E901010844AF
:10435000A84207D8284600F0BDF8040002D089F82A
:1043600001A024E00FB3D6E903010844A84204D811
:10437000284601F06BF90400F1D17068B168B146CC
:10438000281A0E1AB74200D23E460D49324608445A
:104390004146FBF7F0FF36B1002089F802003544B2
:1043A000B044BF1BD0E70120F7E7C9F814502046FE
:1043B00092E70000440200202866696C652900002D
:1043C0009405002070B51F4D0446687808B1482256
:1043D00026E024B3606810B3A06800B3E068F0B1D1
:1043E0002069E0B16069D0B1A069C0B1E069B0B145
:1043F000FF224FF480611448FCF7BFF80126AE702D
:104400000020E8706860A860E8602861C5E90504DC
:1044100020688047040008D1287838B110E04E2287
:104420000AA10020FFF780F8022070BDA86900698A
:104430008047040004D0A86940688047204670BDCA
:104440006E70FBE744020020940500202866696C2A
:104450006529000070B5154C0025607810B1012861
:1044600007D00AE0CD2212A10020FFF75DF802205C
:1044700070BD002000F02EF80546A0694068804716
:104480000646FF224FF480610B48FCF776F80120C6
:10449000A0700021E1706160A160E1602161616153
:1044A00061700EB1304670BD284670BD44020020D8
:1044B0002866696C652900009405002010B5EFF3AB
:1044C000108303F0010472B6FDF780F9002C00D1CF
:1044D00062B610BD70B50E4E05460024B07840B9E6
:1044E000B0690C498368D6E9010298470446012067
:1044F000B070FF220748B168FCF73FF8B068B5FB21
:10450000F0F100FB1150281A7060204670BD0000C9
:10451000440200209405002010B50648FCF77EF800
:1045200028B100F5CE70FCF779F8002801D10148D8
:104530000C3810BDD66F000810B50948FCF76EF8AE
:1045400030B190F8A11190F8A02152EA012005D1D4
:1045500003481038C178827842EA012010BD00007B
:10456000D66F0008034601220149002018470000C9
:1045700008100020002070470248006840F3000047
:10458000401C7047080C01402DE9F041534886B0AB
:10459000816941F004018161816901F004010491A4
:1045A000816941F008018161816901F0080104918C
:1045B000816941F010018161816901F0100104916C
:1045C000816941F020018161816901F0200104913C
:1045D000816941F001018161816901F0010104916A
:1045E0003F494A6822F0E06242F000724A60816905
:1045F00041F00801816180693A4900F008000490A7
:104600004FF4004008600124364FCDE90004032533
:10461000103F694603953846FCF716FADFF8C88064
:104620006602002231464046FCF7F2FACDE900640A
:10463000694640460395FCF707FA002240213846B8
:10464000FCF7E6FA4020CDE90004694603953846B8
:10465000FCF7FAF9012231464046FCF7D9FACDE9D8
:104660000064694640460395FCF7EEF901223146A5
:104670004046FCF7CDFACDE9006469464046039513
:10468000FCF7E2F9012211463846FCF7C1FA112085
:10469000CDE90040694638460294FCF7D5F9260278
:1046A000002231463846FCF7B3FACDE9006469468A
:1046B00038460395FCF7C8F90220CDE90060694649
:1046C00003954046FCF7C0F900F0A6FA07480490AD
:1046D000401E0490FCD106B0BDE8F08100100240FD
:1046E00000000140100C01400008014040420F0052
:1046F00008B1012200E000224FF400710148FCF7EC
:1047000087BA00000008014008B1012200E0002241
:104710004FF400710148FCF77BBA0000000801402B
:1047200008B1012200E000224FF400710148FCF7BB
:104730006FBA000000080140092800D92730303046
:10474000C0B2704710B513490020086012490860D4
:1047500012490860124908604BF6FC314FF00060C6
:10476000FFF700F90B4908600E490F48FFF7FAF808
:10477000094908604FF480610C48FFF7F3F80749D6
:1047800008604FF480610A48FFF7ECF804490860BC
:1047900010BD0000D4010020D8010020DC01002061
:1047A000E0010020FC3B010000C0000800BC000844
:1047B00000FC010800487047E40100200120C10608
:1047C000064A096A914200D000204FF00061044A75
:1047D000496A914200D0002070470000939D939B4E
:1047E0000899969700B5FFF7E9FF08B9002000BDCA
:1047F0004FF00060806AFAE70148006870470000E7
:10480000D40100200148006870470000D801002052
:1048100000487047F003002000487047AE030020B6
:1048200001200649064A096A914200D00020034946
:10483000044A496A914200D00020704700C0000835
:104840008F9E939B0899969700B5FFF7E9FF08B9EB
:10485000002000BD0148806AFBE7000000C000089E
:1048600000487047A103002000487047CF03002094
:10487000004870477003002000487047F90300208B
:1048800000487047EE01002010B5FFF75BFF0548B8
:1048900000F04AFD00F026FE00F07CFF00F04EFF25
:1048A00010BD00005003002010B5124C207830B12C
:1048B000632211A10020FEF737FE022010BD002266
:1048C00011461046FCF774FF08B11D2010BD0020F2
:1048D0006070A070E070A060E06020712061606195
:1048E000A0614FF480610648FBF74FFE0120207065
:1048F000002010BD600200202866696C6529000058
:10490000940900202DE9F05FDFF8CCA00446304F79
:104910009AF800002F4D90468B46012808D04FF49E
:10492000BD722EA10020FEF7FFFD0220BDE8F09F22
:10493000BC4201D3AC4201D32220F7E7FFF790F845
:10494000A8B32E1B301F4146404501D90A4600E05E
:10495000321F5946DAF81800FFF72CF88146CAF8DA
:1049600018002048844208D21F49E01B08444246F0
:104970005946FBF700FD0020D8E704EB0800A842E9
:1049800023D10BEB060010F8015C001FFBF746FE7D
:1049900065F31F605546814501D02620C6E75A467B
:1049A00041462046FFF78AFD10B11F20BEE70CE00C
:1049B0004FF480620C493846FFF728F80446FFF7A9
:1049C000C1FE012068702046B0E72520AEE7000058
:1049D00000C0000800FC0108600200202866696C25
:1049E0006529000000C400089409002000F030FD93
:1049F000FFF7CAFDFEF79EFEFFF7BEFDF8B9FFF711
:104A0000B9FDE0B913480446FBF708FEB8B10C3015
:104A1000FBF704FE01F004FD88B1FEF75DFF70B9FD
:104A20002046FBF7FBFD0C300446FBF7F7FD0A4977
:104A300008602046FBF7F2FD03C8FBF7C5FB00F05A
:104A4000C0F800221146054800F0D6F800F0BEF884
:104A5000FEE70000D66F000808ED00E0714A00088C
:104A6000024901220A70487070470000F4010020DA
:104A70000125FEF731FF10B1642000F09DF800F031
:104A8000B9F8434FB8600020FFF73EFE0020FFF763
:104A90002FFE2846FFF744FEFFF7F6FE01F0C4FBA9
:104AA000012001F0F5FE002001F0BCFB4FF00008F2
:104AB00087F803800120C7F80C80B87001460B24EA
:104AC00043464246334800F09CF8032100F09EF82C
:104AD0004FF0FF3940F2032A4A460021504600F0C9
:104AE00087F886B2B00501D5FDF71AFAF0072FD086
:104AF0005A2001F0E5FEF878012806D1F86810B1D7
:104B0000401EF86001D187F80380B878F0B1012821
:104B10000ED0032814D004281AD1F878C0B90CB1EB
:104B2000641E15D1002001F07DFB87F802800FE0A4
:104B30000CB1641E0CD1012001F074FB032003E0D2
:104B400001F068FB20B10220B87001E0FCF7DCFE48
:104B5000B007C1D538780028BED07878012808D0B1
:104B6000022806D0012587F800802846FFF7D8FDE7
:104B7000B2E7012D01D0012500E00025002DF4D081
:104B80000128F2D187F8008087F80180EDE7000066
:104B9000F4010020B15A0008FFF7D2BA10B504465C
:104BA00040F20111FBF7F1FC00F03CFC002020700A
:104BB000BDE81040FFF7C4BA10B500F061FF002057
:104BC00010BD10B500F02CFF002010BD10B500F096
:104BD0004DFF002010BD00207047002070470020CE
:104BE000704710B50C46084600F0FCFE204610BD8C
:104BF00000F002BF0120704710B500F031FF012026
:104C000010BD10B500F026FF012010BD10B50846FC
:104C100000F000FF002010BD70B58EB00CA907A8F1
:104C2000FCF74EF90B98B0F5005F05D0B0F5205FAA
:104C300023D0B0F5405F22D001202549274D002424
:104C40000968B1FBF0F02349B0FBF1F62248C5E951
:104C50000004761EC5E903642148AC606C6181697B
:104C600041F400618161806900F400600D90284684
:104C7000FCF7F5FC28B1532223E00220DDE70420F5
:104C8000DBE71648FCF707FD08B1592219E0702050
:104C9000CDE900040294039404940594002269462B
:104CA0000E480694FCF773FC08B1662209E02968F7
:104CB0007008486300210948FCF70AFD002804D069
:104CC0006D2208A10020FEF72FFC0EB070BD000081
:104CD000B802002000127A00002C01400C1B0020BA
:104CE000001002402866696C652900002DE9F84F24
:104CF0008A460C9C054600EB0A08874E002020607F
:104D0000F078DFF818921F46934600281CD0002048
:104D1000F07099F8002009F104011846FBF72BFB0D
:104D200099F800002168074408442060706899F8E9
:104D30000220010C99F80130090443EA02200143E2
:104D400099F8000008447060DEE028780A2827D02F
:104D50000D28FCD03A281BD03178002978D0FEF7F6
:104D600077FE00F00F02707819F800301A4309F846
:104D70000020401CC2B2727099F800000090401DE3
:104D8000824264D3654A0021084613785B1D0EE019
:104D900025216248FBF7F9FB002030707070B0707D
:104DA000B1E012F800C0401C6144C9B2C0B28342F5
:104DB000F7D809B104204CE0B078002847D1012091
:104DC000B07099F8021099F8012042EA012149BA1D
:104DD00089F80110090A89F8021099F8030030B126
:104DE000012836D002284AD0042830D161E04B494E
:104DF000252201F12500FBF7BEFA706899F8022020
:104E000099F80130010C090443EA0222114381425E
:104E100003D00120F07002201BE009F104013846A4
:104E2000009AFBF7A8FA99F80000216807440844A3
:104E30002060706899F80220010C99F8013009048B
:104E400043EA0220014399F800000844706056E0EC
:104E50004CE0814621680A98FF22411A3846FBF748
:104E60008CFB20687168091A0B980160A8EB05019A
:104E7000AAEB01014846CBF80010BDE8F88F216885
:104E80000A98FF22411A3846FBF777FB20687168C1
:104E9000091A0B980160A8EB0501AAEB0101CBF8F8
:104EA000001099F8041099F80500090341EA001070
:104EB00019E021680A98FF22411A3846FBF75DFB8A
:104EC00020687168091A0B980160A8EB0501AAEB2C
:104ED0000101CBF8001099F8051099F8042042EA76
:104EE000012040BA000470600220C6E771782529CD
:104EF0000FD2FEF7ADFD7278010109F8021030788B
:104F000038B1002030706D1C45457FF41EAF002085
:104F10009FE70120F6E700007C020020940D0020AE
:104F20002DE9F05FDFF800810446DFF8F89098F88B
:104F3000000015468B46012805D0A3223BA1002086
:104F4000FEF7F2FA3FE04FF48060B4FBF0F300FBB1
:104F50001343014602260BB1AC222EE00A469542CD
:104F600004D3B5FBF0F302FB135008B1B32224E0E5
:104F7000B4FBF1F002FB10402844884201D9BA2268
:104F80001BE098F8020078B998F8030050B1D8F8FF
:104F90000800844204D3D8F80C100844A04203D877
:104FA000C8220AE0C22208E098F8040070B1D8E9EB
:104FB00004010844A04209D0D0221CA10020FEF721
:104FC000B3FA88F800600220BDE8F09F194867191D
:104FD000844202D2B7F1006F17D84FF0010A88F867
:104FE00004A02A4659462046C8E90445FFF78AFC32
:104FF000252804D00028E7D088F80060E4E75A4666
:1050000029462046FFF75AFA18B188F800601F2099
:10501000DAE74F4503D3FFF795FB88F801A000209E
:10502000D2E7000000FC0108600200202866696CDD
:105030006529000000BC00084FF480607047000044
:1050400070B514460E46054620444FF48061B1EB1E
:10505000402F07D240F265220AA10020FEF764FA31
:10506000002070BD4FF400713046FBF78EFA35B961
:1050700006480749006942013046FBF77CF96002A7
:1050800070BD00002866696C652900009C02002044
:105090000C17002010B50B464FF4007408B1002027
:1050A00010BD224602491846FBF765F9204610BD9F
:1050B0004C1400202DE9F8430C4600210E460091C7
:1050C00010B10020BDE8F883DFF8C88098F8000030
:1050D000012845D0022845D0002720462EA101F006
:1050E00055F9054660192FA101F050F905446019E2
:1050F0002E4901F04BF9054460192DA101F046F944
:10510000054460192BA101F041F905446019B8F874
:10511000021001F044F90544601925A101F036F9A7
:10512000054477B1601925A101F030F905446019F3
:10513000394601F02BF9054460191DA101F026F94B
:1051400005446846FEF7B2FB070021D00098F8B18D
:1051500060191DA101F01AF905444FF4007811E01F
:105160001CA7BAE71EA7B8E7009850F82610761CCF
:10517000F6B2601901F0E2F8054460190CA101F0E3
:1051800005F90544BE4203D205F10A004045EBD3C0
:10519000284697E7940200204173736572740D0AE4
:1051A0000000000046696C653A20000008120020EB
:1051B0000D0A00004C696E653A200000536F75724D
:1051C00063653A200000000048657864756D70736F
:1051D0000D0A0000426F6F746C6F616465720000AD
:1051E0004170706C69636174696F6E000A4608B142
:1051F000002070474FF40071104600F0EBBD000036
:105200002DE9F0470D46044601F03AFB0646FEF74D
:10521000D7FC07463046FEF7EBFC064614B10020EB
:10522000BDE8F08728461B4901F0B0F8044628196C
:10523000394601F0ABF80444281917A101F0A6F88B
:10524000144904442819C91F01F0A0F80444002798
:105250004FF00108DFF8449013E0B8F1000F04D1DB
:1052600028190FA101F092F80444F00707D059F86B
:105270002710281901F08AF804444FF00008760836
:105280007F1C0EB1052FE8D3281903A101F07EF889
:105290002044C5E7577100080D0A00006472000839
:1052A0002C20000070B50C4608B1002070BD4FF4F2
:1052B000007529462046FBF768F90748FAF7E5FF2D
:1052C000024605492046FBF756F829462046BDE828
:1052D0007040FEF797BC00005F7100082DE9F041B7
:1052E000084D06460F462846FAF7CFFF044616B18A
:1052F0000020BDE8F081024629463846FBF73BF81E
:105300002046F6E7107E000810B50B464FF40074F7
:1053100008B1002010BD224602491846FBF72BF8C1
:10532000204610BD4C12002006490B68091D0A6872
:10533000091D09680360C0E901214FF0A531C16072
:1053400070470000E8F7FF1F10B5084654022146D9
:10535000FBF71BF9204610BD70B5244D4FF0FF340C
:105360006878A978884201D0012000E0002040F24E
:10537000F9121FA1FEF7D8F86878022803D0C0B14F
:1053800001281AD022E01C484FF4FA7490F820004B
:10539000E0B101280AD0022818D0032816D040F224
:1053A0000B2213A10020FEF7BFF80FE044F62064A3
:1053B0000CE0A878022808D008E0A878022801D0DC
:1053C00018B103E040F6C41400E00024601C05D1CD
:1053D00040F21B2206A1FEF7A7F80024A868A0420D
:1053E00001D9012070BD002070BD000084020020A2
:1053F0002866696C65290000E00F002070B503463F
:1054000000200246012609E0DC0704D08D1A6D1E3B
:1054100006FA05F420435B08521CD2B28A42F3D349
:1054200070BD000010B525210748FBF7AEF806480F
:1054300025212530FBF7A9F80448002141600170BF
:1054400041708170C17010BD940D00207C0200205D
:1054500030B58FB014210AA8FBF7B9F828216846A7
:10546000FBF7B5F8FCF7F8F9FBF7F2FB0125002490
:10547000CDE90A5429460AA8FBF762FC20B1412273
:1054800016A10020FEF750F84FF48030CDE900500F
:1054900002250294CDE907504FF4E01009906846C8
:1054A000FBF772FD20B14D220CA10020FEF73CF865
:1054B0000F20CDE90A054FF48060CDE90C400221B0
:1054C0000AA80E94FBF73CFC002804D0582203A144
:1054D0000020FEF729F80FB030BD00002866696C87
:1054E000652900002DE9F04100250024FFF724F88C
:1054F000064605214C48FBF76AF821214B48FBF78B
:1055000044F821214A48FBF740F809214948FBF7B4
:105510005EF805214448FBF75AF800BF00BF0AE0D7
:10552000454A52F82510414A101900F007FF20445F
:10553000C4B2681CC5B2042DF2DB00222146601CF7
:10554000C4B23A484254002400250AE03B4A52F8CB
:105550002510374A101900F0F1FE2044C4B2681C2F
:10556000C5B2042DF2DB00222046611CCCB23049CA
:105570000A5400242F4908193149096800F0DEFE59
:105580002044C4B22046611CCCB22A4900220A54ED
:10559000FEF7C2FF0746042239462348FAF7EBFE1E
:1055A0002149002008710024300BFFF7C5F801469F
:1055B00024482246641C8154C6F30320FFF7BCF83C
:1055C000014620482246641C8154C6F30310FFF7AD
:1055D000B3F801461B482246641C815406F00F00B4
:1055E000FFF7AAF8014617482246641C815400229E
:1055F0002146641C42540024134830222146641C76
:10560000425432222146641C425435222146641CF5
:10561000425434222146641C425400222146641C18
:105620004254BDE8F0810000E4010020AE030020F8
:10563000CF030020F003002050030020600300206F
:10564000D0010020E9010020EE0100202DE9F04109
:10565000364E0746B0694169384688470546B06905
:10566000816938468847044635B12CB14FF48068CB
:1056700045450AD8012009E040F235122CA100204E
:10568000FDF752FF0220BDE8F08100204FF49D722B
:1056900027A1FDF749FFB8FBF5F105FB118048B1E3
:1056A000002040F23B1222A1FDF73EFFAC4203D3A3
:1056B000012002E00120F4E700204FF49E721CA1BB
:1056C000FDF732FFB4FBF5F005FB1040C0B1002040
:1056D00040F23D1216A1FDF727FFB7FBF4F004FBE3
:1056E0001070381AC6E903047060444500D344467C
:1056F000B460B169096A29B1884704000AD101E0A0
:105700000120E5E7307850B1B069C168F06888479A
:10571000040004D0B069406880472046B3E7FF2208
:105720000548B168FAF729FF0020ACE744020020E1
:105730002866696C652900009405002070B5002575
:10574000002400261148FAF7A0FDC6B2022000EBA3
:105750004600C2B20E482146641C42540322214630
:10576000641C425400BF0EE00848611C425D2046A4
:10577000CCB207490A5400222046611CCCB204492D
:105780000A54681CC5B2B542EEDB70BD7003002040
:10579000F903002010B531210948FAF718FF09492B
:1057A0000748FAF7DCFD08490548FAF7D8FD07492C
:1057B0000348FAF7D4FD06490148FAF7D0FD10BDB9
:1057C00070030020E4010020E9010020AE03002066
:1057D000F003002010B5EFF3108111F0010F72B645
:1057E000084C094BD96844F821004FF0070001F13B
:1057F0000101B1FBF0F400FB1410D86000D162B6D7
:1058000010BD000010210020C802002010B5094C76
:10581000207840B100F05EF86068C16806488847AB
:105820000021217010BDC12204A10020FDF77CFEE3
:10583000022010BD04020020600400202866696C6C
:105840006529000070B5134C0546207808B1862202
:1058500002E0022D06D38C220FA10020FDF764FE8A
:10586000022070BDFFF7C6F9A0604FF482710C48AA
:10587000FAF7ADFE0120207006480C3000EB051051
:1058800060604168064888470028EAD003212170FB
:1058900070BD0000040200202866696C65290000C4
:1058A000600400202DE9F041094D0E460746002412
:1058B00005EB0410314602683846904710B1204687
:1058C000BDE8F081641CE4B2022CF1D30320F7E7B9
:1058D0001002002010B5FFF78DF90649896888424B
:1058E00001D1012000E00020BDE81040632202A1A8
:1058F000FDF71ABE040200202866696C65290000C5
:1059000010B500F1080103220C4607A0FAF7DCFCF1
:10591000002806D00322214604A0FAF7D5FC08B1DE
:10592000032010BD012010BD42494E0048455800DB
:1059300070B5154D06460C462878012806D0A522DC
:1059400012A10020FDF7F0FD022070BDFFF7C2FF9D
:1059500068682246314683680E48984704461328F3
:1059600006D0142C06D02CB103202870204670BD20
:105970000220FAE72878012800D00020B32203A1F2
:10598000FDF7D2FDF2E70000040200202866696CF2
:10599000652900006004002010B5FFF72BF90749C6
:1059A0004968884201D1012000E00020BDE8104094
:1059B00040F2691202A1FDF7B7BD00008402002089
:1059C0002866696C6529000002480021C068FFF75D
:1059D00002B90000840200200148C068FFF7FFB848
:1059E0008402002072B603494A6802434A6062B6E4
:1059F00070470000DC020020054903464A68134254
:105A0000FCD0486872B64A6882434A6062B6704702
:105A1000DC0200200149086170470000DC02002020
:105A200009490020086048608860C86008614861D2
:105A30004FF0E021054A4A61054BF02283F8142D0E
:105A40008861072008617047DC0200207EFC0A00A4
:105A50000FE000E00149C86070470000DC02002050
:105A60000149486170470000DC0200200348416999
:105A7000002901D00020084770470000DC02002008
:105A80000249886088680028FCD17047DC02002049
:105A900002480078012800D00020704760020020F2
:105AA000884203D3904201D80120704700207047FC
:105AB00010B50B4C0221A068FFF793F86068032132
:105AC000B0FBF1F201FB1201401C6060002905D11E
:105AD000A068BDE810400121FFF783B810BD0000A9
:105AE000F40100202DE9F0411E4C15460E4694F8B5
:105AF000230038B1BDE8F0414FF430721A4900205C
:105B0000FDF712BDE8051FD000204FF43172164991
:105B1000FDF70AFD94F8210040F2C5221249FDF775
:105B200003FD29463046FFF703FF0027012613280F
:105B30000CD0142811D084F8247061692944616163
:105B4000BDE8F04100F088B80120DEE7FFF75EFE17
:105B500084F8217084F8236000E0002084F8246039
:105B6000EBE70000E00F0020C059000870B51B4DA6
:105B700006460C4695F8210088B1002040F28522A7
:105B80001749FDF7D1FC601C00D0012040F28622AD
:105B90001349FDF7C9FC6868401C02D002E00120EF
:105BA000ECE76C6095F82700032801D185F82760A1
:105BB0006868A04203D195F82700B04201D00320C5
:105BC00008E03046FFF73EFE20B945F80C4F0121B2
:105BD0006975A975BDE8704000F03EB8E00F00207F
:105BE000C059000830B4194C94F82050032D02D04D
:105BF00025683DB107E030BC40F2352214A10020F9
:105C0000FDF792BC2060A068401C00D1A16094F810
:105C10002700032801D184F82730A069904205D9D4
:105C2000E069904202D90AB103200CE0481C02D07E
:105C3000A0688842F8D1032B03D094F8270098423B
:105C4000F2D10020A26130BC00F006B8E00F0020C5
:105C50002866696C652900002DE9F0470446132881
:105C600003D0142C01D0012000E0002040F2E522F6
:105C700043A1FDF759FC444D95F8200003280CD0B2
:105C8000296891B1D5E9060282420ED368B1D5E9FF
:105C90000102904209D1012008E0BDE8F04740F23E
:105CA000E92237A10020FDF73FBC002085F8250040
:105CB00095F8269019B995F82710032901D00121EC
:105CC00000E00021884620B195F8241009B1012692
:105CD00000E0002695F8231011B108B1012000E082
:105CE0000020824628690027401C10D06868401CAC
:105CF00000D0012040F2073221A1FDF715FC6968B0
:105D00002869401A69694002814200D901270320AD
:105D100014B185F820001DE0B9F1000F09D00FB1D2
:105D20000624F6E7B8F1000FF3D0002EF1D10424D9
:105D3000EFE7BAF1000FECD10EB1022003E0B8F1A9
:105D4000000F03D0012085F8200012E095F8200014
:105D500003280BD195F8210030B1FFF757FD002142
:105D600085F8211004B9044608480470B9F1000F01
:105D700003D1BDE8F04700F071BDBDE8F087000039
:105D80002866696C65290000E00F0020840200206D
:105D900010B50D4C207830B100202070FDF7C2FB0B
:105DA00040B11E2010BD842208A10020FDF7BCFBDD
:105DB000022010BD607810B9FDF750FE08B1002038
:105DC00010BD242010BD0000600200202866696C10
:105DD000652900002DE9F0410F460446FAF7D5FB8E
:105DE000204685A100F0D2FA054660198BA100F08B
:105DF000CDFA0544601992A100F0C8FA0544601973
:105E000093A100F0C3FA0544601995A100F0BEFA11
:105E10000544FDF788FC08B195A100E095A1601943
:105E200000F0B4FA054460197BA100F0AFFA054414
:105E3000601991A100F0AAFA0544FDF776FC08B1BB
:105E40008BA100E08BA1601900F0A0FA0544601955
:105E500071A100F09BFA054460198DA100F096FA3B
:105E60000544FDF764FC08B181A100E081A160193F
:105E700000F08CFA0544601967A100F087FA054428
:105E8000FDF7ECFD08B188A600E08AA660198CA198
:105E900000F07CFA05446019314600F077FA0544B9
:105EA00060195DA100F072FA05446019314600F0F6
:105EB0006DFA0544601986A100F068FA0544FDF703
:105EC000CDFDA0B9FEF77AFC88B1601984A100F07D
:105ED0005DFA0544FEF786FC01466019042200F0D5
:105EE00088FA054460194CA100F050FA0544FDF70A
:105EF000B7FDA0B9FEF794FC88B160197EA100F04F
:105F000045FA0544FEF7A0FC01466019042200F0A2
:105F100070FA0544601940A100F038FA0544601990
:105F20007AA100F033FA054460197BA100F02EFA43
:105F30000544601938A100F029FA054460197AA1D6
:105F400000F024FA054460197BA100F028FA05440A
:105F5000601931A100F01AFA054460197AA100F025
:105F600015FA054460197DA100F010FA0544601986
:105F700029A100F00BFA0544FEF720FC80B160195E
:105F800077A100F003FA0544FEF736FC01466019DC
:105F900000F0D4F9054460191FA100F0F7F9054499
:105FA000601974A100F0F2F90544FEF72BFC0146DC
:105FB000601900F0C3F90544601917A100F0E6F973
:105FC0000544601970A100F0E1F9734905446019B6
:105FD000496800F0E4F9054460190FA100F0D6F912
:105FE000284420446DA100F0D1F939462046BDE88F
:105FF000F041FDF707BE000023204441504C696E7C
:106000006B204669726D77617265206279205065F8
:106010006E677A68696875690D0A00004275696C77
:10602000642054696D653A20417072203138203205
:106030003032302032333A30393A33370D0A0000EB
:10604000556E697175652049443A2040550D0A0026
:106050004849432049443A2040440D0A00000000CA
:106060004175746F2052657365743A20000000001A
:1060700031000000300000004175746F6D6174697B
:106080006F6E20616C6C6F7765643A2000000000D1
:106090004F766572666C6F772064657465637469AA
:1060A0006F6E3A2000000000426F6F746C6F616485
:1060B00065720000496E7465726661636500000078
:1060C0004461706C696E6B204D6F64653A2000000E
:1060D0002056657273696F6E3A2040560D0A0000B3
:1060E000426F6F746C6F616465722056657273697C
:1060F0006F6E3A2000000000496E7465726661633D
:10610000652056657273696F6E3A20004769742086
:106110005348413A200000004749545F434F4D4DDA
:1061200049545F53484100004C6F63616C204D6FD0
:1061300064733A20000000004749545F4C4F4341CC
:106140004C5F4D4F4453000055534220496E7465D7
:106150007266616365733A20000000004D5344008D
:10616000426F6F746C6F61646572204352433A20D2
:1061700030780000496E7465726661636520435231
:10618000433A20307800000052656D6F756E7420C0
:10619000636F756E743A20009402002055524C3A99
:1061A0002040520D0A00000030B510A387B00ECB7E
:1061B0008DE80E0000250C4809226946FAF7DBF845
:1061C0000D48094C1822457009340CA16846FAF7AD
:1061D000A2F9172269462046FAF7CDF8A57007B054
:1061E000BDE8304000F02EB8C81F00200902200092
:1061F00001010080FA000000C40200200904000030
:10620000020806500407058202400000070502024A
:106210004000000002484078002800D0012070476C
:10622000F4020020FBF706BD054910B50020C87038
:10623000FFF7BAFFFCF76AFDBDE81040FBF7FCBEB4
:10624000F402002010B5FEF7D5FC074C606000207A
:10625000FEF7C3FCE060FDF78BF900206070034996
:10626000A070A060086010BD840200201C03002004
:1062700070B514460D460646FFF78EFB074B1868AF
:10628000002809D00120FEF7EBFB224629463046C4
:10629000BDE8704000F06EBB70BD00001C03002024
:1062A000704700002DE9F04115460E460746FFF7FE
:1062B00073FB1048006800281AD00F490F4C0020CB
:1062C000886094F82000032812D00120FEF7C8FB54
:1062D0002A463146384600F01FFD94F82000032876
:1062E00006D02A4631463846BDE8F041FDF77EBD6E
:1062F000BDE8F0811C03002084020020E00F002094
:1063000006484FF0011201780548C1800021017054
:106310004170C0E90221016170470000F874000873
:10632000F402002010B5EFF3108000F0010472B603
:10633000FDF76EFA002C00D162B610BD70B50D46A7
:106340000446090E00F014F80646A019C5F30741EB
:1063500000F00EF80644A019C5F3072100F008F874
:106360000644E9B2A01900F003F8304470BD000003
:10637000054A02EB111301F00F011B780370515C09
:106380004170022070470000E870000803460020BA
:1063900001E01A54401C0A5C002AFAD17047F0B59B
:1063A0000646002002460B460A2504E0B3FBF5F33F
:1063B000401C42F10002002BF8D150EA020301D147
:1063C0000120002200231F460EE0B1FBF5F405FB7F
:1063D0001414B1FBF5F13034B0EB030CBCF1010C3B
:1063E00003F1010306F80C401C1A77EB0204ECD30E
:1063F000F0BD2DE9F04115460E460746FFF7CFFFE9
:106400000446A8420AD2302229463846FAF7B5F89F
:10641000281B38443146FFF7C2FF2846BDE8F0810B
:106420002DE9F84380462E48006840B1016A31B139
:1064300040468847002800D00120BDE8F88329485D
:106440008146FAF7EBF8041EF7D000200425074632
:1064500000902A4641466846F9F78DFFD4340AE099
:10646000201DFAF7DBF8024631460098FFF718FBCB
:10647000012830D014342046FAF7D0F80600EFD1C6
:10648000201DFAF7CBF80028EAD13FB323E000261D
:1064900008EB050104226846F9F76DFF4846FAF754
:1064A000BDF800F10C040AE0201DFAF7B7F8024627
:1064B00039460098FFF7F4FA01280BD0143420462F
:1064C000FAF7ACF80700EFD1201DFAF7A7F800287B
:1064D000EAD11EB12D1D0C2DD9D9ADE70020ACE7B6
:1064E000A4010020D66F00080B49096811B1496A60
:1064F00001B1084701783A290AD1007A302809D039
:10650000322807D0332805D0342803D0352801D0CD
:106510000020704701207047A40100202DE9FF5F93
:10652000994692468B460098FDF7A0FC40F29712E0
:1065300040A1FCF7F9FF41490026414D087BCA7A8A
:10654000497B42EA0020484309EB0001491EB1FBA8
:10655000F0F7B9F1000F19D00024A7F10108EE6897
:1065600009E0E968481C82B2364800F0B7FCE868E8
:10657000401C641CE8604445F3D34FF6FF72314879
:10658000E96800F0ABFCE868401CE8602869202856
:1065900002D34FF4D6721FE02B49202201EB4014A6
:1065A000401C286129492046F9F7E5FE0B222046C8
:1065B0000099F9F7E0FE04F11C014846FAF739F8B2
:1065C000300C2075000A6075A676300AE076A9685E
:1065D000102909D34FF4DD7216A10020FCF7A4FFA7
:1065E000002004B0BDE8F09F174B01EB4100C03B19
:1065F000174A43F8202003EB8002164E5660BBF189
:10660000000F01D043F820B0BAF1000F01D0C2F85A
:1066100004A00A48491C037BC67A407B46EA032350
:1066200043437B439360A9602878401C2870204630
:10663000D7E700002866696C652900004C1200202D
:106640009C0200204C1400200C170020C874000885
:1066500049530008BD6F0008C07A70471C30F9F735
:10666000DDBF000010B50446FFF7F8FF88B1E07EFB
:10667000A17E41EA00220848921E017BC37A407B3A
:1066800043EA0121054B5B69B3FBF1F102FB00100A
:1066900010BD4FF0FF3010BD4C1200209C020020B6
:1066A000C172704770B50F48017DC07C50EA01246B
:1066B0000C48017BC07A40EA012501D06C430EE012
:1066C00008482030F9F7AAFF10B100FB05F406E0F6
:1066D000002440F28B1204A12046FCF725FF20463F
:1066E00070BD00004C1200202866696C652900000E
:1066F0002DE9F0410F4680464FF4007631464E4872
:10670000F9F765FF31464D48F9F761FF4C4C00251C
:10671000C0214C48E560F9F75AFF4A487100C03083
:10672000F9F755FF256125704748C4E90105324650
:10673000464941486561F9F7EEFE3F4E07F580375F
:10674000307BF17A41EA0020B7FBF0F7707B40F62E
:106750002D014143B7EB410F09D24FF4AC723CA17C
:106760000020FCF7E1FE777B41F25A000DE04FF686
:1067700091714843B84209D240F25B1234A1002023
:10678000FCF7D2FE777B4FF6917047432A492031C0
:10679000B7F5803F04D3F574280A3075384603E016
:1067A000F774380A30750020F9F743FF707B40F228
:1067B000FF11B7FBF0F001EB4000C0F34F27F78269
:1067C000302225491F48F9F7A6FE1E497802486184
:1067D000086204206561A060002000EB400201EB2C
:1067E000820263699268401C1A4462610428F4D3EF
:1067F0004FF6F87229461148E56000F06FFBE1683A
:106800004FF6FF72491C0D48E16000F067FBE0683D
:106810001149401CC4E903050A4D2022C035284611
:106820003031F9F7A8FD28460B224146F9F7A3FDC0
:1068300001202061BDE8F0814C1200204C140020A2
:106840009C0200204C160020193D000878720008B8
:106850002866696C652900007874000810B5FFF798
:10686000B3F8FCF7B5FE28B904484178022901D1F4
:1068700001218170BDE81040FFF7AEB8840200200E
:1068800010B5FFF789F80148007810BD8402002098
:1068900010B50446FFF780F8FCF76AFE0649074A80
:1068A00024B1022048708870012002E00020487066
:1068B0008870106010BD0000840200201C030020BE
:1068C0002DE9F0410446FFF767F8FFF77DF8FCF784
:1068D0007FFE80B1FEF740FD214A4EF660239168AD
:1068E000994201D22144916028B19478557854702E
:1068F000012C06D103E0BDE8F041FFF76DB802209E
:10690000907000269660FFF767F80127CDB1012D42
:1069100017D0022D15D1134D95F82000032804D06F
:1069200085F826700020FFF797F995F820000328D6
:1069300012D0002040F211120BA1FCF7F5FD00F07F
:10694000E3F80B4D54B1012C08D0022C02D1FCF716
:106950000FFE2F60BDE8F0810120EBE72E60F9E724
:1069600084020020E00F00202866696C6529000081
:106970001C0300202DE9F0478A46044615460026F0
:1069800051025046F9F701FEDFF84890002006EB6F
:10699000460209EB82018442896800EB5121884656
:1069A0000ED38C420CD2A8EB0407AF4200D32F4683
:1069B00059F82230201A3A46514698473C44ED1B7C
:1069C000002D04D0761CF6B24046102EDFD3BDE871
:1069D000F08700004C160020014948607047000015
:1069E0009C0200201CB52F4CE07F10B104F11F0069
:1069F00000E02DA04FF08061FFF77AFE2D48FDF7F3
:106A0000B1FD0346207D10B12648143000E02AA0D5
:106A100000222849FFF782FD2A48FDF7A3FD03461F
:106A20000022284928A0FFF779FDFFF729FF40B190
:106A30002848FDF797FD03460022264926A0FFF7C8
:106A40006DFD284B41219A1C2748FCF7EFFE58B1F9
:106A50002648FDF787FD0346002224492448FFF716
:106A60005DFD0021FFF71CFE4FF000600190214802
:106A70000090FCF7F5FF002813D0DDE900104FF47B
:106A80008062F9F7D6FB00280BD11B48FDF76AFDA1
:106A900002B00346BDE810400022174917A0FFF7D7
:106AA0003DBD1CBDC66F00084472616720546F2055
:106AB000476F2000A55200084D595F5041474520BF
:106AC00048544D00ED51000844455441494C532071
:106AD00054585400015200084641494C20202020BF
:106AE000545854009402002008120020B5500008A9
:106AF0005972000800C00008DD5200084E454544A8
:106B00005F424C205458540010B5FCF7A7FF20B149
:106B1000FFF7B6FE08B9FAF7F7FEFCF7A1FF40B1A0
:106B2000FCF7D2FE18B9FCF7BBFE012801D1FAF739
:106B3000EBFE02484168491C416010BD94020020F0
:106B400070B50C460546FDF717FD10B9FDF712FDAF
:106B500008B1012200E000221AB9FCF7E6FD002886
:106B60006FD074B1012C6CD10B2245492846F9F73E
:106B700060FB002865D1FFF7D5FBBDE87040FFF74B
:106B80006DBE0B223F492846F9F753FB00284CD035
:106B90000B223DA12846F9F74CFB00284DD00B22D3
:106BA0003CA12846F9F745FB002847D00B223CA121
:106BB0002846F9F73EFB002845D00B223BA128468A
:106BC000F9F737FB0028D8D00B223BA12846F9F76C
:106BD00030FB00283ED00B223AA12846F9F729FBCA
:106BE000002838D00B223AA12846F9F722FB48B3F7
:106BF0000B223AA12846F9F71CFB78B30B223AA1E5
:106C00002846F9F716FB50B30B223AA12846F9F7AC
:106C100010FB38B10B223AA12846F9F70AFB0028ED
:106C20002DD10120FCF78EFEA7E7FCF719FF002805
:106C3000A3D00120FCF78CFE9FE70120FCF78FFE1C
:106C40009BE71CE00CE0BDE870409E222FA10020D5
:106C5000FCF76ABC0120FCF783FE8EE70BE00BE03B
:106C60002C4C2068006880472068006980472068B5
:106C70004068804781E70120FCF773FE7DE770BD27
:106C800059720008407000084155544F5F525354E8
:106C900043464700484152445F52535443464700DD
:106CA00041535345525420204143540052454652CB
:106CB00045534820414354004155544F5F4F4E20A7
:106CC000434647004155544F5F4F464643464700B1
:106CD0004552415345202020414354004F56464CD5
:106CE0005F4F4E20434647004F56464C5F4F464647
:106CF000434647004D53445F4F4E202041435400CC
:106D00004D53445F4F464620414354002866696C0A
:106D100065290000FC7000082DE9F05F044600269C
:106D200015468B463046DFF85090DFF850A01CE047
:106D300006EB460209EB82028442916800EB512186
:106D400088460DD38C420BD2A8EB0407AF4200D388
:106D50002F465368201A3A46594698473C44ED1B43
:106D6000002D06D0761C4046F6B2DAF808108E42A6
:106D7000DED3BDE8F09F00004C1600209C020020EE
:106D8000FEB5044690F8300015460F46302801D372
:106D9000606B31E0C0F13006AE4200D316462044AD
:106DA0003246F9F7E8FA94F830003044C1B284F87A
:106DB0003010302901D20020FEBD00233744AD1B26
:106DC0001A462046FDF7B0F808B302A90022009148
:106DD00001AB1146FDF7E6F80028EDD1019860639C
:106DE00094F830202146FDF7CDF90028E4D194F83D
:106DF0003010606B084460632A463946FDF7C2F9DB
:106E00000028D9D1606B284460631420FEBD1C208B
:106E1000FEBD00002DE9F84F894681184FF48063CC
:106E2000B3EB412F07D2BDE8F84F40F27E2227A1F5
:106E30000020FCF779BB41024B0951024FEA511B7C
:106E40000091244901EB431A10B10026224F33E090
:106E50000126FBE709EB46140AEB461520222146E2
:106E60002846F9F7E6F930B3214628460B22F9F710
:106E7000E0F978B100208046D7F804C023462A46BE
:106E800020460221E0472078E52805D0B8F1000F20
:106E900007D010E00120EEE72A46234610460121E4
:106EA00007E02046FCF7E2FF28B123462A461846B1
:106EB00000217C68A047761C5E45CBD350464946EE
:106EC000009ABDE8F84FF9F756BA00002866696CD9
:106ED000652900000C1700209C02002030B44B00F4
:106EE000012404EB4101B1F5007F06D330BC40F230
:106EF0003B1204A10020FCF717BBC254120A4254F3
:106F000030BC70472866696C652900002DE9F047A0
:106F100086B0002416460F460546039404940DF1EE
:106F200010080DF10C094FF4807A0594CDF800A0FB
:106F3000CDE901986B1C05AA31463846FDF7D6FE0F
:106F400068B1022813D001281DD0042825D00528B7
:106F500001D00628EAD1052821D0012020E0049A9A
:106F600022B3691C0398FDF70DF904461EE0049A4C
:106F70002AB1691C0398FDF705F9040016D105989C
:106F8000361A0744D2E7049A22B1691C0398FDF728
:106F9000F9F8044654B9132408E0152406E000204B
:106FA00040F2611203A1FCF7BFFA162406B0204696
:106FB000BDE8F0872866696C65290000704700C04D
:106FC00000080004000000000000303030300000F5
:106FD0000000000000000000002048454C505F46C3
:106FE000415148544D4D41494E54454E414E434503
:106FF00068747470733A2F2F6D6265642E636F6DC1
:107000002F6461706C696E6B00000000000000006E
:107010000000000000000000000000000000000070
:107020000000000000000000000000000000000060
:107030000000000000000000000000000000000050
:1070400053544152545F494641435400347D000833
:10705000D87C0008B87C0008907D00086C79000896
:10706000807C000884790008D07B0008707B0008D1
:10707000507D00082C7C0008F47A0008307B000862
:10708000B87D0008F07C0008207A0008F479000838
:10709000CC790008507A00080C7C0008747D000848
:1070A0003C770008FC760008C0760008807A00086B
:1070B00038790008947800085C7800088477000824
:1070C000607600089476000834760008D4750008CD
:1070D00004760008F4780008D477000810780008D7
:1070E0000C7E0008D0780008303132333435363722
:1070F00038396162636465660000000000000000CA
:10710000A9480008915D0008214F0008F13A0008E5
:10711000853A000839500008B93B0008915A000828
:10712000000000000071000800000000FFFFFFFFEA
:10713000FFFFFFFFFFFFFFFFFFFFFFFF000000005B
:10714000000000000000000000000000000000033C
:10715000747970653A20006572726F723A20003C53
:1071600021646F63747970652068746D6C3E0D0ADC
:107170003C212D2D206D62656420506C6174666F1A
:10718000726D205765627369746520616E64204179
:10719000757468656E7469636174696F6E20536895
:1071A0006F7274637574202D2D3E0D0A3C68746DEA
:1071B0006C3E0D0A3C686561643E0D0A3C6D657469
:1071C0006120636861727365743D227574662D3841
:1071D000223E0D0A3C7469746C653E50656E677A98
:1071E00068696875692057656273697465205368BA
:1071F0006F72746375743C2F7469746C653E0D0A0C
:107200003C2F686561643E0D0A3C626F64793E0DF7
:107210000A3C7363726970743E0D0A77696E646F1D
:10722000772E6C6F636174696F6E2E7265706C611E
:1072300063652822405222293B0D0A3C2F7363725A
:107240006970743E0D0A3C2F626F64793E0D0A3CF2
:107250002F68746D6C3E0D0A004153534552542003
:1072600020545854887E0008A47E0008947E0008AC
:107270009C7E00087C7E0008EB3C904D53443053CC
:10728000342E310002080100022000501FF80100D6
:10729000010001000000000000000000000029744F
:1072A0001902274441504C494E4B2D444E4446410F
:1072B000543136202020FAB8C0070520018ED0BCFA
:1072C0000010B8C0078ED8BE6D00E80B00EBFEB40E
:1072D0000EB700B307CD10C38A044608C07405E892
:1072E000EDFFEBF4C3504C454153452052454D4F03
:1072F0005645205448452041524D204D424544209A
:107300004441504C494E4B20555342204445564928
:10731000434520414E44205245424F4F542054484B
:10732000452053595354454D2E2E000000000000B7
:10733000000000000000000000000000000000004D
:10734000000000000000000000000000000000003D
:10735000000000000000000000000000000000002D
:10736000000000000000000000000000000000001D
:10737000000000000000000000000000000000000D
:1073800000000000000000000000000000000000FD
:1073900000000000000000000000000000000000ED
:1073A00000000000000000000000000000000000DD
:1073B00000000000000000000000000000000000CD
:1073C00000000000000000000000000000000000BD
:1073D00000000000000000000000000000000000AD
:1073E000000000000000000000000000000000009D
:1073F000000000000000000000000000000000008D
:10740000000000000000000000000000000000007C
:10741000000000000000000000000000000000006C
:10742000000000000000000000000000000000005C
:10743000000000000000000000000000000000004C
:10744000000000000000000000000000000000003C
:10745000000000000000000000000000000000002C
:10746000000000000000000000000000000000001C
:1074700000000000000055AA09530008BD6F000875
:107480000002000095500008BD6F000800000000D9
:1074900095500008BD6F0008000000004150000832
:1074A000156E00080004000000000000000000004D
:1074B0000000002800000000000000000000418ED5
:1074C000BB320000000000000000000000000000CF
:1074D0000000000100000000764876480000DC83D0
:1074E00076480000000000000000000000000000DE
:1074F00001020304060708090000004002024000E0
:107500000002400000000000000000000000000039
:107510000000000000000000CD1C0008000000007A
:107520003D230008000000000000000000000000F3
:10753000000000000000000000000000000000004B
:10754000000000000000000000000000000000003B
:10755000000000000000000000000000000000002B
:10756000000000001201100100000040280D04027C
:1075700000010102030100000000040309040803E4
:10758000410052004D0024034400410050004C00D3
:1075900069006E006B00200043004D00530049005D
:1075A00053002D004400410050001A033000300009
:1075B0003000310041003000300030003000300039
:1075C0003000300010035500530042005F004D00B2
:1075D00053004300496E206170706C696361746987
:1075E0006F6E2070726F6772616D6D696E67207368
:1075F0006563746F72206572617365206661696C82
:1076000065642E00496E206170706C6963617469F5
:107610006F6E2070726F6772616D6D696E67206D3D
:10762000617373206572617365206661696C65645E
:107630002E000000496E206170706C69636174698E
:107640006F6E2070726F6772616D6D696E67207703
:1076500072697465206661696C65642E00000000C3
:10766000496E206170706C69636174696F6E20701F
:10767000726F6772616D6D696E6720696E6974699A
:10768000616C697A6174696F6E206661696C6564AA
:107690002E000000496E206170706C69636174692E
:1076A0006F6E2070726F6772616D6D696E672075A5
:1076B0006E696E6974206661696C65642E000000F5
:1076C000546865206865782066696C652063616E22
:1076D0006E6F742062652070726F6772616D6D6588
:1076E000642E204C6F676963206661696C757265F2
:1076F000206F636375727265642E000054686520A4
:107700006865782066696C652063616E6E6F7420B1
:107710006265206465636F6465642E2050617273D6
:107720006572206C6F676963206661696C7572654C
:10773000206F636375727265642E00005468652063
:107740006865782066696C652063616E6E6F742071
:107750006265206465636F6465642E2043686563B9
:107760006B73756D2063616C63756C6174696F6EAA
:10777000206661696C757265206F636375727265EE
:10778000642E0000546865206170706C69636174D8
:10779000696F6E2066696C6520666F726D6174201A
:1077A000697320756E6B6E6F776E20616E642063F7
:1077B000616E6E6F74206265207061727365642003
:1077C000616E642F6F722070726F6365737365648E
:1077D0002E000000496E206170706C6963617469ED
:1077E0006F6E2070726F6772616D6D696E67206E6B
:1077F0006F7420737570706F72746564206F6E2083
:1078000074686973206465766963652E0000000002
:10781000496E206170706C69636174696F6E20706D
:10782000726F6772616D6D696E67206661696C6504
:107830006420626563617573652074686520757086
:10784000646174652073656E742077617320696E5E
:10785000636F6D706C6574652E0000005468652060
:107860007374617274696E672061646472657373A6
:1078700020666F722074686520696E746572666137
:107880006365207570646174652069732077726F19
:107890006E672E00546865207374617274696E6738
:1078A000206164647265737320666F72207468650A
:1078B00020626F6F746C6F616465722075706461B3
:1078C00074652069732077726F6E672E0000000068
:1078D00054686520626F6F746C6F616465722043D9
:1078E000524320646964206E6F7420706173732E3C
:1078F00000000000496E206170706C6963617469FA
:107900006F6E2070726F6772616D6D696E67206156
:10791000626F727465642064756520746F20616E97
:10792000206F7574206F6620626F756E64732061BE
:107930006464726573732E005468652068657820EE
:1079400066696C65206F6666736574206C6F616430
:107950002061646472657373206973206E6F742094
:10796000636F72726563742E0000000054686520B6
:107970007472616E736665722074696D6564206FE0
:1079800075742E0046696C652073656E74206F7582
:1079900074206F66206F7264657220627920504394
:1079A0002E20546172676574206D69676874206E5B
:1079B0006F742062652070726F6772616D6D6564AF
:1079C00020636F72726563746C792E00466C61730C
:1079D0006820616C676F726974686D207772697472
:1079E0006520636F6D6D616E64204641494C555250
:1079F00045000000466C61736820616C676F7269B6
:107A000074686D20657261736520616C6C20636FB2
:107A10006D6D616E64204641494C55524500000031
:107A2000466C61736820616C676F726974686D2061
:107A3000657261736520736563746F7220636F6D27
:107A40006D616E64204641494C555245000000006E
:107A5000466C61736820616C676F726974686D2031
:107A600077726974652076657269667920636F6DD7
:107A70006D616E64204641494C555245000000003E
:107A8000546865206865782066696C6520796F7533
:107A90002064726F707065642069736E2774206350
:107AA0006F6D70617469626C6520776974682074A9
:107AB000686973206D6F6465206F722064657669F4
:107AC00063652E2041726520796F7520696E204DA7
:107AD00041494E54454E414E4345206D6F64653FCC
:107AE000205365652048454C50204641512E48544E
:107AF0004D00000054686520696E746572666163AC
:107B000065206669726D77617265204641494C4512
:107B10004420746F20696E697469616C697A6520AC
:107B200074686520746172676574204D4355000068
:107B300054686520696E7465726661636520666964
:107B4000726D77617265204641494C454420746FDF
:107B500020756E696E697469616C697A65207468F4
:107B60006520746172676574204D43550000000004
:107B700054686520696E7465726661636520666924
:107B8000726D77617265204641494C454420746F9F
:107B900020646F776E6C6F61642074686520666C1A
:107BA0006173682070726F6772616D6D696E6720B6
:107BB000616C676F726974686D7320746F2074688C
:107BC0006520746172676574204D435500000000A4
:107BD00054686520696E74657266616365206669C4
:107BE000726D77617265204641494C454420746F3F
:107BF0002072657365742F68616C742074686520E9
:107C0000746172676574204D43550000456E6420B1
:107C10006F662073747265616D20686173206265A0
:107C2000656E207265616368656400005468652054
:107C3000696E74657266616365206669726D7761ED
:107C40007265204641494C454420746F20646F772B
:107C50006E6C6F61642074686520666C6173682067
:107C60006461746120636F6E74656E747320746FE9
:107C70002062652070726F6772616D6D65640000CF
:107C8000506F737369626C65206D69736D617463A5
:107C900068206265747765656E2066696C6520731F
:107CA000697A6520616E642073697A652070726FED
:107CB0006772616D6D656400416E20696E746572F6
:107CC0006E616C206572726F7220686173206F63E1
:107CD0006375727265640000416E206572726F7226
:107CE00020686173206F63637572726564000000C1
:107CF00054686520696E74657266616365206669A3
:107D0000726D77617265204641494C454420746F1D
:107D100020756E6C6F636B20746865207461726788
:107D2000657420666F722070726F6772616D6D6925
:107D30006E6700004F7065726174696F6E207761C5
:107D400073207375636365737366756C0000000060
:107D500054686520666C61736820616C676F206D84
:107D6000697373696E6720666F7220612072656740
:107D7000696F6E00456E64206F6620737472656172
:107D80006D20697320756E6B6E6F776E000000005A
:107D9000416E206572726F72206F636375727265D7
:107DA0006420647572696E672074686520747261FE
:107DB0006E7366657200000054686520696E7465B4
:107DC0007266616365206669726D776172652041D4
:107DD000424F525445442070726F6772616D6D69F5
:107DE0006E672E20496D6167652069732074727912
:107DF000696E6720746F2073657420736563757294
:107E0000697479206269747300000000000000004A
:107E10004120626F6F746C6F61646572207570646D
:107E20006174652077617320737461727465642076
:107E300062757420756E61626C6520746F20636F6B
:107E40006D706C6574652E0D0A52656C6F616420EF
:107E500074686520626F6F746C6F61646572207402
:107E60006F206669782074686973206572726F721A
:107E7000206D6573736167652E0D0A00696E746508
:107E80007266616365000000696E7465726E616C94
:107E90000000000075736572000000007461726775
:107EA000657400007472616E7369656E7400000021
:107EB0004D4245442020202056465320202020209B
:107EC0002020202020202020302E3100EC7E0008B1
:107ED000000000205003000028010008547F000823
:107EE00050030020F8240000840100084113BE6FF5
:107EF00043080112C022084A020C01BE12201A5087
:107F00000401CC380801010206020208013A040605
:107F10002F010106060604017A1001110D200899AF
:107F200096974C011A1B653A43124B1408816D1445
:107F3000081F371B0877101A9D10130D6F1B08239D
:107F40001001892CA24A04C79BB07E941260028063
:107F500040000000FFFFFFFFFFFFFFFFFFFFFFFFED
:107F6000FFFFFFFFFFFFFFFFFFFFFFFFFFFFFFFF21
:107F7000FFFFFFFFFFFFFFFFFFFFFFFFFFFFFFFF11
:107F8000FFFFFFFFFFFFFFFFFFFFFFFFFFFFFFFF01
:107F9000FFFFFFFFFFFFFFFFFFFFFFFFFFFFFFFFF1
:04000005080000ED02
:00000001FF
