:020000040800F2
:10C00000683200201DC3000825C30008DDEA0008CF
:10C0100029C300082BC300082DC30008000000003E
:10C020008F9E939B08999697FE00000031C20008EE
:10C0300031C3000832920108B9C2000809C30008E0
:10C0400037C3000837C3000837C3000837C30008E8
:10C0500037C3000837C3000837C3000837C30008D8
:10C0600037C3000837C3000837C3000837C30008C8
:10C0700037C3000837C3000837C3000837C30008B8
:10C0800037C3000837C3000837C3000837C30008A8
:10C090000D2A010837C3000837C3000837C300085A
:10C0A00037C3000837C3000837C3000837C3000888
:10C0B00037C3000837C3000837C3000837C3000878
:10C0C00037C3000837C3000837C3000837C3000868
:10C0D00037C3000837C30008A903010837C30008A5
:10C0E00037C3000837C3000837C3000800F002F860
:10C0F00000F05AF80AA090E8000C82448344AAF1A8
:10C100000107DA4501D100F04FF8AFF2090EBAE8A5
:10C110000F0013F0010F18BFFB1A43F0010318477B
:10C12000E0E5000000E600000A444FF0000C10F8C3
:10C13000013B13F0070408BF10F8014B1D1108BFA5
:10C1400010F8015B641E05D010F8016B641E01F845
:10C15000016BF9D113F0080F1EBF10F8014BAD1C95
:10C160000C1B09D16D1E58BF01F801CBFAD505E0B3
:10C1700014F8016B01F8016B6D1EF9D59142D6D30D
:10C18000704700000023002400250026103A28BF35
:10C1900078C1FBD8520728BF30C148BF0B60704739
:10C1A0001FB51FBD10B510BD00F03AFB1146FFF7DB
:10C1B000F7FF08F061FA00F058FB03B4FFF7F2FF55
:10C1C00003BC00F05BFB000080F309887047EFF3CD
:10C1D00009807047684680F3098804480078C007E2
:10C1E00014BF0220032080F314887047509B01087D
:10C1F000DFF818C0EFF305831B0618BF6047EFF3A5
:10C200001483DB0708BF604700DF7047A9550108AA
:10C21000DFF818C0EFF305831B0618BF6047EFF384
:10C220001483DB0708BF604700DF7047B55701087C
:10C23000EFF30980816911F8021C39BB90E80F10F7
:10C24000E047EFF3098C194B93E80600914218D0B0
:10C2500059B10CB44FF0010381F821302CE9F00FF3
:10C26000C1F824C009F03AFD0CBC1A60D2F824C011
:10C27000BCE8F00F92F821308CF309881BB192F8DA
:10C280002000CCF800006FF0020E704710B5084A8D
:10C290001268914209D8074C54F8214090E80F10D9
:10C2A000A047EFF3098C8CE80F0010BD0C040020B0
:10C2B0008CC800088CC8000809F0FCFB114B93E8FF
:10C2C000060091421BD00CB44FF0000381F82130DE
:10C2D000EFF3098C2CE9F00FC1F824C009F0FEFC43
:10C2E0000CBC1A60D2F824C0BCE8F00F8CF30988AB
:10C2F00092F821301BB192F82030CCF800306FF06A
:10C30000020E70470C04002009F0AAFDD6E70000D9
:10C3100008F006FC09F0A4FDD0E7000009488047BA
:10C3200009480047FEE7FEE7FEE7FEE7FEE7FEE717
:10C33000FEE7FEE7FEE7FEE704480549054A064B2F
:10C340007047000005000108EDC00008682C0020BF
:10C3500068320020682E0020682E002000487047B8
:10C36000042C0020B2F120030AD5C2F1200320FAE8
:10C3700002F001FA03F321FA02F140EA03007047E8
:10C3800021FA03F04FF00001704740EA010310B5B5
:10C390009B070FD1042A0DD310C808C9121F9C4255
:10C3A000F8D020BA19BA884201D9012010BD4FF047
:10C3B000FF3010BD1AB1D30703D0521C07E0002094
:10C3C00010BD10F8013B11F8014B1B1B07D110F8F1
:10C3D000013B11F8014B1B1B01D1921EF1D11846F4
:10C3E00010BD10B5431C02E010F8011B71B18107AC
:10C3F000FAD14FF0013202C88C1A8C4314EAC211F0
:10C40000F9D0C01A0A0603D0C01E10BDC01A10BD54
:10C410000A0401D0801E10BD0902FCD0401E10BDD0
:10C4200040EA010370B59B072ED14FF00136042A74
:10C430002AD308C810C99D1B9D43121F15EAC615B3
:10C4400017D0D8B2E1B2401A50EA056110D198B2C3
:10C45000A1B2401A50EA05410AD123F07F4024F0EE
:10C460007F41401A50EA052102D1180EA0EB14605A
:10C4700070BDA342DBD018BA21BA884201D901208D
:10C4800070BD4FF0FF3070BD0AB9002070BD10F8CC
:10C49000013B11F8014B63B1A3420AD1521E08D0EF
:10C4A00010F8013B11F8014B1BB1A34201D1521E00
:10C4B000EDD1181B70BD421E12F8013F002BFBD1BD
:10C4C00011F8013B002B02F8013BF9D17047032A18
:10C4D00040F2568010F0030C00F0158011F8013B7B
:10C4E000BCF1020F624498BF11F801CB00F8013B88
:10C4F00038BF11F8013BA2F1040298BF00F801CB4C
:10C5000038BF00F8013B11F0030300F0B080121FA8
:10C51000C0F03680A1EB0301022BD1F800C000F07F
:10C52000118000F21E804FEA1C2351F804CF121F25
:10C5300043EA0C6340F8043BBFF4F5AF01F101019D
:10C5400000F01EB84FEA1C4351F804CF121F43EA13
:10C550000C4340F8043BBFF4F5AF01F1020100F0D9
:10C560000FB84FEA1C6351F804CF121F43EA0C23A3
:10C5700040F8043BBFF4F5AF01F10301AFF30080D5
:10C58000D20724BF11F8013B11F801CB48BF11F8C5
:10C59000012B24BF00F8013B00F801CB48BF00F895
:10C5A000012B7047431A28BF9A427FF690AF032AA7
:10C5B0001044114440F2498010F0030F1EBF11F8DF
:10C5C000013D521E00F8013D10F0030F7FF4F6AF5D
:10C5D00011F0030300F0FA80121FC0F03680A1EBC7
:10C5E0000301022BD1F800C0C0F0118000F21E80C0
:10C5F0004FEA0C4351F804CD121F43EA1C4340F8A4
:10C60000043DBFF4F5AF01F1020100F01EB84FEA9E
:10C610000C6351F804CD121F43EA1C2340F8043D7B
:10C62000BFF4F5AF01F1010100F00FB84FEA0C23A0
:10C6300051F804CD121F43EA1C6340F8043DBFF4D7
:10C64000F5AF01F10301AFF30080D20724BF11F869
:10C65000013D11F801CD48BF11F8012C24BF00F8AD
:10C66000013D00F801CD48BF00F8012C704710B51E
:10C67000203AC0F00B80B1E81850203AA0E81850DA
:10C68000B1E81850A0E81850BFF4F5AF5FEA027C9B
:10C6900024BFB1E81850A0E8185044BF18C918C00A
:10C6A000BDE810405FEA827C24BF51F8043B40F8AB
:10C6B000043B08BF7047D20728BF31F8023B48BF90
:10C6C00011F8012B28BF20F8023B48BF00F8012BCE
:10C6D000704702F0FF0343EA032242EA024200F0FD
:10C6E00002B84FF000020429C0F0128010F0030CD1
:10C6F00000F01B80CCF1040CBCF1020F18BF00F855
:10C70000012BA8BF20F8022BA1EB0C0100F00DB803
:10C710005FEAC17C24BF00F8012B00F8012B48BF61
:10C7200000F8012B70474FF0000200B51346944605
:10C730009646203922BFA0E80C50A0E80C50B1F179
:10C740002001BFF4F7AF090728BFA0E80C5048BF8D
:10C750000CC05DF804EB890028BF40F8042B08BF2B
:10C76000704748BF20F8022B11F0804F18BF00F827
:10C77000012B7047427801788378C07841EA022122
:10C7800041EA034141EA006070474FEA1022087015
:10C790004A704FEA10428A704FEA1062CA707047BE
:10C7A000704770477047431A28BF9A427FF65FAFC1
:10C7B000104410F0030F11441EBF11F8013D521E2A
:10C7C00000F8013D10F0030F7FF4F6AF103AC0F00F
:10C7D0000A8010B531E91850103A20E91850BFF41A
:10C7E000F9AFBDE81040530724BF31E9081020E934
:10C7F000081044BF51F8043D40F8043D12F0030F07
:10C8000008BF7047D20728BF31F8023D48BF11F872
:10C81000012C28BF20F8023D48BF00F8012C7047CA
:10C820007546FFF79BFDAE4605006946534620F06E
:10C830000700854618B020B5FFF77EFDBDE8204013
:10C840004FF000064FF000074FF000084FF0000BCC
:10C8500021F00701AC46ACE8C009ACE8C009ACE87F
:10C86000C009ACE8C0098D46704710B50446AFF367
:10C8700000802046BDE81040FFF79FBC014918200A
:10C88000ABBEFEE72600020070470000000000007B
:10C890002DE9F04704788A4604B90124244A244D3E
:10C8A00001262248571410354FF48048012C08D037
:10C8B000022C14D000248AF800404FF00110BDE88B
:10C8C000F08706700D219146104608F017FB2F6087
:10C8D0000E21484608F012FBC5F800801BE002213B
:10C8E00001700D219146104608F008FB2F600E21C3
:10C8F000484608F003FBC5F800800E4F0721384674
:10C9000008F0FCFA0B498020103108600122052153
:10C91000384608F0A1FA01220C21484608F09CFA9A
:10C920000021484608F01CFB2E60C4E738050020B3
:10C93000000C0140000801402DE9F04102787F2AF7
:10C9400003D0BDE8F04100F087BA01F8012B44782C
:10C9500001F8014B861C0D464FF0021708E02946EE
:10C96000304600F079FA074406EB104680B20544E1
:10C97000641EF4D23846BDE8F08170B500240D463F
:10C9800006282BD006DC052828D2DFE800F0272770
:10C99000270C0F00F02816D0FD281FD0FE281AD033
:10C9A000FF281BD111E007F0EFFC01E007F0F4FCD9
:10C9B0000646FFF716FD401CC4B222463146284603
:10C9C000FFF785FD0AE0132006E0402028700020D4
:10C9D0004870022402E0042008700124204670BD43
:10C9E0002DE9F04F87B00446059000208E1CCDE95C
:10C9F0000101C2490870C24A14F8011B0546D175ED
:10CA0000927D824691426FD214F8011B5FEA0109C0
:10CA10006AD014F801BB5FEACB7101D00B2100E0B2
:10CA20000A2188465FEA8B7171D5BAF1000F3AD0BE
:10CA3000B348454547890FD15FEACB600CD46946BE
:10CA4000584602F0BDFA02281CD17F1E03D3AB4921
:10CA500009780029F3D0FFE00A2D03D00A252846E3
:10CA600002F0CEF8DFF894A269460E2002F0A8FA90
:10CA7000022805D17F1E03D39AF800100029F3D0B5
:10CA80004FF0000A0128E6D1009906F8011B009931
:10CA9000090A06F8011B0099090C06F8021B009907
:10CAA000090E06F8011C5FEACB6152D5E7782046F3
:10CAB000FFF760FE67F31F60914F0490241DB88953
:10CAC00003904046454502D0054602F099F88C484F
:10CAD000DFF8288247890021584602F071FA0228BF
:10CAE00003D0012807D107E0DEE07F1E03D398F8CA
:10CAF00000100029EFD0AFE08148478969465846C9
:10CB000002F05EFA022803D0012818D107E040E0C5
:10CB10007F1E14D398F800100029EFD00FE0784959
:10CB2000009A09691140049A914208D00399491E5C
:10CB30000391491C03D098F800100029DCD07049FB
:10CB4000009A09691140049A91426ED040F0100099
:10CB50006BE0BAF1000F72D14046454502D0054660
:10CB600002F04EF86648DFF8948147890021584664
:10CB700002F026FA022802D001286DD106E07F1EBD
:10CB80006AD398F800100029F0D065E04FF0010A50
:10CB900055E0BAF1000F29D00A2D03D00A25284606
:10CBA00002F02EF85648478969460E2002F008FA2E
:10CBB000022802D001284FD107E07F1E791C4BD0FC
:10CBC0004E4909780029EFD046E0009806F8010B9D
:10CBD00000984FF0000A000A06F8010B0098000CBC
:10CBE00006F8020B0098000E06F8010CE7782046C4
:10CBF000FFF7C0FD67F31F60241D00905FEA8B61A3
:10CC000003D53F490861012019E04046454502D05F
:10CC1000054601F0F5FF3A48DFF8E08047896946AC
:10CC2000584602F0CDF9022802D0012814D106E0BE
:10CC30007F1E11D398F800100029F0D00CE0019964
:10CC4000491C01912D49097831B9A9F101015FEA27
:10CC500001097FF4DEAE0CE0B9F1000F09D014F841
:10CC6000011B8A0701D5C90600D5241DA9F10109B8
:10CC7000F2E7012834D10A2D02D00A2001F0C0FFCA
:10CC80001F481E4FBAF1000F45891ED069460E207D
:10CC900002F096F9022802D0012821D105E06D1E8C
:10CCA0001ED339780029F1D01AE0009906F8011B4B
:10CCB0000099090A06F8011B0099090C06F8021BE5
:10CCC0000099090E06F8011C0AE000210E2002F06E
:10CCD00077F9022804D16D1E02D339780029F4D0E7
:10CCE000DDE901121170029948700298311A059815
:10CCF00007B0201A41EA0040BDE8F08F0000002094
:10CD0000380500202DE9F84F00258946CE1C5049F2
:10CD1000024628460D704F4F12F8011BF975BB7D76
:10CD2000994227D2517812F8023B53EA012421D0CC
:10CD300012F801AB90465FEACA7001D00B2000E008
:10CD40000A20834601F05CFF5FEA8A705ED54148A5
:10CD5000DFF8FC8047890021504602F031F90228B3
:10CD600002D0012868D131E07F1E65D398F8001009
:10CD70000029F0D060E03CB9BBF10A0F02D00A20D4
:10CD800001F03EFF4FF00E0A32484789694650468F
:10CD900002F016F9022802D001284DD106E07F1ECC
:10CDA0004AD398F800100029F0D045E0009906F821
:10CDB000011B0099090A06F8011B0099090C06F8E5
:10CDC000021B0099090E06F8011C6D1C641ED2D2CC
:10CDD00032E0404698F80370FFF7CCFC67F31F6021
:10CDE00000901C4808F1040847896946504602F043
:10CDF000E7F8022802D001281ED106E07F1E1BD3CF
:10CE0000134909780029F0D016E06D1C641EE0D2A9
:10CE1000BBF10A0F02D00A2001F0F2FE0D480C4FC0
:10CE2000448900210E2002F0CBF8022804D1641EB0
:10CE300002D339780029F4D089F800502A0A89F8F9
:10CE4000012089F80200A6EB0900BDE8F88F000078
:10CE500000000020380500202DE9F0470278A2F1FB
:10CE600080031F2B03D800F05FF9BDE8F08701F8BD
:10CE7000012B0F4610F8016B0025FF23A249A34A9E
:10CE80004FF00114172E74D2DFE806F00C142D3188
:10CE9000DEF0EE73ED465873737373735C61657403
:10CEA0007EA1C5000078791CFFF767FD387000F19E
:10CEB0000210DAE70278402422B1012A0AD03B703E
:10CEC0000C4615E14078C00701D0914809E0904830
:10CED000001D06E04078C00701D08E4801E08D4873
:10CEE000001D046028E03946FFF7D2FC2DE0884C95
:10CEF0001570103C00220D21204607F0ADFF0022E6
:10CF00000E21204607F0A8FF00220C21204607F042
:10CF1000A3FF3D700124EBE0427800787F4B40EAAC
:10CF200002227D480068B0FBF3F00323801CB0FBB5
:10CF3000F3F05043401EFDD13D70C1E77D703D7060
:10CF40000224D5E0394600F00DFC0446D0E0394615
:10CF500000F0DAFBF9E710F8014B0CB94FF48074DC
:10CF60000146204602F0EEFFE41DE0083D70040497
:10CF70004EE0C4E0007800F00301491C1175C0F3D5
:10CF8000800050753D70B3E007F8015B01252C4629
:10CF900010F8018B15E010F8016B814601463A4606
:10CFA000304601F0BBFF16F03F0000D14020C01D0D
:10CFB000C1080D446D1C09EB0100320601D50F4478
:10CFC0000C44B8F10108E6D265F31F4490E010F874
:10CFD000014B002194750B460BE002EB030C10F89B
:10CFE000016B8CF8186002EB430C5B1CACF8201052
:10CFF0003144A342F1D3002006E013181B7EC91A66
:10D0000002EB4003401C1986A042F6D33D70240475
:10D0100004F101146CE01178022913D10078D07565
:10D02000917D88420ED20E2001F0EAFD01F00CFF46
:10D030003D707870010AB970010CF970000E3871FA
:10D04000374C55E03B7053E001781172817843789A
:10D05000344C43EA012151810179C37843EA01202C
:10D0600090813D7044E046E020E0FFE712783946C9
:10D07000012A15D0022A16D00446401C10F8012BB4
:10D0800042B110F8013B9E0701D5DB0600D5001D1B
:10D09000521EF6D1001B0D7000047D70801C54E7F9
:10D0A00000F01CF951E7FFF79BFC4EE704461078AF
:10D0B000394601280BD002280DD00D704D70BD707F
:10D0C0000320E17889070AD540F4802410E0204647
:10D0D00000F086FAF5E72046FFF714FEF1E7A178A5
:10D0E000627842EA01214FF4802202EB814404433A
:10D0F00004F10110B9E6394600F0FCFB25E707F81A
:10D10000013C2046B1E60000010002003805002085
:10D11000100C014010080140D402002040420F00D2
:10D1200005000100010005002DE9FE4F027801F81D
:10D13000012B0D4610F8011B4FF00114671C8039BC
:10D1400006464FF0000A4FF001084FF002190D2972
:10D1500074D2DFE801F00717223841737373495620
:10D160006065690007F010F90646FFF73AF9C4B2A6
:10D170002C70681C22463146FFF7A9F904F580346B
:10D18000A41C5BE00724684603F0C2FA2246694605
:10D190002846FFF79CF92B4C50E0684603F0B8FA9C
:10D1A0000422314602A8CDF808A0FFF790F90298B2
:10D1B0000090684603F0CCFA002003F047FB85F8A6
:10D1C0000080214C3AE03E21681C0AF025FC00F565
:10D1D00080342870A41C31E03778701C39460AF07E
:10D1E000BDFC85F8008025E085F80080307828B106
:10D1F000012803D085F800A04C461FE007F0A6FBED
:10D20000FAE785F8008005F01BFE10B902200AF04D
:10D21000A3F93C4612E0307809F046F92870EBE7B4
:10D2200009F010F92870F4E73778701C394609F0D6
:10D23000DDF9287004EB074404F101142046BDE831
:10D24000FE8F0000090001000200050038B52148EA
:10D25000816941F004018161816901F0040100915B
:10D26000816941F008018161816901F00801009143
:10D27000816941F010018161816901F01001009123
:10D28000816941F0200181618069134D00F0200027
:10D2900000900D21284607F031FE0F4C6814103421
:10D2A00020600E21284607F029FE4FF480402060C0
:10D2B00001220C21284607F0CFFD0021284607F067
:10D2C0004FFE012020600621284607F017FE40206F
:10D2D000206038BD00100240000C01402DE9F04FE5
:10D2E00087B0044605900020DFF8ECA2CDE90101EB
:10D2F0008D1C8AF8000003906678A41C8046002EDE
:10D300007ED014F8019B5FEA89717AD5B8F1000FDD
:10D3100031D0B248478909F0110001280CD1694683
:10D32000484602F0F9FA022814D17F1E03D39AF876
:10D3300000100029F3D0FFE069460E2002F0ECFA5D
:10D34000022805D17F1E03D39AF800100029F3D0DC
:10D350004FF000080128EED1009905F8011B009953
:10D36000090A05F8011B0099090C05F8021B009930
:10D37000090E05F8011C5FEAC9614ED5E778204621
:10D38000FFF7F8F967F31F6004909448241DB0F884
:10D390000CB05FEAC97011D0904847890021484617
:10D3A00002F0BAFA022802D0012806D106E07F1E58
:10D3B00003D39AF800100029F0D0BDE087484789D0
:10D3C0006946484602F0A8FA022802D0012815D181
:10D3D00006E07F1E12D39AF800100029F0D00DE06D
:10D3E0007E49009A09691140049A914206D0BBF126
:10D3F000010B03D39AF800100029DFD0774901E030
:10D40000BAE046E00969009A1140049A914201D0BD
:10D4100040F01000012817D139E070494F895FEAC8
:10D42000C97115D0B8F1000F31D10021484602F082
:10D4300073FA022802D001287ED106E07F1E7BD33A
:10D440009AF800100029F0D076E04FF001081EE0B5
:10D450006946484602F060FA022802D001286BD1E2
:10D4600006E07F1E68D39AF800100029F0D063E030
:10D47000009905F8011B0099090A05F8011B00999C
:10D48000090C05F8021B0099090E05F8011C002182
:10D4900047E0B8F1000F22D05048478969460E2076
:10D4A00002F03AFA022802D0012845D106E07F1E98
:10D4B00042D39AF800100029F0D03DE0009805F81A
:10D4C000010B00984FF00008000A05F8010B0098C6
:10D4D000000C05F8020B0098000E05F8010CE77827
:10D4E0002046FFF747F967F31F60241D00905FEAAD
:10D4F000896103D539490861012013E0374847891C
:10D500006946484602F008FA022802D0012813D1E1
:10D5100006E07F1E10D39AF800100029F0D00BE02F
:10D52000012103910199491C01919AF8001019B940
:10D53000761E7FF4E6AE09E046B114F8011B8A07B7
:10D5400001D5C90600D5241D761EF5E7012834D182
:10D55000B8F1000F21D021485746468969460E2070
:10D5600002F0DAF9022802D0012826D105E0761E61
:10D5700023D339780029F1D01FE0009905F8011B69
:10D580000099090A05F8011B0099090C05F8021B0E
:10D590000099090E05F8011C0FE0039969B10F48C5
:10D5A0005746468900210E2002F0B6F9022804D120
:10D5B000761E02D339780029F4D0DDE9011211700A
:10D5C000029948700298291A059807B0201A41EA72
:10D5D0000040BDE8F08F000000000020380500206A
:10D5E0002DE9F84F0025DFF818B1024628468A4693
:10D5F000CE1C8BF8005091785378D21C53EA01244A
:10D6000073D012F8019B90465FEA89715DD55FEA9D
:10D61000C9713AD03B4847890021484602F07CF95D
:10D62000022802D0012860D12FE07F1E5DD39BF835
:10D6300000100029F0D058E024B95FEAC97001D089
:10D640004FF00E092F48D84647896946484602F0F0
:10D6500063F9022802D0012847D106E07F1E44D397
:10D6600098F800100029F0D03FE0009906F8011B5F
:10D670000099090A06F8011B0099090C06F8021B1B
:10D680000099090E06F8011C6D1C641ED4D22CE012
:10D69000404698F80370FFF76DF867F31F6000903D
:10D6A000184808F1040847896946484602F034F9E9
:10D6B000022802D0012818D106E07F1E15D39BF85E
:10D6C00000100029F0D010E06D1C641EE0D20D485F
:10D6D0005F46448900210E2002F01EF9022804D181
:10D6E000641E02D339780029F4D08AF800502A0A3F
:10D6F0008AF801208AF80200A6EB0A00BDE8F88F3C
:10D70000000000203805002070B50C46C578FFF7F2
:10D7100031F865F31F60104D48B110490023104ADD
:10D720000968B0EB910F05D3012050700FE0FF2086
:10D7300020700EE000EB5101491EB1FBF0F0537078
:10D74000022803D90321B0FBF1F000E00120506072
:10D750002370284670BD000001000400D4020020A0
:10D76000380500202DE9F04710F8015B8A4610F8D3
:10D77000014BC778FEF7FEFF67F31F60494F06466F
:10D78000E00707F1040807D0E8074FF4005101D083
:10D79000396001E0C8F80010A00707D5A9074FF4C9
:10D7A000804001D5386001E0C8F80000600709D565
:10D7B000A808C1074FF0800001D03B4901E03A4979
:10D7C000091D086020060CD54FEAD51908F048FC61
:10D7D0005FEAC9714FF0010001D0386001E0C8F87C
:10D7E0000000DFF8C0C0304FACF1040C083FACF1D2
:10D7F00004010023DEB32D48864200D906464FF0CF
:10D80000E02293612A48DFF8AC800068B0FBF8F0B2
:10D810007043506105201061E00705D0DCF800007E
:10D82000C0F34030A8421CD1A00705D50868C0F35A
:10D830000030B0EB550F14D1600705D53868C0F340
:10D84000C010B0EB950F0CD1A00602D5B3EB551F5D
:10D8500007D120060AD5086800F00100B0EBD51FFB
:10D8600004D01069C0F300400028D5D01361DCF863
:10D870000000C0F340320868C0F3003042EA4002C2
:10D880003868C0F3C01042EA80023868C0F3401024
:10D8900042EAC002086842EAC0108AF8000006485E
:10D8A000BDE8F087100C014010080140C0C62D00F3
:10D8B000D402002040420F00010006000A48002167
:10D8C0000A4A017041701268094BB2FBF3F2921ED2
:10D8D00042600172642242818181012201610275EC
:10D8E00041758175FFF7B2BC38050020D4020020D5
:10D8F00080969800F8B5164A0D4600271178012940
:10D9000003D0FF23022912D10BE00679401CFEF759
:10D9100031FF66F31F6000906946002001F0FCFFB4
:10D9200012E004460078D075917D884201D32B70B7
:10D930000BE0082001F064F92679601CFEF71AFF5D
:10D9400066F31F6001F08EFD2F700248F8BD0000E5
:10D95000380500200100050070B50446D0F8080124
:10D960001D460E4600282AD0402A00DD4022401ED7
:10D97000C4F80801D4F8100104EB8010FEF7A7FDED
:10D98000D4F8100104EB80113046FEF7D5FFD4F82F
:10D99000101104EB4101A1F80001D4F8100104EBCF
:10D9A0008010286094F81001401C00F00300C4F8B7
:10D9B0001001D4F80C01401CC4F80C01012070BD0A
:10D9C000D0F80C31E3B15B1EC0F80C31D0F8143143
:10D9D00000EB83130B60D0F8141100EB4101B1F898
:10D9E0000011116090F81411491C01F00301C0F8F6
:10D9F0001411D0F80811491CC0F808110120704713
:10DA0000002070470022C0F810210421C0F8142122
:10DA1000C0E942127047000001078A0E07490A4414
:10DA2000D2F8001C000602D548F6CF7001E04CF693
:10DA30008F700140C2F8001C704700000050004089
:10DA40000207930E0C4A30B51344D3F8002C00069D
:10DA500048F68F7402EA040048F2800582EA010267
:10DA600002D502F0300101E002F44051084328439E
:10DA7000C3F8000C30BD00000050004030B585B048
:10DA80000546002400F03CF901200021039000919C
:10DA9000CDE9011504A9684600F092F800B101240F
:10DAA00000F0E2F805B0204630BD00000649002035
:10DAB000C8610648016941F004010161016941F052
:10DAC0004001016170470000B01D002000200240AD
:10DAD000064A0021D16106490A6942F002020A6140
:10DAE0004861086940F0400008617047B01D00209F
:10DAF00000200240044B0022DA61044A136943F01B
:10DB00000103136101807047B01D00200020024016
:10DB10000E49C868C2060E4803D5C26942F0020227
:10DB2000C261CA68520703D5C26942F00102C261EC
:10DB3000CA69D20707D0C26942F00402C261C8694B
:10DB400020F00100C8611420C86070470020024026
:10DB5000B01D002070B5044600F0CEF90546114E08
:10DB600009E0601C07D024B100F0C6F9401BA042B8
:10DB700001D9032070BDF068C007F2D1F0688006BB
:10DB800001D52020F060F068C00605D4F069C00718
:10DB900002D1F068400703D5FFF7BAFF012070BD3E
:10DBA000002070BD0020024031B500F0A5F9044608
:10DBB00000F0A2F90099001B8842F9D338BD00009B
:10DBC0002DE9F047054626480F460126017E01292A
:10DBD0000FD00121814601762868DFF888804CF259
:10DBE0005034022808D0A2462046FFF7B3FFA8B160
:10DBF00031E00220BDE8F0872046FFF7ABFF08BB0D
:10DC00000120FFF753FF2046FFF7A4FFD8F81010BC
:10DC1000064621F00401C8F810101CE04FF0FF3058
:10DC20003860AC6811E02046FFF752FF5046FFF71E
:10DC300091FFD8F81010060021F00201C8F810106A
:10DC400001D03C6007E004F58064D5E9020100EBF7
:10DC50008120A042E7D8002189F818103046C9E792
:10DC6000B01D0020002002400348016941F08001FE
:10DC70000161002070470000002002402DE9F05FA4
:10DC800005461D4888460024017E16461F46012988
:10DC900009D00121814601764CF2503A5046FFF7F7
:10DCA00059FF18B123E00220BDE8F09F012D02D0FA
:10DCB000022D00D00425D346DFF840A015E0220154
:10DCC00030463946FEF74EFB81B208EB4400FFF7C1
:10DCD00011FF5846FFF73EFFDAF8102022F001024C
:10DCE000CAF8102018B9641CE4B2AC42E7D3002291
:10DCF00089F81820D8E70000B01D0020002002405D
:10DD000005480169090605D5044941600449416097
:10DD10000020704701207047002002402301674522
:10DD2000AB89EFCD2DE9F84FDFF8A091002309F181
:10DD3000040A0AF1040B1C464FF00F080BF1040E05
:10DD400001270A68A7403A40BA4272D1DFF880C181
:10DD50004D68A5EB0C0665452BD00DDC032D34D0AA
:10DD600005DC35B3012D19D0022D2FD11BE0112D6B
:10DD700016D0122D2AD119E0B6F5881F19D006DC6D
:10DD8000B6F5803F15D0B6F5801F1FD111E0B6F56E
:10DD9000001F0ED0B6F5041F18D10AE0CB6815E0BD
:10DDA000CB681B1D12E0CB6808330FE0CB680C3347
:10DDB0000CE08B682BB1012B4FF0080303D04761B7
:10DDC00004E0042302E0076100E00023FF2A01D8F9
:10DDD000064601E000F104064FEA840501D9A5F1E9
:10DDE0002005376808FA05FC27EA0C0703FA05F551
:10DDF00047EA050737604D68ED0060D5354DAE69DF
:10DE000046F00106AE61AD6924F0030605F0010598
:10DE10000095314D7719BE68A5072D0F08FA05FC4E
:10DE200026EA0C06DFF8B4C0604503D14FF0000CC1
:10DE300017E044E0DFF8A8C0604502D14FF0010CC4
:10DE40000FE0DFF8A0C0604502D14FF0020C08E0FF
:10DE5000DFF894C0604502D14FF0030C01E04FF0B1
:10DE6000040C0CFA05FC4CEA060CC7F808C04D6817
:10DE7000D9F80060ED034D4601D5164300E0964306
:10DE80002E604D68DAF80060AD03554601D51643A3
:10DE900000E096432E604D68DBF80060ED025D46C1
:10DEA00001D5164300E096432E604D68DEF8006011
:10DEB000AD02754601D5164300E096432E60641C02
:10DEC000102CFFF43DAFBDE8F88F000000040140C6
:10DED0000000111000100240000001400008014045
:10DEE000000C014000100140001401400AB1016122
:10DEF00070470904FBE70000EFF3108010F0010FFA
:10DF000072B608480068406A074B4FEA90021868EA
:10DF1000A2EB0002C2F30D021044186000D162B6F9
:10DF200070470000701D0020D0020020074810B587
:10DF3000016841F010010160032000F05DF80F203E
:10DF400000F006F800F056F8002010BD0020024056
:10DF500010B588B005A9684600F020F90398B0F51F
:10DF6000806F08D0B0F5A06F35D0B0F5C06F34D059
:10DF7000B0F5E06F33D001201A494FF08042002401
:10DF80000968B1FBF0F04FF47A61B0FBF1F116488B
:10DF9000491E02604FF6FF72C0E90324C0E9011474
:10DFA00044611248C16941F00101C161C06900F0DA
:10DFB000010006900C4800F042FC002809D10C48F2
:10DFC0000460094800F057FC002802D1064800F020
:10DFD0006FFC08B010BD0220CEE70420CCE708207B
:10DFE000CAE70000D4020020701D0020001002408B
:10DFF000D002002070470000064A00F007011068B8
:10E000004FF6FF03184040EA01200349084310601F
:10E01000704700000CED00E00000FA052DE9F04724
:10E02000DFF8688104460E46D8F8000000F00700CB
:10E03000B0420CD2D8F8001021F007013143C8F8E3
:10E040000010D8F8000000F00700B04273D120782B
:10E050004F4F800705D57868A16820F0F00008438D
:10E0600078602078C00755D06068012201280CD064
:10E07000022828D0022393FAA3F1B1FA81F141F0EA
:10E080002001490904D0396803E04FF40033F2E776
:10E09000796A93FAA3F3B3FA83F303F01F039A4068
:10E0A000114248D0796821F0030101437960FFF7FC
:10E0B00023FF0546606841F2883101280CD0022810
:10E0C000894615D022E04FF00073D4E7FFF714FF24
:10E0D000411B494501D916E089467868C0F38100A3
:10E0E0000128F3D116E0FFF707FF411B49450AD885
:10E0F0007868C0F381000228F5D10BE0FFF7FCFE41
:10E10000411B494502D90320BDE8F087786810F02B
:10E110000C0FF3D1D8F80010404601F00701B142CE
:10E120000BD9016821F0070131430160006800F05C
:10E130000700B04201D00120E6E72078400705D56E
:10E140007868E16820F4E060084378602078000790
:10E1500006D57868216920F4605040EAC1007860F3
:10E1600000F06CF87968F02292FAA2F201F0F00166
:10E17000B2FA82F2D140074A515CC84006490860B1
:10E180000F20FFF7E5FE0020BEE700000020024060
:10E190000010024004990108D40200200F220260FE
:10E1A0000C4A536803F003034360536803F0F00321
:10E1B0008360536803F4E063C36052684FF4E06324
:10E1C00003EAD20202610448006800F00700086018
:10E1D0007047000000100240002002400848094932
:10E1E000006849684FF4E06292FAA2F201F4E0613B
:10E1F000B2FA82F2D140044A515CC8407047000034
:10E20000D40200200010024014990108084809496E
:10E21000006849684FF4605292FAA2F201F460512A
:10E22000B2FA82F2D140044A515CC8407047000003
:10E23000D4020020001002401499010810B519A062
:10E2400085B00FC88DE80F001AA01B4B0068049022
:10E2500059681A4801F00C02042A1DD0082A1BD163
:10E260004FF4701494FAA4F401F47012B4FA84F424
:10E27000E240C9031DF8022010D559684FF400335D
:10E2800093FAA3F301F40031B3FA83F3D94004AB5A
:10E29000595CB0FBF1F0504305B010BD0848504345
:10E2A000FAE7000002030405060708090A0B0C0D33
:10E2B0000E0F1010010200000010024000127A0040
:10E2C00000093D002DE9F84F04460078FE4EC007D6
:10E2D0004FF001057FD070684FF40038C0F3810023
:10E2E000012807D07068C0F3810002281BD1706834
:10E2F000C00318D598FAA8F0B0FA80F040F02000DA
:10E30000400901D0306800E0706A98FAA8F1B1FACB
:10E3100081F101F01F0105FA01F108425BD060684C
:10E32000002879D057E06068B0F5803F0BD010B17D
:10E33000B0F5A02F11D0306820F480303060306804
:10E3400020F4802002E0306840F480303060606863
:10E3500018B3FFF7D1FD074609E0306840F480208C
:10E360003060F0E7FFF7C8FDC01B642870D898FA4A
:10E37000A8F0B0FA80F040F02000400901D03068E9
:10E3800000E0706A98FAA8F1B1FA81F101F01F017A
:10E3900005FA01F10842E5D01DE0FFF7ADFD0746A3
:10E3A00004E0FFF7A9FDC01B6428DFD898FAA8F0A5
:10E3B000B0FA80F040F02000400901D0306800E061
:10E3C000706A98FAA8F1B1FA81F101F01F0105FA1B
:10E3D00001F10842E5D12078DFF8F08280074FF0A4
:10E3E000000A4FF002075AD570684FF0F80B10F092
:10E3F0000C0F07D07068C0F3810002281CD1706830
:10E40000C00319D497FAA7F0B0FA80F040F02000CA
:10E41000400902D0306801E08AE0706A97FAA7F1FB
:10E42000B1FA81F101F01F0105FA01F108422BD088
:10E43000206901287CD127E0206988B395FAA5F0EE
:10E44000B0FA80F048F82050FFF756FD814606E00C
:10E450004DE1FFF751FDA0EB0900022886D897FA9D
:10E46000A7F0B0FA80F040F02000400901D03068F9
:10E4700000E0706A97FAA7F1B1FA81F101F01F018B
:10E4800005FA01F10842E4D030689BFAABF220F0C3
:10E49000F8016069B2FA82F290400143316025E0F0
:10E4A000FFE795FAA5F1B1FA81F148F821A0FFF74D
:10E4B00023FD814605E0FFF71FFDA0EB09000228C0
:10E4C000CCD897FAA7F0B0FA80F040F020004009CD
:10E4D00001D0306800E0706A97FAA7F1B1FA81F1D3
:10E4E00001F01F0105FA01F10842E4D1207800078C
:10E4F0006DD5A069B8B395FAA5F0B0FA80F008EB35
:10E500008000C0F88054FFF7F7FC814605E0FFF774
:10E51000F3FCA0EB09000228A0D897FAA7F0B0FA04
:10E5200080F040F06000B5EB501F02D130680CE085
:10E5300063E197FAA7F0B0FA80F040F06000B7EB23
:10E54000501F01D1306A00E0706A97FAA7F1B1FA62
:10E5500081F101F01F0105FA01F21042D7D001202C
:10E56000FFF722FB33E0FFE795FAA5F1B1FA81F15D
:10E5700008EB8101C1F880A4FFF7BEFC814605E0ED
:10E58000FFF7BAFCA0EB0900022899D897FAA7F088
:10E59000B0FA80F040F06000B5EB501F01D1306858
:10E5A0000BE097FAA7F0B0FA80F040F06000B7EB0C
:10E5B000501F01D1306A00E0706A97FAA7F1B1FAF2
:10E5C00081F101F01F0105FA01F21042D8D1207843
:10E5D000400763D5F06940F08050F061F069DFF8E2
:10E5E000F0B000F080500090DBF8001041F4807132
:10E5F000CBF80010FFF780FC814605E0FFF77CFCBC
:10E60000A0EB0900642872D8DBF80000C005F5D53E
:10E61000E06801280AD008B1052813D0306A20F03C
:10E6200001003062306A20F0040002E0306A40F0FD
:10E6300001003062E06841F2883B80B3FFF75CFC88
:10E6400081460AE0306A40F004003062EEE7FFF7EE
:10E6500053FCA0EB0901594549D897FAA7F0B0FA45
:10E6600080F040F04000B5EB501F01D130680BE066
:10E6700097FAA7F0B0FA80F040F04000B7EB501FD7
:10E6800001D1306A00E0706A97FAA7F1B1FA81F11E
:10E6900001F01F0205FA02F10842D8D033E0FFE78B
:10E6A000FFF72AFC814605E0FFF726FCA0EB0901F5
:10E6B00059451CD897FAA7F0B0FA80F040F0400016
:10E6C000B5EB501F08D105E00010024000004242A7
:10E6D0000070004030680CE097FAA7F0B0FA80F0C4
:10E6E00040F04000B7EB501F02D1306A01E08AE0F1
:10E6F000706A97FAA7F1B1FA81F101F01F0205FAE9
:10E7000002F10842D0D1E06998B37168C1F3810188
:10E71000022972D002284FF080714FF0007B5046E2
:10E720000AD091FAA1F1B1FA81F148F82100FFF77E
:10E73000E3FB04465F4669E08A4691FAA1F1B1FA2B
:10E7400081F1C14648F82100FFF7D6FBA8460746ED
:10E750005D4604E0FFF7D0FBC01B022853D895FAB2
:10E76000A5F0B0FA80F040F02000400902D03068F7
:10E7700001E060E0706A95FAA5F1B1FA81F101F06B
:10E780001F0208FA02F10842E4D1206AB0F5803F86
:10E7900005D17068A16820F4003008437060D4E9A6
:10E7A00008010843716821F47411084370609AFAF3
:10E7B000AAF0B0FA80F0474649F82080FFF79CFBAA
:10E7C000044604E0FFF798FB001B02281BD895FACB
:10E7D000A5F0B0FA80F040F02000400901D0306888
:10E7E00000E0706A95FAA5F1B1FA81F101F01F011C
:10E7F00007FA01F10842E5D01DE01EE0FFF77CFBBF
:10E80000001B022802D90320BDE8F88F97FAA7F071
:10E81000B0FA80F040F02000400901D0306800E0FC
:10E82000706A97FAA7F1B1FA81F101F01F0105FAB8
:10E8300001F10842E2D10020E6E70120E4E710B54B
:10E840000446022084F839002068016A41F211125E
:10E85000114207D1016A9210114203D1016821F0DF
:10E8600001010160204600F021F8002084F8390001
:10E8700084F8380010BD10B5040003D094F83900B6
:10E8800010B107E0012010BD002084F838002046B8
:10E8900000F00DF8022084F83900211D206801F0F5
:10E8A000E5FB012084F83900002010BD7047704757
:10E8B000022180F8391001680A6842F001020A60FA
:10E8C000012180F839100020704770B5044690F897
:10E8D00038000D4601280DD0012684F8386002204A
:10E8E00084F8390042B1042A18D0082A2AD00C2A08
:10E8F0004DD139E0022070BD206801F0F5FB2068A1
:10E90000816941F0080181612068816921F0040179
:10E910008161206881692A69114311E0206801F052
:10E920000FFC2068816941F4006181612068816980
:10E9300021F480618161206881692A6941EA0221AC
:10E94000816124E0206801F029FC2068C16941F060
:10E950000801C1612068C16921F00401C16120681A
:10E96000C1692A69114311E0206801F043FC206865
:10E97000C16941F40061C1612068C16921F480610D
:10E98000C1612068C1692A6941EA0221C16184F834
:10E990003960002084F8380070BD10B504460220AC
:10E9A00084F839002068016A41F21112114207D13E
:10E9B000016A9210114203D1016821F00101016046
:10E9C000204600F021F8002084F8390084F838004F
:10E9D00010BD10B5040003D094F8390010B107E061
:10E9E000012010BD002084F83800204600F00DF80A
:10E9F000022084F83900211D206801F037FB012036
:10EA000084F83900002010BD7047704710B50446E7
:10EA10000068012201F05CFB07492068884203D1AD
:10EA2000416C41F4004141642068016841F00101FA
:10EA30000160002010BD0000002C014070B50400F2
:10EA400018D0022084F839002068C16821F40051F0
:10EA5000C16020680025C5602068056120684561A7
:10EA6000204600F038F8E56384F8395084F83850CF
:10EA7000002070BD012070BD70B5040004D094F872
:10EA80003900002510B106E0012070BD84F838502F
:10EA9000204600F021F8022084F839002068C1687F
:10EAA00021F40051C160204601F0C6FB20680169D5
:10EAB00021F4904101612068416921F02A014161FE
:10EAC0002068C16841F40051C160E563012084F809
:10EAD0003900002070BD704770470000EFF30884D4
:10EAE0000EF00F000D2801D1EFF30984A08B04F183
:10EAF0002005800500D52D1D5FEACE6000D4483585
:10EB0000704604F00DFAEFF3098004F009FAEFF310
:10EB1000088004F005FAEFF3148004F001FA2846A7
:10EB200004F0FEF9606904F0FBF9A06904F0F8F95B
:10EB3000E06904F0F5F91248006804F0F1F91048B2
:10EB4000001F006804F0ECF90D48001D006804F097
:10EB5000E7F90B481030006804F0E2F90848083083
:10EB6000006804F0DDF906480C30006804F0D8F9BC
:10EB70004A2204A1002003F0DFFF01F067FAFEE75C
:10EB80002CED00E02E2E5C2E2E5C2E2E5C736F750D
:10EB90007263655C6461706C696E6B5C4861726421
:10EBA0004661756C745F48616E646C65722E6300BB
:10EBB000002070471CB507F065FF00281CD09E2080
:10EBC0008DF80000E7208DF801006946102001F063
:10EBD000B9F9012407F056FF00280DD000208DF868
:10EBE00000006946082001F0ADF901A9002007F0F6
:10EBF000DDFE012801D104B11CBD00201CBD0000B8
:10EC00000349497809B100F005B800F063B8000085
:10EC1000380500202DE9F0432B4C4FF48047276046
:10EC20006314251D2B6023602B6023602F602B60F5
:10EC300023602B602360254E80223260244991F8A6
:10EC400017C001EB4C09B9F8201019B12B602360F3
:10EC5000491EFBD11E49DFF87480183108F1040801
:10EC60001CF8011009E05FEAC07C01D0326001E0CD
:10EC7000C8F800202B6023604008491EF3D1B9F882
:10EC8000301079B1C00701D0326001E0C8F800202F
:10EC90002B602360326001E02B602360491EFBD1B2
:10ECA000276006E02760C00701D0326001E0C8F8A5
:10ECB00000202B6023602B6023602F602B6023607B
:10ECC0003260BDE8F0830000100C014010080140E4
:10ECD000380500202DE9F047584D4FF48048C5F81D
:10ECE000008005F1040C6F14CCF80070544B596887
:10ECF0000A46521EFDD12F600A46521EFDD1CCF8A5
:10ED000000700A46521EFDD12F600A46521EFDD1E8
:10ED1000CCF80080CCF800700A46521EFDD12F605E
:10ED20000A46521EFDD1CCF800700A46521EFDD193
:10ED30002F600A46521EFDD1424E80243460DA7D97
:10ED400003EB420A9146BAF8203053B1CCF8007078
:10ED50000A46521EFDD12F600A46521EFDD15B1E8F
:10ED6000F4D1374B183319F80330DFF8D89009F194
:10ED700004090FE0C20701D0346001E0C9F8004087
:10ED8000CCF800700A46521EFDD12F600A46521E72
:10ED9000FDD140085B1EEDD1BAF830203AB3C00770
:10EDA00001D0346001E0C9F80040CCF8007008469A
:10EDB000401EFDD12F600846401EFDD1346008E0A2
:10EDC000CCF800700846401EFDD12F600846401E5A
:10EDD000FDD1521EF4D1C5F80080CCF80070084671
:10EDE000401EFDD12F600846401EFDD110E0C5F841
:10EDF0000080C00701D0346001E0C9F80040CCF8C1
:10EE000000700846401EFDD12F600846401EFDD10F
:10EE1000CCF800700846401EFDD12F600846401E09
:10EE2000FDD1CCF80080CCF800700846401EFDD122
:10EE30002F60491EFDD13460BDE8F087100C014001
:10EE40003805002010080140F0B5314C4FF48046E1
:10EE500026606314251D2B602E4A51680846401E0B
:10EE6000FDD123600846401EFDD12E602B60084670
:10EE7000401EFDD123600846401EFDD12B60084690
:10EE8000401EFDD123600846401EFDD1D27D4AB10F
:10EE90002B600846401EFDD123600846401EFDD170
:10EEA000521EF5D10027DFF870C01F222B600846E4
:10EEB000401EFDD1DCF800002360C0F3401E084670
:10EEC000401EFDD147EACE704708521EEED12660A3
:10EED0002B600846401EFDD1DCF800002360C0F323
:10EEE00040120846401EFDD147EAC2702B600A4618
:10EEF000521EFDD123600A46521EFDD12E602B60AA
:10EF00000A46521EFDD12360491EFDD1F0BD00000E
:10EF1000100C014038050020080801402DE9F04F91
:10EF2000814610F03F0000D14020DFF888B0DFF8C4
:10EF300088E05FEA49644FF480434FF0800AABF108
:10EF400004084FF4005C01D5444600E05C462360B1
:10EF50002BE0002611F8015B08231EE0EC07544665
:10EF600001D0164F01E0154F3F1D3C60CBF800C0AB
:10EF7000DEF8044027467F1EFDD1104F083F3F6852
:10EF8000C8F800C0C7F34017641EFDD174086D08AF
:10EF9000401E44EAC7165B1E01D00028DED1DE40C9
:10EFA0005FEA096301D502F8016B0028D1D1BDE801
:10EFB000F08F0000140C01403805002010080140BB
:10EFC000034A52780AB100F005B800F0CDB800004D
:10EFD000380500202DE9F04F604E4FF480438B46FA
:10EFE00033605D10371D3D6035603B603D603560CE
:10EFF0003D6035605A49C97D19B13D603560491E93
:10F00000FBD1584C4108C907A4F1040C4FF0800211
:10F0100002D0CCF8002000E022603D60DFF844918F
:10F02000A9F10C09D9F800103560C1F3401149006D
:10F030004FEA90085FEAC87802D0CCF8002000E0E0
:10F0400022603D60D9F800803560C8F3401841EA7D
:10F0500008014FEAD0085FEAC87802D0CCF8002057
:10F0600000E022603D60D9F80080CE46C8F3401829
:10F07000356041EA8809B9F1010F01D0336059E0E8
:10F08000DFF8DC80810798F8160098F81780A0EB6D
:10F09000080A2BD500211F20F0463D60D8F800401B
:10F0A0003560640941EAC4714908401EF5D1BAF1DE
:10F0B000010014D03D60D8F80040C4F3401400E0D3
:10F0C0003D603560401EFBD133603D60356041EAF4
:10F0D000C470BBF1000F2FD0CBF800002CE03360E0
:10F0E0003D60D8F80000C0F34014EFE7DBF8000003
:10F0F0001F215FEAC07802D0CCF8002000E0226037
:10F100003D6035604008491EF3D1BAF101010AD0D3
:10F11000C00702D0CCF8002000E022603D603560DE
:10F12000491EFBD1AAE73360C00702D0CCF800200B
:10F1300000E022603D6035603D6035603B603D60D1
:10F140003560CCF800200648007A01E03D6035606B
:10F15000401EFBD24846BDE8F08F0000100C014075
:10F1600038050020140801402DE9FC4FDFF8E8C203
:10F170004FF480468E46CCF800600CF10408731002
:10F18000C8F80030B54C61680A46521EFDD1CCF873
:10F1900000300A46521EFDD1C8F80060C8F80030A1
:10F1A0000A46521EFDD1CCF800300A46521EFDD14F
:10F1B000C8F800300A46521EFDD1CCF800300A468D
:10F1C000521EFDD1E47D5CB1C8F800300A46521EE3
:10F1D000FDD1CCF800300A46521EFDD1641EF3D199
:10F1E0009F4F4208D207A7F104054FF0800401D0D9
:10F1F0002C6000E03C60C246C8F800300A46521E4F
:10F20000FDD1DFF85CB2ABF10C0BDBF80020CCF8E1
:10F210000030C2F340128846B8F10108FCD1520018
:10F220004FEA90085FEAC87801D02C6000E03C60AB
:10F23000CAF800308846B8F10108FCD1DBF800803C
:10F24000DFF814C2C8F340189946CCF800300B46DA
:10F250005B1EFDD1C30842EA0802DB0701D02C6027
:10F2600000E03C60CC46CAF800900B465B1EFDD126
:10F27000DBF80030E146C3F34018774BC3F800C019
:10F280008C46BCF1010CFCD142EA88020192012AB1
:10F290000AD01E604A46CAF800900846401EFDD1BA
:10F2A0001A60491EFDD1AEE06C4A5FEA807C907D19
:10F2B000D27DA0EB0200009055D500271F22CC463E
:10F2C000CAF800C00846401EFDD1DBF80000C3F8B4
:10F2D00000C0C0F340180846401EFDD147EAC87080
:10F2E0004708521EECD10098401E020025D0CAF8F3
:10F2F00000C00846401EFDD1DBF80000C3F800C086
:10F30000C0F340180846401EFDD1521E0AD0CAF86C
:10F3100000C00846401EFDD1C3F800C00846401E8C
:10F32000FDD1F2E71E60CAF800C00846401EFDD1BC
:10F33000C3F800C0491EFDD10DE01E60CAF800C030
:10F340000846401EFDD1DBF80000C3F800C0C0F342
:10F350004018491EFDD147EAC870BEF1000F52D0D7
:10F36000CEF800004FE0DEF800001F22D4465FEA2E
:10F37000C07801D02C6000E03C60CCF8009088465A
:10F38000B8F10108FCD1C3F800908846B8F1010833
:10F39000FCD14008521EEAD1009A521E24D0C00768
:10F3A00001D02C6000E03C604F46CCF8009008464D
:10F3B000401EFDD11F600846401EFDD1521E09D0DF
:10F3C000CCF800700846401EFDD11F600846401E64
:10F3D000FDD1F3E71E60CCF800700846401EFDD159
:10F3E0001F60491EFDD10EE01E60C00701D02C60D9
:10F3F00000E03C604A46CCF800900846401EFDD133
:10F400001A60491EFDD14F46D446CAF800901349F0
:10F410004A681046401EFDD11F601046401EFDD1B7
:10F42000CCF80060CCF800701046401EFDD11F6083
:10F430001046401EFDD12C600C7A08E0CCF800701C
:10F440001046401EFDD11F601146491EFDD1641EAD
:10F45000F4D20198BDE8FC8F100C01403805002063
:10F46000140801402DE9F04F5B4E4FF480443460A6
:10F470006510371D3D60594A51680B465B1EFDD132
:10F4800035600B465B1EFDD1A1463C603D600B46DE
:10F490005B1EFDD135600B465B1EFDD13D600B460A
:10F4A0005B1EFDD135600B465B1EFDD1D47DB4F1F2
:10F4B000000A09D03D600B465B1EFDD135600B464E
:10F4C0005B1EFDD1641EF5D1DFF814C18024CCF899
:10F4D00000403D600B465B1EFDD135600B465B1E58
:10F4E000FDD13D600B465B1EFDD135600B465B1EBA
:10F4F000FDD13D600B465B1EFDD135600B465B1EAA
:10F50000FDD1DFF8DC801F23A8F104089346C20771
:10F5100002D0C8F8004001E0CCF800403D600A4647
:10F52000521EFDD135600A46521EFDD140085B1EB9
:10F53000EDD19BF81630A3EB0A02521E25D0C0076E
:10F5400002D0C8F8004001E0CCF800402B463D60F6
:10F550000846401EFDD133600846401EFDD1521EB4
:10F5600008D03B600846401EFDD133600846401E6F
:10F57000FDD1F4E7C6F800903B600846401EFDD17F
:10F5800033600846401EFDD110E0C6F80090C00769
:10F5900002D0C8F8004001E0CCF800403D600846C9
:10F5A000401EFDD135600846401EFDD13D60084635
:10F5B000401EFDD135600846401EFDD1C7F80090C1
:10F5C0003D600846401EFDD13560491EFDD1C8F89A
:10F5D0000040BDE8F08F0000100C0140380500200D
:10F5E0001408014000F01F020121914040098000F1
:10F5F00000F1E020C0F800117047000070B5104C19
:10F600000D21204605F093FC0D4D60141035286047
:10F610000E21204605F08BFC4FF48040286001222B
:10F620000C21204605F041FC206820F00F002060EE
:10F63000206840F0070020600120286070BD0000B5
:10F64000000C01402DE9F04117460D46804600268A
:10F65000FEF756FBA80706D000206E220DA103F08E
:10F660006BFA00240DE00120F7E757F8242008EB9F
:10F67000840100230220FEF701FB08B1012603E00C
:10F68000641CB4EB950FF0D3FEF7EEFA3046BDE8FC
:10F69000F08100002E2E5C2E2E5C2E2E5C736F757A
:10F6A0007263655C6869635F68616C5C73746D3319
:10F6B000325C73746D33326631303378625C666C01
:10F6C0006173682E630000002DE9F047904E4FF4FF
:10F6D00080478A460024376006F104084FF4005C36
:10F6E000C8F800C08B4A51680B465B1EFDD1C6F8B6
:10F6F00000C00B465B1EFDD1C30701D0376001E09F
:10F70000C8F80070C8F800C00B465B1EFDD1C6F8F3
:10F7100000C00B465B1EFDD125184408E30701D04D
:10F72000376001E0C8F80070C8F800C00B465B1EE7
:10F73000FDD1C6F800C00B465B1EFDD125448408F0
:10F74000E30701D0376001E0C8F80070C8F800C0D6
:10F750000B465B1EFDD1C6F800C00B465B1EFDD1FB
:10F760002B19C008C40701D0376001E0C8F8007049
:10F77000C8F800C00C46641EFDD1C6F800C00C4697
:10F78000641EFDD11844C00701D0376001E0C8F8FD
:10F790000070C8F800C00846401EFDD1C6F800C081
:10F7A0000846401EFDD1C8F80070C8F800C00846E1
:10F7B000401EFDD1C6F800C00846401EFDD137608E
:10F7C000C8F800C00846401EFDD1C6F800C0084673
:10F7D000401EFDD1DFF83891A9F11009D9F80430A5
:10F7E00023F07063C9F80430D9F80430C9F8043044
:10F7F0003760127D131E0BD0C8F800C00846401EAB
:10F80000FDD1C6F800C00846401EFDD15B1EF3D1F5
:10F81000C8F800C00846401EFDD13D4C083C206899
:10F82000C6F800C0C0F300300B465B1EFDD1C8F81F
:10F8300000C00B465B1EFDD12368C6F800C0C3F3B1
:10F8400000330D466D1EFDD140EA4300C8F800C0EC
:10F850000B465B1EFDD12368C6F800C0C3F300331E
:10F860000C46641EFDD140EA83005AB1C8F800C0BE
:10F870000B465B1EFDD1C6F800C00B465B1EFDD1DA
:10F88000521EF3D1D9F8043023F07063C9F8043064
:10F89000D9F8043043F04073C9F80430C8F8007058
:10F8A000002552462024D30701D0376001E0C8F874
:10F8B0000070C8F800C00B465B1EFDD1C6F800C042
:10F8C0000B465B1EFDD115445208641EEBD1EA07BE
:10F8D00001D0376001E0C8F80070C8F800C00A46DF
:10F8E000521EFDD1C6F800C0491EFDD1D9F8042032
:10F8F00022F07062C9F80420D9F8042042F0407266
:10F90000C9F80420C8F800703760BDE8F08700002F
:10F91000100C014038050020034A52780AB100F06B
:10F9200005B800F021B90000380500202DE9F04F9E
:10F930008B4B8A464FF4804701461F605E141D1DA5
:10F940002E601E60C00701D01F6000E02F602E6097
:10F950001E604808C40701D01F6000E02F602E60C1
:10F960001E600A188808C40701D01F6000E02F60DD
:10F970002E601E600244C808C40701D01F6000E06A
:10F980002F602E601E601044C00701D01F6000E091
:10F990002F602E601E602F602E601E601F602E6024
:10F9A0001E60DFF8BC91A9F11009D9F8042022F0FB
:10F9B0007062C9F80420D9F80420C9F804201F6037
:10F9C000DFF8A0B19BF81400021E03D02E601E6069
:10F9D000401EFBD12E60DFF88881A8F10808D8F816
:10F9E00000001E60C0F300302E60D8F800401E609A
:10F9F000C4F3003440EA44002E60D8F800401E6092
:10FA0000C4F3003440EA8400012817D002287CD0D7
:10FA100004287AD0213203D02E601E60521EFBD102
:10FA2000D9F8042022F07062C9F80420D9F8042023
:10FA300042F04072C9F804202F608EE0890731D56A
:10FA40000024224620212E60D8F800C01E60CCF38E
:10FA5000003C6408624444EACC74491EF3D12E6031
:10FA6000D8F800101E6082EA1132D10700D00820B9
:10FA7000BAF1000F01D0CAF800409BF8141019B178
:10FA80002E601E60491EFBD1D9F8042022F070625E
:10FA9000C9F80420D9F8042042F04072C9F80420C3
:10FAA0002F6029E01AB12E601E60521EFAE7D9F8C5
:10FAB000042022F07062C9F80420D9F8042042F032
:10FAC0004072C9F804202F600024DAF800102022C8
:10FAD0005FEAC17C01D01F6000E02F602E601E60D5
:10FAE0000C444908521EF3D1E10702D01F6001E027
:10FAF0000BE02F602E601E609BF8081069B32F602A
:10FB00002E601E60491EFBD127E09BF815404CB1CA
:10FB10005FEA817C06D54FF0210C2E601E60BCF19F
:10FB2000010CFAD11AB12E601E60521EFAE7D9F804
:10FB300004C02CF0706CC9F804C0D9F804C04CF0B3
:10FB4000407CC9F804C02F603CB1890705D42F6000
:10FB500021212E601E60491EFBD11F60BDE8F08F81
:10FB6000100C0140380500202DE9F04FF34A0446FF
:10FB70004FF480408B4600261060171D4FF4005C48
:10FB8000C7F800C0EE4B59680D466D1EFDD1C2F896
:10FB900000C00D466D1EFDD1E50701D0106000E0EC
:10FBA0003860C7F800C00D466D1EFDD1C2F800C018
:10FBB0000D466D1EFDD106EB04086608F50701D061
:10FBC000106000E03860C7F800C00D466D1EFDD122
:10FBD000C2F800C00D466D1EFDD14644A5085FEA7F
:10FBE000C57801D0106000E03860C7F800C08846D2
:10FBF000B8F10108FCD1C2F800C08846B8F101088C
:10FC0000FCD12E44E5085FEAC57801D0106000E021
:10FC10003860C7F800C08846B8F10108FCD1C2F8C6
:10FC200000C08846B8F10108FCD13544ED0701D089
:10FC3000106000E03860C7F800C00D466D1EFDD1B1
:10FC4000C2F800C00D466D1EFDD13860C7F800C077
:10FC50000D466D1EFDD1C2F800C00D466D1EFDD1D2
:10FC60001060C7F800C00D466D1EFDD1C2F800C07F
:10FC70000D466D1EFDD1DFF8C4A2AAF1100ADAF814
:10FC8000046026F07066CAF80460DAF80460CAF806
:10FC90000460814610601D7D2E1E0BD0C7F800C089
:10FCA0000846401EFDD1C2F800C00846401EFDD1E6
:10FCB0006D1EF3D1C7F800C00846401EFDD19F4D10
:10FCC000083D2868C2F800C0C0F300308846B8F18B
:10FCD0000108FCD1C7F800C00B465B1EFDD12B68A4
:10FCE000C2F800C0C3F300338846B8F10108FCD164
:10FCF00040EA4300C7F800C00B465B1EFDD12B68ED
:10FD0000AE46C3F30033C2F800C00D466D1EFDD1F0
:10FD100040EA8300012823D002286FD004286DD048
:10FD200021360BD0C7F800C00B465B1EFDD1C2F8D0
:10FD300000C00B465B1EFDD1761EF3D1DAF804300D
:10FD400023F07063CAF80430DAF8043043F04073EB
:10FD5000CAF804304946C7F800901160BDE8F08F3A
:10FD6000A3074CD54FF0000845462024C7F800C033
:10FD70000B465B1EFDD1DEF80030C2F800C0C3F3B5
:10FD800000360B465B1EFDD14FEA5803354443EA6B
:10FD9000C678641EEAD16446C7F800C0684E0B46B8
:10FDA0005B1EFDD1DEF800301460C3F30033491E42
:10FDB000FDD15D40E90700D00820BBF1000F01D064
:10FDC000CBF80080337D53B175683C602946491EED
:10FDD000FDD114602946491EFDD15B1EF5D1DAF82C
:10FDE000043023F07063CAF80430DAF8043043F0CA
:10FDF0004073CAF80430C7F8009045E058E05EB19F
:10FE0000C7F800C00B465B1EFDD1C2F800C00B4610
:10FE10005B1EFDD1761EF2E7DAF8044024F0706430
:10FE2000CAF80440DAF8044044F04074CAF80440C8
:10FE3000C846C7F800900026DBF800302025DC0714
:10FE400002D0C2F8008001E0C7F80080C7F800C007
:10FE50000C46641EFDD1C2F800C00C46641EFDD1E4
:10FE60001E445B086D1EEAD1F30702D0C2F8008081
:10FE700001E0C7F800806446C7F800C00B465B1E6F
:10FE8000FDD11460491EFDD12D490C7A74B1C7F81B
:10FE900000904D68C7F800C02946491EFDD1C2F840
:10FEA00000C02B465B1EFDD1641EF3D1494654E7CA
:10FEB000234B93F81580B8F1000F0ED0A3070CD593
:10FEC0002125C7F800C00B465B1EFDD1C2F800C05B
:10FED0000B465B1EFDD16D1EF3D15EB1C7F800C0AD
:10FEE0000B465B1EFDD1C2F800C00B465B1EFDD168
:10FEF000761EF2E7DAF8045025F07065CAF804506F
:10FF0000DAF8045045F04075CAF804504D46C7F879
:10FF10000090B8F1000F0FD0A3070DD43D6021244D
:10FF2000C7F800C00B465B1EFDD1C2F800C00B46EF
:10FF30005B1EFDD1641EF3D115600FE7100C01406C
:10FF400038050020F0B5144C0023DFF848C04FF40A
:10FF500080471A46ACF1040E7E10656816E012B9AF
:10FF600011F8013B0822DC0702D0CEF8007001E056
:10FF7000CCF80070CCF800602C46641EFDD1CEF8A1
:10FF800000602C46641EFDD15B08521E401EE6D266
:10FF9000F0BD0000140C014038050020144A10B5D3
:10FFA0005068144B10F00C01134803D0042901D001
:10FFB000082901D0036012E05168536801F4701100
:10FFC0004FF0020413F4803F04EB914102D05368D8
:10FFD0009B0301D5094B00E0064B59430160516872
:10FFE000074AC1F30311515C0268CA40026010BDA8
:10FFF0000010024000127A00D402002000093D00E7
:020000040801F1
:10000000049901080D48016841F00101016041684F
:100010000B4A1140416001680A4A114001600168C1
:1000200021F480210160416821F4FE0141604FF418
:100030001F0181600449C00308607047001002403E
:100040000000FFF8FFFFF6FE08ED00E0BFF34F8F62
:1000500004480168044A01F4E06111430160BFF300
:100060004F8FFEE70CED00E00400FA05F0B50268E2
:10007000144C154D154E4FF08047A04205D0B842A4
:1000800003D0A84201D0B04203D122F070034A68E5
:100090001A43A04205D0B84203D0A84201D0B042D2
:1000A00003D122F44073CA681A4302608A68C262AC
:1000B0000A688262A04201D109690163012141619C
:1000C000F0BD0000002C014000040040000800408A
:1000D00010B50123046A8B409C430462036A8A4082
:1000E0001343036210BD000030B5026A22F0010222
:1000F0000262036A4268846924F073050C682C4329
:1001000023F002058B682B430C4DA84206D123F047
:100110000805CB6843EA050323F0040307D14D69C2
:1001200022F4407245EA02058A6942EA0502426009
:10013000846149684163036230BD0000002C0140C6
:1001400030B5026A22F010020262026A43688469D2
:100150000D6824F4E64444EA05248D6822F0200268
:1001600042EA05120C4DA84206D1CD6822F0800269
:1001700042EA051222F0400207D14D6923F44063A0
:1001800043EA85038D6943EA8503436084614968D6
:100190008163026230BD0000002C014030B5026A6C
:1001A00022F480720262036A4268C46923F4007315
:1001B00024F073050C682C438D6843EA05230C4D2D
:1001C000A84206D1CD6823F4006343EA052323F453
:1001D000806307D14D6922F4405242EA05128D69CD
:1001E00042EA05124260C4614968C163036230BDDE
:1001F000002C014030B5026A22F480520262036A88
:100200004268C4690D6824F4E64444EA05248D6814
:1002100023F4005343EA0533064DA84204D14D6947
:1002200022F4804242EA85124260C4614968016456
:10023000036230BD002C01402DE9F0410446006806
:100240000169E26821F4405111430161A16820690C
:100250000143606901432068C26841F20C639A431C
:100260000A43C26020684169A26921F440711143C8
:1002700041614C4920686426322788423CD1FDF711
:10028000C5FF00EBC00101EB001061688900B0FB05
:10029000F1F5FDF7BBFF00EBC00101EB0010616859
:1002A000B8468900B0FBF1F0B0FBF6F06FF0180132
:1002B000484305EB800107EB0110B0FBF6F000F0BE
:1002C000F005FDF7A3FF00EBC00101EB0010616832
:1002D0008900B0FBF1F0B0FBF6F005EB0015FDF77F
:1002E00095FF00EBC00101EB001061688900B0FBD5
:1002F000F1F7FDF78BFF3BE0FDF770FF00EBC0016E
:1003000001EB001061688900B0FBF1F5FDF766FFB5
:1003100000EBC00101EB00106168B8468900B0FB3A
:10032000F1F0B0FBF6F06FF01801484305EB8001E7
:1003300007EB0110B0FBF6F000F0F005FDF74EFF03
:1003400000EBC00101EB001061688900B0FBF1F027
:10035000B0FBF6F005EB0015FDF740FF00EBC00128
:1003600001EB001061688900B0FBF1F7FDF736FF83
:1003700000EBC00101EB001061688900B0FBF1F0F7
:10038000B0FBF6F06FF01801484307EB800108EB73
:100390000110B0FBF6F0216800F00F0028448860DF
:1003A000BDE8F0810038014070B515480468154D6E
:1003B000A00612D52868C6B2134802F04BFC1328D9
:1003C00004D93146104802F0B5FC06E005D14FF0E3
:1003D00013020EA10C4802F002FD200607D51048BA
:1003E00002F049FC20B10E4802F066FC286070BDA6
:1003F0000448083001680B4A1140016070BD0000DC
:100400000044004004440040E01F00203C444150B0
:100410004C696E6B3A4F766572666C6F773E0A0078
:10042000D01D00207FFFFFEF002070470348D0E978
:100430000410081A02490988081A70476804002045
:100440003A99010870B50B4D0C460346D5E90C01ED
:1004500088420BD9401A844200DD044622461846E1
:10046000FCF735F8686B2044686300E00024204600
:1004700070BD000068040020002070472DE9F041A5
:10048000194F0C460646D7E90401401A1749098856
:10049000081A002802DC0020BDE8F081844200DD5B
:1004A0000446D7E90602002590420FD3104B0219EB
:1004B00019448A420AD30D1A98462A463146FCF757
:1004C00006F82E44641B4046C7F8188034B1224613
:1004D0003146FBF7FCFFB8692044B86139696019FF
:1004E00001443961D8E70000680400203A99010806
:1004F000BA23002010B5054C6068002805D1012002
:10050000606000F005F80020606010BD6804002005
:100510002DE9F047244CA06800283ED0D4E904011E
:10052000421AE0684FF0000652EA000137D0214637
:100530001E4FC969DFF87880DFF878901E4D7AB1D8
:10054000A069814205D338888B182844834200D3A0
:10055000421A99F8003038F81300904200DA024647
:100560001648E660007840F0800002F019FAE16970
:100570000144E1616269024462613B882B448B4221
:1005800000D1E561216991420BD199F8002038F83A
:100590001210814205D10120E060BDE8F087A6601D
:1005A000FBE7E660F9E70000680400203A990108DB
:1005B0003E990108AB040020BA23002038990108B5
:1005C00010B50B4C206A18B1A06A401CA06210BD87
:1005D00001202062606200F00DF80020606220625D
:1005E000D4E90C018842F2D0401AFFF745FF10BD54
:1005F0006804002010B5134C1348164B216B0A1ADF
:1006000012481B780088821A114830F81300824281
:100610000EDB1148007801F0EBFD216B08442063EC
:10062000A06A00280CD0616A002909D1401E06E0AA
:100630000120E062606A002802D0A06A401CA0622B
:1006400010BD000068040020FA2300203C99010836
:100650003E990108AB0400203999010810B5044601
:10066000400702D52046FFF7ABFF200704D5204600
:10067000BDE81040FFF73EBF10BD70470020704737
:100680000020704710B50C4800F042F8002812D046
:100690000948FCF76FF80949020A08704A70020C11
:1006A0008A70000EC870044802790A7142794A7152
:1006B00080798871012010BDA0040020B82200209C
:1006C00010B510480024104944608460C46004617F
:1006D000C0E90541C0E9071444620C498462C0E9DD
:1006E0000B414163048000F138014FF41650FCF7D0
:1006F0004CF804480821383004714471817100F0CD
:1007000019F810BD68040020BA230020FA23002045
:1007100070B5074D044621462868FCF736F828795D
:10072000A07168796071A8792071012070BD000006
:100730003005002010B507F017F903F0CBFF0120BA
:1007400010BD10B507F070F9012010BD01207047F1
:1007500010B50446FCF70EF807490860A079087147
:1007600060794871207988710020C871BDE8104017
:10077000084607F06BB900003005002010B511489D
:100780000024114944608460C4600461C0E90541EB
:10079000C0E9071444620D498462C0E90B4141631A
:1007A0000480FFF7CEFF07494FF416503831FBF7AE
:1007B000ECFF044808213830047144718171FFF75F
:1007C000C7FF10BD68040020BA230020FA230020D0
:1007D00010B5FFF7D3FF10BD70B519480078002899
:1007E0002DD0184C00250126206A50B9D4E90C01FF
:1007F000884206D11449884203D02163E56225620C
:100800006163A06A70B1206A60B9E06A50B926627B
:10081000FFF7F0FE2562D4E90C01884202D0401AAD
:10082000FFF72AFED4E90101084308D1D4E9040105
:10083000884204D06660A660FFF76AFE656070BDFE
:10084000A904002068040020FA23002070B50546A2
:100850000D480068C1698847A0B90C4C35B104F057
:1008600093F82060002006F077FE0BE004F08CF88F
:100870002168401AB0F5967F01D3012000E00020E6
:1008800003F030FF012070BD789301082C05002093
:100890000020704700207047024910B50880FFF71C
:1008A00055FF10BD6804002070B50A4C2046E5785D
:1008B000FBF760FF65F31F600749FBF766FF06481B
:1008C0002179017161794171A1798171FFF740FF4F
:1008D00070BD0000B8220020A004002000B503462F
:1008E000FDF79AF843F2300118465DF804EBFDF786
:1008F000A7B80000F0B58278224D4179047902F062
:100900000F0344EA012116066F682C8802F00F02DB
:1009100007EB021204D5491C21F00101146011E01B
:1009200094603E2909D91F3121F01F014FF0FF3497
:1009300004EB411444F4004403E0491C21F001019C
:100940004C02D4602A880A442A80C07810F0030040
:1009500006D0012807D0022808D003280AD107E0D2
:100960004FF4007106E04FF4806103E0002101E0E4
:100970004FF4C061044A194302EB8300C0F8001C25
:10098000F0BD0000E403002000500040002802D128
:100990000149D02008807047E403002000F0E4BA49
:1009A0000949CA1350B101200860002008600B1DDE
:1009B00018604FF4E0500860044803E0032008602A
:1009C0000248001F02607047405C0040140C014068
:1009D00010B50B4C0B48A2880078824200D9024621
:1009E0001AB907490020143908718020216801F0E4
:1009F000D7FF216801442160A188081AA08010BD9A
:100A0000BC0400201F99010810B5064C0020A288E4
:100A1000216801F0EDFB216801442160A188081ADA
:100A2000A08010BDBC04002070470021FDF708B86D
:100A300043F22001FDF704B82DE9F0476E4F04465C
:100A4000A7F1080580074FF00009A5F1140622D58B
:100A500001F070FF3878C009FFF7E6FFF888A8803A
:100A60003878C0F3411121B101295AD002296FD140
:100A700065E07978DFF884810C2969D2DFE801F03C
:100A8000060C6813681827682B31384601F0F0FC13
:100A90001FE0FFF79DFF67E0002005E001F05AFF2F
:100AA000D8F8000039E0012001F022FDC0B3F5E7DD
:100AB00010F01F0F4CD1B878012140F08000307049
:100AC00000F07F0001F028FF01F044FF4CE001F04E
:100AD000BDFB28B3DDE710F01F0F39D146481B38A6
:100AE00012E001F055FDD8B101F034FF444813E0A5
:100AF00000F01F0001282BD1707888B13879B178C7
:100B0000884225D23F4908442860C2E701F006FE2A
:100B100030B101F01FFF3C48006828B3804723E054
:100B200016E010F01F0013D0012811D100F00AF9CF
:100B3000D0B900F063F9B8B900F0B2F807E010F0EE
:100B40001F0F05D100F08EF970B900F0D5F958B932
:100B50003878000603D4F88808B1002000E080202F
:100B600001F0E4FEA5F80490600721D5387800066E
:100B70001CD4A888E0B1FFF747FFA888C0B938782F
:100B8000C0F3411161B101290AD110F01F0007D053
:100B9000012805D100F066F850B900F037F838B9EF
:100BA000802001F0C3FEA5F8049001E001F0D8FE1A
:100BB000200712D53878000606D5A8883179084371
:100BC0000BD0FFF705FF08E03078010605D500F0EF
:100BD0007F003070002101F09FFE600602D50020EA
:100BE000FFF77CFE200604D5BDE8F0478020FFF724
:100BF00075BEBDE8F0870000C4040020A09901087C
:100C000098990108D70300209C99010810B5124952
:100C1000124A08791278904203D0114A1278904211
:100C200017D1487820B1022805D0202811D10DE035
:100C3000FFF72EFE05E0C878897841EA0020FFF72B
:100C400029FE30B101F086FE012010BDFFF72CFE19
:100C5000F7E7002010BD0000C4040020E0020020DF
:100C6000E102002010B50B490B4A08791278904236
:100C700003D00A4A1278904209D14878092806D14F
:100C800000F07CFB18B101F065FE012010BD0020D2
:100C900010BD0000C4040020E3020020E502002093
:100CA00070B52349234A08791278904203D0224A2A
:100CB000127890423AD11E484978204CC278837805
:100CC0001F4D43EA022004291FD007DC79B1012916
:100CD0000FD002290BD0032928D111E0202906D0FA
:100CE000212919D022291AD023291FD11AE02C60DA
:100CF00010E0FFF7C5FC05E02C60FFF769FE09E096
:100D0000FFF7BCFC0028F7D110E0FFF78DFB0BE0EC
:100D100001F020FE012070BDFFF7B4FCF2E7FFF701
:100D2000BBFD01E0FFF792FD0028F1D1002070BD6E
:100D3000C4040020E0020020E1020020B8220020CC
:100D4000BC0400202DE9F041244E25493079097872
:100D5000884203D02349097888423CD17078224CDC
:100D6000224D234F0C2836D2DFE800F03506212C27
:100D7000353535353516243100F01CFA58B3F07886
:100D8000012802D0032803D003E01A48206000E0C5
:100D90002560FFF71DFE12E0F078022802D003283C
:100DA00003D00CE01448206009E0256007E000F063
:100DB000E9F909E000F0BCFA0BE001F0CBFD0120FD
:100DC000BDE8F08100F0ECF928B12760E1E700F020
:100DD000CBFA0028F1D10020F2E70000C404002083
:100DE000E3020020E5020020BC040020E203002012
:100DF000B8220020F92200203A23002010B515481F
:100E0000154A01791278914222D101464278C87878
:100E10008B788C7943EA0020CB79FE2A44EA0321BF
:100E200009D0FF2A14D198B991B901F025F978B108
:100E300001F090FD0AE058B9012909D100F0F2FD56
:100E400030B1074905480860FFF7C2FD012010BD19
:100E5000002010BDC4040020E4020020B8220020BD
:100E6000BC04002070B51E4D1E4900266878097824
:100E7000884232D16879297941EA002002282CD1B0
:100E8000194CAA782AB3002003E0217801B10C4460
:100E9000401C411C8A42F8D82078C8B103F016FAE9
:100EA0000146E01CFBF707FB104A01261460E979B4
:100EB000AB79207843EA012181420BD90C4990801B
:100EC0000978491E084206D10A490120087002E04B
:100ED000002602E09180FFF77BFD304670BD0000E8
:100EE000C40400204299010898030020BC0400209B
:100EF0001F990108AC04002010B5154A15490024BB
:100F000050780978884220D15079117941EA00203F
:100F100007281AD1114B104801241860417A007A31
:100F200040EA0121D079927942EA0020884209D929
:100F30000B4899800078401E014204D109490120E4
:100F4000087000E09880FFF743FD204610BD0000C8
:100F5000C404002043990108EA020020BC040020D8
:100F60001F990108AC040020074800214170C160AE
:100F700001614161418081808161C161C1800181E4
:100F80000162418170470000CC0400202DE9F04748
:100F9000494EB08871884A4FDFF820817D1C0024BB
:100FA000884216D3B069A0B97461B480012339783E
:100FB0007A1C184607F0EEF87080708848B17761A7
:100FC00098F80000012801D8756102E07088401C83
:100FD000708070884FF00109B0BBF06808B1F46010
:100FE00032E0316981B398F8000001280DD83C70D7
:100FF000B48002237A1C0021012007F0CBF8708016
:10100000708800B1756134611EE03D78C846202DBE
:1010100000D3002508FA05F0084218D0681CC1B2B8
:101020003970B48002237A1C012007F0B3F8708075
:10103000708818B177617088401C7080306908FA38
:1010400005F820EA08003061708830B902E06D1CB4
:10105000EDB2DCE7B069002829D07088B188DFF8EC
:101060006880401A85B2174F98F8000037F81000D2
:10107000A84200D205461548007828B140F080000B
:101080002A46716901F08CFC70691149284470612D
:10109000B088284480B2B0800988884209D298F884
:1010A000000037F81000A84203D1C6F81890BDE838
:1010B000F087B461FBE70000CC0400202A99010806
:1010C000F822002026990108AB040020209901088D
:1010D0002C990108F8B51C4C1C4D1D4F2089002689
:1010E00018B9E5613888E0802681E0882189421AB4
:1010F0001848E169007801F07BF80004E169000C10
:101100000144E161218901448BB2238109D03988EE
:101110008B4206D2114A1049127831F812108142DE
:1011200010D90F48017801200129009003D800212F
:10113000064A022003E029786A1C02205B1E07F0A1
:10114000BDF82681F8BD0000CC0400203923002022
:101150002E9901082199010826990108AB04002065
:101160002B99010810B50446000702D52046FFF769
:101170000DFF600704D52046BDE81040FFF7AABF69
:1011800010BD0000034804498078085C03490870DA
:1011900001207047C4040020E0030020B822002092
:1011A00010B506F0F5FF02490870012010BD0000DF
:1011B000B82200200B4910B5C8780022012804D0BD
:1011C000022804D0032806D103E0074A02E00020E9
:1011D00010BD064A521C8978002306F0DBFF01206F
:1011E00010BD0000C4040020F8220020E10300200C
:1011F0002DE9FC5F4548007800287DD0444D04234C
:1012000000262978B146481C28704248007800EB37
:10121000400293405B1E0192994202DB85F80090E8
:1012200001263D4A00241188FF2901D2491C118062
:101230003A4931F81000384900900988884200D1B5
:10124000012439490020DFF8D8804FF0010BDFF886
:10125000D4A091F800E045E0002276B11AF8001021
:101260005346FF2901D2491C195418F8001021B126
:101270001AF800308B4200D30122019918F800704F
:1012800002238B4007FA03F1009B994202DA0FB167
:10129000012300E000233CB133B1D5F810C00BFAB4
:1012A00000F141EA0C0129612049095C8F420ED00E
:1012B0001AF800708F4208D3D5F810C00BFA00F767
:1012C00047EA0C072F6185F8009008F800103AB142
:1012D00023B92A690BFA00F1114329610AF8009039
:1012E000401CC0B27045B7D314B10B49A1F80090AF
:1012F0002869002808D000E006E06888002803D1AB
:10130000BDE8FC5FFFF742BEBDE8FC9FA9040020DA
:10131000CC040020AB040020DC030020229901084B
:10132000DF030020DE0300202A990108E0030020EB
:10133000094809498078C97810B1084A815409E000
:10134000084A0020064B127802E01954401CC0B233
:101350009042FAD301207047C4040020DF0300202C
:10136000E00300202A990108034810B5807806F0B0
:10137000A3FF012010BD0000C404002038B50D49B2
:101380000022C878012804D0022804D0032806D1FE
:1013900003E0002038BD084A00E0084A521C002340
:1013A0000093CB798C79897844EA032306F086FF91
:1013B000012038BDC404002039230020E1030020AF
:1013C0002DE9F041EFF3108010F0010F72B6DFF855
:1013D000E8804FF00002D8F81040C8F8102000D183
:1013E00062B6600507D501F033FA07F01BF8334801
:1013F000006800B18047200505D501F0BBFA3048F0
:10140000006800B18047E00405D501F0BFFA2D481F
:10141000006800B18047A00503D52B48006800B1E3
:1014200080472A4D600403D5296809B10220884706
:10143000274FA0042BD5296849B3012026E0EFF3FC
:10144000108010F0010F72B622484FF00B0250F8D6
:10145000210001F10101B1FBF2F602FB1611C8F8FF
:10146000081000D162B686B2050C280604D557F8DC
:10147000261009B108208847280408D557F82610F7
:1014800029B1280501D5022000E004208847200466
:101490000FD5EFF3108000F0010272B6D8E9021008
:1014A000814201D1012000E0002002B962B600288B
:1014B000C5D0BDE8F0810000E40300204499010894
:1014C000489901084C99010850990108549901085C
:1014D000589901083C240020064810B5C16941F420
:1014E0000001C1611420FEF77DF803494FF400406C
:1014F000086010BD00100240100C014070B500F0F3
:101500001FF900282AD016480224164E0470447091
:1015100003203463307014480546FBF72BF902288A
:1015200008D9114920461F39FBF72FF929462046D3
:10153000FBF72BF90D4822460949007840F080005E
:1015400001F02EFA2846FBF715F9316B401A2946AF
:10155000FBF71BF9044901200839087370BD00002E
:101560007A230020F0040020E72A002030990108A7
:10157000114910B50878022808D0032810D0042893
:1015800012D0052801D10020087010BD0B48C07B87
:10159000282801D0A828F8D1BDE8104000F086BA6C
:1015A000BDE8104000F0A8BD0548007840F080007C
:1015B00000F0BCFDF4E70000F0040020C02A002089
:1015C00030990108204A10B5117869B301290ED06D
:1015D0001E48052900781BD007292BD000F0A6FD56
:1015E0001B4902200873BDE8104000F085BD184873
:1015F0001F38C07B2A2803D02F2805D0AA2822D143
:10160000BDE8104000F030BBBDE8104000F0BCBAAF
:10161000012181400F480068014201D0012000E013
:1016200000204FF4886200E009E0BDE810400AA104
:1016300001F082BA00201070106B1F2803D1BDE8A2
:10164000104000F0E9B810BDF00400203199010805
:10165000DF2A0020B40400202E2E5C2E2E5C2E2EBD
:101660005C736F757263655C7573625C6D73635CEC
:10167000757362645F6D73632E63000010B5134C65
:101680006068E06008B1012010BD1148FBF772F8F6
:10169000A0B10F480838007B000604D50D4800783B
:1016A00040F0800008E00A481F30FBF763F8216B28
:1016B000884203D00848007800F038FD0449012032
:1016C0001731087300F018FD002010BDF004002051
:1016D000C82A00203099010831990108134810B533
:1016E000007900F08F01080605D501F00F004FF4D6
:1016F0008032824001E001228A400D48007840F0AB
:1017000080048C4210D10B48006810420CD00A486B
:10171000FBF730F80949884206D12046BDE8104061
:101720000D22054901F03CB910BD0000C4040020A1
:1017300030990108B4040020DF2A00205553425399
:1017400070B50B48FBF716F8094C0225173440B169
:10175000A4F11F00007B000608D40648007800F0C2
:10176000E5FC257300F0C8FC002070BD012070BDB1
:10177000C82A00203199010870B51148FAF7FAFF1C
:10178000104C216B884202D82063032000E0042023
:1017900020700D480D49226B007840F0800001F068
:1017A000FFF807481F300546FAF7E4FF216B401A9F
:1017B0002946FAF7EAFF024900201731087370BD85
:1017C000C82A0020F0040020309901087A23002064
:1017D000064810B5028807480549007800F008FD62
:1017E00005490863BDE81040FFF7ECBE36990108D3
:1017F0007A23002031990108F004002010B5044636
:10180000400702D50020FFF7E3FF200703D5BDE81E
:101810001040FFF7ADBE10BD2DE9F05F7A4E326B80
:101820001F2A01D2134600E01F230020774D78497C
:1018300002E00C5C2C54401C9842FAD3DFF8D881AB
:101840000127DFF8D0A198F800001F2A40F0800B94
:1018500069D16E48FAF78EFF7049884263D1281D1E
:10186000FAF788FF694C1F34211DFAF78EFFA4F1A7
:101870001700FAF77FFF04F10801FAF786FF687B8B
:1018800018B9A87B08B1102801D9277389E0E87B33
:101890004FF002092A283ED022DC1A2850D00FDC53
:1018A0000428F2D006DCE8B30328EED1BDE8F05FEF
:1018B00000F0A0BB1228E8D1BDE8F05F00F0BAB894
:1018C000232845D007DC1B2836D01E28DDD1BDE8F3
:1018D000F05F00F0DDB825283ED02828D5D147E0BC
:1018E0009E2841D00FDC5528CFD004DC2F2853D0C0
:1018F0003528CAD103E05A2826D09128C5D1BDE8A1
:10190000F05F00F043BCA1282AD0A3285CD0A8280F
:101910002ED0AA28B9D100F0A9FA002806D0287B39
:10192000000601E004E053E049D43770BDE8F09FC1
:10193000BDE8F05F00F032BCBDE8F05F00F00CBC29
:10194000BDE8F05F00F062BABDE8F05F00F02ABACF
:10195000BDE8F05F00F010BBBDE8F05F00F0E4BA56
:10196000BDE8F05FFFF7CABDBDE8F05F00F098BBCF
:1019700000F07CFA0028D9D0287B000605D586F82F
:101980000090BDE8F05F00F091B89AF8000000F018
:10199000CDFB84F80C9004E0287C800705D400205F
:1019A0002073BDE8F05F00F0A7BB00F05FFA0028ED
:1019B000BCD0287B000602D437703762B6E798F8AF
:1019C000000040F08000E2E7584600F0AFFB5CE723
:1019D0004446584600F0AAFB2078114C00F00F0155
:1019E0004FF48030884021685546084320609AF8BB
:1019F000000000F09BFB2878874020680743062002
:101A00002760307092E70000F0040020C02A002018
:101A10007A23002031990108309901085553424337
:101A2000B80400200249002008700120704700001F
:101A3000B822002010B5FFF783FE002820D0114BFC
:101A4000002080211870597002219970D9702024CB
:101A50001C7158719871D8710B48016808200A7878
:101A600012B11A54491C00E01C54401CC0B2242876
:101A7000F5D3064924200863BDE81040FFF77CBE7B
:101A800010BD00007A23002094030020F004002001
:101A90000548C07CC107044800F11F0000D00121A7
:101AA000017300F029BB0000C02A00202DE9F0419D
:101AB000304D314FDFF8C480A969686A002688423A
:101AC0000AD33878002440F0800000F02FFB88F81B
:101AD0000C6000F011FB08E02A492948097830F829
:101AE0001140E86A844200D30446FFF7C7FD00B9FD
:101AF0000024A86A68B374B1A96AE869224601445F
:101B0000387840F0800000F04BFFA86A2044A862BB
:101B1000E86A001BE862D5E90410AA6A41439142D1
:101B200003D1AE62696A0844686214480830074607
:101B3000FAF720FE001B3946FAF727FE002C06D0E4
:101B4000E86A002803D10320287088F80C60BDE8FB
:101B5000F081002CDFD0E96A28690144491EB1FBFD
:101B6000F0F26869824200D90246E969686A06F0C3
:101B700011FCC1E7F004002030990108DF2A0020A1
:101B800032990108AB0400202DE9F041324EDFF814
:101B9000CC800025B169706A884208D3304835632B
:101BA000007800F0C3FA88F80C5000F0A5FAFFF7AF
:101BB00065FD20B1306B10B3B06A10B10FE0356332
:101BC0001DE0F16A30690144491EB1FBF0F2706911
:101BD000824200D90246F169706A06F0DBFB002000
:101BE000204A336BB16A08E0F7690C183C5D175C5A
:101BF000BC4201D0356202E0401C9842F4D3346B01
:101C0000B06A0119B162F06A071BF762D6E90420D5
:101C100042438A4203D1B562716A084470620F4838
:101C200008300546FAF7A6FD001B2946FAF7ADFD78
:101C3000002C0ED017B1307805280AD1306A30B1A7
:101C4000002088F80C00BDE8F04100F055BA0120F2
:101C5000F7E7BDE8F0810000F0040020DF2A002053
:101C6000319901087A2300202DE9F041DFF8008145
:101C7000404F0026D8F81810D8F82400884208D31E
:101C80003D48C8F83060007800F050FA3E7300F02C
:101C900033FAFFF7F3FC08B9C8F83060D8F8301011
:101CA000D8F828000844D8F81010884206D9BDE8B2
:101CB000F041FF2231A1002000F03EBF0020384952
:101CC00007E0D8F82830D8F81C400A5C0344401CD0
:101CD000E254D8F830209042F3D3D8F8280011000D
:101CE0000844C8F82800D8F82C20A2EB0102C8F854
:101CF0002C2022D0454692B988B129690844401E5B
:101D0000B0FBF1F46869844200D904462246E969CF
:101D1000686A06F059FBAE62686A20440CE0D5E9B7
:101D200004125143814208D1E969686A06F04CFB0C
:101D3000AE626969686A084468620E480830054600
:101D4000FAF718FDD8F830402946001BFAF71DFDB8
:101D5000002C0BD0D8F82C0018B198F800000528FA
:101D600004D13E73BDE8F04100F0C6B9BDE8F08192
:101D7000F0040020DF2A0020319901082E2E5C2E6D
:101D80002E5C2E2E5C736F757263655C7573625C7E
:101D90006D73635C757362645F6D73632E630000C3
:101DA0007A23002070B5FFF7CBFC002826D0FFF780
:101DB00065FC002822D01248002106220170114B38
:101DC000427081701A7A0824D201C2700171417187
:101DD0008171C1710C481C630546FAF7CBFC0828D9
:101DE00008D9094920461F39FAF7CFFC2946204671
:101DF000FAF7CBFCBDE87040FFF7BEBC70BD000039
:101E00007A230020F0040020E72A002070B5FFF7B5
:101E100097FC002822D0FFF731FC00281ED0104884
:101E20000321002201700F49427004240B7ADB0168
:101E30008370C2700C480C630546FAF79BFC0428BB
:101E400008D9094920461F39FAF79FFC2946204640
:101E5000FAF79BFCBDE87040FFF78EBC70BD000038
:101E60007A230020F0040020E72A00202DE9F04129
:101E70002948FAF77FFC284D00BA113D20F0FF04F5
:101E8000287D264E04430020C6E90940E87B2F2820
:101E90000AD004DC28280BD02A281CD104E0A8286A
:101EA00010D0AA2817D109E0FFF7E8FB00282FD0AF
:101EB000E87DA97D41EA002044BA0CE0FFF7DEFB93
:101EC000002825D01448001DFAF754FC00BA20F071
:101ED000FF04287E0443306944430F48F462093804
:101EE000FAF748FC0C4F01260E3768B1A04211D01A
:101EF000287B000604D50A48007840F0800001E005
:101F00000848007800F012F93E7300F0F5F8002060
:101F1000BDE8F0810120FBE7D12A0020F004002079
:101F2000309901083199010810B5FFF709FC002824
:101F30001CD0FFF7A3FB002818D00D4A0D4891696B
:101F4000491E0B0E03700B0C43700B0A8370C1709B
:101F500011690B0E03710B0C43710B0A8371C17174
:101F600008201063BDE81040FFF706BC10BD00005C
:101F7000F00400207A23002070B5FFF7E1FB002871
:101F800030D0FFF77BFB00282CD017480021174AE0
:101F90000170417081700821C17091690C240B0E91
:101FA00003710B0C43710B0A8371C1710221017221
:101FB00011690B0C43720B0A8372C1720C481463D3
:101FC0000546FAF7D7FB0C2808D9094920461F39DE
:101FD000FAF7DBFB29462046FAF7D7FBBDE870404D
:101FE000FFF7CABB70BD00007A230020F004002078
:101FF000E72A002010B5FFF7A3FB002835D01B48C7
:1020000070211B4B017000214170DC685A6832EA74
:10201000040406D006248470282404734173DA6013
:1020200008E0DAB1134A127BE2B105228270202265
:1020300002734173C1700171417181710A22C271D1
:10204000017241728172C1728173C17301744174F2
:1020500012201863BDE81040FFF78EBB0222827089
:102060003A22E5E781700173E3E710BD7A2300208F
:10207000F0040020DF2A0020054910B50020086088
:102080000449FAF782FB044907200870012010BDBB
:10209000B8040020DF2A0020F0040020FFF7ECBF86
:1020A00070B5FFF74DFB00281DD00F4820220021FE
:1020B000027041700D4CC1770320226320700C48E0
:1020C0000949007840F0800000F06AFC09480546A4
:1020D000FAF750FB216B401A2946FAF756FB0549DF
:1020E00001200839087370BD7A230020F004002015
:1020F00030990108E72A002010B508490848FAF786
:1021000044FB08480D220549007840F0800000F0AB
:1021100047FC05490520087010BD0000DF2A00209B
:102120005553425330990108F004002010B504467D
:1021300000F0FCFB200605D504F00F014FF48030C1
:10214000884001E00120A04002490A68104308606D
:1021500010BD0000B40400200A4810B5817C00F1D5
:102160001F0429B101202073BDE81040FFF7C4BF50
:10217000C07C054900F00100486006F023F900200A
:10218000F1E70000C02A0020F004002002490020EE
:102190000873FFF7B1BF0000DF2A002010B5104818
:1021A000FAF7E8FA0E4C173478B1A4F11F00007B5F
:1021B000000604D50B48007840F0800001E00A4892
:1021C0000078FFF7B3FF012004E0FFF757FA00287B
:1021D00005D000202073BDE81040FFF78DBF10BD73
:1021E000C82A002030990108319901087047000081
:1021F00070B5134B064600F00F005B68114C03EB03
:1022000000108368808904EB4304C0F309059542FC
:1022100000D9154600236A1C07E034F8040B01F8C6
:10222000010B000A01F8010B5B1CB3EB520FF4D356
:102230004FF440513046FBF703FC284670BD0000C8
:10224000E403002000600040FFF748BA2DE9FC419C
:10225000574BA3F11C051878A3F1080410F01F00D8
:1022600002D001287BD18AE05249D878524E0A78B0
:102270004F49524F1C390628C97810D006DC012876
:1022800009D0022814D0032869D14FE007282DD0A7
:102290000F2864D164E04A48206012206DE0002AD3
:1022A0005DD019B1474820600A2066E04648FAE749
:1022B0000AB9012979D0022021B100977870002055
:1022C0009B780CE000967070F9E700990A782AB1C3
:1022D000CA788E7846EA022211440091401C83425B
:1022E000F3D100980178D1B3206042E0BAB307205F
:1022F00021B10096707000209B780CE000977870F8
:10230000F9E700990A782AB1CA788E7846EA02225B
:1023100011440091401C8342F3D100980178F1B13F
:102320002060C278817841EA022026E027480090A8
:102330009878032801D0002008E002F029F80BE08B
:1023400000990A780AB111440091401C99788142A1
:10235000F6D10098017811B1206000780DE024E0FA
:102360001B48007800281ED01A4800902060017891
:10237000D9B1C178827842EA0120019005E001A933
:10238000684600F02BF800280DD0A1880198814202
:1023900008D9114980B2A0800978491E084201D1AC
:1023A000012028710120BDE8FC810020FBE700002E
:1023B000C40400201D990108F0210020E202002041
:1023C000C8990108DB990108DA990108169A0108F1
:1023D0001E990108DC9901081F99010870B5194A76
:1023E000194C1B4ED378194A2578212B1478154A9D
:1023F000127902D0222B22D116E0AA4201D0A242A9
:102400001DD1144A1378144A12780BB9012A16D038
:1024100042B1124A02601046114A128810443060DC
:10242000092009E00F4AF5E7AA4201D0A24206D1ED
:102430000D4830600D4800880860012070BD002004
:1024400070BD0000C4040020E3020020E50200206B
:10245000BC0400201D990108AB040020E20200200A
:10246000E8020020F0210020A4990108C699010883
:1024700070B51D481C4C0078A4F1080410F01F0032
:102480000AD0194AA4F11405184B69781279012869
:1024900006D0022826D109E01348163820601FE034
:1024A00001B3A87882421DD2002015E002F08F000F
:1024B000020605D500F00F064FF48032B24001E06D
:1024C0000122824009B900070CD1A868104209D046
:1024D000E868104000D001201870000A587023608E
:1024E000012070BD002070BDC4040020B82200206F
:1024F00070B5264B024619461878498810F01F001F
:10250000A3F11C0604D0012829D0022827D111E00C
:10251000012924D132B1012000F040FAF08840F0C6
:10252000020005E0002000F039FAF08820F00200F7
:10253000F08029E0187900F08F04200605D504F01A
:102540000F004FF48035854001E00125A5407078EB
:1025500028B1200703D0B068284200D009B100207C
:1025600070BD2AB1204600F0E1F9F06828430AE086
:102570003069284208D12046FEF7B0F92046FFF71F
:1025800063FEF068A843F060012070BDC404002021
:102590002DE9F05F5B480026017811F01F0F70D124
:1025A000584F80781C3FB1464FF0010A4FF4803BF2
:1025B00000287CD0544801783846C07809B90128F1
:1025C0005FD008B1514C6EE0514C6CE0607802284D
:1025D00005D0042848D0052848D0072861D14948AB
:1025E0006179807881423AD1787020794A49B8700F
:1025F0000020484A098802E002F80090401C884206
:10260000FAD30125B8460AFA05F0D8F808100842AE
:1026100002D02846FEF709FAD8F808100BFA05F0A0
:10262000084203D045F08000FEF7FFF96D1C102D25
:10263000E9D34FF00110C8E902090120C8F8109051
:10264000FEF7A4F9E0794006B8F8060002D540F09C
:10265000010001E020F00100A8F8060021E0E07888
:10266000A17841EA00201DE0E6781AE0CEB9A07812
:1026700000F08F05280606D505F00F010BFA01F0D2
:1026800003E03AE013E00AFA05F0B9680143204696
:10269000B960FEF72FF92846FEF7CAF9284600F080
:1026A0002BF920780444207800288FD120E04D4673
:1026B00087F8019001245E46B9680AFA04F00842DE
:1026C00002D02046FEF7B1F9B96806FA04F00842D4
:1026D00003D044F08000FEF7A8F9641C102CEBD363
:1026E0004FF00110C7E9020500203D61FEF74EF9E9
:1026F000044879788078884202D00020BDE8F09FB5
:102700000120FBE7C40400201D990108E20200201B
:10271000F0210020D7030020E60200202DE9F84F29
:10272000464800273E460078BA4600F01F00B946EA
:1027300001287DD141491C394878002877D00020F4
:1027400000903F4802780846C0780AB9012872D044
:102750008B4608B13B4C66E03B4C64E06078022855
:1027600005D004280DD005281DD0072859D161793E
:102770009BF80100814254D0E078A17841EA002022
:1027800050E02E48A778E67801794FF00009B94269
:1027900047D18078B04244D1012000902B4810F8F6
:1027A00007A0C6553DE025490879B84239D1A0783F
:1027B00000F08F085FEA086005D508F00F004FF4BD
:1027C0008035854002E0012505FA08F58878B04299
:1027D00015D1DBF8081020462943CBF80810DBF8A8
:1027E0000C10A943CBF80C10FEF784F84046FEF716
:1027F0001FF9404600F080F849EA050911E0564506
:102800000FD119EA050F0CD1DBF808104046A94397
:10281000CBF80810DBF80C10A943CBF80C10FEF72E
:1028200004F9207804442078002897D1009800E02B
:1028300001E0BDE8F88F0020F9E70000C4040020A3
:102840001D990108E2020020F0210020D70300209A
:102850004FF0E0214FF480100022C1F880011E48A3
:1028600002601E48006818B14FF40050410001E0BA
:102870000020014608431A490968002901D04FF495
:10288000007140EA010002D04FF4807101E04FF086
:10289000000140EA0100134940F41C40086013485D
:1028A00011494FF05003026048684FF090020360F6
:1028B00082604FF0D0020A8048F2FF71C1600C497B
:1028C0004FF4485008600B494FF0800008604FF00B
:1028D0001400FCF787BE0000445C004054990108D6
:1028E00050990108405C0040E4030020505C004027
:1028F000005C00404C5C0040FBF78EB810B5FDF763
:1029000067FFBDE81040FFF7C9BB10B5FEF770FCCC
:10291000BDE81040FDF760BF002903D1024940F037
:1029200080000860704700004C5C004041F21001DC
:10293000FBF786B8082202490020FFF759BC0000C7
:10294000C404002002484FF40071C06802F044B88B
:102950004C00002000221146802000F021B8000029
:102960000248034902780020FFF742BC1F99010882
:10297000B82200200448016841F0080101600168A4
:1029800041F0040101607047405C0040024801686A
:1029900021F0080101607047405C00407047000072
:1029A000F0B5174F154606467A6800F00F0002EBA7
:1029B0000012144B126803EB420400236A1C08E067
:1029C00091F801C011F802EB5B1C4EEA0C2C44F8A4
:1029D00004CBB3EB520FF3D3796801EB00114D60D8
:1029E000094901EB8000D0F8000CC0F30110012868
:1029F00003D030213046FBF723F82846F0BD000015
:102A0000E403002000600040005000402DE9F04742
:102A1000244A1068244F20F01F013B691943396193
:102A200000F4FE41C9431160DFF88090000448F2D1
:102A3000800632D59046D8F8000001042DD510F05C
:102A40000F0009EB8005D5F8004C07D1210405D50E
:102A5000210503D479688989890515D064F31F405D
:102A600003F0D4FC200406D544EA060040F68F713A
:102A70000840C5F8000C2006DDD5344348F60F7039
:102A80000440C5F8004CD6E72106EDD5C4F30E018D
:102A900061F31F4003F0BAFCE6E7BDE8F047FFF73B
:102AA00051BF0000445C0040E4030020005000409F
:102AB0000020704710B5002A06DA22F00042D21D2D
:102AC00022F00703102203E0D21C22F003030C22A1
:102AD00013B19C188C4201D9012010BD024401445D
:102AE0008360C0E90021C91AD018884202D810605A
:102AF0000246F9E70020106010BD000010B5044642
:102B000003F048FA002805D04FF6FF71DFF808C03F
:102B1000206800DF10BD00004D5A010810B50446C2
:102B200003F038FA002803D0DFF808C0206800DF7F
:102B300010BD00009D5901082DE9F04116460F46D1
:102B400000281AD1EFF3108000F0010572B60023BF
:102B50001A461946184600F007FA040003D1314618
:102B6000384600F057FA05B962B6002C05D1EFF3EC
:102B70000380C00601D105F057FFBDE8F081704722
:102B800010B528220D490E48F9F771FD06F00EF830
:102B90000C4806F005F805F02DFE0B490B4A0C4BCE
:102BA00008604FF40071B0FBF1F011600949012297
:102BB0001A60086009490848086010BDB893010808
:102BC000081200208D350108240500200005002092
:102BD0000405002008050020081000200C05002036
:102BE00000B591B0FDF722FC402801D9402000E05B
:102BF00060B181B2684604F00FFF010006D068465C
:102C0000FDF73CFC10B1012001F04CFD04F0B8FFD1
:102C10000146402801D9402100E059B16846FDF73E
:102C200011FC38B181B2684604F098FF10B1012060
:102C300001F038FD01F04EFD11B000BD04484178AF
:102C40008078814201D00120704700207047000049
:102C5000FC00002030B50546EFF3108000F00104C1
:102C600072B6284600F007F8A968081A401E002C22
:102C700000D162B630BDEFF3108101F0010372B6EE
:102C8000D0E900128A4201D3501A02E08068104451
:102C9000401A002B00D162B67047EFF3108313F097
:102CA000010F72B6C0E902214FF0000101604160DE
:102CB00000D162B67047000070B50446EFF3108093
:102CC00000F0010572B6D4E90001884201D001206C
:102CD00000E0002043220EA1FFF72EFFE1682068EC
:102CE0000E5C401C2060A16888420CD302D14FF0DA
:102CF000010001E04FF000004FF0480204A1FFF78F
:102D00001BFF0020206005B962B6304670BD000090
:102D10002E2E5C2E2E5C2E2E5C736F757263655C9E
:102D20006461706C696E6B5C636972635F62756627
:102D30002E63000070B50446EFF3108000F001052B
:102D400072B66268E06881546068401C6060A16887
:102D500088420CD302D14FF0010001E04FF0000097
:102D60004FF0310209A1FFF7E7FE00206060D4E9CF
:102D70000001884201D0012000E00020362203A19A
:102D8000FFF7DAFE002D00D162B670BD2E2E5C2E4C
:102D90002E5C2E2E5C736F757263655C6461706C63
:102DA000696E6B5C636972635F6275662E630000B7
:102DB0002DE9F04114460E460746FFF75CFF8442BA
:102DC00000D220460546002404E03846FFF774FF91
:102DD0003055641CAC42F8D32846BDE8F0812DE99B
:102DE000F04114460E460746FFF734FF844200D2F6
:102DF00020460546002404E0315D3846FFF79AFF7F
:102E0000641CAC42F8D32846BDE8F08110B50849EF
:102E10004FF400742246A1F11000FFF73EFF224656
:102E20000449BDE81040A1F11000FFF736BF0000D3
:102E3000E01D0020F01F002000F098BC00F096BCC0
:102E400002488079002800D001207047A42A002081
:102E50000248C079002800D001207047A42A002031
:102E60000248007A002800D001207047A42A0020E0
:102E70002DE9F0418D212748F9F733FC8D252648AF
:102E8000F9F778FC254F244C224EB84213D16079D3
:102E9000217941EA00258D2D01D22A4601E04FF02B
:102EA0008D0201D84FF08D051B491A48F9F70FFB29
:102EB000002086F847008D211748F9F712FC1649C3
:102EC0003846F9F762FC2571280A607141223546BF
:102ED000F11DE01DF9F7FBFA95F8490015F8481FB8
:102EE00041EA002004F8480F000A6070A878A0703A
:102EF000E878E0708200074907484C314C30F9F718
:102F0000E6FA95F8440084F84400BDE8F04100F08A
:102F1000BBB80000142A0020004F0020646C766BC0
:102F200010B5094C94F84B10102901D3002010BDA6
:102F300004EB81014C31F9F728FC14F84B0F401CCD
:102F4000C0B2207010BD0000004F002010B5054C2D
:102F50004121E01DF9F7C5FB002104F8481F61700D
:102F6000E17010BD004F00202DE9F0471A4F814657
:102F70001D4616468846F81DF9F733FA441CB9F188
:102F8000000002D04146F9F7ACFB002006B13080CA
:102F900005B12870F87900281CD0444502D8F91DE5
:102FA000224604E0A4EB0800C1194246C91DB9F14C
:102FB000000F06D097F8490097F8483043EA002000
:102FC000308016B14846F9F782FA15B197F84A00F1
:102FD00028700120BDE8F087004F0020014890F8DC
:102FE0008C007047004F0020054991F84B202AB112
:102FF00001F14C02026091F84B00704700207047CD
:10300000004F002002488079002800D0012070473E
:10301000004F00202DE9F04188460746F9F7E1F915
:10302000124D441C41263146E81DF9F75AFB412C4C
:1030300002D83946224602E0413CE11932462C468C
:10304000E81DF9F744FA84F848804FEA182084F81C
:10305000490000F017F908B1012003E000F014F96D
:1030600000B1022084F84A00BDE8F081004F002042
:10307000014981F88C007047004F00200149887198
:1030800070470000004F002070B500221146104626
:10309000FBF78EFD092221492148F9F718FA214C46
:1030A00022781046627840EA0220A278E17840EA6D
:1030B00002401D4D40EA0160A8420FD1607921799C
:1030C00041EA0020092804D26079217941EA0022EE
:1030D00000E0092213491248F9F7F9F91049284686
:1030E000F9F753FB0E490920888020780146607863
:1030F00041EA0021A07841EA0041E07841EA00611C
:10310000A94205D16079217941EA0020092804D239
:10311000BDE87040024801F03DBF70BD689B0108EA
:10312000A42A002000FC0108646C766B02498871B7
:10313000084601F02FBF0000A42A00200249C871F0
:10314000084601F027BF0000A42A002002490872A7
:10315000084601F01FBF0000A42A00202DE9F0411D
:103160000F4606464FF0FF340025DFF83C8012E0A2
:10317000705D082102F0EEF984EA006408204146FF
:10318000002C02DA81EA440400E06400401E10F0E2
:10319000FF00F5D16D1CBD42EADB2021204602F084
:1031A000D9F9C043BDE8F081B71DC1042DE9F04154
:1031B0000E4617462021C04302F0CCF904460025F4
:1031C000DFF83C8012E0705D082102F0C3F984EA68
:1031D000006408204146002C02DA81EA440400E041
:1031E0006400401E10F0FF00F5D16D1CBD42EADB0B
:1031F0002021204602F0AEF9C043BDE8F081000076
:10320000B71DC10470B514460D460646B2F5806F71
:1032100007D24FF4EF720AA10020FFF78DFC0220C5
:1032200070BD00F0EFFC08B1102070BD2A462146A9
:10323000304600F06FFE0028F7D01F2070BD000060
:103240002E2E5C2E2E5C2E2E5C736F757263655C69
:103250006461706C696E6B5C647261672D6E2D6465
:10326000726F705C6961705F666C6173685F696ED4
:1032700074662E6300000000C10600F00F0000D449
:1032800009307047002070470120704710B50023B7
:103290001A4600F0A3FA002800D0012010BD10B596
:1032A00005F0B4F9012800D0002010BD2DE9F0414F
:1032B000154E144D4FF000643078012806D04FF4BD
:1032C0009C7212A10020FFF737FC09E0B0780227BA
:1032D00048B14FF49F720DA10020FFF72DFC37700D
:1032E0000220BDE8F081204600F02CF810B13770C4
:1032F0002120F6E704F58064AC42F4D30120B070DD
:103300000020EEE700BC0008D80000202E2E5C2E26
:103310002E5C2E2E5C736F757263655C6461706CDD
:10332000696E6B5C647261672D6E2D64726F705C88
:103330006961705F666C6173685F696E74662E6345
:103340000000000070B5214E04463078012806D0F8
:103350004FF480721EA10020FFF7EEFB18E04FF43F
:103360008060B4FBF0F100FB1141022511B14FF474
:10337000847208E0F17869B1D6E902121144A142E1
:1033800008D040F20F1212A10020FFF7D5FB3570D4
:10339000022070BD1C4A1D49944201D38C4211D3B6
:1033A0000121F170C6E90240204601F009F9252803
:1033B00003D00028EDD0357070BD204600F022FC0F
:1033C0000028F9D03570202070BD0000D800002002
:1033D0002E2E5C2E2E5C2E2E5C736F757263655CD8
:1033E0006461706C696E6B5C647261672D6E2D64D4
:1033F000726F705C6961705F666C6173685F696E43
:1034000074662E630000000000C0000800FC010884
:103410004FF480607047000010B5272804D2064999
:1034200051F82000002805D1ED2204A10020FFF76B
:1034300083FB0AA010BD0000B89201082E2E5C2E5E
:103440002E5C2E2E5C736F757263655C6461706CAC
:10345000696E6B5C6572726F722E63000000000013
:1034600001460120272901D20148405C7047000035
:10347000010000202DE9F04789460446804600E01F
:10348000641C2078402802D00028F9D163E06078DD
:10349000622847D012DC522853D008DC422841D0A1
:1034A000442848D0482840D04D2817D133E054282C
:1034B0003ED0552832D0562810D13FE0722840D057
:1034C00006DC642837D068282FD06D2806D122E08A
:1034D00074282DD0752821D076282FD020A52046FD
:1034E000F8F77FFF07462846F8F77BFF0646A01946
:1034F000C11908EB0902891E91422BD2BA1EA11CE8
:10350000F9F750F8324629462046F8F7E0FF2078D0
:103510000028B6D11FE000F02FFF01E000F034FFDB
:103520000546DCE700F0D2FEFAE700F001FFF7E71E
:1035300000F026FFF4E700F0F7FEF1E700F02CFFC3
:10354000EEE7094890F82A0010B1074D2A35C6E782
:1035500006A5C4E73C44A4EB0800BDE8F0870000E2
:103560004552524F52000000329201086874747044
:103570003A2F2F7777772E70656E677A686968754E
:10358000692E636F6D000000704700002DE9F04167
:103590001E4615460C46074605F0B6FB2C4890F82B
:1035A000201003290FD0022C0FD004B3012C0AD114
:1035B0000168A94207D190F82210A9B300214A1E40
:1035C000016082608161BDE8F0810068A842FAD1A3
:1035D000304605F0EBF80446304605F0EBF80646B9
:1035E000384602F0EBFF03462246314617E03846E4
:1035F00002F0E4FF0328E6D0304605F0D5F8800756
:10360000E1D4384602F0DAFF0746304605F0CEF83E
:103610000446304605F0CEF801463B462246284691
:10362000BDE8F04104F09EB828220A490848F9F79D
:103630001EF803F075FD08488178012903D141780F
:10364000022900D18170BDE8F04103F071BD000096
:1036500008120020B8930108FC0000202DE9F04179
:103660001D4E0446174696F822008846550260B95A
:103670002946404602F05EFF032802D0214604F0AE
:103680001BF896F8220000280FD07068A0420CD8D2
:10369000F068A0420BD008D93069401C00D13461D9
:1036A0003069A04200D204463461BDE8F081F0697F
:1036B0002A461044F061E019F06096F8230020B12A
:1036C000BDE8F041002004F09DB841462046BDE829
:1036D000F04103F095BF000008120020F0B518A1DA
:1036E00085B0096804910278002104AB5C5C9442C7
:1036F00024D0491C0329F9D312A1002291E87800B3
:103700006F46815C8DE87800A1F1610CBCF1190F66
:1037100014D9202901D2052910D14FF0000C17F837
:103720000CE08E450AD00CF1010CBCF1100FF6D361
:10373000521C0B2AE5D3012005B0F0BD0020FBE7A9
:10374000E5002000222A2B2C2E2F3A3B3C3D3E3F09
:103750005B5C5D7C10B50448F9F70CF808B10120FA
:1037600010BD0020FCE700004292010870B50D4D2D
:1037700000202C7874B100212970A97809B100F0DB
:103780007FFB022C05D06978032902D0002800D1E4
:10379000242070BD4FF4A27203A10020FFF7CCF9E2
:1037A000022070BDA80000202E2E5C2E2E5C2E2E36
:1037B0005C736F757263655C6461706C696E6B5C81
:1037C000647261672D6E2D64726F705C666C6173DC
:1037D000685F6465636F6465722E6300FEB51C46A6
:1037E0000546302901D3012000E00020422215A126
:1037F000FFF7A2F90C2205F120016846F8F767FEF1
:103800001D4E0CB9002030711C49019888420BD123
:103810001B490098884201D10220FEBD1849FC399D
:1038200088420CD10120FEBD284604F08BFE18B161
:103830001CB90120307100E00CB10320FEBD002056
:10384000FEBD00002E2E5C2E2E5C2E2E5C736F753E
:103850007263655C6461706C696E6B5C64726167F5
:103860002D6E2D64726F705C666C6173685F646549
:10387000636F6465722E6300A80000200899969714
:103880008F9E939B2DE9FF5F4FF00004DDF8389089
:103890005FEA030893460746254613D05FEA09000E
:1038A00010D00020C8F800000646C9F80000FFF755
:1038B000E9FCDFF8CCA088B13248022F04D0032FF6
:1038C0000AD042E06C2254E0BBF1000F04D0019911
:1038D000814201D01B2439E0064612E0FFF7D4FCF8
:1038E00090B3012F02D0032F0ED02EE04FF00061D5
:1038F000BBF1000F04D00198884201D01A2425E0C2
:103900000E46DAF8005021E01F48F8F733FFD8B12F
:1039100000F10C0506E005F10800F8F72BFF01287F
:103920000DD014352846F8F725FF0028F3D1281DBF
:10393000F8F720FF0028EED11448056806E0284675
:10394000F8F718FF0646F7E7FFE71C24FFF780FAB1
:1039500008B9012F04D02CB1204604B0BDE8F09F77
:103960001C24F9E725B1C8F80060C9F80050F3E756
:10397000AE2207A10020FFF7DFF80220EDE70000EC
:10398000B493010800C0000842920108789301082E
:103990002E2E5C2E2E5C2E2E5C736F757263655C12
:1039A0006461706C696E6B5C647261672D6E2D640E
:1039B000726F705C666C6173685F6465636F646589
:1039C000722E63002DE9F0411C4906460025487817
:1039D0009046012804D0022804D003282CD103E00B
:1039E000174D22E0174D20E0087928B31648F8F764
:1039F000C1FE08B300F10C040CE0B74209D8201D49
:103A0000F8F7B8FEB04204D3201DF8F7B3FE054620
:103A10000AE014342046F8F7ADFE0700EDD1201D72
:103A2000F8F7A8FE0028E8D135B106EB0800A84257
:103A300002D30120BDE8F0810020FBE7A8000020B0
:103A400000BC000800FC01084292010810B50C4CB3
:103A5000207830B1BD220BA10020FFF76DF80220C5
:103A600010BDFF2230211448F8F733FE01202070EA
:103A700000206070A060E0602061A070E07010BD68
:103A8000A80000202E2E5C2E2E5C2E2E5C736F75EF
:103A90007263655C6461706C696E6B5C64726167B3
:103AA0002D6E2D64726F705C666C6173685F646507
:103AB000636F6465722E63008C0700202DE9FE4F52
:103AC000414F0646894638781546012807D0D2224C
:103AD0003EA10020FFF730F80220BDE8FE8FF87805
:103AE0004FF0010A18B9FE603E6187F803A0B8786C
:103AF0004FF00308002853D139698E4201D10120CB
:103B000000E000202944396130B3B868C0F13004C6
:103B1000AC4200D914463A49224608444946F8F7CF
:103B2000D6FCB8682D1B2044A1442644B860302838
:103B30002CD302D14FF0010001E04FF000004FF014
:103B4000F40222A1FEF7F8FFD7E9021201232C4864
:103B5000FFF744FE787001E087F8018001A800902B
:103B600002AB01227878F968FFF78CFEF0B9B878DB
:103B700040F20D1280F0010014A1FEF7DDFF019864
:103B800000F01AF990B987F802A001E0B87880B186
:103B9000D7E902201A4900F073F838B9B87840B173
:103BA0002A464946304600F06BF810B187F800808D
:103BB00093E72A4649463046FFF704FF00288CD099
:103BC00002203870132088E7A80000202E2E5C2EDB
:103BD0002E5C2E2E5C736F757263655C6461706C15
:103BE000696E6B5C647261672D6E2D64726F705CC0
:103BF000666C6173685F6465636F6465722E6300F1
:103C00008C07002010B5EFF3108101F0010472B6AB
:103C1000F9F734FF002C00D162B610BD2DE9FC414C
:103C2000164F05467E787C68AE4220D04FF00008E3
:103C300076B1201DF8F79EFD0146CDF800800023E7
:103C4000324604F11800CDF8048002F023FD88B15B
:103C500065B12046F8F78EFDCDE9005801460023F6
:103C600004F11800FA6802F015FD28B17D700020FB
:103C7000BDE8FC810C20FBE70B20F9E76C0000207D
:103C80002DE9F0473D4E05460024707817468846DA
:103C9000012807D07C223AA10020FEF74DFF022028
:103CA000BDE8F087F0784FF0020A50B9284602F0DC
:103CB000D3FA040002D086F801A05CE00120F07085
:103CC0007561B068B5FBF0F100FB11516A1A7169BA
:103CD000B1FBF0F300FB1310081A824204D028460F
:103CE00000F024F90400E6D13069B5FBF0F100FBE7
:103CF00011516A1A7169B1FBF0F300FB1310081A35
:103D0000824204D0284602F0A7FA0400D3D1B1467B
:103D10004E46D6E901010844A84207D8284600F0DB
:103D200005F9040002D089F801A024E00FB3D6E918
:103D300003010844A84204D8284602F08DFA040082
:103D4000F1D17068B168B146281A0E1AB74200D294
:103D50003E461849324608444146F8F7B8FB36B1AA
:103D6000002089F802003544B044BF1BD0E7012091
:103D7000F7E7C9F81450204692E70000BC00002085
:103D80002E2E5C2E2E5C2E2E5C736F757263655C1E
:103D90006461706C696E6B5C647261672D6E2D641A
:103DA000726F705C666C6173685F6D616E61676590
:103DB000722E6300BC07002070B51F4D0446687862
:103DC00008B1482226E024B3606810B3A06800B3AD
:103DD000E068F0B12069E0B16069D0B1A069C0B11C
:103DE000E069B0B1FF224FF480611448F8F771FC2C
:103DF0000126AE700020E8706860A860E860286165
:103E0000C5E9050420688047040008D1287838B146
:103E100010E04E220AA10020FEF78EFE022070BDA7
:103E2000A86900698047040004D0A86940688047F9
:103E3000204670BD6E70FBE7BC000020BC07002070
:103E40002E2E5C2E2E5C2E2E5C736F757263655C5D
:103E50006461706C696E6B5C647261672D6E2D6459
:103E6000726F705C666C6173685F6D616E616765CF
:103E7000722E63000149087070470000BC000020EA
:103E800070B5154C0025607810B1012807D00AE004
:103E9000CD2212A10020FEF74FFE022070BD0020AF
:103EA00000F044F80546A069406880470646FF22B6
:103EB0004FF480611648F8F70CFC0120A070002137
:103EC000E1706160A160E1602161616161700EB1CA
:103ED000304670BD284670BDBC0000202E2E5C2EE2
:103EE0002E5C2E2E5C736F757263655C6461706C02
:103EF000696E6B5C647261672D6E2D64726F705CAD
:103F0000666C6173685F6D616E616765722E6300D8
:103F1000BC07002010B5EFF3108303F0010472B664
:103F2000FBF790FB002C00D162B610BD70B50E4EB1
:103F300005460024B07840B9B0690C498368D6E9D9
:103F40000102984704460120B070FF220748B1687B
:103F5000F8F7BFFBB068B5FBF0F100FB1150281A71
:103F60007060204670BD0000BC000020BC0700202F
:103F700010B50648F8F7FEFB28B100F5CE70F8F74B
:103F8000F9FB002801D101480C3810BD429201080C
:103F900010B50948F8F7EEFB30B190F8A11190F890
:103FA000A02152EA012005D103481038C178827857
:103FB00042EA012010BD000042920108034601229E
:103FC0000149002018470000301200202DE9F0417F
:103FD00005461448F8F7CEFB00F10C04124F07E039
:103FE000AE4204D8201DF8F7C5FBA8420CD2143409
:103FF0002046F8F7BFFB0600F2D1201DF8F7BAFB08
:104000000028EDD1BC684CB12046F8F7B3FBF8604E
:1040100004F11000BDE8F041F8F7ACBB0020BDE8AA
:10402000F0810000429201086C00002000207047DF
:104030000248006840F30000401C7047080C014033
:104040002DE9F041534886B0816941F00401816156
:10405000816901F004010491816941F008018161E5
:10406000816901F008010491816941F010018161C9
:10407000816901F010010491816941F020018161A1
:10408000816901F020010491816941F001018161A0
:10409000816901F0010104913F494A6822F0E06220
:1040A00042F000724A60816941F0080181618069D3
:1040B0003A4900F0080004904FF4004008600124E1
:1040C000364FCDE900040325103F69460395384675
:1040D000F9F728FEDFF8C880660200223146404624
:1040E000F9F704FFCDE90064694640460395F9F706
:1040F00019FE002240213846F9F7F8FE4020CDE9AC
:104100000004694603953846F9F70CFE0122314652
:104110004046F9F7EBFECDE9006469464046039559
:10412000F9F700FE012231464046F9F7DFFECDE9FE
:104130000064694640460395F9F7F4FD01221146F3
:104140003846F9F7D3FE1120CDE9004069463846DC
:104150000294F9F7E7FD2602002231463846F9F7C6
:10416000C5FECDE90064694638460395F9F7DAFDE6
:104170000220CDE90060694603954046F9F7D2FD7B
:1041800000F0D0FC07480490401E0490FCD106B01B
:10419000BDE8F0810010024000000140100C014019
:1041A0000008014040420F007047000008B10122A2
:1041B00000E000224FF400710148F9F797BE0000BB
:1041C0000008014008B1012200E000224FF4007114
:1041D0000148F9F78BBE00000008014008B1012238
:1041E00000E000224FF400710148F9F77FBE0000A3
:1041F00000080140092800D927303030C0B270478C
:104200001CB501AA69460A48F9F7DAFB002807D06D
:104210000198402805DD322206A10020FEF78CFC23
:104220001CBD40220020009903F0F0FF1CBD0000DF
:10423000EC2A00202E2E5C2E2E5C2E2E5C736F75C9
:104240007263655C7573625C6869645C75736264F3
:104250005F757365725F6869642E630010B51349FA
:10426000002008601249086012490860124908607D
:104270004BF6FC314FF00060FEF770FF0B49086011
:104280000E490F48FEF76AFF094908604FF4806144
:104290000C48FEF763FF074908604FF480610A4845
:1042A000FEF75CFF0449086010BD00002C000020F0
:1042B000300000203400002038000020FC3B0100CA
:1042C00000C0000800BC000800FC0108004870475E
:1042D0003C0000200120C106064A096A914200D034
:1042E00000204FF00061044A496A914200D000204A
:1042F00070470000939D939B0899969700B5FFF730
:10430000E9FF08B9002000BD4FF00060806AFAE7BD
:1043100001480068704700002C0000200148006838
:104320007047000030000020004870471806002049
:1043300000487047D605002001200649064A096A50
:10434000914200D000200349044A496A914200D0BA
:104350000020704700C000088F9E939B0899969795
:1043600000B5FFF7E9FF08B9002000BD0148806AE9
:10437000FBE7000000C0000800487047C9050020A6
:1043800000487047F7050020004870479805002056
:104390000048704721060020004870474600002072
:1043A00010B5FFF75BFF054801F054F801F08AFEF5
:1043B00002F00CF801F0DEFF10BD000078050020CF
:1043C00010B5124C207830B1632211A10020FEF705
:1043D000B3FB022010BD002211461046FAF7E8FB9D
:1043E00008B11D2010BD00206070A070E070A060BA
:1043F000E060207120616061A0614FF4806112482B
:10440000F8F76FF901202070002010BDD8000020BF
:104410002E2E5C2E2E5C2E2E5C736F757263655C87
:104420006461706C696E6B5C647261672D6E2D6483
:10443000726F705C6961705F666C6173685F696EF2
:1044400074662E6300000000BC0B002010B5002431
:10445000FFF79EFD0C4B0D4A1968002913D109E0A6
:10446000098829B1814203D152F82400186006E07E
:10447000641CE4B252F824100029F1D11868002815
:1044800001D10348186010BD240400202804002036
:10449000749B010810B5002305E0DC0021FA04F448
:1044A000C4545B1CDBB29342F7D310BD2DE9F05F1F
:1044B000DFF8C89004468B4699F800002E4D174649
:1044C0004FF00061012808D04FF4BD722CA10020EC
:1044D000FEF732FB0220BDE8F09F8A46544501D327
:1044E000AC4201D32220F6E7FEF7CEFEA0B32E1B8E
:1044F000301FB84201D93A4600E0321F5946D9F878
:104500001800FEF753FE8046C9F818002A48844276
:1045100009D22A48A4F1006420443A465946F7F7E4
:10452000D6FF0020D7E7E019A84223D10BEB060005
:1045300010F8015C001FF8F71DF965F31F604D4688
:10454000804501D02620C6E75A4639462046FFF767
:10455000E1FC10B11F20BEE70CE04FF48062174968
:104560005046FEF74FFE0446FFF778FE01206870C4
:104570002046B0E72520AEE700BC0008D8000020A8
:104580002E2E5C2E2E5C2E2E5C736F757263655C16
:104590006461706C696E6B5C647261672D6E2D6412
:1045A000726F705C6961705F666C6173685F696E81
:1045B00074662E630000000000040008BC0B00209D
:1045C00070B513490446114809784FF00065012978
:1045D00007D04FF4DE720FA10020FEF7ADFA0220E3
:1045E00070BDAC4201D3844201D3222070BDFEF7DE
:1045F0004BFE48B1AC4207D12846BDE870404FF4AD
:1046000080621249FEF7FEBD252070BD00BC000887
:10461000D80000202E2E5C2E2E5C2E2E5C736F7523
:104620007263655C6461706C696E6B5C6472616717
:104630002D6E2D64726F705C6961705F666C617362
:10464000685F696E74662E630000000000C0000899
:104650000246084810B500EB810050F8040C002811
:1046600006D0114601F06EFABDE8104001F05ABACA
:1046700010BD0000042A002008490748086001F026
:1046800091FC00F087F900221146054800F0CAF9B4
:1046900000F086F9FEE7000000C0000808ED00E029
:1046A000F5460108024901224A700871704700006E
:1046B0004C000020024901220A70C87070470000B7
:1046C0004C000020024901228A70487170470000A6
:1046D0004C00002002484FF40061C06800F07CB933
:1046E0004C00002002480421C06800F075B90000A9
:1046F0004C00002000273E463D464FF01608FEF7CE
:10470000B7FBFEF73CFA00F087F98C4CE060FFF74E
:1047100097FC3846FFF756FD3046FFF747FD284621
:10472000FFF75CFDF9F7CAF88548F8F723F800B100
:104730008047FFF78BFE8348006810B1C06800B166
:1047400080477F485E388146F8F714F8800702D525
:10475000012002F0A7F94846F8F70CF8C00702D08C
:104760000120FFF787FBFFF71BFE03F0EFFDFEF7CD
:1047700035FCE8B3002004F045F9002003F006FD05
:1047800001210023A346E1714FF00B0A1A466E483F
:1047900000F06EF9032100F073F94FF000094FF0BB
:1047A000FF32002140F6372000F028F984B2A0053E
:1047B00007D59BF8060010B1012000F0DDF8FCF7EA
:1047C000FFFD600702D5022002F0C6FEE00616D506
:1047D000032002F0C1FE0020FFF7E6FC002003F0FA
:1047E000D5FC0020FFF7EEFC0020FFF7DFFC00E027
:1047F00003E00020FFF7F2FCFEE70120BBE7A00684
:1048000002D5032002F0A8FE200501D5FEF7E8F945
:10481000E0073AD05A2004F021F99BF8070040B392
:1048200001280CD003281BD005282ED18BF8079027
:104830000020FFF7B9FC002003F0A8FC25E0BAF146
:10484000000F04D0AAF101005FEA000A1DD1012087
:1048500003F09CFC03218BF807104FF0160814E0BE
:1048600003F08CFC30B10120FFF79EFC02218BF895
:1048700007100AE0B8F1000F04D0A8F101005FEAC8
:10488000000802D10120FFF78FFCA00787D59BF815
:1048900000005C4650B1E078012824D0022822D0E4
:1048A000002784F800903846FFF78CFCA07850B1C0
:1048B0006079012825D0022823D0002584F80290B1
:1048C0002846FFF78BFC607800283FF468AF20791A
:1048D000012824D0022822D0002684F801903046F6
:1048E000FFF764FC5BE7012F01D0012700E0002700
:1048F000002FD8D10128D6D184F8009084F80390F5
:10490000D1E7012D01D0012500E00025002DD7D1F0
:104910000128D5D184F8029084F80590D0E7012EC3
:1049200001D0012600E00026002ED8D10128D6D1E2
:1049300084F8019084F80490D1E700004C00002036
:104940009C92010824040020CD750108014988715A
:10495000704700004C000020FFF778B810B50446FF
:1049600040F20111F7F7BDFE00F008FE00202070B4
:10497000BDE81040FFF76AB880B2DFF808C000DF7A
:1049800000207047B9560108DFF804C000DF704707
:10499000A15E01080149002008607047F80300206B
:1049A0000020704789B2DFF808C000DF00207047A0
:1049B0004D5A01080248DFF80CC000DF004870477C
:1049C000102800208D590108DFF808C000DF002002
:1049D000704700009D59010810B50C460146EFF3E1
:1049E0000380C006A0B202D0FFF732FE02E0DFF87B
:1049F00008C000DF204610BD1957010891B280B2EF
:104A00000022DFF80CC000DFDFF808C000DF7047CD
:104A100079570108C1560108DFF804C000DF70476C
:104A2000955F010870B50D4C06460025206860B101
:104A300000231A460B213046DFF824C000DF05466C
:104A40002068401C2060284670BDF7F7C3FB054A6C
:104A500005493046DFF814C000DFF1E7F803002015
:104A6000195F0108682400200A200300115D010875
:104A7000024A01460020516070470000F803002000
:104A800005480023054A816048F60B010448DFF819
:104A900014C000DF00207047F803002088270020A2
:104AA000AD5E0108195F0108012805D0022805D074
:104AB00003280BD0C72202E0BB2200E0BF2204A1E2
:104AC0000020FEF739F8FBF7C1FAFEE7C322F6E74C
:104AD0002E2E5C2E2E5C2E2E5C736F757263655CC1
:104AE00072746F735C5254585F436F6E6669672EC1
:104AF00063000000FEE70000074801684FF0E02077
:104B0000416100218161072101610448016841F090
:104B10007F410160401770474C9B010820ED00E089
:104B20007047704770B58EB00CA907A8F9F736FB2F
:104B30000B98B0F5005F05D0B0F5205F23D0B0F53D
:104B4000405F22D001202549274D00240968B1FB90
:104B5000F0F02349B0FBF1F62248C5E90004761EC7
:104B6000C5E903642148AC606C61816941F400616E
:104B70008161806900F400600D902846F9F70DFF0F
:104B800028B1532223E00220DDE70420DBE71648AA
:104B9000F9F71FFF08B1592219E07020CDE9000490
:104BA0000294039404940594002269460E480694E6
:104BB000F9F78BFE08B1662209E02968700848639E
:104BC00000210948F9F722FF002804D06D2208A12E
:104BD0000020FDF7B1FF0EB070BD0000D402002030
:104BE00000127A00002C0140341D00200010024009
:104BF0002E2E5C2E2E5C2E2E5C736F757263655CA0
:104C00006869635F68616C5C73746D33325C737484
:104C10006D33326631303378625C6770696F2E6352
:104C2000000000002DE9F84F8A460C9C054600EB79
:104C30000A08874E00202060F078DFF818921F469F
:104C4000934600281CD00020F07099F8002009F14C
:104C500004011846F7F73BFC99F800002168074467
:104C600008442060706899F80220010C99F801301E
:104C7000090443EA0220014399F8000008447060E7
:104C8000DEE028780A2827D00D28FCD03A281BD04F
:104C90003178002978D0FEF7EFFA00F00F02707833
:104CA00019F800301A4309F80020401CC2B2727093
:104CB00099F800000090401D824264D3654A0021AB
:104CC000084613785B1D0EE025216248F7F709FDC1
:104CD000002030707070B070B1E012F800C0401C5D
:104CE0006144C9B2C0B28342F7D809B104204CE094
:104CF000B078002847D10120B07099F8021099F8D7
:104D0000012042EA012149BA89F80110090A89F80B
:104D1000021099F8030030B1012836D002284AD099
:104D2000042830D161E04B49252201F12500F7F735
:104D3000CEFB706899F8022099F80130010C090443
:104D400043EA02221143814203D00120F070022085
:104D50001BE009F104013846009AF7F7B8FB99F80F
:104D600000002168074408442060706899F8022018
:104D7000010C99F80130090443EA0220014399F833
:104D800000000844706056E04CE0814621680A98B3
:104D9000FF22411A3846F7F79CFC20687168091A0F
:104DA0000B980160A8EB0501AAEB01014846CBF87E
:104DB0000010BDE8F88F21680A98FF22411A384692
:104DC000F7F787FC20687168091A0B980160A8EB57
:104DD0000501AAEB0101CBF8001099F8041099F82D
:104DE0000500090341EA001019E021680A98FF2232
:104DF000411A3846F7F76DFC20687168091A0B985C
:104E00000160A8EB0501AAEB0101CBF8001099F8AD
:104E1000051099F8042042EA012040BA00047060AD
:104E20000220C6E7717825290FD2FEF725FA72789D
:104E3000010109F80210307838B1002030706D1C83
:104E400045457FF41EAF00209FE70120F6E70000F4
:104E5000F4000020BC0F002070B5012A12D0022AF5
:104E600010D0002301248C400F268D00082911D377
:104E7000203D4168AE40B14341604168AB400B43C7
:104E800043600FE00823EDE7046170BD022AFCD106
:104E9000446170BD0168AE40B14301600168AB4040
:104EA0000B430360012AF1D1EEE770B5012A12D05D
:104EB000022A10D0002301248C400F268D000829DF
:104EC00011D3203D4168AE40B14341604168AB40E1
:104ED0000B4343600FE00823EDE7046170BD022A35
:104EE000FCD1446170BD0168AE40B143016001680E
:104EF000AB400B430360012AF1D1EEE710B50F235D
:104F000003248A00082909D3203A41689340994331
:104F10004160416894400C43446010BD0168934077
:104F200099430160016894402143016010BD10B5B0
:104F30000F2303248A00082909D3203A41689340AB
:104F400099434160416894400C43446010BD01683E
:104F5000934099430160016894402143016010BD72
:104F600010B50F2307248A00082909D3203A416885
:104F7000934099434160416894400C43446010BDA4
:104F800001689340994301600168944021430160A6
:104F900010BD000070B5134D0646EFF3108000F011
:104FA000010472B62846F8F769FD04B962B6002814
:104FB00016D1FF2210210C48F7F78BFB092231464E
:104FC0000948F7F784FAEFF3108000F0010472B695
:104FD000054A10212846FAF735FB002C00D162B6AD
:104FE00070BD000000FC0108B02A00202DE9F05F30
:104FF000DFF800810446DFF8F89098F800001546C5
:105000008B46012805D0A3223BA10020FDF794FD8B
:105010003FE04FF48060B4FBF0F300FB1343014624
:1050200002260BB1AC222EE00A46954204D3B5FB12
:10503000F0F302FB135008B1B32224E0B4FBF1F00B
:1050400002FB10402844884201D9BA221BE098F89C
:10505000020078B998F8030050B1D8F808008442EB
:1050600004D3D8F80C100844A04203D8C8220AE0A0
:10507000C22208E098F8040070B1D8E9040108449D
:10508000A04209D0D0221CA10020FDF755FD88F8D0
:1050900000600220BDE8F09F25486719844202D2D3
:1050A0002448874217D84FF0010A88F804A02A46FE
:1050B00059462046C8E90445FFF7F8F9252804D0E9
:1050C0000028E7D088F80060E4E75A4629462046E1
:1050D000FEF720FF18B188F800601F20DAE74F457F
:1050E00003D3FFF7BBF888F801A00020D2E7000047
:1050F00000BC0008D80000202E2E5C2E2E5C2E2E28
:105100005C736F757263655C6461706C696E6B5C17
:10511000647261672D6E2D64726F705C6961705F7F
:10512000666C6173685F696E74662E6300000000D0
:1051300000FC010800C000084FF4806070470000C8
:1051400070B514460E46054620444FF48061B1EB1D
:10515000402F07D240F265220AA10020FDF7ECFCA7
:10516000002070BD4FF400713046F7F7BAFA35B938
:1051700011481249006942013046F7F7A8F9600268
:1051800070BD00002E2E5C2E2E5C2E2E5C736F7573
:105190007263655C6461706C696E6B5C647261679C
:1051A0002D6E2D64726F705C7669727475616C5FC0
:1051B00066732E63000000001401002034190020E3
:1051C00010B50B464FF4007408B1002010BD224604
:1051D00002491846F7F77BF9204610BD74160020E7
:1051E0002DE9F8430C4600210E46009110B1002035
:1051F000BDE8F883DFF8C88098F80000012845D0A2
:10520000022845D0002720462EA103F051F905467B
:1052100060192FA103F04CF9054460192E4903F0E1
:1052200047F9054460192DA103F042F905446019BE
:105230002BA103F03DF905446019B8F8021003F002
:1052400040F90544601925A103F032F9054477B10E
:10525000601925A103F02CF905446019394603F0C3
:1052600027F9054460191DA103F022F90544684699
:10527000FDF7BAFE070021D00098F8B160191DA112
:1052800003F016F905444FF4007811E01CA7BAE7C3
:105290001EA7B8E7009850F82610761CF6B26019E1
:1052A00003F0DEF8054460190CA103F001F9054490
:1052B000BE4203D205F10A004045EBD3284697E7EA
:1052C0000C0100204173736572740D0A0000000028
:1052D00046696C653A200000301400200D0A000079
:1052E0004C696E653A200000536F757263653A2011
:1052F0000000000048657864756D70730D0A000049
:10530000426F6F746C6F6164657200004170706C05
:1053100069636174696F6E000A4608B100207047C6
:105320004FF40071104602F06BBC00002DE9F0470D
:105330000D46044603F08AFB0646FEF76DF8074665
:105340003046FEF78DF8064614B10020BDE8F08720
:1053500028461B4903F0ACF804462819394603F0E7
:10536000A7F80444281917A103F0A2F8144904442B
:105370002819C91F03F09CF8044400274FF00108C6
:10538000DFF8449013E0B8F1000F04D128190FA101
:1053900003F08EF80444F00707D059F827102819B5
:1053A00003F086F804444FF0000876087F1C0EB125
:1053B000052FE8D3281903A103F07AF82044C5E7A4
:1053C000E79301080D0A0000F49401082C20000066
:1053D00070B50C4608B1002070BD4FF40075294629
:1053E0002046F7F77EF90748F6F7FBFF0246054926
:1053F0002046F7F76CF829462046BDE87040FEF7D6
:1054000039B80000EF9301082DE9F041084D064638
:105410000F462846F6F7E5FF044616B10020BDE822
:10542000F081024629463846F7F751F82046F6E75C
:1054300044A6010810B50B464FF4007408B10020D3
:1054400010BD224602491846F7F741F8204610BD24
:105450007414002006490B68091D0A68091D0968B3
:105460000360C0E901214FF0A531C1607047000021
:10547000E8F7FF1F10B5084654022146F7F731F947
:10548000204610BD70B5244D4FF0FF346878A978E0
:10549000884201D0012000E0002040F2F9121FA153
:1054A000FDF74AFB6878022803D0C0B101281AD062
:1054B00022E027484FF4FA7490F82000E0B1012868
:1054C0000AD0022818D0032816D040F20B2213A1CC
:1054D0000020FDF731FB0FE044F620640CE0A878D3
:1054E000022808D008E0A878022801D018B103E00B
:1054F00040F6C41400E00024601C05D140F21B22D9
:1055000006A1FDF719FB0024A868A04201D90120DB
:1055100070BD002070BD0000FC0000202E2E5C2E0F
:105520002E5C2E2E5C736F757263655C6461706CAB
:10553000696E6B5C647261672D6E2D64726F705C56
:105540007666735F6D616E616765722E6300000041
:105550000812002070B5034600200246012609E02B
:10556000DC0704D08D1A6D1E06FA05F420435B0893
:10557000521CD2B28A42F3D370BD000010B525216F
:105580000748F7F7AEF8064825212530F7F7A9F8C0
:10559000044800214160017041708170C17010BDEC
:1055A000BC0F0020F40000200146EFF3108000F053
:1055B000010272B6086808B103680B60002A00D1C6
:1055C00062B6704770B50D46002812D04FF6FF71D5
:1055D000084C884204D222680146104600F0D4FAF2
:1055E00020684570044800F0F8F8BDE8704000F00D
:1055F00087BB70BD0C0400201C28002070470000F1
:1056000070B51A4EF06800282ED0B08A401EB082C5
:10561000002523E0A06838B161684160606810B17E
:10562000A16881606560A56010482146183800F0C7
:10563000CFFAA08AB0826078042804D10C49E08AAD
:1056400009880844A0820120607084F82000E06886
:10565000F060E06808B10661E5602561B08A002865
:1056600002D1F468002CD5D170BD00003428002090
:105670001404002070B504000FD00D4DA178012650
:105680002868827891420CD900F0BEFA28684670EA
:105690002046BDE8704000F033BB064800F09DF89E
:1056A000F7E766702146BDE87040024800F090BA06
:1056B0000C0400201C2800200321FFF783BF0000FA
:1056C00001480068408B70470C04002010B5044668
:1056D000008B084320836278618B062A16D0052A46
:1056E00017D1084215D001EA000262838843208363
:1056F000204600F0ADFA01206070022084F82000FE
:105700002146BDE81040034800F062BA31EA0002C9
:10571000ECD010BD1C280020024670B5154800EBE7
:10572000810050F8044C002C22D0208B10432083A1
:105730006178658B062918D0052919D1284217D020
:1057400005EA00016183A8432083204600F080FA27
:10575000208BA843208301206070022084F8200061
:105760002046BDE87040FFF785BF35EA0001EAD06A
:1057700070BD0000042A002070B503460C480D4699
:105780000468208B42B133EA000101D0062109E010
:1057900098432083022070BD10EA030101D0618389
:1057A000F6E7052163832846FFF70CFF012070BD53
:1057B0000C040020814202D342688A4201D80120B1
:1057C0007047EFF3108212F0010F72B603680B609E
:1057D000016000D162B60020704701464068002396
:1057E00042684A600A78022A05D0012A03D0032AB7
:1057F00001D04360704742680AB1916043608360A2
:105800007047000070B50446002015462070012244
:105810006270A1706060A060E0602061A082E082A0
:105820002083608384F8200084F82100608C18B9FC
:105830000448FFF7B9FEA06229462046BDE8704043
:1058400000F004B8482900207047000010B5428CD1
:10585000920803D10E4A1288C2F38D02836A03EBC9
:1058600082035A0700D51B1F4FF0807243E90212D2
:1058700000221446403B43F82240521C0E2AFAD321
:10588000C2691A624362C162806A0249016010BD46
:10589000489B0108A52E5AE20349044A0968C882B8
:1058A00012881044888270470C04002014040020E1
:1058B0000748016807488A8A0088CB8A101A1A4468
:1058C00080B28A82010402D40421FFF77BBE7047B4
:1058D0000C040020140400202DE9F0410446406827
:1058E0000F46002620B16078022818D0A08980B326
:1058F000A089E189884241D2208904EB80000761B8
:1059000072B6A089401CA08162B62089401C80B27A
:105910002081E189884200D12681BDE8F08166704E
:105920002046FFF75AFF80F820602189054604EBE6
:105930008101C069086172B6A089401CA08162B66D
:105940002089401C80B22081E18988420BD12681C8
:1059500009E0FFE72046FFF740FF0546C069042144
:10596000076085F8201001206870284600F070F963
:105970002946BDE8F041044800F02AB9BDE8F041ED
:105980000320FFF791B800001C28002003210170BC
:105990000021417041804160816070472DE9F047EE
:1059A0000446408820B1274EA1683268914202D057
:1059B000FF20BDE8F087401E0004000C60803ED14F
:1059C00031686078DFF88080887061684FF0000986
:1059D000012739B32046FFF700FF0546052085F86B
:1059E0002000284600F034F96780A560A878607030
:1059F0003168D8F804008A788078824201D328463A
:105A00000AE0114800F0E4F829460F4800F0E0F8F9
:105A1000306847706F7010E0FFF72CFE316881F836
:105A200020900CE0D8F804108A783168824206D9B8
:105A3000054800F0CDF8306847700020ECE7002002
:105A4000B7E700000C0400201C28002070B5184D9A
:105A50000E4604464188286839B1A168814208D1C0
:105A60006088401C6080002070BDA06080786070FD
:105A7000F6E776B162788078824203D28870A068B7
:105A800000F0CCF8606830B12046296800F0A0F83A
:105A900008E0012070BD2868606029680020486027
:105AA0002868846009213046FFF78CFDF1E700008B
:105AB0000C04002070B5184801210268517000687C
:105AC00000F0A2F8154D6C7812E005EBC4014868AF
:105AD0000278C2B1012A1BD000F0E6F8E878641C15
:105AE000844200D1002472B6A878401EA87062B625
:105AF000A8780028E9D16C700948FFF76EFEBDE870
:105B0000704000F0FDB8098989B2FFF7DFFDE5E7D5
:105B10008968FFF7E1FEE1E70C040020E02900209E
:105B20001C2800200548017811B1012141707047FF
:105B300003494FF0805008607047000004040020C3
:105B400004ED00E0F0B40F4FBC1CFE783D4672B689
:105B5000BA78B24207D2521C22702A78531CB34240
:105B600000D100232B7062B6FB78934205D907EB76
:105B7000C202C2E90101F0BC7047F0BC0220FEF78E
:105B800093BF0000E0290020104A10B5D368ABB1E4
:105B900013469B8A03E08CB12246A48A2344D4682E
:105BA0008B42F8D3C460D0600261C46804B1206144
:105BB000591A8182908A401A908210BD0024C460D4
:105BC000D060C91A02619182848210BD34280020FD
:105BD00030B502780024022A03D0012A01D0032A1A
:105BE00000D101248B7800E01046426812B195780C
:105BF0009D42F9D24A6041601CB102B19160886057
:105C000030BD0020FBE7000003494A6842600022E3
:105C100082604860704700001C28002010B583682F
:105C200004462BB9607801280ED1084B03E09B682D
:105C300018780028FBD0204600F01EF82146BDE869
:105C400010401846FFF7C4BF10BD00001C280020FC
:105C500010B5016900290ED0C268CA60C36800226D
:105C60003BB18B8A848A23448B82C3681961C260EA
:105C700000E08A82026110BD816839B142684A60E1
:105C80004168002901D0806888607047054906E0B6
:105C90004A68824202D14068486070471146002934
:105CA000F6D170471C28002010B5416879B1FFF784
:105CB00094FD0446FFF7CCFF01206070032084F8B8
:105CC00020002146BDE810400348FFF781BF41880E
:105CD000491C418010BD00001C28002006480068B7
:105CE000D0E90910814203D300680449884202D0F8
:105CF0000120FEF7D9BE70470C040020A52E5AE201
:105D00000249486002214170704700000C040020E5
:105D10002DE9F0471646414A81468846002005464F
:105D20003D49128802E041F82050401C9042FAD3CD
:105D30003B48302201883B48FCF7BCFE3A480088CB
:105D400080B240F00042394801683948FCF7B2FEA1
:105D500038480822018838480068FCF7ABFE374C09
:105D6000FF27374AE770658400212046FFF74AFD88
:105D7000344804210170456033480170C5600561F5
:105D80008582606A2030F6F71FFA30483149046096
:105D9000022060702E48057045700978C170FFF7C9
:105DA00053FD2D48016841F47F0101600068390608
:105DB00001EA00202849C0431439B0FA80F009688C
:105DC000C0F10800C1F30221814200DB481C2249D6
:105DD000091F0B686FF08072824063F317020A603C
:105DE000FEF78AFE1D49002808600DDB00F1E02166
:105DF00081F8007400F01F020121914040118000E1
:105E000000F1E020C0F80011324641464846BDE8A6
:105E1000F047002300F080B8042A0020469B0108C8
:105E20005C9B01087C280020489B0108609B0108BE
:105E300048290020669B0108200400204C280020EF
:105E4000F54A01081C280020342800200C040020FA
:105E5000E0290020649B010820ED00E008040020F8
:105E60000C4810B50268012151700068FFF7CCFEA4
:105E7000FFF7C4FB08480168491C0160FFF7C0FB3D
:105E800000F02AF80548FFF7A8FCBDE81040FFF72E
:105E900037BF00000C040020140400201C28002040
:105EA000014800687047000014040020074CDFF828
:105EB00020C0208980B200DFDFF818C000DF6168F1
:105EC0000029F9D000208847F6E70000F8030020F9
:105ED00099580108B158010870B50D4D286800287F
:105EE00015D0A8880B4E401EA8800AE0E088FEF777
:105EF00018FEA088A8802068286021463068FFF737
:105F000059FCA888002802D12C68002CEED170BD65
:105F100018040020200400202DE9F0411E461746F9
:105F200080460C4611F0FF0F00D14C1C1548FFF7BE
:105F30003BFB051E23D0200AAF626884E1B24246D3
:105F40002846EE61FFF75EFC104901240E480988DF
:105F500005E000EB840252F8042C1AB1641C8C4258
:105F6000F7D9002400EB840040F8045CEC7028466C
:105F7000FFF780FB0648006880F820402046BDE817
:105F8000F08100007C280020042A0020469B0108A4
:105F90000C04002002480068002800D0C078704738
:105FA0000C04002030B58FB014210AA8F6F7BBFB13
:105FB00028216846F6F7B7FBF9F7F0FFF7F7B6FFC9
:105FC00001250024CDE90A5429460AA8F8F726F845
:105FD00020B1412216A10020FCF7AEFD4FF4803025
:105FE000CDE9005002250294CDE907504FF4E010AE
:105FF00009906846F8F766F920B14D220CA10020FF
:10600000FCF79AFD0F20CDE90A054FF48060CDE939
:106010000C4002210AA80E94F8F700F8002804D0DA
:10602000582203A10020FCF787FD0FB030BD00000F
:106030002E2E5C2E2E5C2E2E5C736F757263655C4B
:106040006869635F68616C5C73746D33325C737430
:106050006D33326631303378625C73646B2E63006B
:106060002DE9F04114480078012801D100F040FDED
:10607000124C40F6C54521462846F9F725FB00207D
:10608000401C6428FCD30E4E40F6DD4731463846AE
:10609000F9F71AFB0020401C6428FCD3214628464F
:1060A000F9F712FB0020401C6428FCD33146384627
:1060B000BDE8F041F9F708BB380500200CED00E021
:1060C0000700FA052DE9F04100250024FDF760FFE7
:1060D000064605215748F6F726FB21215648F6F7D4
:1060E00000FB21215548F6F7FCFA09215448F6F740
:1060F0001AFB05214F48F6F716FB00BF00BF0AE068
:10610000504A52F825104C4A101902F0A9F92044BF
:10611000C4B2681CC5B2042DF2DB00222046611C0B
:10612000CCB245490A54002400250AE0464A52F8F8
:106130002510424A101902F093F92044C4B2681C99
:10614000C5B2042DF2DB00222146601CC4B23B48DC
:10615000425400243A4908193C49096802F080F980
:106160002044C4B22046611CCCB2354900220A54F6
:10617000FDF7FEFE0746042239462E48F6F7A7F93A
:106180002C49002008710024300BFEF733F801463B
:106190002F482246641C8154C6F30320FEF72AF8D8
:1061A00001462B482246641C8154FCF717FF012846
:1061B00002D0FDF7CFFA60B9082141EA261101F0BB
:1061C0000F00FEF717F82146621CD4B2204A505443
:1061D00008E0C6F30310FEF70DF82146621CD4B2A6
:1061E0001B4A505406F00F00FEF704F82146621CCB
:1061F000D4B2174A505400222046611CCCB2144934
:106200000A540024134830222146641C425432228E
:106210002146641C425435222146641C42543422D7
:106220002146641C425400222146641C4254BDE8AD
:10623000F08100003C000020D6050020F70500207A
:10624000180600207805002088050020280000207E
:1062500041000020460000202DE9F041364E07465F
:10626000B0694169384688470546B0698169384652
:106270008847044635B12CB14FF4806845450AD8AB
:10628000012009E040F235122CA10020FCF754FC5B
:106290000220BDE8F08100204FF49D7227A1FCF799
:1062A0004BFCB8FBF5F105FB118048B1002040F232
:1062B0003B1222A1FCF740FCAC4203D3012002E0D8
:1062C0000120F4E700204FF49E721CA1FCF734FC7F
:1062D000B4FBF5F005FB1040C0B1002040F23D12C8
:1062E00016A1FCF729FCB7FBF4F004FB1070381A78
:1062F000C6E903047060444500D34446B460B16904
:10630000096A29B1884704000AD101E00120E5E7C4
:10631000307850B1B069C168F0688847040004D093
:10632000B069406880472046B3E7FF221048B16853
:10633000F6F7CFF90020ACE7BC0000202E2E5C2E33
:106340002E5C2E2E5C736F757263655C6461706C7D
:10635000696E6B5C647261672D6E2D64726F705C28
:10636000666C6173685F6D616E616765722E630054
:10637000BC07002070B50025002400261148F6F760
:1063800030F8C6B2022000EB4600C2B20E482146E9
:10639000641C425403222146641C425400BF0EE098
:1063A0000848611C425D2046CCB207490A540022CD
:1063B0002046611CCCB204490A54681CC5B2B542DF
:1063C000EEDB70BD980500202106002010B53121BC
:1063D0000948F6F7A8F909490748F6F76CF808499B
:1063E0000548F6F768F807490348F6F764F80649E0
:1063F0000148F6F760F810BD980500203C00002029
:1064000041000020D60500201806002010B5EFF34B
:10641000108111F0010F72B6084C094BD96844F88D
:1064200021004FF00B0001F10101B1FBF0F400FB82
:106430001410D86000D162B610BD00003C240020CA
:10644000E403002010B5094C207840B100F08AF830
:106450006068C168064888470021217010BDC122CC
:1064600004A10020FCF768FB022010BD7C00002086
:10647000880600202E2E5C2E2E5C2E2E5C736F75EF
:106480007263655C6461706C696E6B5C6472616799
:106490002D6E2D64726F705C66696C655F737472CB
:1064A00065616D2E6300000070B5134C05462078C1
:1064B00008B1862202E0022D06D38C220FA1002013
:1064C000FCF73AFB022070BDFEF7A6FAA0604FF47D
:1064D00082711748F6F727F90120207006480C3022
:1064E00000EB051060604168114888470028EAD039
:1064F0000321217070BD00007C0000202E2E5C2E38
:106500002E5C2E2E5C736F757263655C6461706CBB
:10651000696E6B5C647261672D6E2D64726F705C66
:1065200066696C655F73747265616D2E630000004F
:10653000880600202DE9F041094D0E46074600244B
:1065400005EB0410314602683846904710B12046EA
:10655000BDE8F081641CE4B2022CF1D30320F7E71C
:106560008800002010B5FEF757FA0649896888426E
:1065700001D1012000E00020BDE81040632202A10B
:10658000FCF7DABA7C0000202E2E5C2E2E5C2E2E1C
:106590005C736F757263655C6461706C696E6B5C73
:1065A000647261672D6E2D64726F705C66696C65D4
:1065B0005F73747265616D2E6300000010B500F1A9
:1065C000080103220C4607A0F5F72AFF002806D091
:1065D0000322214604A0F5F723FF08B1032010BDD4
:1065E000012010BD42494E004845580070B5154D78
:1065F00006460C462878012806D0A52212A10020C4
:10660000FCF79AFA022070BDFFF7ACFF68682246DB
:1066100031468368194898470446132806D0142C3D
:1066200006D02CB103202870204670BD0220FAE766
:106630002878012800D00020B32203A1FCF77CFABF
:10664000F2E700007C0000202E2E5C2E2E5C2E2E09
:106650005C736F757263655C6461706C696E6B5CB2
:10666000647261672D6E2D64726F705C66696C6513
:106670005F73747265616D2E6300000088060020F0
:1066800010B51E21002000F0B5FC002800D001202C
:1066900010BD00002DE9F04393B00F46DDE91A89E3
:1066A00004461E46154644216846F6F73CF88DE838
:1066B0006003201DF6F75EF8099004F10800F6F774
:1066C00059F80D902046F6F755F8CDE90E074FF032
:1066D00080701090684600F043FC002819D0114DDE
:1066E000114E002411A9304600F0B8F980B111987C
:1066F000800311D56946002000F0FEF8002808D07C
:106700000A49304600F0CAFC002802D0009838B18F
:10671000002013B0BDE8F083641CAC42E2D3F7E77D
:106720000120F6E740420F00F0ED00E003005FA01B
:1067300010B5044600F006FF002801D104F07F40A8
:1067400010BD10B5F7F7BAF8F8F758FF012010BDE3
:106750002DE9F8430020411E0090324864260427AA
:1067600001600024DFF8C080416011E084B10121A4
:10677000002000F03FFC012000F0A0F90220FEF70D
:10678000FBF8002000F09AF90220FEF7F5F800244B
:10679000FFF7D7FFD8F8000010B1806800B180473C
:1067A000F8F708FAA0B3FFF76BFF88B300210820C1
:1067B00000F020FC60B34FF0A041042000F01AFC70
:1067C00030B300254FF0204909E06946042000F06D
:1067D000EDF8F0B1009939EA010002D06D1CB54224
:1067E000F3DBB54217D0012C15D01049042000F07E
:1067F00001FC68B1D8F8000010B1006900B1804711
:106800000021082000F0F6FB10B10120BDE8F8835C
:1068100001E00124E5E77F1E01247FB2002FA5DC03
:106820000020F3E76400002024040020000F005043
:1068300010B5094C00220D212046FEF736FB002240
:106840000E212046FEF731FB00220C212046FEF7E8
:106850002CFB012010BD0000000C0140F8B50D46D6
:10686000044662B396081749002000F0C1FA0028D8
:1068700026D00527042221466846FDF70BFE69460F
:10688000384600F0A5FA012819D10F270021384613
:1068900000F09EFA012812D10024761E07E0294656
:1068A000384600F095FA012809D1641C2D1DB44228
:1068B000F5D30E20294600F08BFA012800D00020E5
:1068C000F8BD00005200002338B50D4604460949C2
:1068D000002000F08DFA00280BD06946204600F019
:1068E00035F8002805D0A007C10E0098C8402870D0
:1068F000012038BD500000232DE9F0410E4601462D
:1069000000246425104800F0C9FB002810D00E4F69
:106910003F1F3146384600F0A1F8002808D0306803
:10692000C00302D4641CAC42F3DBAC4202D10020B1
:10693000BDE8F08104483146001D00F08FF80028C2
:10694000F6D00120F4E70000F4ED00E01CB50C46A1
:106950000146042201A8FDF79DFD052001A900F0D4
:1069600037FA012820D10F20694600F031FA0128BA
:106970001AD10E20694600F02BFA002222609DF801
:10698000031042EA016121609DF8022041EA0241C0
:1069900021609DF8012041EA022121609DF800203C
:1069A00011432160012800D000201CBD38B50C46E1
:1069B00000F00C006946801C00F00AFA00222260F8
:1069C0009DF8031042EA016121609DF8022041EA2E
:1069D000024121609DF8012041EA022121609DF8D9
:1069E000002011432160012800D0002038BD2DE98E
:1069F000F04114460F46054608E039462846FFF7A1
:106A000063FF002827D0641E6D1C7F1C14B3A807E9
:106A1000F3D111E0C5F30900C0F58066B44201D29C
:106A200024F00306324639462846FFF717FF0028B0
:106A300011D035443744A41B032CEBD808E0394669
:106A40002846FFF741FF002805D0641E6D1C7F1CFF
:106A5000002CF4D10120BDE8F081000070B50C4697
:106A600005460749002000F0C3F9002806D021465A
:106A70002846FFF76BFF002800D0012070BD000002
:106A8000520000231CB500206A46FF211154401C0F
:106A9000C0B20828FAD311463320F9F753FA01207F
:106AA0001CBD000001490870704700005C00002018
:106AB00001494860704700005C0000200A4910B599
:106AC000096821B1C96911B1BDE810400847012426
:106AD00018B1FFF7C5FA054803E0FFF7C1FA03480C
:106AE000001F046010BD000024040020140C0140AD
:106AF0000149024800F0D2BA0700FA050CED00E0A7
:106B0000F8B502240646062801D0FFF71AFE4E49C2
:106B10004E4D4F1C082E74D2DFE806F00415085ABB
:106B20005C748A910120FFF7C9FF88E00120FFF71C
:106B3000C5FF0220FDF720FF0020FFF7BFFF022066
:106B4000FDF71AFF79E0FFF703FE002878D0404EEA
:106B5000307801280BD00FE0641E64B2002C70DD89
:106B60000120FFF7ABFF0220FDF706FF0020FFF733
:106B7000A5FF0220FDF700FF3946284600F08EFAF7
:106B80000028E9D0314C01210C34204600F086FA6F
:106B9000002855D0307828B90120FFF78FFF022058
:106BA000FDF7EAFE0020FFF789FF0220FDF7E4FE73
:106BB00069462846FFF752FF002841D0009880031D
:106BC000F6D50021204600F069FA002838D036E0DA
:106BD0002846F8E7F7F7EEFF002831D0FFF750FD21
:106BE00000282DD00021082000F004FA002827D02A
:106BF0004FF0A041042000F0FDF9002820D03946D4
:106C0000E6E71EE0FFF7A4FD002819D00E4928464C
:106C1000C91C00F043FA002812D069462846FFF745
:106C20001DFF00280CD000988003F6D507E007E090
:106C3000284600F033FA002802D0FFF7F9FD0120C2
:106C4000F8BD0020F8BD000000005FA0F0ED00E0FE
:106C50005C000020F8B502240546062801D0FFF7A5
:106C600070FD57492A46CE1C564D082A7ED2DFE8D1
:106C700002F0041508696B859BA20120FFF71EFF37
:106C800099E00120FFF71AFF0220FDF775FE0020B2
:106C9000FFF714FF0220FDF76FFE8AE0FFF758FDB3
:106CA00000287DD00FE0641E64B2002C5EDD012060
:106CB000FFF704FF0220FDF75FFE0020FFF7FEFE56
:106CC0000220FDF759FE3146284600F0E7F900287A
:106CD000E9D069462846FFF7C1FE00286CD000982D
:106CE0008003F6D5374C01210C34204600F0D6F94C
:106CF000002861D0334E6946E43E3046FFF7AEFED1
:106D0000002859D0009800F4E0612F484068014302
:106D10002E480143304600F0C1F900284CD0022033
:106D2000FDF72AFE69462846FFF798FE002843D063
:106D300000988003F6D50021204600F0AFF9002826
:106D40003AD038E02846F8E7F7F734FF002833D088
:106D5000FFF796FC00282FD00021082000F04AF908
:106D6000002829D04FF0A041042000E025E000F0E9
:106D700041F9002820D01249491CE3E7FFF7E8FC5D
:106D8000002819D03146284600F088F9002813D091
:106D900069462846FFF762FE00280DD0009800E003
:106DA0000AE08003F4D506E0284600F077F90028D1
:106DB00002D0FFF73DFD0120F8BD0020F8BD000026
:106DC00000005FA0F0ED00E05C0000200000FA058C
:106DD00070B50D460646002429463046F8F79CFD5E
:106DE000022803D1641CE4B2642CF5D370BD00000A
:106DF00038B50D460446FFF79BFC04F0F00240EA6C
:106E00000201082000F0F6F8002805D034B90E4839
:106E10004168A94201D1012038BD456004F00C044D
:106E2000042229466846641CFDF734FB6946204667
:106E3000FFF7CEFF012805D10E200021FFF7C8FF84
:106E40000128E9D0002038BD64000020F8B50D46C7
:106E500004462AB3960813490020FFF7C9FF00280B
:106E60001FD00527042221466846FDF713FB69461B
:106E70003846FFF7ADFF012812D10D27002407E0A7
:106E800029463846FFF7A4FF012809D1641C2D1DAF
:106E9000B442F5D30E200021FFF79AFF012800D05D
:106EA0000020F8BD5200002370B50C460546084985
:106EB0000020FFF79DFF002809D0A807C00E04FAA4
:106EC00000F1284600F02CF8002800D0012070BD09
:106ED0005000002373B50646002464250F4801992D
:106EE00000F0DCF8002813D00C4846F48031001F75
:106EF00000F0D4F800280BD0084E083E01A9304617
:106F0000FFF7ACFD002803D00198C00301D5012094
:106F10007CBD641CAC42F1DB00207CBDF8ED00E0E0
:106F200038B50C46014604226846FDF7B3FA052041
:106F30006946FFF74DFF012810D10422214668461B
:106F4000FDF7A8FA0D206946FFF742FF012805D199
:106F50000E200021FFF73CFF012800D0002038BDA3
:106F600038B505460021082000F044F800283AD042
:106F70000024204655F82410FFF7ACFF002832D03B
:106F8000641C042CF5D30920696AFFF7A3FF0028CD
:106F900029D00D24204655F82410FFF79BFF002828
:106FA00021D0641C102CF5D31020296CFFF792FF20
:106FB000002818D00E4C0D49204600F06FF800282C
:106FC00011D00A492046891E00F068F800280AD02E
:106FD00069460420FFF7EAFC002804D0009810F06E
:106FE000A00F01D0002038BD012038BD0B005FA0EC
:106FF000F0ED00E0F8B50D4E04460D46082802D12C
:107000003068A84210D004F00C0704226846FDF74F
:1070100041FA69463846FFF7DBFE012801D000201F
:10702000F8BD082C00D135600120F8BD64000020B7
:107030002DE9F04114460D46064608E02978304611
:10704000FFF732FF002827D0641E6D1C761C14B396
:10705000B007F3D111E0C6F30900C0F58067BC4268
:1070600001D224F003073A4629463046FFF7EEFEE8
:10707000002811D03E443D44E41B032CEBD808E02B
:1070800029783046FFF710FF002805D0641E6D1CDC
:10709000761C002CF4D10120BDE8F08170B50C46BF
:1070A000054607490020FFF7A3FE002806D0214629
:1070B0002846FFF735FF002800D0012070BD0000F2
:1070C0005200002310B5FDF7A7FC07494968884224
:1070D00001D1012000E00020BDE8104040F269121B
:1070E00002A1FBF729BD0000FC0000202E2E5C2E23
:1070F0002E5C2E2E5C736F757263655C6461706CC0
:10710000696E6B5C647261672D6E2D64726F705C6A
:107110007666735F6D616E616765722E6300000055
:1071200002480021C068FDF73DBC0000FC000020C3
:107130000148C068FDF748BCFC0000200248007808
:10714000012800D0002070476C0000200248007821
:10715000012800D000207047D80000202DE9FC4114
:107160001F480546F5F706FBA8B3002600F10C04FE
:107170001BE0384600F098F900282AD10120FCF7DE
:107180004DFD060025D11748476807F10800F5F7BF
:10719000F1FA002100910B460A460191014607F1E0
:1071A0001800FFF777FAB8B114342046F5F7E2FA81
:1071B0000700DED1201DF5F7DDFA0028D9D12846D9
:1071C000F5F7D8FA90F8A20110B100F087F806465A
:1071D0003046BDE8FC8101E01020FAE70120F8E725
:1071E000429201086C0000207CB505461548F5F771
:1071F000C1FA28B31448446844B1284600F026F880
:10720000B5FBF0F100FB1150C0B901E002207CBDDC
:107210000120FCF703FD0028F9D104F10C00F5F77B
:10722000A9FA002100910B46019101462A4604F17A
:107230001800FFF72FFA08B100207CBD0F207CBD9D
:1072400001207CBD429201086C00002070B505460B
:107250001448F5F78FFA061E23D006F10800F5F75B
:1072600089FAB8B1441E15D4301DF5F783FA00EB46
:10727000C400F5F77FFAA8420AD8301DF5F77AFA6C
:10728000042101EBC401BDE870400844F5F772BA6F
:10729000641EE9D54FF4BD7203A10020FBF74CFC3E
:1072A000002070BD429201082E2E5C2E2E5C2E2EE8
:1072B0005C736F757263655C6461706C696E6B5C46
:1072C000696E746572666163655C7461726765742A
:1072D0005F666C6173682E630000000070B517482C
:1072E0000446F5F747FA30B3154D00206870686022
:1072F000012000F031F928B12046F5F73BFA00F102
:107300000C040AE0072070BD04F10800F5F732FA1A
:10731000C00701D0AC600AE014342046F5F72AFA21
:107320000028F1D1201DF5F725FA0028ECD1012025
:107330002870002070BD012070BD0000429201083D
:107340006C0000202DE9FF5F8146154688464848BD
:10735000F5F710FA002868D04648476897B14648C4
:10736000006838B143692BB12A46414648469847E0
:1073700001280BD00220FCF751FC4FF0000B002835
:1073800001D14DE0022004B0BDE8F09F0D20FAE7E6
:1073900007F13400F5F7EEF9A84201D92C4600E0D8
:1073A000044607F124000290F5F7E4F9224641462D
:1073B000FFF73EFEC0B30298F5F7DCF9824607F10D
:1073C0001000F5F7D7F9014607F118005E4623468D
:1073D0004A460390CDE900ABFFF75CF930B3FBF709
:1073E00037FDD0B107F114000090F5F7C3F990B361
:1073F0000320FCF713FC0028C5D10298F5F7BAF971
:1074000082460098F5F7B6F9CDE900A60146234675
:107410004A460398FFF73EF9D8B1A144A0442D1B7A
:10742000002DB5D10020AEE716E01EE01120AAE73E
:10743000102C01D2264600E0102632466946484606
:10744000FFF7D5FA40B1324669464046F4F79DFF52
:1074500020B1122097E705E00A2094E7AD1BB14464
:10746000B044A41B002CDBD0E2E701208BE7000036
:10747000429201086C0000202404002070B50546EB
:107480000848F5F777F900280BD04FF480742846A8
:10749000FFF7DCFEA04203D22846FFF7D7FE0446E2
:1074A000204670BD429201082DE9F041FCF78EFDA7
:1074B00004001FD0114D6868A04218D00020FCF7CE
:1074C000ADFB002814D104F12C00F5F753F9074661
:1074D00004F13000F5F74EF9064604F12800F5F7FF
:1074E00049F93A463146FFF7A3FD28B16C60002008
:1074F000BDE8F0810920FBE70820F9E76C000020D7
:1075000010B50E48F5F736F9B0B10020FCF786FB50
:10751000002810D1FBF794FC08B1022000E0012004
:1075200000F01AF8072000F017F80549002008704D
:10753000FFF77EF9002010BD012010BD4292010826
:107540006C0000200348006810B1806A002800D158
:10755000002070472404002070B505461548F5F753
:1075600009F9010001D02846884713480468FCB196
:10757000A16919B12846BDE870400847A0780128E4
:1075800003D0022806D0012070BD2846BDE8704017
:10759000FFF7B6BA0748001DF5F7ECF808B96068C0
:1075A00008B1FFF785FA2846BDE87040FFF752BBE7
:1075B000002070BDA492010824040020884203D357
:1075C000904201D8012070470020704710B50B4C45
:1075D0000221E068FDF700FAA0680321B0FBF1F298
:1075E00001FB1201401CA060002905D1E068BDE844
:1075F00010400121FDF7F0B910BD00004C00002043
:107600002DE9F0411E4C15460E4694F8230038B182
:10761000BDE8F0414FF430721AA10020FBF78CBA9C
:10762000E8051FD000204FF4317216A1FBF784FA51
:1076300094F8210040F2C52212A1FBF77DFA2946F9
:107640003046FEF7D3FF0027012613280CD014285C
:1076500011D084F82470616929446161BDE8F0416A
:1076600000F0D0B80120DEE7FEF7ECFE84F82170D0
:1076700084F8236000E0002084F82460EBE7000039
:10768000081200202E2E5C2E2E5C2E2E5C736F7541
:107690007263655C6461706C696E6B5C6472616777
:1076A0002D6E2D64726F705C7666735F6D616E61B6
:1076B0006765722E6300000070B51C4D06460C46CF
:1076C00095F82100002811D0002040F2852218A151
:1076D000FBF732FA601C00D0012040F2862214A190
:1076E000FBF72AFA6868401C02D002E00120ECE7B0
:1076F0006C6095F82700032801D185F82760686839
:10770000A04203D195F82700B04201D0032008E041
:107710003046FEF7C9FE20B945F80C4F01216975C6
:10772000A975BDE8704000F06DB800000812002097
:107730002E2E5C2E2E5C2E2E5C736F757263655C34
:107740006461706C696E6B5C647261672D6E2D6430
:10775000726F705C7666735F6D616E616765722EC5
:107760006300000030B4194C94F82050032D02D06F
:1077700025683DB107E030BC40F2352214A100205D
:10778000FBF7DAB92060A068401C00D1A16094F832
:107790002700032801D184F82730A069904205D939
:1077A000E069904202D90AB103200CE0481C02D0E3
:1077B000A0688842F8D1032B03D094F827009842A0
:1077C000F2D10020A26130BC00F01CB808120020E9
:1077D0002E2E5C2E2E5C2E2E5C736F757263655C94
:1077E0006461706C696E6B5C647261672D6E2D6490
:1077F000726F705C7666735F6D616E616765722E25
:10780000630000002DE9F0470446132803D0142C30
:1078100001D0012000E0002040F2E52243A1FBF767
:107820008BF94F4D95F8200003280CD0296891B1B1
:10783000D5E9060282420ED368B1D5E90102904231
:1078400009D1012008E0BDE8F04740F2E92237A164
:107850000020FBF771B9002085F8250095F82690E7
:1078600019B995F82710032901D0012100E0002162
:10787000884620B195F8241009B1012600E00026C1
:1078800095F8231011B108B1012000E000208246D4
:1078900028690027401C10D06868401C00D00120D7
:1078A00040F2073221A1FBF747F969682869401ABD
:1078B00069694002814200D90127032014B185F88B
:1078C00020001DE0B9F1000F09D00FB10624F6E742
:1078D000B8F1000FF3D0002EF1D10424EFE7BAF194
:1078E000000FECD10EB1022003E0B8F1000F03D07D
:1078F000012085F8200012E095F8200003280BD124
:1079000095F8210030B1FEF79DFD002185F821108A
:1079100004B9044613480470B9F1000F03D1BDE85F
:10792000F04701F081B8BDE8F08700002E2E5C2EF4
:107930002E5C2E2E5C736F757263655C6461706C77
:10794000696E6B5C647261672D6E2D64726F705C22
:107950007666735F6D616E616765722E630000000D
:1079600008120020FC0000202DE9F041254886B0D7
:107970000168254A11400160FBF748FA2348C169B4
:1079800041F40031C161C16901F4003104918169A0
:1079900041F0040181618069022600F00400049036
:1079A0000420CDE90006DFF86880032469460394CB
:1079B0004046F6F7B7F9082000270125CDE9000772
:1079C000CDE9025469464046F6F7ACF9CDE90057D7
:1079D000CDE9025469464046F6F7A4F90022022197
:1079E0004046F6F783FACDE90065694640460394C0
:1079F000F6F798F907494020C1F8000106B00120C8
:107A0000BDE8F0810C4400405FFFFFEF0010024032
:107A10000008014004E000E00A4601460148FBF787
:107A2000C7B90000E01F002070B5064D2C6806485D
:107A300020402860FBF7EAF90348203004402C601E
:107A4000012070BD0C4400405FFFFFEF70B590B0A7
:107A5000044640216846F4F766FE2F4800902F4BFD
:107A60006179002259714FF4C0604FF4806501299B
:107A70001AD002291AD0049201B15A71A1799971D0
:107A80004FF40056022913D0012913D0039201B1FB
:107A90009A71082119710499814201D0A9420DD12E
:107AA0004FF4805002900AE00490E7E70495E5E780
:107AB0000396EEE7022103969971EAE70292DA71E2
:107AC0000692206818600190134C0C200C3405902D
:107AD0002068134908402060FBF798F96846F6F7DC
:107AE000ADFFA0B10020C5220EA1FBF725F8684626
:107AF000F6F7C2FF68B10020C7220AA1FBF71CF805
:107B0000206815490843206010B0012070BD012095
:107B1000E9E70120F0E7000000440040D80200201F
:107B20005FFFFFEF2E2E5C2E2E5C2E2E5C736F758A
:107B30007263655C6869635F68616C5C73746D3304
:107B4000325C73746D33326631303378625C7561E8
:107B500072742E6300000000200000100A4610B569
:107B600001460448FBF73BF903490A68034B1A43F3
:107B70000A6010BDD01D00200C44004080000010A1
:107B80000148FBF767B80000D01D002010B50D4C70
:107B9000207830B100202070FAF78AFF40B11E2013
:107BA00010BD842208A10020FAF7C6FF022010BDF4
:107BB000607810B9FBF766FB08B1002010BD2420E7
:107BC00010BD0000D80000202E2E5C2E2E5C2E2E24
:107BD0005C736F757263655C6461706C696E6B5C1D
:107BE000647261672D6E2D64726F705C6961705F85
:107BF000666C6173685F696E74662E6300000000D6
:107C00002DE9F0410F460446F4F76BFD20468CA1A8
:107C100000F04EFC0546601992A100F049FC0544B5
:107C2000601999A100F044FC054460199AA100F084
:107C30003FFC054460199CA100F03AFC0544FBF7A9
:107C4000FFF808B19CA100E09CA1601900F030FC95
:107C50000544601982A100F02BFC0544601998A12D
:107C600000F026FC0544FBF7F3F808B192A100E010
:107C700092A1601900F01CFC0544601978A100F085
:107C800017FC0544601994A100F012FC0544FBF7B1
:107C9000E7F808B188A100E088A1601900F008FCAD
:107CA000054460196EA100F003FC0544FBF7EAFAF5
:107CB00008B18FA600E091A6601993A100F0F8FB2F
:107CC00005446019314600F0F3FB0544601964A1D6
:107CD00000F0EEFB05446019314600F0E9FB054475
:107CE00060198DA100F0E4FB0544FBF7CBFAA0B9C5
:107CF000FCF7F0FA88B160198BA100F0D9FB0544BC
:107D0000FCF7FCFA01466019042200F004FC05446B
:107D1000601953A100F0CCFB0544FBF7B5FAA0B9FC
:107D2000FCF70AFB88B1601985A100F0C1FB05448E
:107D3000FCF716FB01466019042200F0ECFB054439
:107D4000601947A100F0B4FB0544601981A100F05F
:107D5000AFFB0544601982A100F0AAFB054460193D
:107D60003FA100F0A5FB0544601981A100F0A0FB34
:107D70000544601982A100F0A4FB0544601938A1F4
:107D800000F096FB0544601981A100F091FB0544C9
:107D9000601984A100F08CFB0544601982A100F0F9
:107DA00087FB0544601982A100F082FB054460193D
:107DB00081A100F07DFB0544601929A100F078FB4A
:107DC0000544FCF787FA80B160197EA100F070FBD2
:107DD0000544FCF79DFA0146601900F041FB05449B
:107DE00060191FA100F064FB054460197AA100F03E
:107DF0005FFB0544FCF792FA0146601900F030FB86
:107E00000544601916A100F053FB0544601977A1E1
:107E100000F04EFB794905446019496800F051FBB8
:107E2000054460190EA100F043FB2844204474A1CE
:107E300000F03EFB39462046BDE8F041FBF71ABB97
:107E400023204441504C696E6B204669726D776106
:107E500072652062792050656E677A686968756915
:107E60000D0A00004275696C642054696D653A2002
:107E700041707220313820323032302032333A3083
:107E8000393A33320D0A0000556E69717565204923
:107E9000443A2040550D0A004849432049443A20BD
:107EA00040440D0A000000004175746F2052657354
:107EB00065743A200000000031000000300000002E
:107EC0004175746F6D6174696F6E20616C6C6F7752
:107ED00065643A20000000004F766572666C6F772B
:107EE00020646574656374696F6E3A200000000059
:107EF000426F6F746C6F616465720000496E7465E7
:107F000072666163650000004461706C696E6B208D
:107F10004D6F64653A2000002056657273696F6E7C
:107F20003A2040560D0A0000426F6F746C6F616416
:107F300065722056657273696F6E3A20000000000A
:107F4000496E746572666163652056657273696F08
:107F50006E3A2000476974205348413A20000000DF
:107F60004749545F434F4D4D49545F5348410000CA
:107F70004C6F63616C204D6F64733A200000000009
:107F80004749545F4C4F43414C5F4D4F44530000B1
:107F900055534220496E74657266616365733A2079
:107FA000000000004D5344002C20434443000000D7
:107FB0002C204849440000002C205765625553424C
:107FC00000000000426F6F746C6F61646572204343
:107FD00052433A2030780000496E746572666163DE
:107FE00065204352433A20307800000052656D6F9F
:107FF000756E7420636F756E743A20000C0100205A
:1080000055524C3A2040520D0A0000002DE9F0472D
:1080100043A392B00ECB8DE80E00DFF80081002460
:10802000404609226946F4F752FA0927FAF7D6FFC3
:108030003E4D012861D0FBF78DFB00285DD027461F
:108040002C71012408F10906182239A16846F4F7B9
:108050000EFB172269463046F4F739FAB77020272D
:1080600000F082F92C702046641CA9466C70651CD7
:108070000446C24608EB0706442233496846F4F733
:10808000F6FA422269463046F4F721FA06F8024F22
:108090004237347286F82040641C86F8214086F806
:1080A0002B40F8F70DFB89F803506E1C0AEB07080C
:1080B0002C46202225A16846F4F7D9FA20226946E9
:1080C0004046F4F704FA88F80240203700F0E8F858
:1080D00026A289F8056007CA8DE807000AEB0705A4
:1080E0003446092269462846F4F7F1F90F48AC7086
:1080F0000A30847312B0BDE8F087E8880749401E53
:10810000E8800871742088700020C8701A4988F8C7
:108110007400088817380880A4E70000F0210020C8
:1081200009028B0005010080FA000000E002002037
:1081300009040000020806500807058202400000FA
:108140000705020240000000049B0108090400002A
:108150000203000006092100010001222100070599
:1081600081034000010705010340000109040000EC
:1081700000FF030007000000E802002002484078EA
:10818000002800D001207047A8040020F8F708BCA0
:10819000002070477CB51C46154601281CD10CB147
:1081A000012C19D101AA69460C48F5F709FC70B1F8
:1081B000019A402A05DD4F2209A10020FAF7BCFCF4
:1081C0000AE028460099F4F782F940207CBD012C92
:1081D00002D10D490120087000207CBDEC2A00204E
:1081E0002E2E5C2E2E5C2E2E5C736F757263655C7A
:1081F0007573625C6869645C757362645F757365EE
:10820000725F6869642E6300280500202DE9F04143
:1082100007461D4816460088824202DD0020BDE860
:10822000F0811A4800780028F9D0194C01224FF04B
:108230000008E26000E098B16288002AFBD1154D89
:108240003246681C2F70F4F742F96561A4F8048087
:1082500066801148007801280BD86D1C65610BE021
:10826000C4F80C80C4F81480A4F80480A4F8028038
:10827000D4E76088401C60800020F8F787FE07483C
:1082800000F807800120CAE72C990108A904002002
:10829000CC040020F82200202A990108DE030020E7
:1082A0000249012008700248F5F7ACBB2805002000
:1082B000EC2A0020002070477047000038B50124E8
:1082C0001D461146022813D1002D11D00878072829
:1082D0000BD06B462A461048F5F73EFB90B100984C
:1082E000FFF7E8FF012804D004E00C4901200870E2
:1082F00038BD00240A4D287848B1FBF781FF0020E3
:10830000287004E0852207A10020FAF715FC20461A
:10831000FCF7D0F938BD0000EC2A00200000002056
:10832000280500202E2E5C2E2E5C2E2E5C736F7581
:108330007263655C7573625C6869645C75736264C2
:108340005F757365725F6869642E6300054910B5D7
:108350000020C870FFF75AFEF9F748FFBDE810404B
:10836000F9F7BAB8A804002010B5FCF755FB074C84
:1083700060600020FCF71EFBE060FAF701FC0020C3
:1083800060700349A070A060086010BDFC00002070
:10839000F404002070B514460D460646FEF792FE22
:1083A000074B1868002809D00120FCF78BF92246FA
:1083B00029463046BDE8704000F0C0BB70BD0000EB
:1083C000F4040020704700002DE9F04115460E46E8
:1083D0000746FEF777FE1048006800281AD00F49BC
:1083E0000F4C0020886094F82000032812D0012050
:1083F000FCF768F92A463146384600F085FD94F8C6
:108400002000032806D02A4631463846BDE8F04110
:10841000FBF724B9BDE8F081F4040020FC00002043
:108420000812002006484FF0011201780548C1806B
:10843000002101704170C0E9022101617047000014
:108440001C990108A804002010B5EFF3108000F07B
:10845000010472B6FAF77AFD002C00D162B610BDA5
:1084600070B50D460446090E00F014F80646A01932
:10847000C5F3074100F00EF80644A019C5F3072123
:1084800000F008F80644E9B2A01900F003F83044FF
:1084900070BD0000054A02EB111301F00F011B78BB
:1084A0000370515C41700220704700007C9301080A
:1084B0000346002001E01A54401C0A5C002AFAD14D
:1084C0007047F0B50646002002460B460A2504E038
:1084D000B3FBF5F3401C42F10002002BF8D150EA47
:1084E000020301D10120002200231F460EE0B1FB50
:1084F000F5F405FB1414B1FBF5F13034B0EB030CCB
:10850000BCF1010C03F1010306F80C401C1A77EBD7
:108510000204ECD3F0BD2DE9F04115460E460746A6
:10852000FFF7CFFF0446A8420AD230222946384638
:10853000F4F7CFF8281B38443146FFF7C2FF28462E
:10854000BDE8F0812DE9F84380462E48006840B12F
:10855000016A31B140468847002800D00120BDE8BB
:10856000F88329488146F4F705F9041EF7D0002066
:108570000425074600902A4641466846F3F7A7FFC0
:10858000D4340AE0201DF4F7F5F80246314600988D
:10859000FFF714F8012830D014342046F4F7EAF835
:1085A0000600EFD1201DF4F7E5F80028EAD13FB32B
:1085B00023E0002608EB050104226846F3F787FF55
:1085C0004846F4F7D7F800F10C040AE0201DF4F750
:1085D000D1F8024639460098FEF7F0FF01280BD08B
:1085E00014342046F4F7C6F80700EFD1201DF4F745
:1085F000C1F80028EAD11EB12D1D0C2DD9D9ADE747
:108600000020ACE724040020429201080B490968CD
:1086100011B1496A01B1084701783A290AD1007AB3
:10862000302809D0322807D0332805D0342803D089
:10863000352801D000207047012070472404002015
:108640002DE9FF5F994692468B460098FBF746F866
:1086500040F2971240A1FAF76FFA4C4900264C4DB0
:10866000087BCA7A497B42EA0020484309EB0001B3
:10867000491EB1FBF0F7B9F1000F19D00024A7F1A2
:108680000108EE6809E0E968481C82B2414800F040
:1086900033FDE868401C641CE8604445F3D34FF6A2
:1086A000FF723C48E96800F027FDE868401CE8607C
:1086B0002869202802D34FF4D6721FE036492022C1
:1086C00001EB4014401C286134492046F3F7FFFEBB
:1086D0000B2220460099F3F7FAFE04F11C014846EC
:1086E000F4F753F8300C2075000A6075A676300A4E
:1086F000E076A968102909D34FF4DD7216A1002095
:10870000FAF71AFA002004B0BDE8F09F224B01EB03
:108710004100C03B224A43F8202003EB8002214E57
:108720005660BBF1000F01D043F820B0BAF1000F42
:1087300001D0C2F804A01548491C037BC67A407BCF
:1087400046EA032343437B439360A9602878401C97
:1087500028702046D7E700002E2E5C2E2E5C2E2E91
:108760005C736F757263655C6461706C696E6B5C81
:10877000647261672D6E2D64726F705C76697274BD
:1087800075616C5F66732E63000000007414002036
:108790001401002074160020341900205897010895
:1087A0007554010831920108C07A70471C30F3F704
:1087B000E1BF000010B50446FFF7F8FF88B1E07E86
:1087C000A17E41EA00220848921E017BC37A407BC9
:1087D00043EA0121054B5B69B3FBF1F102FB001099
:1087E00010BD4FF0FF3010BD7414002014010020A4
:1087F000C172704770B50F48017DC07C50EA0124FA
:108800000C48017BC07A40EA012501D06C430EE0A0
:1088100008482030F3F7AEFF10B100FB05F406E086
:10882000002440F28B1204A12046FAF785F9204675
:1088300070BD0000741400202E2E5C2E2E5C2E2E97
:108840005C736F757263655C6461706C696E6B5CA0
:10885000647261672D6E2D64726F705C76697274DC
:1088600075616C5F66732E63000000002DE9F041B6
:108870000F4680464FF4007631464E48F3F753FFDB
:1088800031464D48F3F74FFF4C4C0025C0214C4872
:10889000E560F3F748FF4A487100C030F3F743FF43
:1088A000256125704748C4E90105324646494148DB
:1088B0006561F3F7DCFE3F4E07F58037307BF17AD8
:1088C00041EA0020B7FBF0F7707B40F62D014143F1
:1088D000B7EB410F09D24FF4AC723CA10020FAF77C
:1088E0002BF9777B41F25A000DE04FF69171484326
:1088F000B84209D240F25B1234A10020FAF71CF909
:10890000777B4FF6917047432A492031B7F5803F76
:1089100004D3F574280A3075384603E0F774380A32
:1089200030750020F3F731FF707B40F2FF11B7FB89
:10893000F0F001EB4000C0F34F27F78230223049BE
:108940001F48F3F794FE1E4978024861086204202C
:108950006561A060002000EB400201EB82026369C8
:108960009268401C1A4462610428F4D34FF6F872EE
:1089700029461148E56000F0BFFBE1684FF6FF7241
:10898000491C0D48E16000F0B7FBE0681C49401C41
:10899000C4E903050A4D2022C03528463031F3F7DB
:1089A00096FD28460B224146F3F791FD01202061F8
:1089B000BDE8F0817414002074160020140100201A
:1089C0007418002089350108089501082E2E5C2EA8
:1089D0002E5C2E2E5C736F757263655C6461706CC7
:1089E000696E6B5C647261672D6E2D64726F705C72
:1089F0007669727475616C5F66732E6300000000A7
:108A00000897010810B50446FEF78AFB05493CB1FA
:108A1000887808B902208870BDE81040FEF788BB4E
:108A20000020F8E7FC00002010B5FEF779FBFAF70C
:108A300005F928B904484178022901D10121817042
:108A4000BDE81040FEF774BBFC00002010B5FEF737
:108A500039FB0148007810BDFC0000202DE9F041F1
:108A60000446FEF72FFBFEF75BFBFAF7E7F880B151
:108A7000FCF708FD214A4EF660239168994201D225
:108A80002144916028B1947855785470012C06D116
:108A900003E0BDE8F041FEF74BBB022090700026DA
:108AA0009660FEF745FB0127CDB1012D17D0022DB1
:108AB00015D1134D95F82000032804D085F82670B1
:108AC0000020FEF79FFE95F82000032812D000201A
:108AD00040F211120BA1FAF72FF800F0F9F8164D39
:108AE00054B1012C08D0022C02D1FAF749F82F60BA
:108AF000BDE8F0810120EBE72E60F9E7FC000020E3
:108B0000081200202E2E5C2E2E5C2E2E5C736F75AC
:108B10007263655C6461706C696E6B5C64726167E2
:108B20002D6E2D64726F705C7666735F6D616E6121
:108B30006765722E63000000F40400202DE9F04701
:108B40008A4604461546002651025046F3F7C9FDF1
:108B5000DFF84890002006EB460209EB82018442D0
:108B6000896800EB512188460ED38C420CD2A8EBC9
:108B70000407AF4200D32F4659F82230201A3A4654
:108B8000514698473C44ED1B002D04D0761CF6B2AC
:108B90004046102EDFD3BDE8F08700007418002097
:108BA0000149486070470000140100201CB52F4C9B
:108BB000E07F10B104F11F0000E02DA04FF08061B4
:108BC000FFF754FE2D48FBF7F9F90346207D10B15D
:108BD0002648143000E02AA000222849FFF730FD83
:108BE0002A48FBF7EBF903460022284928A0FFF7A3
:108BF00027FDFFF72BFF40B12848FBF7DFF90346BD
:108C00000022264926A0FFF71BFD284B41219A1C74
:108C10002748FAF7A9F958B12648FBF7CFF90346D8
:108C2000002224492448FFF70BFD0021FFF7E0FD57
:108C30004FF00060019021480090FAF725FB0028D2
:108C400013D0DDE900104FF48062F3F79EFB00289B
:108C50000BD11B48FBF7B2F902B00346BDE8104048
:108C60000022174917A0FFF7EBBC1CBD3292010888
:108C70004472616720546F20476F2000D153010870
:108C80004D595F504147452048544D001953010844
:108C900044455441494C5320545854002D53010825
:108CA0004641494C20202020545854000C010020FB
:108CB00030140020E1510108E994010800C00008C7
:108CC000095401084E4545445F424C205458540015
:108CD00010B5FAF7D7FA20B1FFF7B8FE08B9F7F7E1
:108CE000B5F9FAF7D1FA40B1FAF78CF918B9FAF7F1
:108CF00075F9012801D1F7F7A9F902484168491C23
:108D0000416010BD0C01002070B50C460546FBF714
:108D10008FF910B9FBF78AF908B1012200E00022AF
:108D20001AB9FAF795F8002871D074B1012C6ED1F8
:108D30000B2245492846F3F728FB002867D1FFF7A7
:108D400083FBBDE87040FFF76FBE0B223F4928460A
:108D5000F3F71BFB00284ED00B223DA12846F3F76A
:108D600014FB00284FD00B223CA12846F3F70DFB43
:108D7000002849D00B223CA12846F3F706FB002827
:108D800046D00B223BA12846F3F7FFFA0028D8D0A3
:108D90000B223BA12846F3F7F8FA00283FD00B221C
:108DA0003AA12846F3F7F1FA002839D00B223AA16C
:108DB0002846F3F7EAFA002835D00B2239A12846D5
:108DC000F3F7E3FA00283AD00B2239A12846F3F74B
:108DD000DCFA98B30B2239A12846F3F7D6FA38B15A
:108DE0000B2239A12846F3F7D0FA00282BD1012015
:108DF000FAF73EF9A5E7FAF747FA0028A1D00120D3
:108E0000FAF73CF99DE70120FAF790F999E71AE0A3
:108E1000BDE870409E222FA10020F9F78DBE0120F1
:108E2000FAF78CF98DE7374C206800688047206896
:108E30000069804720684068804782E700E00120A1
:108E4000FAF784F97DE770BDE9940108AC92010856
:108E50004155544F5F525354434647004841524492
:108E60005F525354434647004153534552542020C8
:108E70004143540052454652455348204143540013
:108E80004155544F5F4F4E20434647004155544F84
:108E90005F4F4646434647004552415345202020F8
:108EA000414354004F56464C5F4F4E2043464700C7
:108EB0004F56464C5F4F4646434647004D53445F2E
:108EC0004F4E2020414354004D53445F4F464620AF
:108ED000414354002E2E5C2E2E5C2E2E5C736F753B
:108EE0007263655C6461706C696E6B5C647261670F
:108EF0002D6E2D64726F705C7666735F757365722C
:108F00002E630000789301082DE9F05F04460026E7
:108F100015468B463046DFF85090DFF850A01CE035
:108F200006EB460209EB82028442916800EB512174
:108F300088460DD38C420BD2A8EB0407AF4200D376
:108F40002F465368201A3A46594698473C44ED1B31
:108F5000002D06D0761C4046F6B2DAF808108E4294
:108F6000DED3BDE8F09F000074180020140100203B
:108F7000FEB5044690F8300015460F46302801D360
:108F8000606B31E0C0F13006AE4200D3164620449B
:108F90003246F3F79CFA94F830003044C1B284F8BA
:108FA0003010302901D20020FEBD00233744AD1B14
:108FB0001A462046FAF712FC08B302A900220091D3
:108FC00001AB1146FAF75EFC0028EDD10198606311
:108FD00094F830202146FAF771FD0028E4D194F886
:108FE0003010606B084460632A463946FAF766FD24
:108FF0000028D9D1606B284460631420FEBD1C207A
:10900000FEBD00002DE9F84F894681184FF48063BA
:10901000B3EB412F07D2BDE8F84F40F27E2227A1E3
:109020000020F9F789BD41024B0951024FEA511B5B
:1090300000912F4901EB431A10B100262D4F33E068
:109040000126FBE709EB46140AEB461520222146D0
:109050002846F3F79AF930B3214628460B22F3F756
:1090600094F978B100208046D7F804C023462A46F8
:1090700020460221E0472078E52805D0B8F1000F0E
:1090800007D010E00120EEE72A46234610460121D2
:1090900007E02046FAF722FB28B123462A46184665
:1090A00000217C68A047761C5E45CBD350464946DC
:1090B000009ABDE8F84FF3F70ABA00002E2E5C2E96
:1090C0002E5C2E2E5C736F757263655C6461706CD0
:1090D000696E6B5C647261672D6E2D64726F705C7B
:1090E0007669727475616C5F66732E6300000000B0
:1090F000341900201401002030B44B00012404EB8B
:109100004101B1F5007F06D330BC40F23B1204A10F
:109110000020F9F711BDC254120A425430BC704706
:109120002E2E5C2E2E5C2E2E5C736F757263655C2A
:109130006461706C696E6B5C647261672D6E2D6426
:10914000726F705C7669727475616C5F66732E63A2
:10915000000000002DE9F04786B0002416460F46B7
:109160000546039404940DF110080DF10C094FF419
:10917000807A0594CDF800A0CDE901986B1C05AA72
:1091800031463846FBF74EFD68B1022813D001285E
:109190001DD0042825D0052801D00628EAD10528AD
:1091A00021D0012020E0049A22B3691C0398FAF729
:1091B00085FC04461EE0049A2AB1691C0398FAF75C
:1091C0007DFC040016D10598361A0744D2E7049AAC
:1091D00022B1691C0398FAF771FC044654B91324B0
:1091E00008E0152406E0002040F2611203A1F9F71F
:1091F000A3FC162406B02046BDE8F0872E2E5C2E78
:109200002E5C2E2E5C736F757263655C6461706C8E
:10921000696E6B5C647261672D6E2D64726F705C39
:1092200066696C655F73747265616D2E6300000022
:1092300070470000010030373030000000000000AF
:1092400000002C01002000000000000000000000D1
:10925000000000000000000000000000000000000E
:1092600000000000000000000000000000000000FE
:1092700000000000000000000000000000000000EE
:1092800000000000000000000000000000000000DE
:1092900000000000000000000000000000000000CE
:1092A0000000000000000000000000005354415284
:1092B000545F424C4143540068A501080CA50108C5
:1092C000ECA40108C4A50108A0A10108B4A40108E8
:1092D000B8A1010804A40108A4A3010884A50108F9
:1092E00060A4010828A3010864A30108ECA50108F3
:1092F00024A5010854A2010828A2010800A201081F
:1093000084A2010840A40108A8A50108709F0108D3
:10931000309F0108F49E0108B4A201086CA1010865
:10932000C8A0010890A00108B89F0108949E0108F8
:10933000C89E0108689E0108089E0108389E010821
:1093400028A1010808A0010844A0010840A60108BE
:1093500004A10108DD7201080175010845730108C7
:10936000E97101085D7101087D7401084D72010801
:109370003D710108A974010854930108303132335A
:109380003435363738396162636465660000000041
:10939000C14301088D7B0108ED4F010845330108E9
:1093A000AD32010839510108113401084D7101082D
:1093B000000000009093010800000000FFFFFFFF85
:1093C000FFFFFFFFFFFFFFFFFFFFFFFF00000000A9
:1093D000000000000000000000000000000000038A
:1093E000747970653A20006572726F723A20003CA1
:1093F00021646F63747970652068746D6C3E0D0A2A
:109400003C212D2D206D62656420506C6174666F67
:10941000726D205765627369746520616E642041C6
:10942000757468656E7469636174696F6E205368E2
:109430006F7274637574202D2D3E0D0A3C68746D37
:109440006C3E0D0A3C686561643E0D0A3C6D6574B6
:109450006120636861727365743D227574662D388E
:10946000223E0D0A3C7469746C653E50656E677AE5
:109470006869687569205765627369746520536807
:109480006F72746375743C2F7469746C653E0D0A59
:109490003C2F686561643E0D0A3C626F64793E0D45
:1094A0000A3C7363726970743E0D0A77696E646F6B
:1094B000772E6C6F636174696F6E2E7265706C616C
:1094C00063652822405222293B0D0A3C2F736372A8
:1094D0006970743E0D0A3C2F626F64793E0D0A3C40
:1094E0002F68746D6C3E0D0A004153534552542051
:1094F00020545854BCA60108D8A60108C8A60108E3
:10950000D0A60108B0A60108EB3C904D534430535F
:10951000342E310002080100022000501FF8010023
:10952000010001000000000000000000000029749C
:109530001902274441504C494E4B2D444E4446415C
:10954000543136202020FAB8C0070520018ED0BC47
:109550000010B8C0078ED8BE6D00E80B00EBFEB45B
:109560000EB700B307CD10C38A044608C07405E8DF
:10957000EDFFEBF4C3504C454153452052454D4F50
:109580005645205448452041524D204D42454420E7
:109590004441504C494E4B20555342204445564976
:1095A000434520414E44205245424F4F5420544899
:1095B000452053595354454D2E2E00000000000005
:1095C000000000000000000000000000000000009B
:1095D000000000000000000000000000000000008B
:1095E000000000000000000000000000000000007B
:1095F000000000000000000000000000000000006B
:10960000000000000000000000000000000000005A
:10961000000000000000000000000000000000004A
:10962000000000000000000000000000000000003A
:10963000000000000000000000000000000000002A
:10964000000000000000000000000000000000001A
:10965000000000000000000000000000000000000A
:1096600000000000000000000000000000000000FA
:1096700000000000000000000000000000000000EA
:1096800000000000000000000000000000000000DA
:1096900000000000000000000000000000000000CA
:1096A00000000000000000000000000000000000BA
:1096B00000000000000000000000000000000000AA
:1096C000000000000000000000000000000000009A
:1096D000000000000000000000000000000000008A
:1096E000000000000000000000000000000000007A
:1096F000000000000000000000000000000000006A
:1097000000000000000055AA3554010831920108FC
:1097100000020000C1510108319201080000000060
:10972000C1510108319201080000000041510108B7
:109730000590010800040000000000000000000087
:109740000000002800000000000000000000418E22
:10975000BB3200000000000000000000000000001C
:109760000000000100000000764876480000DC831D
:10977000764800000000000000BE0AE00D782D06CB
:1097800068400824400000D35840641EFAD1491CA8
:10979000521E002AF2D1704710B503460020444CF7
:1097A000206044486060444860602046C06910F012
:1097B000040F08D145F25550404C206006206060EF
:1097C00040F6FF70A060002010BD014638480069D7
:1097D00040F08000364A106100207047344800692C
:1097E00040F00400324908610846006940F040003A
:1097F000086103E04AF6AA20304908602C48C06896
:1098000010F0010FF6D12A48006920F00400284921
:1098100008610020704701462548006940F00200B9
:10982000234A106110464161006940F04000106118
:1098300003E04AF6AA20214A10601D48C06810F0D3
:10984000010FF6D11A48006920F00200184A106191
:109850000020704710B50346481C20F0010122E0AB
:109860001348006940F00100114C206110881880F5
:1098700000BF0F48C06810F0010FFAD10C48006912
:1098800020F001000A4C20612046C06810F0140F3F
:1098900006D02046C06840F01400E060012010BDF2
:1098A0009B1C921C891E0029DAD10020F7E70000DA
:1098B0000020024023016745AB89EFCD0030004016
:1098C000000000000000000800040000210000204B
:1098D00053000020650000209F000020DD000020D4
:1098E00000000000010000204801002000080020C6
:1098F000000A0020000000204C01000078970108B9
:109900000004000000000000000000000102030449
:1099100006070809000000000102030400000140DE
:1099200001010100400040004000010140004000F2
:109930000202400000024000040440004000100009
:1099400010002120FD280108000000000000000098
:109950000B29010800000000390A010865110108FF
:10996000FD1701087B0601085D06010800000000E4
:1099700000000000000000000000000000000000E7
:1099800000000000000000000000000000000000D7
:1099900000000000000000009D0901080000000018
:1099A000000000000600FF0901A101150026FF00CC
:1099B00075089540090181029540090191029501C0
:1099C0000901B102C000210012011002EF020140A2
:1099D000280D04020001010203010000050F3900F7
:1099E000021810050038B60834A909A0478BFDA05D
:1099F000768815B665000121001C100500DF60DDCA
:109A0000D88945C74C9CD2659D9E648A9F000003FF
:109A100006AA0020000004030904080341005200C4
:109A20004D0024034400410050004C0069006E00CA
:109A30006B00200043004D005300490053002D00EF
:109A40004400410050001A03300030003000310063
:109A50004100300030003000300030003000300075
:109A600022036D0062006500640020005300650061
:109A70007200690061006C00200050006F007200ED
:109A8000740022036D006200650064002000530032
:109A900065007200690061006C00200050006F00DA
:109AA000720074002A0343004D0053004900530024
:109AB0002D004400410050002D00760031002D00A3
:109AC0004D007500730065004C00610062002403C6
:109AD0005700650062005500530042003A00200024
:109AE00043004D005300490053002D004400410045
:109AF000500010035500530042005F004D0053001A
:109B000043000000080B00020202010409040000E7
:109B100001020201040524001001052401030204CE
:109B2000240206052406000007058303100020090F
:109B3000040000020A0000050705040210000007E7
:109B40000584021000000400880004017FFC0A0064
:109B5000010000001027000000000000CC00000001
:109B60009800000004000000000000000000010157
:109B700001000000010001000000000000000000E2
:109B800000000000000000000000000000000000D5
:109B900000000000000000000000000000000000C5
:109BA00002000200010000000000000000000000B0
:109BB00000000000000000000000000000000000A5
:109BC0000000000000000000000000000300020090
:109BD0000400000000000000000000000000000081
:109BE0000000000000000000000000000000000075
:109BF0000000000000000000000000000000000065
:109C00000000000000000000000000000000000054
:109C10000000000000000000000000000000000044
:109E00000000000000000000496E206170706C6965
:109E1000636174696F6E2070726F6772616D6D69D6
:109E20006E6720736563746F72206572617365205D
:109E30006661696C65642E00496E206170706C69A2
:109E4000636174696F6E2070726F6772616D6D69A6
:109E50006E67206D61737320657261736520666142
:109E6000696C65642E000000496E206170706C6939
:109E7000636174696F6E2070726F6772616D6D6976
:109E80006E67207772697465206661696C65642EFF
:109E900000000000496E206170706C696361746934
:109EA0006F6E2070726F6772616D6D696E67206989
:109EB0006E697469616C697A6174696F6E2066613C
:109EC000696C65642E000000496E206170706C69D9
:109ED000636174696F6E2070726F6772616D6D6916
:109EE0006E6720756E696E6974206661696C656461
:109EF0002E000000546865206865782066696C65EE
:109F00002063616E6E6F742062652070726F67727D
:109F1000616D6D65642E204C6F67696320666169B1
:109F20006C757265206F636375727265642E0000D4
:109F3000546865206865782066696C652063616E89
:109F40006E6F74206265206465636F6465642E20A3
:109F5000506172736572206C6F6769632066616916
:109F60006C757265206F636375727265642E000094
:109F7000546865206865782066696C652063616E49
:109F80006E6F74206265206465636F6465642E2063
:109F9000436865636B73756D2063616C63756C6199
:109FA00074696F6E206661696C757265206F63639A
:109FB00075727265642E0000546865206170706C63
:109FC00069636174696F6E2066696C6520666F7283
:109FD0006D617420697320756E6B6E6F776E206192
:109FE0006E642063616E6E6F7420626520706172B2
:109FF00073656420616E642F6F722070726F636589
:10A00000737365642E000000496E206170706C6986
:10A01000636174696F6E2070726F6772616D6D69D4
:10A020006E67206E6F7420737570706F72746564E4
:10A03000206F6E2074686973206465766963652E8D
:10A0400000000000496E206170706C696361746982
:10A050006F6E2070726F6772616D6D696E672066DA
:10A0600061696C65642062656361757365207468FD
:10A0700065207570646174652073656E7420776106
:10A080007320696E636F6D706C6574652E000000DF
:10A09000546865207374617274696E6720616464CA
:10A0A0007265737320666F722074686520696E74C0
:10A0B000657266616365207570646174652069739B
:10A0C0002077726F6E672E0054686520737461721A
:10A0D00074696E67206164647265737320666F7261
:10A0E0002074686520626F6F746C6F6164657220A4
:10A0F0007570646174652069732077726F6E672E66
:10A100000000000054686520626F6F746C6F6164BA
:10A1100065722043524320646964206E6F7420701E
:10A120006173732E00000000496E206170706C69CD
:10A13000636174696F6E2070726F6772616D6D69B3
:10A140006E672061626F7274656420647565207447
:10A150006F20616E206F7574206F6620626F756E60
:10A16000647320616464726573732E0054686520A3
:10A170006865782066696C65206F66667365742013
:10A180006C6F61642061646472657373206973200D
:10A190006E6F7420636F72726563742E000000002E
:10A1A000546865207472616E736665722074696D9F
:10A1B0006564206F75742E0046696C652073656E4A
:10A1C00074206F7574206F66206F726465722062F0
:10A1D000792050432E20546172676574206D696741
:10A1E0006874206E6F742062652070726F67726190
:10A1F0006D6D656420636F72726563746C792E0097
:10A20000466C61736820616C676F726974686D2059
:10A21000777269746520636F6D6D616E642046416D
:10A22000494C555245000000466C61736820616CD2
:10A23000676F726974686D20657261736520616C07
:10A240006C20636F6D6D616E64204641494C5552C0
:10A2500045000000466C61736820616C676F72692D
:10A2600074686D20657261736520736563746F72C5
:10A2700020636F6D6D616E64204641494C555245B7
:10A2800000000000466C61736820616C676F726942
:10A2900074686D2077726974652076657269667975
:10A2A00020636F6D6D616E64204641494C55524587
:10A2B00000000000546865206865782066696C6558
:10A2C00020796F752064726F707065642069736E99
:10A2D000277420636F6D70617469626C65207769A3
:10A2E00074682074686973206D6F6465206F7220D4
:10A2F0006465766963652E2041726520796F7520EB
:10A30000696E204D41494E54454E414E4345206DA6
:10A310006F64653F205365652048454C5020464199
:10A32000512E48544D00000054686520696E7465D4
:10A330007266616365206669726D77617265204639
:10A3400041494C454420746F20696E697469616CA1
:10A35000697A652074686520746172676574204D40
:10A360004355000054686520696E746572666163C8
:10A3700065206669726D77617265204641494C457A
:10A380004420746F20756E696E697469616C697AB6
:10A39000652074686520746172676574204D43554B
:10A3A0000000000054686520696E74657266616320
:10A3B00065206669726D77617265204641494C453A
:10A3C0004420746F20646F776E6C6F6164207468D2
:10A3D0006520666C6173682070726F6772616D6D65
:10A3E000696E6720616C676F726974686D73207441
:10A3F0006F2074686520746172676574204D4355E1
:10A400000000000054686520696E746572666163BF
:10A4100065206669726D77617265204641494C45D9
:10A420004420746F2072657365742F68616C7420AA
:10A4300074686520746172676574204D435500002F
:10A44000456E64206F662073747265616D2068616B
:10A4500073206265656E20726561636865640000E3
:10A4600054686520696E746572666163652066690B
:10A47000726D77617265204641494C454420746F86
:10A4800020646F776E6C6F61642074686520666C01
:10A49000617368206461746120636F6E74656E74AB
:10A4A0007320746F2062652070726F6772616D6DCA
:10A4B00065640000506F737369626C65206D697329
:10A4C0006D61746368206265747765656E20666986
:10A4D0006C652073697A6520616E642073697A65A2
:10A4E0002070726F6772616D6D656400416E2069E6
:10A4F0006E7465726E616C206572726F7220686135
:10A5000073206F636375727265640000416E20652D
:10A5100072726F7220686173206F63637572726507
:10A520006400000054686520696E7465726661633A
:10A5300065206669726D77617265204641494C45B8
:10A540004420746F20756E6C6F636B207468652097
:10A5500074617267657420666F722070726F6772C3
:10A56000616D6D696E6700004F7065726174696F2F
:10A570006E20776173207375636365737366756CA2
:10A580000000000054686520666C61736820616C8F
:10A59000676F206D697373696E6720666F722061E3
:10A5A00020726567696F6E00456E64206F66207368
:10A5B000747265616D20697320756E6B6E6F776E56
:10A5C00000000000416E206572726F72206F63633D
:10A5D000757272656420647572696E67207468654F
:10A5E000207472616E7366657200000054686520A5
:10A5F000696E74657266616365206669726D776104
:10A6000072652041424F525445442070726F677208
:10A61000616D6D696E672E20496D61676520697394
:10A6200020747279696E6720746F2073657420736B
:10A630006563757269747920626974730000000043
:10A64000000000004120626F6F746C6F616465727E
:10A650002075706461746520776173207374617212
:10A660007465642062757420756E61626C65207417
:10A670006F20636F6D706C6574652E0D0A52656C8A
:10A680006F61642074686520626F6F746C6F6164C1
:10A69000657220746F20666978207468697320651C
:10A6A00072726F72206D6573736167652E0D0A009B
:10A6B000696E74657266616365000000696E746539
:10A6C000726E616C0000000075736572000000001E
:10A6D00074617267657400007472616E7369656E8F
:10A6E000740000004D42454420202020564653204F
:10A6F000202020202020202020202020302E31004B
:10A7000020A70108000000203805000028C100082B
:10A7100070A8010838050020302D000084C1000811
:10A7200021380801010206020208013A04062F013D
:10A730000106060604017A1001052308999697E49C
:10A7400001010102270418128D320108594901083C
:10A75000718F0108392E01089F101A5D101E559146
:10A7600001083D1001885DC4980108E319946A024C
:10A770000C111ACC1801B712201A500401CC26A2D1
:10A780004A04802592081205126B520A1C0306AA7D
:10A7900018320212A012141203A757494E55534201
:10A7A000128412041207122A1244126512761269D8
:10A7B0001A63081249126E1A7408127212663A610C
:10A7C0001212471A5516124432731250127B123964
:10A7D00012321243124512361A340412321A2D1252
:10A7E00012431A37023A2D121A461C29141A330240
:10A7F0001A420A12331A31203A422612351A4102FD
:10A8000029181239527D402DE4A601082C03016F4E
:10A81000732E6D6265642E636F6D2F77656275733D
:10A82000622F6C616E64696E672D706167652F3F82
:10A830006269643DCA132C01161260023C401E740A
:10A840009B0108A0041ACC041AF8041E249C0108D9
:10A8500050041A7C041AA8041AD404111A9DB819B9
:10A86000041A58041A84041AB0041ADC0401D4002F
:10A87000FFFFFFFFFFFFFFFFFFFFFFFFFFFFFFFFE8
:10A88000FFFFFFFFFFFFFFFFFFFFFFFFFFFFFFFFD8
:10A89000FFFFFFFFFFFFFFFFFFFFFFFFFFFFFFFFC8
:10A8A000FFFFFFFFFFFFFFFFFFFFFFFFFFFFFFFFB8
:040000050800C0ED42
:00000001FF
