Component: ARM Compiler 5.05 update 1 (build 106) Tool: armlink [4d0efa]

==============================================================================

Section Cross References

    startup_stm32l051xx.o(RESET) refers to startup_stm32l051xx.o(STACK) for __initial_sp
    startup_stm32l051xx.o(RESET) refers to startup_stm32l051xx.o(.text) for Reset_Handler
    startup_stm32l051xx.o(RESET) refers to stm32l0xx_it.o(i.NMI_Handler) for NMI_Handler
    startup_stm32l051xx.o(RESET) refers to stm32l0xx_it.o(i.HardFault_Handler) for HardFault_Handler
    startup_stm32l051xx.o(RESET) refers to stm32l0xx_it.o(i.SVC_Handler) for SVC_Handler
    startup_stm32l051xx.o(RESET) refers to stm32l0xx_it.o(i.PendSV_Handler) for PendSV_Handler
    startup_stm32l051xx.o(RESET) refers to stm32l0xx_it.o(i.SysTick_Handler) for SysTick_Handler
    startup_stm32l051xx.o(RESET) refers to stm32l0xx_it.o(i.EXTI2_3_IRQHandler) for EXTI2_3_IRQHandler
    startup_stm32l051xx.o(.text) refers to system_stm32l0xx_1.o(i.SystemInit) for SystemInit
    startup_stm32l051xx.o(.text) refers to entry.o(.ARM.Collect$$$$00000000) for __main
    main.o(i.SystemClock_Config) refers to memseta.o(.text) for __aeabi_memclr4
    main.o(i.SystemClock_Config) refers to stm32l0xx_hal_rcc.o(i.HAL_RCC_OscConfig) for HAL_RCC_OscConfig
    main.o(i.SystemClock_Config) refers to stm32l0xx_hal_rcc.o(i.HAL_RCC_ClockConfig) for HAL_RCC_ClockConfig
    main.o(i.SystemClock_Config) refers to stm32l0xx_hal_rcc_ex.o(i.HAL_RCCEx_PeriphCLKConfig) for HAL_RCCEx_PeriphCLKConfig
    main.o(i.fputc) refers to stm32l0xx_hal_uart.o(i.HAL_UART_Transmit) for HAL_UART_Transmit
    main.o(i.fputc) refers to usart.o(.bss) for huart1
    main.o(i.main) refers to stm32l0xx_hal.o(i.HAL_Init) for HAL_Init
    main.o(i.main) refers to main.o(i.SystemClock_Config) for SystemClock_Config
==============================================================================

Removing Unused input sections from the image.

    Removing startup_stm32l051xx.o(HEAP), (512 bytes).
    Removing main.o(.rev16_text), (4 bytes).
    Removing main.o(.revsh_text), (4 bytes).
    Removing gpio.o(.rev16_text), (4 bytes).
    Removing gpio.o(.revsh_text), (4 bytes).
    Removing usart.o(.rev16_text), (4 bytes).
    Removing usart.o(.revsh_text), (4 bytes).
    Removing usart.o(i.HAL_UART_MspDeInit), (44 bytes).
    Removing stm32l0xx_it.o(.rev16_text), (4 bytes).
    Removing stm32l0xx_it.o(.revsh_text), (4 bytes).
    Removing stm32l0xx_hal_msp.o(.rev16_text), (4 bytes).
    Removing stm32l0xx_hal_msp.o(.revsh_text), (4 bytes).
    Removing epd_w21.o(.rev16_text), (4 bytes).
    Removing epd_w21.o(.revsh_text), (4 bytes).
    Removing epd_w21.o(i.DriverDelay), (8 bytes).
    Removing epd_w21.o(.constdata), (31 bytes).
    Removing epd_w21.o(.data), (2 bytes).
    Removing epd_w21.o(.data), (2 bytes).
==============================================================================

Image Symbol Table

    Local Symbols

    Symbol Name                              Value     Ov Type        Size  Object(Section)

    ../Drivers/BSP/Components/ST25DV/st25dv.c 0x00000000   Number         0  st25dv.o ABSOLUTE
    ../Drivers/BSP/Components/ST25DV/st25dv_reg.c 0x00000000   Number         0  st25dv_reg.o ABSOLUTE
    ../Drivers/BSP/NFC04A1/nfc04a1.c         0x00000000   Number         0  nfc04a1.o ABSOLUTE
    ../Drivers/BSP/NFC04A1/nfc04a1_nfctag.c  0x00000000   Number         0  nfc04a1_nfctag.o ABSOLUTE
    ../Src/gpio.c                            0x00000000   Number         0  gpio.o ABSOLUTE
    ../Src/main.c                            0x00000000   Number         0  main.o ABSOLUTE
    ../Src/stm32l0xx_hal_msp.c               0x00000000   Number         0  stm32l0xx_hal_msp.o ABSOLUTE
    ../Src/stm32l0xx_it.c                    0x00000000   Number         0  stm32l0xx_it.o ABSOLUTE
    ../Src/system_stm32l0xx.c                0x00000000   Number         0  system_stm32l0xx_1.o ABSOLUTE
    ../Src/usart.c                           0x00000000   Number         0  usart.o ABSOLUTE
    ../clib/../cmprslib/zerorunl2.c          0x00000000   Number         0  __dczerorl2.o ABSOLUTE
    ../clib/microlib/division.c              0x00000000   Number         0  uldiv.o ABSOLUTE
    ../clib/microlib/division.c              0x00000000   Number         0  uidiv.o ABSOLUTE
    ../clib/microlib/init/entry.s            0x00000000   Number         0  entry5.o ABSOLUTE
    ../clib/microlib/init/entry.s            0x00000000   Number         0  entry2.o ABSOLUTE
    ../clib/microlib/init/entry.s            0x00000000   Number         0  entry7a.o ABSOLUTE
    ../clib/microlib/init/entry.s            0x00000000   Number         0  entry7b.o ABSOLUTE
    ../clib/microlib/init/entry.s            0x00000000   Number         0  entry11b.o ABSOLUTE
    ../clib/microlib/init/entry.s            0x00000000   Number         0  entry8a.o ABSOLUTE
    ../clib/microlib/init/entry.s            0x00000000   Number         0  entry11a.o ABSOLUTE
    ../clib/microlib/init/entry.s            0x00000000   Number         0  entry10b.o ABSOLUTE
    ../clib/microlib/init/entry.s            0x00000000   Number         0  entry9a.o ABSOLUTE
    ../clib/microlib/init/entry.s            0x00000000   Number         0  entry10a.o ABSOLUTE
    ../clib/microlib/init/entry.s            0x00000000   Number         0  entry9b.o ABSOLUTE
    ../clib/microlib/init/entry.s            0x00000000   Number         0  entry8b.o ABSOLUTE
    ../clib/microlib/init/entry.s            0x00000000   Number         0  entry.o ABSOLUTE
    ../clib/microlib/longlong.c              0x00000000   Number         0  llushr.o ABSOLUTE
    ../clib/microlib/longlong.c              0x00000000   Number         0  llshl.o ABSOLUTE
    ../clib/microlib/longlong.c              0x00000000   Number         0  llsshr.o ABSOLUTE
    ../clib/microlib/printf/printf.c         0x00000000   Number         0  printfb.o ABSOLUTE
    ../clib/microlib/printf/printf.c         0x00000000   Number         0  printf0.o ABSOLUTE
    ../clib/microlib/printf/printf.c         0x00000000   Number         0  printf1.o ABSOLUTE
    ../clib/microlib/printf/printf.c         0x00000000   Number         0  printf2.o ABSOLUTE
    ../clib/microlib/printf/printf.c         0x00000000   Number         0  printfa.o ABSOLUTE
    ../clib/microlib/printf/printf.c         0x00000000   Number         0  printf4.o ABSOLUTE
    ../clib/microlib/printf/printf.c         0x00000000   Number         0  printf8.o ABSOLUTE
    ../clib/microlib/printf/printf.c         0x00000000   Number         0  printf5.o ABSOLUTE
    ../clib/microlib/printf/printf.c         0x00000000   Number         0  printf3.o ABSOLUTE
    ../clib/microlib/printf/printf.c         0x00000000   Number         0  printf6.o ABSOLUTE
    ../clib/microlib/printf/printf.c         0x00000000   Number         0  printf7.o ABSOLUTE
    ../clib/microlib/stdio/streams.c         0x00000000   Number         0  stdout.o ABSOLUTE
    ../clib/microlib/string/memset.c         0x00000000   Number         0  memseta.o ABSOLUTE
    ../clib/microlib/stubs.s                 0x00000000   Number         0  iusefp.o ABSOLUTE
    ../fplib/microlib/fpadd.c                0x00000000   Number         0  dadd.o ABSOLUTE
    ../fplib/microlib/fpdiv.c                0x00000000   Number         0  ddiv.o ABSOLUTE
    ../fplib/microlib/fpepilogue.c           0x00000000   Number         0  depilogue.o ABSOLUTE
    ../fplib/microlib/fpfix.c                0x00000000   Number         0  dfixul.o ABSOLUTE
    ../fplib/microlib/fpmul.c                0x00000000   Number         0  dmul.o ABSOLUTE
    ..\Drivers\BSP\E-Paper-Display\epd_w21.c 0x00000000   Number         0  epd_w21.o ABSOLUTE
    ..\Drivers\BSP\NFC04A1\nfc04a1.c         0x00000000   Number         0  nfc04a1.o ABSOLUTE
    ..\Drivers\BSP\NFC04A1\nfc04a1_nfctag.c  0x00000000   Number         0  nfc04a1_nfctag.o ABSOLUTE
    ..\Drivers\BSP\ST25DV\app_nfc.c          0x00000000   Number         0  app_nfc.o ABSOLUTE
    ..\Drivers\STM32L0xx_HAL_Driver\Src\stm32l0xx_hal.c 0x00000000   Number         0  stm32l0xx_hal.o ABSOLUTE
    ..\Drivers\STM32L0xx_HAL_Driver\Src\stm32l0xx_hal_cortex.c 0x00000000   Number         0  stm32l0xx_hal_cortex.o ABSOLUTE
    ..\Drivers\STM32L0xx_HAL_Driver\Src\stm32l0xx_hal_dma.c 0x00000000   Number         0  stm32l0xx_hal_dma.o ABSOLUTE
    ..\Drivers\STM32L0xx_HAL_Driver\Src\stm32l0xx_hal_flash.c 0x00000000   Number         0  stm32l0xx_hal_flash.o ABSOLUTE
    ..\Drivers\STM32L0xx_HAL_Driver\Src\stm32l0xx_hal_flash_ex.c 0x00000000   Number         0  stm32l0xx_hal_flash_ex.o ABSOLUTE
    ..\Drivers\STM32L0xx_HAL_Driver\Src\stm32l0xx_hal_flash_ramfunc.c 0x00000000   Number         0  stm32l0xx_hal_flash_ramfunc.o ABSOLUTE
    ..\Drivers\STM32L0xx_HAL_Driver\Src\stm32l0xx_hal_gpio.c 0x00000000   Number         0  stm32l0xx_hal_gpio.o ABSOLUTE
    ..\Drivers\STM32L0xx_HAL_Driver\Src\stm32l0xx_hal_i2c.c 0x00000000   Number         0  stm32l0xx_hal_i2c.o ABSOLUTE
    ..\Drivers\STM32L0xx_HAL_Driver\Src\stm32l0xx_hal_i2c_ex.c 0x00000000   Number         0  stm32l0xx_hal_i2c_ex.o ABSOLUTE
    ..\Drivers\STM32L0xx_HAL_Driver\Src\stm32l0xx_hal_pwr.c 0x00000000   Number         0  stm32l0xx_hal_pwr.o ABSOLUTE
    ..\Drivers\STM32L0xx_HAL_Driver\Src\stm32l0xx_hal_pwr_ex.c 0x00000000   Number         0  stm32l0xx_hal_pwr_ex.o ABSOLUTE
    ..\Drivers\STM32L0xx_HAL_Driver\Src\stm32l0xx_hal_rcc.c 0x00000000   Number         0  stm32l0xx_hal_rcc.o ABSOLUTE
    ..\Drivers\STM32L0xx_HAL_Driver\Src\stm32l0xx_hal_rcc_ex.c 0x00000000   Number         0  stm32l0xx_hal_rcc_ex.o ABSOLUTE
    ..\Drivers\STM32L0xx_HAL_Driver\Src\stm32l0xx_hal_tim.c 0x00000000   Number         0  stm32l0xx_hal_tim.o ABSOLUTE
    ..\Drivers\STM32L0xx_HAL_Driver\Src\stm32l0xx_hal_tim_ex.c 0x00000000   Number         0  stm32l0xx_hal_tim_ex.o ABSOLUTE
    ..\Drivers\STM32L0xx_HAL_Driver\Src\stm32l0xx_hal_uart.c 0x00000000   Number         0  stm32l0xx_hal_uart.o ABSOLUTE
    ..\Drivers\STM32L0xx_HAL_Driver\Src\stm32l0xx_hal_uart_ex.c 0x00000000   Number         0  stm32l0xx_hal_uart_ex.o ABSOLUTE
    ..\Src\custom_bus.c                      0x00000000   Number         0  custom_bus.o ABSOLUTE
    ..\Src\gpio.c                            0x00000000   Number         0  gpio.o ABSOLUTE
    ..\Src\main.c                            0x00000000   Number         0  main.o ABSOLUTE
    ..\Src\stm32l0xx_hal_exti.c              0x00000000   Number         0  stm32l0xx_hal_exti.o ABSOLUTE
    ..\Src\stm32l0xx_hal_msp.c               0x00000000   Number         0  stm32l0xx_hal_msp.o ABSOLUTE
    ..\Src\stm32l0xx_it.c                    0x00000000   Number         0  stm32l0xx_it.o ABSOLUTE
    ..\Src\system_stm32l0xx.c                0x00000000   Number         0  system_stm32l0xx_1.o ABSOLUTE
    ..\Src\usart.c                           0x00000000   Number         0  usart.o ABSOLUTE
    ..\\Drivers\\BSP\\E-Paper-Display\\epd_w21.c 0x00000000   Number         0  epd_w21.o ABSOLUTE
    ..\\Drivers\\BSP\\ST25DV\\app_nfc.c      0x00000000   Number         0  app_nfc.o ABSOLUTE
    ..\\Drivers\\STM32L0xx_HAL_Driver\\Src\\stm32l0xx_hal.c 0x00000000   Number         0  stm32l0xx_hal.o ABSOLUTE
    ..\\Drivers\\STM32L0xx_HAL_Driver\\Src\\stm32l0xx_hal_cortex.c 0x00000000   Number         0  stm32l0xx_hal_cortex.o ABSOLUTE
    ..\\Drivers\\STM32L0xx_HAL_Driver\\Src\\stm32l0xx_hal_dma.c 0x00000000   Number         0  stm32l0xx_hal_dma.o ABSOLUTE
    ..\\Drivers\\STM32L0xx_HAL_Driver\\Src\\stm32l0xx_hal_flash.c 0x00000000   Number         0  stm32l0xx_hal_flash.o ABSOLUTE
    ..\\Drivers\\STM32L0xx_HAL_Driver\\Src\\stm32l0xx_hal_flash_ex.c 0x00000000   Number         0  stm32l0xx_hal_flash_ex.o ABSOLUTE
    ..\\Drivers\\STM32L0xx_HAL_Driver\\Src\\stm32l0xx_hal_flash_ramfunc.c 0x00000000   Number         0  stm32l0xx_hal_flash_ramfunc.o ABSOLUTE
    ..\\Drivers\\STM32L0xx_HAL_Driver\\Src\\stm32l0xx_hal_gpio.c 0x00000000   Number         0  stm32l0xx_hal_gpio.o ABSOLUTE
    ..\\Drivers\\STM32L0xx_HAL_Driver\\Src\\stm32l0xx_hal_i2c.c 0x00000000   Number         0  stm32l0xx_hal_i2c.o ABSOLUTE
    ..\\Drivers\\STM32L0xx_HAL_Driver\\Src\\stm32l0xx_hal_i2c_ex.c 0x00000000   Number         0  stm32l0xx_hal_i2c_ex.o ABSOLUTE
    ..\\Drivers\\STM32L0xx_HAL_Driver\\Src\\stm32l0xx_hal_pwr.c 0x00000000   Number         0  stm32l0xx_hal_pwr.o ABSOLUTE
    ..\\Drivers\\STM32L0xx_HAL_Driver\\Src\\stm32l0xx_hal_pwr_ex.c 0x00000000   Number         0  stm32l0xx_hal_pwr_ex.o ABSOLUTE
    ..\\Drivers\\STM32L0xx_HAL_Driver\\Src\\stm32l0xx_hal_rcc.c 0x00000000   Number         0  stm32l0xx_hal_rcc.o ABSOLUTE
    ..\\Drivers\\STM32L0xx_HAL_Driver\\Src\\stm32l0xx_hal_rcc_ex.c 0x00000000   Number         0  stm32l0xx_hal_rcc_ex.o ABSOLUTE
    ..\\Drivers\\STM32L0xx_HAL_Driver\\Src\\stm32l0xx_hal_tim.c 0x00000000   Number         0  stm32l0xx_hal_tim.o ABSOLUTE
    ..\\Drivers\\STM32L0xx_HAL_Driver\\Src\\stm32l0xx_hal_tim_ex.c 0x00000000   Number         0  stm32l0xx_hal_tim_ex.o ABSOLUTE
    ..\\Drivers\\STM32L0xx_HAL_Driver\\Src\\stm32l0xx_hal_uart.c 0x00000000   Number         0  stm32l0xx_hal_uart.o ABSOLUTE
    ..\\Drivers\\STM32L0xx_HAL_Driver\\Src\\stm32l0xx_hal_uart_ex.c 0x00000000   Number         0  stm32l0xx_hal_uart_ex.o ABSOLUTE
    ..\\Src\\custom_bus.c                    0x00000000   Number         0  custom_bus.o ABSOLUTE
    ..\\Src\\stm32l0xx_hal_exti.c            0x00000000   Number         0  stm32l0xx_hal_exti.o ABSOLUTE
    cdrcmple.s                               0x00000000   Number         0  cdrcmple.o ABSOLUTE
    dc.s                                     0x00000000   Number         0  dc.o ABSOLUTE
    handlers.s                               0x00000000   Number         0  handlers.o ABSOLUTE
    init.s                                   0x00000000   Number         0  init.o ABSOLUTE
    startup_stm32l051xx.s                    0x00000000   Number         0  startup_stm32l051xx.o ABSOLUTE
    RESET                                    0x08000000   Section      192  startup_stm32l051xx.o(RESET)
    .ARM.Collect$$$$00000000                 0x080000c0   Section        0  entry.o(.ARM.Collect$$$$00000000)
    .ARM.Collect$$$$00000001                 0x080000c0   Section        4  entry2.o(.ARM.Collect$$$$00000001)
    .ARM.Collect$$$$00000004                 0x080000c4   Section        4  entry5.o(.ARM.Collect$$$$00000004)
    .ARM.Collect$$$$00000008                 0x080000c8   Section        0  entry7b.o(.ARM.Collect$$$$00000008)
    .ARM.Collect$$$$0000000A                 0x080000c8   Section        0  entry8b.o(.ARM.Collect$$$$0000000A)
    .ARM.Collect$$$$0000000B                 0x080000c8   Section        8  entry9a.o(.ARM.Collect$$$$0000000B)
    .ARM.Collect$$$$0000000D                 0x080000d0   Section        0  entry10a.o(.ARM.Collect$$$$0000000D)
    .ARM.Collect$$$$0000000F                 0x080000d0   Section        0  entry11a.o(.ARM.Collect$$$$0000000F)
    .ARM.Collect$$$$00002712                 0x080000d0   Section        4  entry2.o(.ARM.Collect$$$$00002712)
    __lit__00000000                          0x080000d0   Data           4  entry2.o(.ARM.Collect$$$$00002712)
    .text                                    0x080000d4   Section       28  startup_stm32l051xx.o(.text)
    .text                                    0x080000f0   Section        0  uidiv.o(.text)
    .text                                    0x0800011c   Section        0  uldiv.o(.text)
    .text                                    0x0800017c   Section        0  memseta.o(.text)
    .text                                    0x080001a0   Section        0  llshl.o(.text)
    .text                                    0x080001c0   Section        0  llushr.o(.text)
    .text                                    0x080001e4   Section       36  init.o(.text)
    .text                                    0x08000208   Section        0  __dczerorl2.o(.text)
    i.BSP_GPO_Callback                       0x08000260   Section        0  app_nfc.o(i.BSP_GPO_Callback)
    i.BSP_I2C1_DeInit                        0x0800026c   Section        0  custom_bus.o(i.BSP_I2C1_DeInit)
    i.BSP_I2C1_Init                          0x080002b4   Section        0  custom_bus.o(i.BSP_I2C1_Init)
    i.BSP_I2C1_IsReady                       0x08000340   Section        0  custom_bus.o(i.BSP_I2C1_IsReady)
    i.BSP_I2C1_ReadReg16                     0x08000360   Section        0  custom_bus.o(i.BSP_I2C1_ReadReg16)
    i.BSP_I2C1_WriteReg16                    0x0800039c   Section        0  custom_bus.o(i.BSP_I2C1_WriteReg16)
    i.EXTI2_3_IRQHandler                     0x080003d4   Section        0  stm32l0xx_it.o(i.EXTI2_3_IRQHandler)
    i.EpdDisFull                             0x080003e4   Section        0  epd_w21.o(i.EpdDisFull)
    i.EpdInitFull                            0x08000424   Section        0  epd_w21.o(i.EpdInitFull)
    i.EpdW21DispInit                         0x0800046c   Section        0  epd_w21.o(i.EpdW21DispInit)
    EpdW21DispInit                           0x0800046d   Thumb Code   106  epd_w21.o(i.EpdW21DispInit)
    i.EpdW21SetRamPointer                    0x080004dc   Section        0  epd_w21.o(i.EpdW21SetRamPointer)
    EpdW21SetRamPointer                      0x080004dd   Thumb Code    36  epd_w21.o(i.EpdW21SetRamPointer)
    i.EpdW21Write                            0x08000500   Section        0  epd_w21.o(i.EpdW21Write)
    EpdW21Write                              0x08000501   Thumb Code    84  epd_w21.o(i.EpdW21Write)
    i.EpdW21WriteCMD                         0x08000558   Section        0  epd_w21.o(i.EpdW21WriteCMD)
    EpdW21WriteCMD                           0x08000559   Thumb Code    46  epd_w21.o(i.EpdW21WriteCMD)
    i.EpdW21WriteCMD_p1                      0x0800058c   Section        0  epd_w21.o(i.EpdW21WriteCMD_p1)
    EpdW21WriteCMD_p1                        0x0800058d   Thumb Code    70  epd_w21.o(i.EpdW21WriteCMD_p1)
    i.EpdW21WriteDispRam                     0x080005d8   Section        0  epd_w21.o(i.EpdW21WriteDispRam)
    EpdW21WriteDispRam                       0x080005d9   Thumb Code   110  epd_w21.o(i.EpdW21WriteDispRam)
    i.EpdW21WriteDispRamMono                 0x0800064c   Section        0  epd_w21.o(i.EpdW21WriteDispRamMono)
    EpdW21WriteDispRamMono                   0x0800064d   Thumb Code   106  epd_w21.o(i.EpdW21WriteDispRamMono)
    i.Error_Handler                          0x080006bc   Section        0  main.o(i.Error_Handler)
    i.HAL_Delay                              0x080006be   Section        0  stm32l0xx_hal.o(i.HAL_Delay)
    i.HAL_EXTI_GetHandle                     0x080006da   Section        0  stm32l0xx_hal_exti.o(i.HAL_EXTI_GetHandle)
    i.HAL_EXTI_IRQHandler                    0x080006e8   Section        0  stm32l0xx_hal_exti.o(i.HAL_EXTI_IRQHandler)
    i.HAL_EXTI_RegisterCallback              0x0800070c   Section        0  stm32l0xx_hal_exti.o(i.HAL_EXTI_RegisterCallback)
    i.HAL_GPIO_DeInit                        0x0800071c   Section        0  stm32l0xx_hal_gpio.o(i.HAL_GPIO_DeInit)
    i.HAL_GPIO_Init                          0x08000800   Section        0  stm32l0xx_hal_gpio.o(i.HAL_GPIO_Init)
    i.HAL_GPIO_ReadPin                       0x08000978   Section        0  stm32l0xx_hal_gpio.o(i.HAL_GPIO_ReadPin)
    i.HAL_GPIO_WritePin                      0x08000982   Section        0  stm32l0xx_hal_gpio.o(i.HAL_GPIO_WritePin)
    i.HAL_GetTick                            0x08000990   Section        0  stm32l0xx_hal.o(i.HAL_GetTick)
    i.HAL_I2CEx_ConfigAnalogFilter           0x0800099c   Section        0  stm32l0xx_hal_i2c_ex.o(i.HAL_I2CEx_ConfigAnalogFilter)
    i.HAL_I2CEx_ConfigDigitalFilter          0x080009e6   Section        0  stm32l0xx_hal_i2c_ex.o(i.HAL_I2CEx_ConfigDigitalFilter)
    i.HAL_I2C_DeInit                         0x08000a2e   Section        0  stm32l0xx_hal_i2c.o(i.HAL_I2C_DeInit)
    i.HAL_I2C_GetError                       0x08000a62   Section        0  stm32l0xx_hal_i2c.o(i.HAL_I2C_GetError)
    i.HAL_I2C_GetState                       0x08000a66   Section        0  stm32l0xx_hal_i2c.o(i.HAL_I2C_GetState)
    i.HAL_I2C_Init                           0x08000a6c   Section        0  stm32l0xx_hal_i2c.o(i.HAL_I2C_Init)
    i.HAL_I2C_IsDeviceReady                  0x08000b20   Section        0  stm32l0xx_hal_i2c.o(i.HAL_I2C_IsDeviceReady)
    i.HAL_I2C_Mem_Read                       0x08000c40   Section        0  stm32l0xx_hal_i2c.o(i.HAL_I2C_Mem_Read)
    i.HAL_I2C_Mem_Write                      0x08000d94   Section        0  stm32l0xx_hal_i2c.o(i.HAL_I2C_Mem_Write)
    i.HAL_I2C_MspDeInit                      0x08000ee0   Section        0  stm32l0xx_hal_i2c.o(i.HAL_I2C_MspDeInit)
    i.HAL_I2C_MspInit                        0x08000ee2   Section        0  stm32l0xx_hal_i2c.o(i.HAL_I2C_MspInit)
    i.HAL_IncTick                            0x08000ee4   Section        0  stm32l0xx_hal.o(i.HAL_IncTick)
    i.HAL_Init                               0x08000ef4   Section        0  stm32l0xx_hal.o(i.HAL_Init)
    i.HAL_InitTick                           0x08000f1c   Section        0  stm32l0xx_hal.o(i.HAL_InitTick)
    i.HAL_MspInit                            0x08000f4c   Section        0  stm32l0xx_hal_msp.o(i.HAL_MspInit)
    i.HAL_NVIC_EnableIRQ                     0x08000f64   Section        0  stm32l0xx_hal_cortex.o(i.HAL_NVIC_EnableIRQ)
    i.HAL_NVIC_SetPriority                   0x08000f78   Section        0  stm32l0xx_hal_cortex.o(i.HAL_NVIC_SetPriority)
    i.HAL_RCCEx_PeriphCLKConfig              0x08000f80   Section        0  stm32l0xx_hal_rcc_ex.o(i.HAL_RCCEx_PeriphCLKConfig)
    i.HAL_RCC_ClockConfig                    0x080010e4   Section        0  stm32l0xx_hal_rcc.o(i.HAL_RCC_ClockConfig)
    i.HAL_RCC_GetPCLK1Freq                   0x08001250   Section        0  stm32l0xx_hal_rcc.o(i.HAL_RCC_GetPCLK1Freq)
    i.HAL_RCC_GetPCLK2Freq                   0x08001270   Section        0  stm32l0xx_hal_rcc.o(i.HAL_RCC_GetPCLK2Freq)
    i.HAL_RCC_GetSysClockFreq                0x08001290   Section        0  stm32l0xx_hal_rcc.o(i.HAL_RCC_GetSysClockFreq)
    i.HAL_RCC_OscConfig                      0x08001308   Section        0  stm32l0xx_hal_rcc.o(i.HAL_RCC_OscConfig)
    i.HAL_SYSTICK_Config                     0x08001724   Section        0  stm32l0xx_hal_cortex.o(i.HAL_SYSTICK_Config)
    i.HAL_UART_Init                          0x08001754   Section        0  stm32l0xx_hal_uart.o(i.HAL_UART_Init)
    i.HAL_UART_MspInit                       0x080017c0   Section        0  usart.o(i.HAL_UART_MspInit)
    i.HAL_UART_Transmit                      0x0800181c   Section        0  stm32l0xx_hal_uart.o(i.HAL_UART_Transmit)
    i.HardFault_Handler                      0x080018ea   Section        0  stm32l0xx_it.o(i.HardFault_Handler)
    i.I2C_Flush_TXDR                         0x080018ec   Section        0  stm32l0xx_hal_i2c.o(i.I2C_Flush_TXDR)
    I2C_Flush_TXDR                           0x080018ed   Thumb Code    34  stm32l0xx_hal_i2c.o(i.I2C_Flush_TXDR)
    i.I2C_IsAcknowledgeFailed                0x08001910   Section        0  stm32l0xx_hal_i2c.o(i.I2C_IsAcknowledgeFailed)
    I2C_IsAcknowledgeFailed                  0x08001911   Thumb Code   108  stm32l0xx_hal_i2c.o(i.I2C_IsAcknowledgeFailed)
    i.I2C_RequestMemoryRead                  0x08001980   Section        0  stm32l0xx_hal_i2c.o(i.I2C_RequestMemoryRead)
    I2C_RequestMemoryRead                    0x08001981   Thumb Code    92  stm32l0xx_hal_i2c.o(i.I2C_RequestMemoryRead)
    i.I2C_RequestMemoryWrite                 0x080019e0   Section        0  stm32l0xx_hal_i2c.o(i.I2C_RequestMemoryWrite)
    I2C_RequestMemoryWrite                   0x080019e1   Thumb Code    92  stm32l0xx_hal_i2c.o(i.I2C_RequestMemoryWrite)
    i.I2C_TransferConfig                     0x08001a40   Section        0  stm32l0xx_hal_i2c.o(i.I2C_TransferConfig)
    I2C_TransferConfig                       0x08001a41   Thumb Code    34  stm32l0xx_hal_i2c.o(i.I2C_TransferConfig)
    i.I2C_WaitOnFlagUntilTimeout             0x08001a68   Section        0  stm32l0xx_hal_i2c.o(i.I2C_WaitOnFlagUntilTimeout)
    I2C_WaitOnFlagUntilTimeout               0x08001a69   Thumb Code    78  stm32l0xx_hal_i2c.o(i.I2C_WaitOnFlagUntilTimeout)
    i.I2C_WaitOnSTOPFlagUntilTimeout         0x08001ab6   Section        0  stm32l0xx_hal_i2c.o(i.I2C_WaitOnSTOPFlagUntilTimeout)
    I2C_WaitOnSTOPFlagUntilTimeout           0x08001ab7   Thumb Code    76  stm32l0xx_hal_i2c.o(i.I2C_WaitOnSTOPFlagUntilTimeout)
    i.I2C_WaitOnTXISFlagUntilTimeout         0x08001b02   Section        0  stm32l0xx_hal_i2c.o(i.I2C_WaitOnTXISFlagUntilTimeout)
    I2C_WaitOnTXISFlagUntilTimeout           0x08001b03   Thumb Code    80  stm32l0xx_hal_i2c.o(i.I2C_WaitOnTXISFlagUntilTimeout)
    i.MX_GPIO_Init                           0x08001b54   Section        0  gpio.o(i.MX_GPIO_Init)
    i.MX_I2C1_Init                           0x08001c40   Section        0  custom_bus.o(i.MX_I2C1_Init)
    i.MX_NFC4_MAILBOX_Init                   0x08001c94   Section        0  app_nfc.o(i.MX_NFC4_MAILBOX_Init)
    i.MX_NFC4_MAILBOX_Process                0x08001d58   Section        0  app_nfc.o(i.MX_NFC4_MAILBOX_Process)
    i.MX_NFC_Init                            0x08001df0   Section        0  app_nfc.o(i.MX_NFC_Init)
    i.MX_NFC_Process                         0x08001df8   Section        0  app_nfc.o(i.MX_NFC_Process)
    i.MX_USART1_UART_Init                    0x08001e00   Section        0  usart.o(i.MX_USART1_UART_Init)
    i.NFC04A1_GPO_Init                       0x08001e38   Section        0  nfc04a1.o(i.NFC04A1_GPO_Init)
    i.NFC04A1_NFCTAG_ConfigIT                0x08001e90   Section        0  nfc04a1_nfctag.o(i.NFC04A1_NFCTAG_ConfigIT)
    i.NFC04A1_NFCTAG_Init                    0x08001eac   Section        0  nfc04a1_nfctag.o(i.NFC04A1_NFCTAG_Init)
    i.NFC04A1_NFCTAG_PresentI2CPassword      0x08001f1c   Section        0  nfc04a1_nfctag.o(i.NFC04A1_NFCTAG_PresentI2CPassword)
    i.NFC04A1_NFCTAG_ReadI2CSecuritySession_Dyn 0x08001f2c   Section        0  nfc04a1_nfctag.o(i.NFC04A1_NFCTAG_ReadI2CSecuritySession_Dyn)
    i.NFC04A1_NFCTAG_ReadMBCtrl_Dyn          0x08001f3c   Section        0  nfc04a1_nfctag.o(i.NFC04A1_NFCTAG_ReadMBCtrl_Dyn)
    i.NFC04A1_NFCTAG_ReadMBLength_Dyn        0x08001f4c   Section        0  nfc04a1_nfctag.o(i.NFC04A1_NFCTAG_ReadMBLength_Dyn)
    i.NFC04A1_NFCTAG_ReadMBMode              0x08001f5c   Section        0  nfc04a1_nfctag.o(i.NFC04A1_NFCTAG_ReadMBMode)
    i.NFC04A1_NFCTAG_ReadMailboxData         0x08001f6c   Section        0  nfc04a1_nfctag.o(i.NFC04A1_NFCTAG_ReadMailboxData)
    i.NFC04A1_NFCTAG_SetEHENMode_Dyn         0x08001f7c   Section        0  nfc04a1_nfctag.o(i.NFC04A1_NFCTAG_SetEHENMode_Dyn)
    i.NFC04A1_NFCTAG_SetMBEN_Dyn             0x08001f8c   Section        0  nfc04a1_nfctag.o(i.NFC04A1_NFCTAG_SetMBEN_Dyn)
    i.NFC04A1_NFCTAG_WriteEHMode             0x08001f9c   Section        0  nfc04a1_nfctag.o(i.NFC04A1_NFCTAG_WriteEHMode)
    i.NFC04A1_NFCTAG_WriteMBMode             0x08001fac   Section        0  nfc04a1_nfctag.o(i.NFC04A1_NFCTAG_WriteMBMode)
    i.NMI_Handler                            0x08001fbc   Section        0  stm32l0xx_it.o(i.NMI_Handler)
    i.NVIC_SetPriority                       0x08001fc0   Section        0  stm32l0xx_hal_cortex.o(i.NVIC_SetPriority)
    NVIC_SetPriority                         0x08001fc1   Thumb Code    60  stm32l0xx_hal_cortex.o(i.NVIC_SetPriority)
    i.PendSV_Handler                         0x08002004   Section        0  stm32l0xx_it.o(i.PendSV_Handler)
    i.ReadBusy                               0x08002006   Section        0  epd_w21.o(i.ReadBusy)
    ReadBusy                                 0x08002007   Thumb Code    48  epd_w21.o(i.ReadBusy)
    i.ReadRegWrap                            0x08002036   Section        0  st25dv.o(i.ReadRegWrap)
    ReadRegWrap                              0x08002037   Thumb Code    20  st25dv.o(i.ReadRegWrap)
    i.ST25DV_ConfigureGPO                    0x0800204a   Section        0  st25dv.o(i.ST25DV_ConfigureGPO)
    i.ST25DV_GetGPOStatus                    0x08002056   Section        0  st25dv.o(i.ST25DV_GetGPOStatus)
    i.ST25DV_GetGPO_ALL                      0x08002070   Section        0  st25dv_reg.o(i.ST25DV_GetGPO_ALL)
    i.ST25DV_GetI2C_SSO_DYN_I2CSSO           0x08002088   Section        0  st25dv_reg.o(i.ST25DV_GetI2C_SSO_DYN_I2CSSO)
    i.ST25DV_GetICREF                        0x080020b0   Section        0  st25dv_reg.o(i.ST25DV_GetICREF)
    i.ST25DV_GetMBLEN_DYN_MBLEN              0x080020c8   Section        0  st25dv_reg.o(i.ST25DV_GetMBLEN_DYN_MBLEN)
    i.ST25DV_GetMB_CTRL_DYN_ALL              0x080020e4   Section        0  st25dv_reg.o(i.ST25DV_GetMB_CTRL_DYN_ALL)
    i.ST25DV_GetMB_MODE_RW                   0x08002100   Section        0  st25dv_reg.o(i.ST25DV_GetMB_MODE_RW)
    i.ST25DV_Init                            0x08002124   Section        0  st25dv.o(i.ST25DV_Init)
    i.ST25DV_IsDeviceReady                   0x08002150   Section        0  st25dv.o(i.ST25DV_IsDeviceReady)
    i.ST25DV_PresentI2CPassword              0x08002156   Section        0  st25dv.o(i.ST25DV_PresentI2CPassword)
    i.ST25DV_ReadData                        0x080021a2   Section        0  st25dv.o(i.ST25DV_ReadData)
    i.ST25DV_ReadI2CSecuritySession_Dyn      0x080021b4   Section        0  st25dv.o(i.ST25DV_ReadI2CSecuritySession_Dyn)
    i.ST25DV_ReadID                          0x080021d4   Section        0  st25dv.o(i.ST25DV_ReadID)
    i.ST25DV_ReadMBCtrl_Dyn                  0x080021de   Section        0  st25dv.o(i.ST25DV_ReadMBCtrl_Dyn)
    i.ST25DV_ReadMBLength_Dyn                0x0800221c   Section        0  st25dv.o(i.ST25DV_ReadMBLength_Dyn)
    i.ST25DV_ReadMBMode                      0x08002226   Section        0  st25dv.o(i.ST25DV_ReadMBMode)
    i.ST25DV_ReadMailboxData                 0x08002248   Section        0  st25dv.o(i.ST25DV_ReadMailboxData)
    i.ST25DV_ReadReg                         0x08002274   Section        0  st25dv_reg.o(i.ST25DV_ReadReg)
    i.ST25DV_RegisterBusIO                   0x08002284   Section        0  st25dv.o(i.ST25DV_RegisterBusIO)
    i.ST25DV_SetEHENMode_Dyn                 0x080022c8   Section        0  st25dv.o(i.ST25DV_SetEHENMode_Dyn)
    i.ST25DV_SetEH_CTRL_DYN_EH_EN            0x080022dc   Section        0  st25dv_reg.o(i.ST25DV_SetEH_CTRL_DYN_EH_EN)
    i.ST25DV_SetEH_MODE                      0x08002324   Section        0  st25dv_reg.o(i.ST25DV_SetEH_MODE)
    i.ST25DV_SetGPO_ALL                      0x08002364   Section        0  st25dv_reg.o(i.ST25DV_SetGPO_ALL)
    i.ST25DV_SetMBEN_Dyn                     0x0800237a   Section        0  st25dv.o(i.ST25DV_SetMBEN_Dyn)
    i.ST25DV_SetMB_CTRL_DYN_MBEN             0x0800238c   Section        0  st25dv_reg.o(i.ST25DV_SetMB_CTRL_DYN_MBEN)
    i.ST25DV_SetMB_MODE_RW                   0x080023d4   Section        0  st25dv_reg.o(i.ST25DV_SetMB_MODE_RW)
    i.ST25DV_WriteData                       0x08002414   Section        0  st25dv.o(i.ST25DV_WriteData)
    i.ST25DV_WriteEHMode                     0x0800248a   Section        0  st25dv.o(i.ST25DV_WriteEHMode)
    i.ST25DV_WriteMBMode                     0x0800249a   Section        0  st25dv.o(i.ST25DV_WriteMBMode)
    i.ST25DV_WriteReg                        0x080024aa   Section        0  st25dv_reg.o(i.ST25DV_WriteReg)
    i.ST25DV_WriteRegister                   0x080024b8   Section        0  st25dv.o(i.ST25DV_WriteRegister)
    i.SVC_Handler                            0x08002532   Section        0  stm32l0xx_it.o(i.SVC_Handler)
    i.SpiDelay                               0x08002534   Section        0  epd_w21.o(i.SpiDelay)
    i.SpiWrite                               0x0800254a   Section        0  epd_w21.o(i.SpiWrite)
    i.SysTick_Handler                        0x080025a0   Section        0  stm32l0xx_it.o(i.SysTick_Handler)
    i.SystemClock_Config                     0x080025a8   Section        0  main.o(i.SystemClock_Config)
    i.SystemInit                             0x08002614   Section        0  system_stm32l0xx_1.o(i.SystemInit)
    i.UART_AdvFeatureConfig                  0x08002668   Section        0  stm32l0xx_hal_uart.o(i.UART_AdvFeatureConfig)
    i.UART_CheckIdleState                    0x08002734   Section        0  stm32l0xx_hal_uart.o(i.UART_CheckIdleState)
    i.UART_SetConfig                         0x08002794   Section        0  stm32l0xx_hal_uart.o(i.UART_SetConfig)
    i.UART_WaitOnFlagUntilTimeout            0x080029bc   Section        0  stm32l0xx_hal_uart.o(i.UART_WaitOnFlagUntilTimeout)
    i.WriteRegWrap                           0x08002a1e   Section        0  st25dv.o(i.WriteRegWrap)
    WriteRegWrap                             0x08002a1f   Thumb Code    72  st25dv.o(i.WriteRegWrap)
    i.__0printf$bare                         0x08002a68   Section        0  printfb.o(i.__0printf$bare)
    i.__ARM_common_switch8                   0x08002a7c   Section        0  stm32l0xx_hal_dma.o(i.__ARM_common_switch8)
    i.__scatterload_copy                     0x08002a96   Section       14  handlers.o(i.__scatterload_copy)
    i.__scatterload_null                     0x08002aa4   Section        2  handlers.o(i.__scatterload_null)
    i.__scatterload_zeroinit                 0x08002aa6   Section       14  handlers.o(i.__scatterload_zeroinit)
    i._printf_core                           0x08002ab4   Section        0  printfb.o(i._printf_core)
    _printf_core                             0x08002ab5   Thumb Code    30  printfb.o(i._printf_core)
    i.fputc                                  0x08002ad4   Section        0  main.o(i.fputc)
    i.main                                   0x08002aec   Section        0  main.o(i.main)
    .constdata                               0x08002b0a   Section       31  epd_w21.o(.constdata)
    .constdata                               0x08002b29   Section       25  system_stm32l0xx_1.o(.constdata)
    .constdata                               0x08002b42   Section        8  system_stm32l0xx_1.o(.constdata)
    .data                                    0x20000000   Section     5000  main.o(.data)
    .data                                    0x20001388   Section       14  epd_w21.o(.data)
    .data                                    0x20001398   Section       28  app_nfc.o(.data)
    .data                                    0x200013b4   Section        4  custom_bus.o(.data)
    I2C1InitCounter                          0x200013b4   Data           4  custom_bus.o(.data)
    .data                                    0x200013b8   Section       28  st25dv.o(.data)
    .data                                    0x200013d4   Section        8  nfc04a1.o(.data)
    .data                                    0x200013dc   Section        4  nfc04a1_nfctag.o(.data)
    Nfctag_Drv                               0x200013dc   Data           4  nfc04a1_nfctag.o(.data)
    .data                                    0x200013e0   Section        4  stm32l0xx_hal.o(.data)
    .data                                    0x200013e4   Section        4  system_stm32l0xx_1.o(.data)
    .data                                    0x200013e8   Section        4  stdout.o(.data)
    .bss                                     0x200013ec   Section      128  usart.o(.bss)
    .bss                                     0x2000146c   Section       76  custom_bus.o(.bss)
    .bss                                     0x200014b8   Section       40  nfc04a1_nfctag.o(.bss)
    NfcTagObj                                0x200014b8   Data          40  nfc04a1_nfctag.o(.bss)
    STACK                                    0x200014e0   Section     1024  startup_stm32l051xx.o(STACK)

    Global Symbols

    Symbol Name                              Value     Ov Type        Size  Object(Section)

    BuildAttributes$$THM_ISAv3M$S$PE$A:L22$X:L11$S22$IEEE1$IW$USESV6$~STKCKD$USESV7$~SHL$OSPACE$ROPI$EBA8$MICROLIB$REQ8$PRES8$EABIv2 0x00000000   Number         0  anon$$obj.o ABSOLUTE
    __ARM_use_no_argv                        0x00000000   Number         0  main.o ABSOLUTE
    __cpp_initialize__aeabi_                  - Undefined Weak Reference
    __cxa_finalize                            - Undefined Weak Reference
    _clock_init                               - Undefined Weak Reference
    _microlib_exit                            - Undefined Weak Reference
    __Vectors_Size                           0x000000c0   Number         0  startup_stm32l051xx.o ABSOLUTE
    __Vectors                                0x08000000   Data           4  startup_stm32l051xx.o(RESET)
    __Vectors_End                            0x080000c0   Data           0  startup_stm32l051xx.o(RESET)
    __main                                   0x080000c1   Thumb Code     0  entry.o(.ARM.Collect$$$$00000000)
    _main_stk                                0x080000c1   Thumb Code     0  entry2.o(.ARM.Collect$$$$00000001)
    _main_scatterload                        0x080000c5   Thumb Code     0  entry5.o(.ARM.Collect$$$$00000004)
    __main_after_scatterload                 0x080000c9   Thumb Code     0  entry5.o(.ARM.Collect$$$$00000004)
    _main_clock                              0x080000c9   Thumb Code     0  entry7b.o(.ARM.Collect$$$$00000008)
    _main_cpp_init                           0x080000c9   Thumb Code     0  entry8b.o(.ARM.Collect$$$$0000000A)
    _main_init                               0x080000c9   Thumb Code     0  entry9a.o(.ARM.Collect$$$$0000000B)
    __rt_final_cpp                           0x080000d1   Thumb Code     0  entry10a.o(.ARM.Collect$$$$0000000D)
    __rt_final_exit                          0x080000d1   Thumb Code     0  entry11a.o(.ARM.Collect$$$$0000000F)
    Reset_Handler                            0x080000d5   Thumb Code     8  startup_stm32l051xx.o(.text)
    ADC1_COMP_IRQHandler                     0x080000e7   Thumb Code     0  startup_stm32l051xx.o(.text)
    DMA1_Channel1_IRQHandler                 0x080000e7   Thumb Code     0  startup_stm32l051xx.o(.text)
    DMA1_Channel2_3_IRQHandler               0x080000e7   Thumb Code     0  startup_stm32l051xx.o(.text)
    DMA1_Channel4_5_6_7_IRQHandler           0x080000e7   Thumb Code     0  startup_stm32l051xx.o(.text)
    EXTI0_1_IRQHandler                       0x080000e7   Thumb Code     0  startup_stm32l051xx.o(.text)
    EXTI4_15_IRQHandler                      0x080000e7   Thumb Code     0  startup_stm32l051xx.o(.text)
    FLASH_IRQHandler                         0x080000e7   Thumb Code     0  startup_stm32l051xx.o(.text)
    I2C1_IRQHandler                          0x080000e7   Thumb Code     0  startup_stm32l051xx.o(.text)
    I2C2_IRQHandler                          0x080000e7   Thumb Code     0  startup_stm32l051xx.o(.text)
    LPTIM1_IRQHandler                        0x080000e7   Thumb Code     0  startup_stm32l051xx.o(.text)
    LPUART1_IRQHandler                       0x080000e7   Thumb Code     0  startup_stm32l051xx.o(.text)
    PVD_IRQHandler                           0x080000e7   Thumb Code     0  startup_stm32l051xx.o(.text)
    RCC_IRQHandler                           0x080000e7   Thumb Code     0  startup_stm32l051xx.o(.text)
    RTC_IRQHandler                           0x080000e7   Thumb Code     0  startup_stm32l051xx.o(.text)
    SPI1_IRQHandler                          0x080000e7   Thumb Code     0  startup_stm32l051xx.o(.text)
    SPI2_IRQHandler                          0x080000e7   Thumb Code     0  startup_stm32l051xx.o(.text)
    TIM21_IRQHandler                         0x080000e7   Thumb Code     0  startup_stm32l051xx.o(.text)
    TIM22_IRQHandler                         0x080000e7   Thumb Code     0  startup_stm32l051xx.o(.text)
    TIM2_IRQHandler                          0x080000e7   Thumb Code     0  startup_stm32l051xx.o(.text)
    TIM6_IRQHandler                          0x080000e7   Thumb Code     0  startup_stm32l051xx.o(.text)
    USART1_IRQHandler                        0x080000e7   Thumb Code     0  startup_stm32l051xx.o(.text)
    USART2_IRQHandler                        0x080000e7   Thumb Code     0  startup_stm32l051xx.o(.text)
    WWDG_IRQHandler                          0x080000e7   Thumb Code     0  startup_stm32l051xx.o(.text)
    __aeabi_uidiv                            0x080000f1   Thumb Code     0  uidiv.o(.text)
    __aeabi_uidivmod                         0x080000f1   Thumb Code    44  uidiv.o(.text)
    __aeabi_uldivmod                         0x0800011d   Thumb Code    96  uldiv.o(.text)
    __aeabi_memset                           0x0800017d   Thumb Code    14  memseta.o(.text)
    __aeabi_memset4                          0x0800017d   Thumb Code     0  memseta.o(.text)
    __aeabi_memset8                          0x0800017d   Thumb Code     0  memseta.o(.text)
    __aeabi_memclr                           0x0800018b   Thumb Code     4  memseta.o(.text)
    __aeabi_memclr4                          0x0800018b   Thumb Code     0  memseta.o(.text)
    __aeabi_memclr8                          0x0800018b   Thumb Code     0  memseta.o(.text)
    _memset$wrapper                          0x0800018f   Thumb Code    18  memseta.o(.text)
    __aeabi_llsl                             0x080001a1   Thumb Code    32  llshl.o(.text)
    _ll_shift_l                              0x080001a1   Thumb Code     0  llshl.o(.text)
    __aeabi_llsr                             0x080001c1   Thumb Code    34  llushr.o(.text)
    _ll_ushift_r                             0x080001c1   Thumb Code     0  llushr.o(.text)
    __scatterload                            0x080001e5   Thumb Code    28  init.o(.text)
    __scatterload_rt2                        0x080001e5   Thumb Code     0  init.o(.text)
    __decompress                             0x08000209   Thumb Code     0  __dczerorl2.o(.text)
    __decompress1                            0x08000209   Thumb Code    86  __dczerorl2.o(.text)
    BSP_GPO_Callback                         0x08000261   Thumb Code     8  app_nfc.o(i.BSP_GPO_Callback)
    BSP_I2C1_DeInit                          0x0800026d   Thumb Code    56  custom_bus.o(i.BSP_I2C1_DeInit)
    BSP_I2C1_Init                            0x080002b5   Thumb Code   120  custom_bus.o(i.BSP_I2C1_Init)
    BSP_I2C1_IsReady                         0x08000341   Thumb Code    28  custom_bus.o(i.BSP_I2C1_IsReady)
    BSP_I2C1_ReadReg16                       0x08000361   Thumb Code    54  custom_bus.o(i.BSP_I2C1_ReadReg16)
    BSP_I2C1_WriteReg16                      0x0800039d   Thumb Code    52  custom_bus.o(i.BSP_I2C1_WriteReg16)
    EXTI2_3_IRQHandler                       0x080003d5   Thumb Code    10  stm32l0xx_it.o(i.EXTI2_3_IRQHandler)
    EpdDisFull                               0x080003e5   Thumb Code    64  epd_w21.o(i.EpdDisFull)
    EpdInitFull                              0x08000425   Thumb Code    64  epd_w21.o(i.EpdInitFull)
    Error_Handler                            0x080006bd   Thumb Code     2  main.o(i.Error_Handler)
    HAL_Delay                                0x080006bf   Thumb Code    28  stm32l0xx_hal.o(i.HAL_Delay)
    HAL_EXTI_GetHandle                       0x080006db   Thumb Code    14  stm32l0xx_hal_exti.o(i.HAL_EXTI_GetHandle)
    HAL_EXTI_IRQHandler                      0x080006e9   Thumb Code    30  stm32l0xx_hal_exti.o(i.HAL_EXTI_IRQHandler)
    HAL_EXTI_RegisterCallback                0x0800070d   Thumb Code    16  stm32l0xx_hal_exti.o(i.HAL_EXTI_RegisterCallback)
    HAL_GPIO_DeInit                          0x0800071d   Thumb Code   202  stm32l0xx_hal_gpio.o(i.HAL_GPIO_DeInit)
    HAL_GPIO_Init                            0x08000801   Thumb Code   346  stm32l0xx_hal_gpio.o(i.HAL_GPIO_Init)
    HAL_GPIO_ReadPin                         0x08000979   Thumb Code    10  stm32l0xx_hal_gpio.o(i.HAL_GPIO_ReadPin)
    HAL_GPIO_WritePin                        0x08000983   Thumb Code    12  stm32l0xx_hal_gpio.o(i.HAL_GPIO_WritePin)
    HAL_GetTick                              0x08000991   Thumb Code     6  stm32l0xx_hal.o(i.HAL_GetTick)
    HAL_I2CEx_ConfigAnalogFilter             0x0800099d   Thumb Code    74  stm32l0xx_hal_i2c_ex.o(i.HAL_I2CEx_ConfigAnalogFilter)
    HAL_I2CEx_ConfigDigitalFilter            0x080009e7   Thumb Code    72  stm32l0xx_hal_i2c_ex.o(i.HAL_I2CEx_ConfigDigitalFilter)
    HAL_I2C_DeInit                           0x08000a2f   Thumb Code    52  stm32l0xx_hal_i2c.o(i.HAL_I2C_DeInit)
    HAL_I2C_GetError                         0x08000a63   Thumb Code     4  stm32l0xx_hal_i2c.o(i.HAL_I2C_GetError)
    HAL_I2C_GetState                         0x08000a67   Thumb Code     6  stm32l0xx_hal_i2c.o(i.HAL_I2C_GetState)
    HAL_I2C_Init                             0x08000a6d   Thumb Code   176  stm32l0xx_hal_i2c.o(i.HAL_I2C_Init)
    HAL_I2C_IsDeviceReady                    0x08000b21   Thumb Code   282  stm32l0xx_hal_i2c.o(i.HAL_I2C_IsDeviceReady)
    HAL_I2C_Mem_Read                         0x08000c41   Thumb Code   332  stm32l0xx_hal_i2c.o(i.HAL_I2C_Mem_Read)
    HAL_I2C_Mem_Write                        0x08000d95   Thumb Code   326  stm32l0xx_hal_i2c.o(i.HAL_I2C_Mem_Write)
    HAL_I2C_MspDeInit                        0x08000ee1   Thumb Code     2  stm32l0xx_hal_i2c.o(i.HAL_I2C_MspDeInit)
    HAL_I2C_MspInit                          0x08000ee3   Thumb Code     2  stm32l0xx_hal_i2c.o(i.HAL_I2C_MspInit)
    HAL_IncTick                              0x08000ee5   Thumb Code    10  stm32l0xx_hal.o(i.HAL_IncTick)
    HAL_Init                                 0x08000ef5   Thumb Code    36  stm32l0xx_hal.o(i.HAL_Init)
    HAL_InitTick                             0x08000f1d   Thumb Code    44  stm32l0xx_hal.o(i.HAL_InitTick)
    HAL_MspInit                              0x08000f4d   Thumb Code    20  stm32l0xx_hal_msp.o(i.HAL_MspInit)
    HAL_NVIC_EnableIRQ                       0x08000f65   Thumb Code    14  stm32l0xx_hal_cortex.o(i.HAL_NVIC_EnableIRQ)
    HAL_NVIC_SetPriority                     0x08000f79   Thumb Code     8  stm32l0xx_hal_cortex.o(i.HAL_NVIC_SetPriority)
    HAL_RCCEx_PeriphCLKConfig                0x08000f81   Thumb Code   342  stm32l0xx_hal_rcc_ex.o(i.HAL_RCCEx_PeriphCLKConfig)
    HAL_RCC_ClockConfig                      0x080010e5   Thumb Code   344  stm32l0xx_hal_rcc.o(i.HAL_RCC_ClockConfig)
    HAL_RCC_GetPCLK1Freq                     0x08001251   Thumb Code    20  stm32l0xx_hal_rcc.o(i.HAL_RCC_GetPCLK1Freq)
    HAL_RCC_GetPCLK2Freq                     0x08001271   Thumb Code    20  stm32l0xx_hal_rcc.o(i.HAL_RCC_GetPCLK2Freq)
    HAL_RCC_GetSysClockFreq                  0x08001291   Thumb Code   100  stm32l0xx_hal_rcc.o(i.HAL_RCC_GetSysClockFreq)
    HAL_RCC_OscConfig                        0x08001309   Thumb Code  1052  stm32l0xx_hal_rcc.o(i.HAL_RCC_OscConfig)
    HAL_SYSTICK_Config                       0x08001725   Thumb Code    38  stm32l0xx_hal_cortex.o(i.HAL_SYSTICK_Config)
    HAL_UART_Init                            0x08001755   Thumb Code   106  stm32l0xx_hal_uart.o(i.HAL_UART_Init)
    HAL_UART_MspInit                         0x080017c1   Thumb Code    84  usart.o(i.HAL_UART_MspInit)
    HAL_UART_Transmit                        0x0800181d   Thumb Code   206  stm32l0xx_hal_uart.o(i.HAL_UART_Transmit)
    HardFault_Handler                        0x080018eb   Thumb Code     2  stm32l0xx_it.o(i.HardFault_Handler)
    MX_GPIO_Init                             0x08001b55   Thumb Code   216  gpio.o(i.MX_GPIO_Init)
    MX_I2C1_Init                             0x08001c41   Thumb Code    74  custom_bus.o(i.MX_I2C1_Init)
    MX_NFC4_MAILBOX_Init                     0x08001c95   Thumb Code   162  app_nfc.o(i.MX_NFC4_MAILBOX_Init)
    MX_NFC4_MAILBOX_Process                  0x08001d59   Thumb Code   136  app_nfc.o(i.MX_NFC4_MAILBOX_Process)
    MX_NFC_Init                              0x08001df1   Thumb Code     8  app_nfc.o(i.MX_NFC_Init)
    MX_NFC_Process                           0x08001df9   Thumb Code     8  app_nfc.o(i.MX_NFC_Process)
    MX_USART1_UART_Init                      0x08001e01   Thumb Code    48  usart.o(i.MX_USART1_UART_Init)
    NFC04A1_GPO_Init                         0x08001e39   Thumb Code    70  nfc04a1.o(i.NFC04A1_GPO_Init)
    NFC04A1_NFCTAG_ConfigIT                  0x08001e91   Thumb Code    20  nfc04a1_nfctag.o(i.NFC04A1_NFCTAG_ConfigIT)
    NFC04A1_NFCTAG_Init                      0x08001ead   Thumb Code    76  nfc04a1_nfctag.o(i.NFC04A1_NFCTAG_Init)
    NFC04A1_NFCTAG_PresentI2CPassword        0x08001f1d   Thumb Code    10  nfc04a1_nfctag.o(i.NFC04A1_NFCTAG_PresentI2CPassword)
    NFC04A1_NFCTAG_ReadI2CSecuritySession_Dyn 0x08001f2d   Thumb Code    10  nfc04a1_nfctag.o(i.NFC04A1_NFCTAG_ReadI2CSecuritySession_Dyn)
    NFC04A1_NFCTAG_ReadMBCtrl_Dyn            0x08001f3d   Thumb Code    10  nfc04a1_nfctag.o(i.NFC04A1_NFCTAG_ReadMBCtrl_Dyn)
    NFC04A1_NFCTAG_ReadMBLength_Dyn          0x08001f4d   Thumb Code    10  nfc04a1_nfctag.o(i.NFC04A1_NFCTAG_ReadMBLength_Dyn)
    NFC04A1_NFCTAG_ReadMBMode                0x08001f5d   Thumb Code    10  nfc04a1_nfctag.o(i.NFC04A1_NFCTAG_ReadMBMode)
    NFC04A1_NFCTAG_ReadMailboxData           0x08001f6d   Thumb Code    10  nfc04a1_nfctag.o(i.NFC04A1_NFCTAG_ReadMailboxData)
    NFC04A1_NFCTAG_SetEHENMode_Dyn           0x08001f7d   Thumb Code    10  nfc04a1_nfctag.o(i.NFC04A1_NFCTAG_SetEHENMode_Dyn)
    NFC04A1_NFCTAG_SetMBEN_Dyn               0x08001f8d   Thumb Code    10  nfc04a1_nfctag.o(i.NFC04A1_NFCTAG_SetMBEN_Dyn)
    NFC04A1_NFCTAG_WriteEHMode               0x08001f9d   Thumb Code    10  nfc04a1_nfctag.o(i.NFC04A1_NFCTAG_WriteEHMode)
    NFC04A1_NFCTAG_WriteMBMode               0x08001fad   Thumb Code    10  nfc04a1_nfctag.o(i.NFC04A1_NFCTAG_WriteMBMode)
    NMI_Handler                              0x08001fbd   Thumb Code     2  stm32l0xx_it.o(i.NMI_Handler)
    PendSV_Handler                           0x08002005   Thumb Code     2  stm32l0xx_it.o(i.PendSV_Handler)
    ST25DV_ConfigureGPO                      0x0800204b   Thumb Code    12  st25dv.o(i.ST25DV_ConfigureGPO)
    ST25DV_GetGPOStatus                      0x08002057   Thumb Code    26  st25dv.o(i.ST25DV_GetGPOStatus)
    ST25DV_GetGPO_ALL                        0x08002071   Thumb Code    22  st25dv_reg.o(i.ST25DV_GetGPO_ALL)
    ST25DV_GetI2C_SSO_DYN_I2CSSO             0x08002089   Thumb Code    36  st25dv_reg.o(i.ST25DV_GetI2C_SSO_DYN_I2CSSO)
    ST25DV_GetICREF                          0x080020b1   Thumb Code    22  st25dv_reg.o(i.ST25DV_GetICREF)
    ST25DV_GetMBLEN_DYN_MBLEN                0x080020c9   Thumb Code    22  st25dv_reg.o(i.ST25DV_GetMBLEN_DYN_MBLEN)
    ST25DV_GetMB_CTRL_DYN_ALL                0x080020e5   Thumb Code    22  st25dv_reg.o(i.ST25DV_GetMB_CTRL_DYN_ALL)
    ST25DV_GetMB_MODE_RW                     0x08002101   Thumb Code    36  st25dv_reg.o(i.ST25DV_GetMB_MODE_RW)
    ST25DV_Init                              0x08002125   Thumb Code    44  st25dv.o(i.ST25DV_Init)
    ST25DV_IsDeviceReady                     0x08002151   Thumb Code     6  st25dv.o(i.ST25DV_IsDeviceReady)
    ST25DV_PresentI2CPassword                0x08002157   Thumb Code    76  st25dv.o(i.ST25DV_PresentI2CPassword)
    ST25DV_ReadData                          0x080021a3   Thumb Code    18  st25dv.o(i.ST25DV_ReadData)
    ST25DV_ReadI2CSecuritySession_Dyn        0x080021b5   Thumb Code    32  st25dv.o(i.ST25DV_ReadI2CSecuritySession_Dyn)
    ST25DV_ReadID                            0x080021d5   Thumb Code    10  st25dv.o(i.ST25DV_ReadID)
    ST25DV_ReadMBCtrl_Dyn                    0x080021df   Thumb Code    62  st25dv.o(i.ST25DV_ReadMBCtrl_Dyn)
    ST25DV_ReadMBLength_Dyn                  0x0800221d   Thumb Code    10  st25dv.o(i.ST25DV_ReadMBLength_Dyn)
    ST25DV_ReadMBMode                        0x08002227   Thumb Code    32  st25dv.o(i.ST25DV_ReadMBMode)
    ST25DV_ReadMailboxData                   0x08002249   Thumb Code    38  st25dv.o(i.ST25DV_ReadMailboxData)
    ST25DV_ReadReg                           0x08002275   Thumb Code    14  st25dv_reg.o(i.ST25DV_ReadReg)
    ST25DV_RegisterBusIO                     0x08002285   Thumb Code    60  st25dv.o(i.ST25DV_RegisterBusIO)
    ST25DV_SetEHENMode_Dyn                   0x080022c9   Thumb Code    18  st25dv.o(i.ST25DV_SetEHENMode_Dyn)
    ST25DV_SetEH_CTRL_DYN_EH_EN              0x080022dd   Thumb Code    66  st25dv_reg.o(i.ST25DV_SetEH_CTRL_DYN_EH_EN)
    ST25DV_SetEH_MODE                        0x08002325   Thumb Code    64  st25dv_reg.o(i.ST25DV_SetEH_MODE)
    ST25DV_SetGPO_ALL                        0x08002365   Thumb Code    22  st25dv_reg.o(i.ST25DV_SetGPO_ALL)
    ST25DV_SetMBEN_Dyn                       0x0800237b   Thumb Code    18  st25dv.o(i.ST25DV_SetMBEN_Dyn)
    ST25DV_SetMB_CTRL_DYN_MBEN               0x0800238d   Thumb Code    66  st25dv_reg.o(i.ST25DV_SetMB_CTRL_DYN_MBEN)
    ST25DV_SetMB_MODE_RW                     0x080023d5   Thumb Code    64  st25dv_reg.o(i.ST25DV_SetMB_MODE_RW)
    ST25DV_WriteData                         0x08002415   Thumb Code   118  st25dv.o(i.ST25DV_WriteData)
    ST25DV_WriteEHMode                       0x0800248b   Thumb Code    16  st25dv.o(i.ST25DV_WriteEHMode)
    ST25DV_WriteMBMode                       0x0800249b   Thumb Code    16  st25dv.o(i.ST25DV_WriteMBMode)
    ST25DV_WriteReg                          0x080024ab   Thumb Code    14  st25dv_reg.o(i.ST25DV_WriteReg)
    ST25DV_WriteRegister                     0x080024b9   Thumb Code   122  st25dv.o(i.ST25DV_WriteRegister)
    SVC_Handler                              0x08002533   Thumb Code     2  stm32l0xx_it.o(i.SVC_Handler)
    SpiDelay                                 0x08002535   Thumb Code    22  epd_w21.o(i.SpiDelay)
    SpiWrite                                 0x0800254b   Thumb Code    86  epd_w21.o(i.SpiWrite)
    SysTick_Handler                          0x080025a1   Thumb Code     8  stm32l0xx_it.o(i.SysTick_Handler)
    SystemClock_Config                       0x080025a9   Thumb Code   104  main.o(i.SystemClock_Config)
    SystemInit                               0x08002615   Thumb Code    66  system_stm32l0xx_1.o(i.SystemInit)
    UART_AdvFeatureConfig                    0x08002669   Thumb Code   202  stm32l0xx_hal_uart.o(i.UART_AdvFeatureConfig)
    UART_CheckIdleState                      0x08002735   Thumb Code    90  stm32l0xx_hal_uart.o(i.UART_CheckIdleState)
    UART_SetConfig                           0x08002795   Thumb Code   506  stm32l0xx_hal_uart.o(i.UART_SetConfig)
    UART_WaitOnFlagUntilTimeout              0x080029bd   Thumb Code    98  stm32l0xx_hal_uart.o(i.UART_WaitOnFlagUntilTimeout)
    __0printf$bare                           0x08002a69   Thumb Code    12  printfb.o(i.__0printf$bare)
    __1printf$bare                           0x08002a69   Thumb Code     0  printfb.o(i.__0printf$bare)
    __2printf                                0x08002a69   Thumb Code     0  printfb.o(i.__0printf$bare)
    __ARM_common_switch8                     0x08002a7d   Thumb Code    26  stm32l0xx_hal_dma.o(i.__ARM_common_switch8)
    __scatterload_copy                       0x08002a97   Thumb Code    14  handlers.o(i.__scatterload_copy)
    __scatterload_null                       0x08002aa5   Thumb Code     2  handlers.o(i.__scatterload_null)
    __scatterload_zeroinit                   0x08002aa7   Thumb Code    14  handlers.o(i.__scatterload_zeroinit)
    fputc                                    0x08002ad5   Thumb Code    20  main.o(i.fputc)
    main                                     0x08002aed   Thumb Code    30  main.o(i.main)
    LUTDefault_full                          0x08002b0a   Data          31  epd_w21.o(.constdata)
    AHBPrescTable                            0x08002b29   Data          16  system_stm32l0xx_1.o(.constdata)
    PLLMulTable                              0x08002b39   Data           9  system_stm32l0xx_1.o(.constdata)
    APBPrescTable                            0x08002b42   Data           8  system_stm32l0xx_1.o(.constdata)
    Region$$Table$$Base                      0x08002b4c   Number         0  anon$$obj.o(Region$$Table)
    Region$$Table$$Limit                     0x08002b6c   Number         0  anon$$obj.o(Region$$Table)
    nfcBuffer                                0x20000000   Data        5000  main.o(.data)
    dummyLine                                0x20001388   Data           2  epd_w21.o(.data)
    gateTime                                 0x2000138a   Data           2  epd_w21.o(.data)
    ramDataEntryMode                         0x2000138c   Data           2  epd_w21.o(.data)
    GDOControl                               0x2000138e   Data           4  epd_w21.o(.data)
    softStart                                0x20001392   Data           4  epd_w21.o(.data)
    GPOActivated                             0x20001398   Data           1  app_nfc.o(.data)
    MB_mode                                  0x20001399   Data           1  app_nfc.o(.data)
    i2csso                                   0x2000139a   Data           1  app_nfc.o(.data)
    mblength                                 0x2000139c   Data           2  app_nfc.o(.data)
    bufferIndex                              0x200013a0   Data           4  app_nfc.o(.data)
    mbctrldynstatus                          0x200013a4   Data           6  app_nfc.o(.data)
    passwd                                   0x200013ac   Data           8  app_nfc.o(.data)
    St25Dv_Drv                               0x200013b8   Data          28  st25dv.o(.data)
    GPO_EXTI                                 0x200013d4   Data           8  nfc04a1.o(.data)
    uwTick                                   0x200013e0   Data           4  stm32l0xx_hal.o(.data)
    SystemCoreClock                          0x200013e4   Data           4  system_stm32l0xx_1.o(.data)
    __stdout                                 0x200013e8   Data           4  stdout.o(.data)
    huart1                                   0x200013ec   Data         128  usart.o(.bss)
    hi2c1                                    0x2000146c   Data          76  custom_bus.o(.bss)
    __initial_sp                             0x200018e0   Data           0  startup_stm32l051xx.o(STACK)



==============================================================================

Memory Map of the image

  Image Entry point : 0x080000c1

  Load Region LR_IROM1 (Base: 0x08000000, Size: 0x00003f58, Max: 0x00010000, ABSOLUTE, COMPRESSED[0x00002e38])

    Execution Region ER_IROM1 (Base: 0x08000000, Size: 0x00002b6c, Max: 0x00010000, ABSOLUTE)

    Base Addr    Size         Type   Attr      Idx    E Section Name        Object

    0x08000000   0x000000c0   Data   RO            3    RESET               startup_stm32l051xx.o
    0x080000c0   0x00000000   Code   RO         4533  * .ARM.Collect$$$$00000000  mc_p.l(entry.o)
    0x080000c0   0x00000004   Code   RO         4802    .ARM.Collect$$$$00000001  mc_p.l(entry2.o)
    0x080000c4   0x00000004   Code   RO         4805    .ARM.Collect$$$$00000004  mc_p.l(entry5.o)
    0x080000c8   0x00000000   Code   RO         4807    .ARM.Collect$$$$00000008  mc_p.l(entry7b.o)
    0x080000c8   0x00000000   Code   RO         4809    .ARM.Collect$$$$0000000A  mc_p.l(entry8b.o)
    0x080000c8   0x00000008   Code   RO         4810    .ARM.Collect$$$$0000000B  mc_p.l(entry9a.o)
    0x080000d0   0x00000000   Code   RO         4812    .ARM.Collect$$$$0000000D  mc_p.l(entry10a.o)
    0x080000d0   0x00000000   Code   RO         4814    .ARM.Collect$$$$0000000F  mc_p.l(entry11a.o)
    0x080000d0   0x00000004   Code   RO         4803    .ARM.Collect$$$$00002712  mc_p.l(entry2.o)
    0x080000d4   0x0000001c   Code   RO            4    .text               startup_stm32l051xx.o
    0x080000f0   0x0000002c   Code   RO         4536    .text               mc_p.l(uidiv.o)
    0x0800011c   0x00000060   Code   RO         4538    .text               mc_p.l(uldiv.o)
    0x0800017c   0x00000024   Code   RO         4540    .text               mc_p.l(memseta.o)
    0x080001a0   0x00000020   Code   RO         4817    .text               mc_p.l(llshl.o)
    0x080001c0   0x00000022   Code   RO         4819    .text               mc_p.l(llushr.o)
    0x080001e2   0x00000002   PAD
    0x080001e4   0x00000024   Code   RO         4832    .text               mc_p.l(init.o)
    0x08000208   0x00000056   Code   RO         4848    .text               mc_p.l(__dczerorl2.o)
    0x0800025e   0x00000002   PAD
    0x08000260   0x0000000c   Code   RO          406    i.BSP_GPO_Callback  app_nfc.o
    0x0800026c   0x00000048   Code   RO          504    i.BSP_I2C1_DeInit   custom_bus.o
    0x080002b4   0x0000008c   Code   RO          505    i.BSP_I2C1_Init     custom_bus.o
    0x08000340   0x00000020   Code   RO          506    i.BSP_I2C1_IsReady  custom_bus.o
    0x08000360   0x0000003c   Code   RO          508    i.BSP_I2C1_ReadReg16  custom_bus.o
    0x0800039c   0x00000038   Code   RO          512    i.BSP_I2C1_WriteReg16  custom_bus.o
    0x080003d4   0x00000010   Code   RO          235    i.EXTI2_3_IRQHandler  stm32l0xx_it.o
    0x080003e4   0x00000040   Code   RO          309    i.EpdDisFull        epd_w21.o
    0x08000424   0x00000048   Code   RO          310    i.EpdInitFull       epd_w21.o
    0x0800046c   0x00000070   Code   RO          311    i.EpdW21DispInit    epd_w21.o
    0x080004dc   0x00000024   Code   RO          312    i.EpdW21SetRamPointer  epd_w21.o
    0x08000500   0x00000058   Code   RO          313    i.EpdW21Write       epd_w21.o
    0x08000558   0x00000034   Code   RO          314    i.EpdW21WriteCMD    epd_w21.o
    0x0800058c   0x0000004c   Code   RO          315    i.EpdW21WriteCMD_p1  epd_w21.o
    0x080005d8   0x00000074   Code   RO          316    i.EpdW21WriteDispRam  epd_w21.o
    0x0800064c   0x00000070   Code   RO          317    i.EpdW21WriteDispRamMono  epd_w21.o
    0x080006bc   0x00000002   Code   RO           12    i.Error_Handler     main.o
    0x080006be   0x0000001c   Code   RO         2529    i.HAL_Delay         stm32l0xx_hal.o
    0x080006da   0x0000000e   Code   RO          471    i.HAL_EXTI_GetHandle  stm32l0xx_hal_exti.o
    0x080006e8   0x00000024   Code   RO          472    i.HAL_EXTI_IRQHandler  stm32l0xx_hal_exti.o
    0x0800070c   0x00000010   Code   RO          473    i.HAL_EXTI_RegisterCallback  stm32l0xx_hal_exti.o
    0x0800071c   0x000000e4   Code   RO         3168    i.HAL_GPIO_DeInit   stm32l0xx_hal_gpio.o
    0x08000800   0x00000178   Code   RO         3171    i.HAL_GPIO_Init     stm32l0xx_hal_gpio.o
    0x08000978   0x0000000a   Code   RO         3173    i.HAL_GPIO_ReadPin  stm32l0xx_hal_gpio.o
    0x08000982   0x0000000c   Code   RO         3175    i.HAL_GPIO_WritePin  stm32l0xx_hal_gpio.o
    0x0800098e   0x00000002   PAD
    0x08000990   0x0000000c   Code   RO         2533    i.HAL_GetTick       stm32l0xx_hal.o
    0x0800099c   0x0000004a   Code   RO         3683    i.HAL_I2CEx_ConfigAnalogFilter  stm32l0xx_hal_i2c_ex.o
    0x080009e6   0x00000048   Code   RO         3684    i.HAL_I2CEx_ConfigDigitalFilter  stm32l0xx_hal_i2c_ex.o
    0x08000a2e   0x00000034   Code   RO         3232    i.HAL_I2C_DeInit    stm32l0xx_hal_i2c.o
    0x08000a62   0x00000004   Code   RO         3238    i.HAL_I2C_GetError  stm32l0xx_hal_i2c.o
    0x08000a66   0x00000006   Code   RO         3240    i.HAL_I2C_GetState  stm32l0xx_hal_i2c.o
    0x08000a6c   0x000000b4   Code   RO         3241    i.HAL_I2C_Init      stm32l0xx_hal_i2c.o
    0x08000b20   0x00000120   Code   RO         3242    i.HAL_I2C_IsDeviceReady  stm32l0xx_hal_i2c.o
    0x08000c40   0x00000154   Code   RO         3259    i.HAL_I2C_Mem_Read  stm32l0xx_hal_i2c.o
    0x08000d94   0x0000014c   Code   RO         3262    i.HAL_I2C_Mem_Write  stm32l0xx_hal_i2c.o
    0x08000ee0   0x00000002   Code   RO         3265    i.HAL_I2C_MspDeInit  stm32l0xx_hal_i2c.o
    0x08000ee2   0x00000002   Code   RO         3266    i.HAL_I2C_MspInit   stm32l0xx_hal_i2c.o
    0x08000ee4   0x00000010   Code   RO         2537    i.HAL_IncTick       stm32l0xx_hal.o
    0x08000ef4   0x00000028   Code   RO         2538    i.HAL_Init          stm32l0xx_hal.o
    0x08000f1c   0x00000030   Code   RO         2539    i.HAL_InitTick      stm32l0xx_hal.o
    0x08000f4c   0x00000018   Code   RO          288    i.HAL_MspInit       stm32l0xx_hal_msp.o
    0x08000f64   0x00000014   Code   RO         2713    i.HAL_NVIC_EnableIRQ  stm32l0xx_hal_cortex.o
    0x08000f78   0x00000008   Code   RO         2717    i.HAL_NVIC_SetPriority  stm32l0xx_hal_cortex.o
    0x08000f80   0x00000164   Code   RO         4004    i.HAL_RCCEx_PeriphCLKConfig  stm32l0xx_hal_rcc_ex.o
    0x080010e4   0x0000016c   Code   RO         3906    i.HAL_RCC_ClockConfig  stm32l0xx_hal_rcc.o
    0x08001250   0x00000020   Code   RO         3912    i.HAL_RCC_GetPCLK1Freq  stm32l0xx_hal_rcc.o
    0x08001270   0x00000020   Code   RO         3913    i.HAL_RCC_GetPCLK2Freq  stm32l0xx_hal_rcc.o
    0x08001290   0x00000078   Code   RO         3914    i.HAL_RCC_GetSysClockFreq  stm32l0xx_hal_rcc.o
    0x08001308   0x0000041c   Code   RO         3917    i.HAL_RCC_OscConfig  stm32l0xx_hal_rcc.o
    0x08001724   0x00000030   Code   RO         2721    i.HAL_SYSTICK_Config  stm32l0xx_hal_cortex.o
    0x08001754   0x0000006a   Code   RO         4113    i.HAL_UART_Init     stm32l0xx_hal_uart.o
    0x080017be   0x00000002   PAD
    0x080017c0   0x0000005c   Code   RO          198    i.HAL_UART_MspInit  usart.o
    0x0800181c   0x000000ce   Code   RO         4121    i.HAL_UART_Transmit  stm32l0xx_hal_uart.o
    0x080018ea   0x00000002   Code   RO          236    i.HardFault_Handler  stm32l0xx_it.o
    0x080018ec   0x00000022   Code   RO         3288    i.I2C_Flush_TXDR    stm32l0xx_hal_i2c.o
    0x0800190e   0x00000002   PAD
    0x08001910   0x00000070   Code   RO         3296    i.I2C_IsAcknowledgeFailed  stm32l0xx_hal_i2c.o
    0x08001980   0x00000060   Code   RO         3299    i.I2C_RequestMemoryRead  stm32l0xx_hal_i2c.o
    0x080019e0   0x00000060   Code   RO         3300    i.I2C_RequestMemoryWrite  stm32l0xx_hal_i2c.o
    0x08001a40   0x00000028   Code   RO         3303    i.I2C_TransferConfig  stm32l0xx_hal_i2c.o
    0x08001a68   0x0000004e   Code   RO         3304    i.I2C_WaitOnFlagUntilTimeout  stm32l0xx_hal_i2c.o
    0x08001ab6   0x0000004c   Code   RO         3306    i.I2C_WaitOnSTOPFlagUntilTimeout  stm32l0xx_hal_i2c.o
    0x08001b02   0x00000050   Code   RO         3307    i.I2C_WaitOnTXISFlagUntilTimeout  stm32l0xx_hal_i2c.o
    0x08001b52   0x00000002   PAD
    0x08001b54   0x000000ec   Code   RO          177    i.MX_GPIO_Init      gpio.o
    0x08001c40   0x00000054   Code   RO          513    i.MX_I2C1_Init      custom_bus.o
    0x08001c94   0x000000c4   Code   RO          407    i.MX_NFC4_MAILBOX_Init  app_nfc.o
    0x08001d58   0x00000098   Code   RO          408    i.MX_NFC4_MAILBOX_Process  app_nfc.o
    0x08001df0   0x00000008   Code   RO          409    i.MX_NFC_Init       app_nfc.o
    0x08001df8   0x00000008   Code   RO          410    i.MX_NFC_Process    app_nfc.o
    0x08001e00   0x00000038   Code   RO          199    i.MX_USART1_UART_Init  usart.o
    0x08001e38   0x00000058   Code   RO         1946    i.NFC04A1_GPO_Init  nfc04a1.o
    0x08001e90   0x0000001c   Code   RO         2029    i.NFC04A1_NFCTAG_ConfigIT  nfc04a1_nfctag.o
    0x08001eac   0x00000070   Code   RO         2044    i.NFC04A1_NFCTAG_Init  nfc04a1_nfctag.o
    0x08001f1c   0x00000010   Code   RO         2047    i.NFC04A1_NFCTAG_PresentI2CPassword  nfc04a1_nfctag.o
    0x08001f2c   0x00000010   Code   RO         2058    i.NFC04A1_NFCTAG_ReadI2CSecuritySession_Dyn  nfc04a1_nfctag.o
    0x08001f3c   0x00000010   Code   RO         2065    i.NFC04A1_NFCTAG_ReadMBCtrl_Dyn  nfc04a1_nfctag.o
    0x08001f4c   0x00000010   Code   RO         2066    i.NFC04A1_NFCTAG_ReadMBLength_Dyn  nfc04a1_nfctag.o
    0x08001f5c   0x00000010   Code   RO         2067    i.NFC04A1_NFCTAG_ReadMBMode  nfc04a1_nfctag.o
    0x08001f6c   0x00000010   Code   RO         2069    i.NFC04A1_NFCTAG_ReadMailboxData  nfc04a1_nfctag.o
    0x08001f7c   0x00000010   Code   RO         2084    i.NFC04A1_NFCTAG_SetEHENMode_Dyn  nfc04a1_nfctag.o
    0x08001f8c   0x00000010   Code   RO         2086    i.NFC04A1_NFCTAG_SetMBEN_Dyn  nfc04a1_nfctag.o
    0x08001f9c   0x00000010   Code   RO         2092    i.NFC04A1_NFCTAG_WriteEHMode  nfc04a1_nfctag.o
    0x08001fac   0x00000010   Code   RO         2099    i.NFC04A1_NFCTAG_WriteMBMode  nfc04a1_nfctag.o
    0x08001fbc   0x00000002   Code   RO          237    i.NMI_Handler       stm32l0xx_it.o
    0x08001fbe   0x00000002   PAD
    0x08001fc0   0x00000044   Code   RO         2723    i.NVIC_SetPriority  stm32l0xx_hal_cortex.o
    0x08002004   0x00000002   Code   RO          238    i.PendSV_Handler    stm32l0xx_it.o
    0x08002006   0x00000030   Code   RO          318    i.ReadBusy          epd_w21.o
    0x08002036   0x00000014   Code   RO         1457    i.ReadRegWrap       st25dv.o
    0x0800204a   0x0000000c   Code   RO         1458    i.ST25DV_ConfigureGPO  st25dv.o
    0x08002056   0x0000001a   Code   RO         1462    i.ST25DV_GetGPOStatus  st25dv.o
    0x08002070   0x00000016   Code   RO          600    i.ST25DV_GetGPO_ALL  st25dv_reg.o
    0x08002086   0x00000002   PAD
    0x08002088   0x00000028   Code   RO          624    i.ST25DV_GetI2C_SSO_DYN_I2CSSO  st25dv_reg.o
    0x080020b0   0x00000016   Code   RO          625    i.ST25DV_GetICREF   st25dv_reg.o
    0x080020c6   0x00000002   PAD
    0x080020c8   0x0000001c   Code   RO          643    i.ST25DV_GetMBLEN_DYN_MBLEN  st25dv_reg.o
    0x080020e4   0x0000001c   Code   RO          644    i.ST25DV_GetMB_CTRL_DYN_ALL  st25dv_reg.o
    0x08002100   0x00000024   Code   RO          652    i.ST25DV_GetMB_MODE_RW  st25dv_reg.o
    0x08002124   0x0000002c   Code   RO         1471    i.ST25DV_Init       st25dv.o
    0x08002150   0x00000006   Code   RO         1473    i.ST25DV_IsDeviceReady  st25dv.o
    0x08002156   0x0000004c   Code   RO         1474    i.ST25DV_PresentI2CPassword  st25dv.o
    0x080021a2   0x00000012   Code   RO         1478    i.ST25DV_ReadData   st25dv.o
    0x080021b4   0x00000020   Code   RO         1485    i.ST25DV_ReadI2CSecuritySession_Dyn  st25dv.o
    0x080021d4   0x0000000a   Code   RO         1487    i.ST25DV_ReadID     st25dv.o
    0x080021de   0x0000003e   Code   RO         1492    i.ST25DV_ReadMBCtrl_Dyn  st25dv.o
    0x0800221c   0x0000000a   Code   RO         1493    i.ST25DV_ReadMBLength_Dyn  st25dv.o
    0x08002226   0x00000020   Code   RO         1494    i.ST25DV_ReadMBMode  st25dv.o
    0x08002246   0x00000002   PAD
    0x08002248   0x0000002c   Code   RO         1496    i.ST25DV_ReadMailboxData  st25dv.o
    0x08002274   0x0000000e   Code   RO          675    i.ST25DV_ReadReg    st25dv_reg.o
    0x08002282   0x00000002   PAD
    0x08002284   0x00000044   Code   RO         1504    i.ST25DV_RegisterBusIO  st25dv.o
    0x080022c8   0x00000012   Code   RO         1512    i.ST25DV_SetEHENMode_Dyn  st25dv.o
    0x080022da   0x00000002   PAD
    0x080022dc   0x00000048   Code   RO          676    i.ST25DV_SetEH_CTRL_DYN_EH_EN  st25dv_reg.o
    0x08002324   0x00000040   Code   RO          677    i.ST25DV_SetEH_MODE  st25dv_reg.o
    0x08002364   0x00000016   Code   RO          681    i.ST25DV_SetGPO_ALL  st25dv_reg.o
    0x0800237a   0x00000012   Code   RO         1514    i.ST25DV_SetMBEN_Dyn  st25dv.o
    0x0800238c   0x00000048   Code   RO          710    i.ST25DV_SetMB_CTRL_DYN_MBEN  st25dv_reg.o
    0x080023d4   0x00000040   Code   RO          711    i.ST25DV_SetMB_MODE_RW  st25dv_reg.o
    0x08002414   0x00000076   Code   RO         1519    i.ST25DV_WriteData  st25dv.o
    0x0800248a   0x00000010   Code   RO         1520    i.ST25DV_WriteEHMode  st25dv.o
    0x0800249a   0x00000010   Code   RO         1527    i.ST25DV_WriteMBMode  st25dv.o
    0x080024aa   0x0000000e   Code   RO          731    i.ST25DV_WriteReg   st25dv_reg.o
    0x080024b8   0x0000007a   Code   RO         1534    i.ST25DV_WriteRegister  st25dv.o
    0x08002532   0x00000002   Code   RO          239    i.SVC_Handler       stm32l0xx_it.o
    0x08002534   0x00000016   Code   RO          319    i.SpiDelay          epd_w21.o
    0x0800254a   0x00000056   Code   RO          320    i.SpiWrite          epd_w21.o
    0x080025a0   0x00000008   Code   RO          240    i.SysTick_Handler   stm32l0xx_it.o
    0x080025a8   0x0000006c   Code   RO           13    i.SystemClock_Config  main.o
    0x08002614   0x00000054   Code   RO         4502    i.SystemInit        system_stm32l0xx_1.o
    0x08002668   0x000000ca   Code   RO         4126    i.UART_AdvFeatureConfig  stm32l0xx_hal_uart.o
    0x08002732   0x00000002   PAD
    0x08002734   0x00000060   Code   RO         4127    i.UART_CheckIdleState  stm32l0xx_hal_uart.o
    0x08002794   0x00000228   Code   RO         4142    i.UART_SetConfig    stm32l0xx_hal_uart.o
    0x080029bc   0x00000062   Code   RO         4145    i.UART_WaitOnFlagUntilTimeout  stm32l0xx_hal_uart.o
    0x08002a1e   0x00000048   Code   RO         1535    i.WriteRegWrap      st25dv.o
    0x08002a66   0x00000002   PAD
    0x08002a68   0x00000014   Code   RO         4543    i.__0printf$bare    mc_p.l(printfb.o)
    0x08002a7c   0x0000001a   Code   RO         2906    i.__ARM_common_switch8  stm32l0xx_hal_dma.o
    0x08002a96   0x0000000e   Code   RO         4842    i.__scatterload_copy  mc_p.l(handlers.o)
    0x08002aa4   0x00000002   Code   RO         4843    i.__scatterload_null  mc_p.l(handlers.o)
    0x08002aa6   0x0000000e   Code   RO         4844    i.__scatterload_zeroinit  mc_p.l(handlers.o)
    0x08002ab4   0x0000001e   Code   RO         4550    i._printf_core      mc_p.l(printfb.o)
    0x08002ad2   0x00000002   PAD
    0x08002ad4   0x00000018   Code   RO           14    i.fputc             main.o
    0x08002aec   0x0000001e   Code   RO           15    i.main              main.o
    0x08002b0a   0x0000001f   Data   RO          322    .constdata          epd_w21.o
    0x08002b29   0x00000019   Data   RO         4503    .constdata          system_stm32l0xx_1.o
    0x08002b42   0x00000008   Data   RO         4504    .constdata          system_stm32l0xx_1.o
    0x08002b4a   0x00000002   PAD
    0x08002b4c   0x00000020   Data   RO         4840    Region$$Table       anon$$obj.o


    Execution Region RW_IRAM1 (Base: 0x20000000, Size: 0x000018e0, Max: 0x00002000, ABSOLUTE, COMPRESSED[0x000002cc])

    Base Addr    Size         Type   Attr      Idx    E Section Name        Object

    0x20000000   0x00001388   Data   RW           16    .data               main.o
    0x20001388   0x0000000e   Data   RW          323    .data               epd_w21.o
    0x20001396   0x00000002   PAD
    0x20001398   0x0000001c   Data   RW          412    .data               app_nfc.o
    0x200013b4   0x00000004   Data   RW          515    .data               custom_bus.o
    0x200013b8   0x0000001c   Data   RW         1536    .data               st25dv.o
    0x200013d4   0x00000008   Data   RW         1954    .data               nfc04a1.o
    0x200013dc   0x00000004   Data   RW         2109    .data               nfc04a1_nfctag.o
    0x200013e0   0x00000004   Data   RW         2548    .data               stm32l0xx_hal.o
    0x200013e4   0x00000004   Data   RW         4505    .data               system_stm32l0xx_1.o
    0x200013e8   0x00000004   Data   RW         4816    .data               mc_p.l(stdout.o)
    0x200013ec   0x00000080   Zero   RW          200    .bss                usart.o
    0x2000146c   0x0000004c   Zero   RW          514    .bss                custom_bus.o
    0x200014b8   0x00000028   Zero   RW         2108    .bss                nfc04a1_nfctag.o
    0x200014e0   0x00000400   Zero   RW            1    STACK               startup_stm32l051xx.o


==============================================================================

Image component sizes


      Code (inc. data)   RO Data    RW Data    ZI Data      Debug   Object Name

       376         54          0         28          0      16618   app_nfc.o
       444         60          0          4         76       4167   custom_bus.o
       884         42         31         14          0       9282   epd_w21.o
       236         20          0          0          0        959   gpio.o
       164          8          0       5000          0     298840   main.o
        88         18          0          8          0        838   nfc04a1.o
       300        104          0          4         40       7871   nfc04a1_nfctag.o
       840         14          0         28          0      18140   st25dv.o
       498         28          0          0          0       8167   st25dv_reg.o
        28          8        192          0       1024        640   startup_stm32l051xx.o
       144         20          0          4          0       3723   stm32l0xx_hal.o
       144         24          0          0          0      10549   stm32l0xx_hal_cortex.o
        26          0          0          0          0         72   stm32l0xx_hal_dma.o
        66          6          0          0          0       2003   stm32l0xx_hal_exti.o
       626         56          0          0          0       3461   stm32l0xx_hal_gpio.o
      1818         42          0          0          0      13615   stm32l0xx_hal_i2c.o
       146          0          0          0          0       1811   stm32l0xx_hal_i2c_ex.o
        24          4          0          0          0        438   stm32l0xx_hal_msp.o
      1600         90          0          0          0       5208   stm32l0xx_hal_rcc.o
       356         14          0          0          0       1408   stm32l0xx_hal_rcc_ex.o
      1260         76          0          0          0       5725   stm32l0xx_hal_uart.o
        32          6          0          0          0       2600   stm32l0xx_it.o
        84         18         33          4          0       1235   system_stm32l0xx_1.o
       148         16          0          0        128       1578   usart.o

    ----------------------------------------------------------------------
     10356        728        290       5096       1268     418948   Object Totals
         0          0         32          0          0          0   (incl. Generated)
        24          0          2          2          0          0   (incl. Padding)

    ----------------------------------------------------------------------

      Code (inc. data)   RO Data    RW Data    ZI Data      Debug   Library Member Name

        86          0          0          0          0          0   __dczerorl2.o
         0          0          0          0          0          0   entry.o
         0          0          0          0          0          0   entry10a.o
         0          0          0          0          0          0   entry11a.o
         8          4          0          0          0          0   entry2.o
         4          0          0          0          0          0   entry5.o
         0          0          0          0          0          0   entry7b.o
         0          0          0          0          0          0   entry8b.o
         8          4          0          0          0          0   entry9a.o
        30          0          0          0          0          0   handlers.o
        36          8          0          0          0         68   init.o
        32          0          0          0          0         68   llshl.o
        34          0          0          0          0         68   llushr.o
        36          0          0          0          0        100   memseta.o
        50          8          0          0          0        144   printfb.o
         0          0          0          4          0          0   stdout.o
        44          0          0          0          0         72   uidiv.o
        96          0          0          0          0         84   uldiv.o

    ----------------------------------------------------------------------
       470         24          0          4          0        604   Library Totals
         6          0          0          0          0          0   (incl. Padding)

    ----------------------------------------------------------------------

      Code (inc. data)   RO Data    RW Data    ZI Data      Debug   Library Name

       464         24          0          4          0        604   mc_p.l

    ----------------------------------------------------------------------
       470         24          0          4          0        604   Library Totals

    ----------------------------------------------------------------------

==============================================================================


      Code (inc. data)   RO Data    RW Data    ZI Data      Debug   

     10826        752        290       5100       1268     413880   Grand Totals
     10826        752        290        716       1268     413880   ELF Image Totals (compressed)
     10826        752        290        716          0          0   ROM Totals

==============================================================================

    Total RO  Size (Code + RO Data)                11116 (  10.86kB)
    Total RW  Size (RW Data + ZI Data)              6368 (   6.22kB)
    Total ROM Size (Code + RO Data + RW Data)      11832 (  11.55kB)

==============================================================================

