Archive member included to satisfy reference by file (symbol)

d:/progra~2/stm32c~1/gnu-to~1/bin/../lib/gcc/arm-none-eabi/9.2.1/thumb/v6-m/nofp\libgcc.a(_udivsi3.o)
                              CMakeFiles/L-ink_Card.elf.dir/Drivers/STM32L0xx_HAL_Driver/Src/stm32l0xx_hal.c.obj (__aeabi_uidiv)
d:/progra~2/stm32c~1/gnu-to~1/bin/../lib/gcc/arm-none-eabi/9.2.1/thumb/v6-m/nofp\libgcc.a(_dvmd_tls.o)
                              d:/progra~2/stm32c~1/gnu-to~1/bin/../lib/gcc/arm-none-eabi/9.2.1/thumb/v6-m/nofp\libgcc.a(_udivsi3.o) (__aeabi_idiv0)
d:/progra~2/stm32c~1/gnu-to~1/bin/../lib/gcc/arm-none-eabi/9.2.1/thumb/v6-m/nofp\libgcc.a(_aeabi_uldivmod.o)
                              CMakeFiles/L-ink_Card.elf.dir/Drivers/STM32L0xx_HAL_Driver/Src/stm32l0xx_hal_uart.c.obj (__aeabi_uldivmod)
d:/progra~2/stm32c~1/gnu-to~1/bin/../lib/gcc/arm-none-eabi/9.2.1/thumb/v6-m/nofp\libgcc.a(_udivmoddi4.o)
                              d:/progra~2/stm32c~1/gnu-to~1/bin/../lib/gcc/arm-none-eabi/9.2.1/thumb/v6-m/nofp\libgcc.a(_aeabi_uldivmod.o) (__udivmoddi4)
d:/progra~2/stm32c~1/gnu-to~1/bin/../lib/gcc/arm-none-eabi/9.2.1/thumb/v6-m/nofp\libgcc.a(_clzdi2.o)
                              d:/progra~2/stm32c~1/gnu-to~1/bin/../lib/gcc/arm-none-eabi/9.2.1/thumb/v6-m/nofp\libgcc.a(_udivmoddi4.o) (__clzdi2)
d:/progra~2/stm32c~1/gnu-to~1/bin/../lib/gcc/arm-none-eabi/9.2.1/thumb/v6-m/nofp\libgcc.a(_clzsi2.o)
                              d:/progra~2/stm32c~1/gnu-to~1/bin/../lib/gcc/arm-none-eabi/9.2.1/thumb/v6-m/nofp\libgcc.a(_clzdi2.o) (__clzsi2)
d:/progra~2/stm32c~1/gnu-to~1/bin/../lib/gcc/arm-none-eabi/9.2.1/../../../../arm-none-eabi/lib/thumb/v6-m/nofp\libg_nano.a(lib_a-errno.o)
                              CMakeFiles/L-ink_Card.elf.dir/Src/syscalls.c.obj (__errno)
d:/progra~2/stm32c~1/gnu-to~1/bin/../lib/gcc/arm-none-eabi/9.2.1/../../../../arm-none-eabi/lib/thumb/v6-m/nofp\libg_nano.a(lib_a-exit.o)
                              d:/progra~2/stm32c~1/gnu-to~1/bin/../lib/gcc/arm-none-eabi/9.2.1/../../../../arm-none-eabi/lib/thumb/v6-m/nofp/crt0.o (exit)
d:/progra~2/stm32c~1/gnu-to~1/bin/../lib/gcc/arm-none-eabi/9.2.1/../../../../arm-none-eabi/lib/thumb/v6-m/nofp\libg_nano.a(lib_a-impure.o)
                              d:/progra~2/stm32c~1/gnu-to~1/bin/../lib/gcc/arm-none-eabi/9.2.1/../../../../arm-none-eabi/lib/thumb/v6-m/nofp\libg_nano.a(lib_a-exit.o) (_global_impure_ptr)
d:/progra~2/stm32c~1/gnu-to~1/bin/../lib/gcc/arm-none-eabi/9.2.1/../../../../arm-none-eabi/lib/thumb/v6-m/nofp\libg_nano.a(lib_a-init.o)
                              d:/progra~2/stm32c~1/gnu-to~1/bin/../lib/gcc/arm-none-eabi/9.2.1/../../../../arm-none-eabi/lib/thumb/v6-m/nofp/crt0.o (__libc_init_array)
d:/progra~2/stm32c~1/gnu-to~1/bin/../lib/gcc/arm-none-eabi/9.2.1/../../../../arm-none-eabi/lib/thumb/v6-m/nofp\libg_nano.a(lib_a-memset.o)
                              d:/progra~2/stm32c~1/gnu-to~1/bin/../lib/gcc/arm-none-eabi/9.2.1/../../../../arm-none-eabi/lib/thumb/v6-m/nofp/crt0.o (memset)
d:/progra~2/stm32c~1/gnu-to~1/bin/../lib/gcc/arm-none-eabi/9.2.1/../../../../arm-none-eabi/lib/thumb/v6-m/nofp\libg_nano.a(lib_a-printf.o)
                              CMakeFiles/L-ink_Card.elf.dir/Drivers/BSP/ST25DV/app_nfc.c.obj (printf)
d:/progra~2/stm32c~1/gnu-to~1/bin/../lib/gcc/arm-none-eabi/9.2.1/../../../../arm-none-eabi/lib/thumb/v6-m/nofp\libg_nano.a(lib_a-findfp.o)
                              d:/progra~2/stm32c~1/gnu-to~1/bin/../lib/gcc/arm-none-eabi/9.2.1/../../../../arm-none-eabi/lib/thumb/v6-m/nofp\libg_nano.a(lib_a-printf.o) (__sinit)
d:/progra~2/stm32c~1/gnu-to~1/bin/../lib/gcc/arm-none-eabi/9.2.1/../../../../arm-none-eabi/lib/thumb/v6-m/nofp\libg_nano.a(lib_a-fwalk.o)
                              d:/progra~2/stm32c~1/gnu-to~1/bin/../lib/gcc/arm-none-eabi/9.2.1/../../../../arm-none-eabi/lib/thumb/v6-m/nofp\libg_nano.a(lib_a-findfp.o) (_fwalk)
d:/progra~2/stm32c~1/gnu-to~1/bin/../lib/gcc/arm-none-eabi/9.2.1/../../../../arm-none-eabi/lib/thumb/v6-m/nofp\libg_nano.a(lib_a-lock.o)
                              d:/progra~2/stm32c~1/gnu-to~1/bin/../lib/gcc/arm-none-eabi/9.2.1/../../../../arm-none-eabi/lib/thumb/v6-m/nofp\libg_nano.a(lib_a-findfp.o) (__retarget_lock_init_recursive)
d:/progra~2/stm32c~1/gnu-to~1/bin/../lib/gcc/arm-none-eabi/9.2.1/../../../../arm-none-eabi/lib/thumb/v6-m/nofp\libg_nano.a(lib_a-nano-mallocr.o)
                              d:/progra~2/stm32c~1/gnu-to~1/bin/../lib/gcc/arm-none-eabi/9.2.1/../../../../arm-none-eabi/lib/thumb/v6-m/nofp\libg_nano.a(lib_a-findfp.o) (_malloc_r)
d:/progra~2/stm32c~1/gnu-to~1/bin/../lib/gcc/arm-none-eabi/9.2.1/../../../../arm-none-eabi/lib/thumb/v6-m/nofp\libg_nano.a(lib_a-nano-vfprintf.o)
                              d:/progra~2/stm32c~1/gnu-to~1/bin/../lib/gcc/arm-none-eabi/9.2.1/../../../../arm-none-eabi/lib/thumb/v6-m/nofp\libg_nano.a(lib_a-printf.o) (_vfprintf_r)
d:/progra~2/stm32c~1/gnu-to~1/bin/../lib/gcc/arm-none-eabi/9.2.1/../../../../arm-none-eabi/lib/thumb/v6-m/nofp\libg_nano.a(lib_a-nano-vfprintf_i.o)
                              d:/progra~2/stm32c~1/gnu-to~1/bin/../lib/gcc/arm-none-eabi/9.2.1/../../../../arm-none-eabi/lib/thumb/v6-m/nofp\libg_nano.a(lib_a-nano-vfprintf.o) (_printf_i)
d:/progra~2/stm32c~1/gnu-to~1/bin/../lib/gcc/arm-none-eabi/9.2.1/../../../../arm-none-eabi/lib/thumb/v6-m/nofp\libg_nano.a(lib_a-sbrkr.o)
                              d:/progra~2/stm32c~1/gnu-to~1/bin/../lib/gcc/arm-none-eabi/9.2.1/../../../../arm-none-eabi/lib/thumb/v6-m/nofp\libg_nano.a(lib_a-nano-mallocr.o) (_sbrk_r)
d:/progra~2/stm32c~1/gnu-to~1/bin/../lib/gcc/arm-none-eabi/9.2.1/../../../../arm-none-eabi/lib/thumb/v6-m/nofp\libg_nano.a(lib_a-stdio.o)
                              d:/progra~2/stm32c~1/gnu-to~1/bin/../lib/gcc/arm-none-eabi/9.2.1/../../../../arm-none-eabi/lib/thumb/v6-m/nofp\libg_nano.a(lib_a-findfp.o) (__sread)
d:/progra~2/stm32c~1/gnu-to~1/bin/../lib/gcc/arm-none-eabi/9.2.1/../../../../arm-none-eabi/lib/thumb/v6-m/nofp\libg_nano.a(lib_a-wbuf.o)
                              d:/progra~2/stm32c~1/gnu-to~1/bin/../lib/gcc/arm-none-eabi/9.2.1/../../../../arm-none-eabi/lib/thumb/v6-m/nofp\libg_nano.a(lib_a-nano-vfprintf.o) (__swbuf_r)
d:/progra~2/stm32c~1/gnu-to~1/bin/../lib/gcc/arm-none-eabi/9.2.1/../../../../arm-none-eabi/lib/thumb/v6-m/nofp\libg_nano.a(lib_a-writer.o)
                              d:/progra~2/stm32c~1/gnu-to~1/bin/../lib/gcc/arm-none-eabi/9.2.1/../../../../arm-none-eabi/lib/thumb/v6-m/nofp\libg_nano.a(lib_a-stdio.o) (_write_r)
d:/progra~2/stm32c~1/gnu-to~1/bin/../lib/gcc/arm-none-eabi/9.2.1/../../../../arm-none-eabi/lib/thumb/v6-m/nofp\libg_nano.a(lib_a-wsetup.o)
                              d:/progra~2/stm32c~1/gnu-to~1/bin/../lib/gcc/arm-none-eabi/9.2.1/../../../../arm-none-eabi/lib/thumb/v6-m/nofp\libg_nano.a(lib_a-nano-vfprintf.o) (__swsetup_r)
d:/progra~2/stm32c~1/gnu-to~1/bin/../lib/gcc/arm-none-eabi/9.2.1/../../../../arm-none-eabi/lib/thumb/v6-m/nofp\libg_nano.a(lib_a-closer.o)
                              d:/progra~2/stm32c~1/gnu-to~1/bin/../lib/gcc/arm-none-eabi/9.2.1/../../../../arm-none-eabi/lib/thumb/v6-m/nofp\libg_nano.a(lib_a-stdio.o) (_close_r)
d:/progra~2/stm32c~1/gnu-to~1/bin/../lib/gcc/arm-none-eabi/9.2.1/../../../../arm-none-eabi/lib/thumb/v6-m/nofp\libg_nano.a(lib_a-fflush.o)
                              d:/progra~2/stm32c~1/gnu-to~1/bin/../lib/gcc/arm-none-eabi/9.2.1/../../../../arm-none-eabi/lib/thumb/v6-m/nofp\libg_nano.a(lib_a-findfp.o) (_fflush_r)
d:/progra~2/stm32c~1/gnu-to~1/bin/../lib/gcc/arm-none-eabi/9.2.1/../../../../arm-none-eabi/lib/thumb/v6-m/nofp\libg_nano.a(lib_a-fvwrite.o)
                              d:/progra~2/stm32c~1/gnu-to~1/bin/../lib/gcc/arm-none-eabi/9.2.1/../../../../arm-none-eabi/lib/thumb/v6-m/nofp\libg_nano.a(lib_a-nano-vfprintf.o) (__sfvwrite_r)
d:/progra~2/stm32c~1/gnu-to~1/bin/../lib/gcc/arm-none-eabi/9.2.1/../../../../arm-none-eabi/lib/thumb/v6-m/nofp\libg_nano.a(lib_a-lseekr.o)
                              d:/progra~2/stm32c~1/gnu-to~1/bin/../lib/gcc/arm-none-eabi/9.2.1/../../../../arm-none-eabi/lib/thumb/v6-m/nofp\libg_nano.a(lib_a-stdio.o) (_lseek_r)
d:/progra~2/stm32c~1/gnu-to~1/bin/../lib/gcc/arm-none-eabi/9.2.1/../../../../arm-none-eabi/lib/thumb/v6-m/nofp\libg_nano.a(lib_a-makebuf.o)
                              d:/progra~2/stm32c~1/gnu-to~1/bin/../lib/gcc/arm-none-eabi/9.2.1/../../../../arm-none-eabi/lib/thumb/v6-m/nofp\libg_nano.a(lib_a-wsetup.o) (__smakebuf_r)
d:/progra~2/stm32c~1/gnu-to~1/bin/../lib/gcc/arm-none-eabi/9.2.1/../../../../arm-none-eabi/lib/thumb/v6-m/nofp\libg_nano.a(lib_a-memchr-stub.o)
                              d:/progra~2/stm32c~1/gnu-to~1/bin/../lib/gcc/arm-none-eabi/9.2.1/../../../../arm-none-eabi/lib/thumb/v6-m/nofp\libg_nano.a(lib_a-nano-vfprintf.o) (memchr)
d:/progra~2/stm32c~1/gnu-to~1/bin/../lib/gcc/arm-none-eabi/9.2.1/../../../../arm-none-eabi/lib/thumb/v6-m/nofp\libg_nano.a(lib_a-memcpy-stub.o)
                              d:/progra~2/stm32c~1/gnu-to~1/bin/../lib/gcc/arm-none-eabi/9.2.1/../../../../arm-none-eabi/lib/thumb/v6-m/nofp\libg_nano.a(lib_a-fvwrite.o) (memcpy)
d:/progra~2/stm32c~1/gnu-to~1/bin/../lib/gcc/arm-none-eabi/9.2.1/../../../../arm-none-eabi/lib/thumb/v6-m/nofp\libg_nano.a(lib_a-memmove.o)
                              d:/progra~2/stm32c~1/gnu-to~1/bin/../lib/gcc/arm-none-eabi/9.2.1/../../../../arm-none-eabi/lib/thumb/v6-m/nofp\libg_nano.a(lib_a-fvwrite.o) (memmove)
d:/progra~2/stm32c~1/gnu-to~1/bin/../lib/gcc/arm-none-eabi/9.2.1/../../../../arm-none-eabi/lib/thumb/v6-m/nofp\libg_nano.a(lib_a-mlock.o)
                              d:/progra~2/stm32c~1/gnu-to~1/bin/../lib/gcc/arm-none-eabi/9.2.1/../../../../arm-none-eabi/lib/thumb/v6-m/nofp\libg_nano.a(lib_a-nano-mallocr.o) (__malloc_lock)
d:/progra~2/stm32c~1/gnu-to~1/bin/../lib/gcc/arm-none-eabi/9.2.1/../../../../arm-none-eabi/lib/thumb/v6-m/nofp\libg_nano.a(lib_a-nano-freer.o)
                              d:/progra~2/stm32c~1/gnu-to~1/bin/../lib/gcc/arm-none-eabi/9.2.1/../../../../arm-none-eabi/lib/thumb/v6-m/nofp\libg_nano.a(lib_a-wsetup.o) (_free_r)
d:/progra~2/stm32c~1/gnu-to~1/bin/../lib/gcc/arm-none-eabi/9.2.1/../../../../arm-none-eabi/lib/thumb/v6-m/nofp\libg_nano.a(lib_a-nano-reallocr.o)
                              d:/progra~2/stm32c~1/gnu-to~1/bin/../lib/gcc/arm-none-eabi/9.2.1/../../../../arm-none-eabi/lib/thumb/v6-m/nofp\libg_nano.a(lib_a-fvwrite.o) (_realloc_r)
d:/progra~2/stm32c~1/gnu-to~1/bin/../lib/gcc/arm-none-eabi/9.2.1/../../../../arm-none-eabi/lib/thumb/v6-m/nofp\libg_nano.a(lib_a-readr.o)
                              d:/progra~2/stm32c~1/gnu-to~1/bin/../lib/gcc/arm-none-eabi/9.2.1/../../../../arm-none-eabi/lib/thumb/v6-m/nofp\libg_nano.a(lib_a-stdio.o) (_read_r)
d:/progra~2/stm32c~1/gnu-to~1/bin/../lib/gcc/arm-none-eabi/9.2.1/../../../../arm-none-eabi/lib/thumb/v6-m/nofp\libg_nano.a(lib_a-reent.o)
                              d:/progra~2/stm32c~1/gnu-to~1/bin/../lib/gcc/arm-none-eabi/9.2.1/../../../../arm-none-eabi/lib/thumb/v6-m/nofp\libg_nano.a(lib_a-sbrkr.o) (errno)
d:/progra~2/stm32c~1/gnu-to~1/bin/../lib/gcc/arm-none-eabi/9.2.1/../../../../arm-none-eabi/lib/thumb/v6-m/nofp\libg_nano.a(lib_a-fstatr.o)
                              d:/progra~2/stm32c~1/gnu-to~1/bin/../lib/gcc/arm-none-eabi/9.2.1/../../../../arm-none-eabi/lib/thumb/v6-m/nofp\libg_nano.a(lib_a-makebuf.o) (_fstat_r)
d:/progra~2/stm32c~1/gnu-to~1/bin/../lib/gcc/arm-none-eabi/9.2.1/../../../../arm-none-eabi/lib/thumb/v6-m/nofp\libg_nano.a(lib_a-isattyr.o)
                              d:/progra~2/stm32c~1/gnu-to~1/bin/../lib/gcc/arm-none-eabi/9.2.1/../../../../arm-none-eabi/lib/thumb/v6-m/nofp\libg_nano.a(lib_a-makebuf.o) (_isatty_r)
d:/progra~2/stm32c~1/gnu-to~1/bin/../lib/gcc/arm-none-eabi/9.2.1/../../../../arm-none-eabi/lib/thumb/v6-m/nofp\libg_nano.a(lib_a-nano-msizer.o)
                              d:/progra~2/stm32c~1/gnu-to~1/bin/../lib/gcc/arm-none-eabi/9.2.1/../../../../arm-none-eabi/lib/thumb/v6-m/nofp\libg_nano.a(lib_a-nano-reallocr.o) (_malloc_usable_size_r)
d:/progra~2/stm32c~1/gnu-to~1/bin/../lib/gcc/arm-none-eabi/9.2.1/thumb/v6-m/nofp\libgcc.a(_thumb1_case_shi.o)
                              d:/progra~2/stm32c~1/gnu-to~1/bin/../lib/gcc/arm-none-eabi/9.2.1/../../../../arm-none-eabi/lib/thumb/v6-m/nofp\libg_nano.a(lib_a-nano-vfprintf_i.o) (__gnu_thumb1_case_shi)
d:/progra~2/stm32c~1/gnu-to~1/bin/../lib/gcc/arm-none-eabi/9.2.1/thumb/v6-m/nofp\libgcc.a(_divsi3.o)
                              d:/progra~2/stm32c~1/gnu-to~1/bin/../lib/gcc/arm-none-eabi/9.2.1/../../../../arm-none-eabi/lib/thumb/v6-m/nofp\libg_nano.a(lib_a-fvwrite.o) (__aeabi_idiv)

Allocating common symbols
Common symbol       size              file

__lock___atexit_recursive_mutex
                    0x1               d:/progra~2/stm32c~1/gnu-to~1/bin/../lib/gcc/arm-none-eabi/9.2.1/../../../../arm-none-eabi/lib/thumb/v6-m/nofp\libg_nano.a(lib_a-lock.o)
__lock___arc4random_mutex
                    0x1               d:/progra~2/stm32c~1/gnu-to~1/bin/../lib/gcc/arm-none-eabi/9.2.1/../../../../arm-none-eabi/lib/thumb/v6-m/nofp\libg_nano.a(lib_a-lock.o)
errno               0x4               d:/progra~2/stm32c~1/gnu-to~1/bin/../lib/gcc/arm-none-eabi/9.2.1/../../../../arm-none-eabi/lib/thumb/v6-m/nofp\libg_nano.a(lib_a-reent.o)
__lock___env_recursive_mutex
                    0x1               d:/progra~2/stm32c~1/gnu-to~1/bin/../lib/gcc/arm-none-eabi/9.2.1/../../../../arm-none-eabi/lib/thumb/v6-m/nofp\libg_nano.a(lib_a-lock.o)
__lock___sinit_recursive_mutex
                    0x1               d:/progra~2/stm32c~1/gnu-to~1/bin/../lib/gcc/arm-none-eabi/9.2.1/../../../../arm-none-eabi/lib/thumb/v6-m/nofp\libg_nano.a(lib_a-lock.o)
__lock___malloc_recursive_mutex
                    0x1               d:/progra~2/stm32c~1/gnu-to~1/bin/../lib/gcc/arm-none-eabi/9.2.1/../../../../arm-none-eabi/lib/thumb/v6-m/nofp\libg_nano.a(lib_a-lock.o)
__lock___at_quick_exit_mutex
                    0x1               d:/progra~2/stm32c~1/gnu-to~1/bin/../lib/gcc/arm-none-eabi/9.2.1/../../../../arm-none-eabi/lib/thumb/v6-m/nofp\libg_nano.a(lib_a-lock.o)
__lock___dd_hash_mutex
                    0x1               d:/progra~2/stm32c~1/gnu-to~1/bin/../lib/gcc/arm-none-eabi/9.2.1/../../../../arm-none-eabi/lib/thumb/v6-m/nofp\libg_nano.a(lib_a-lock.o)
__lock___tz_mutex   0x1               d:/progra~2/stm32c~1/gnu-to~1/bin/../lib/gcc/arm-none-eabi/9.2.1/../../../../arm-none-eabi/lib/thumb/v6-m/nofp\libg_nano.a(lib_a-lock.o)
__lock___sfp_recursive_mutex
                    0x1               d:/progra~2/stm32c~1/gnu-to~1/bin/../lib/gcc/arm-none-eabi/9.2.1/../../../../arm-none-eabi/lib/thumb/v6-m/nofp\libg_nano.a(lib_a-lock.o)

Discarded input sections

 .text          0x00000000        0x0 d:/progra~2/stm32c~1/gnu-to~1/bin/../lib/gcc/arm-none-eabi/9.2.1/thumb/v6-m/nofp/crti.o
 .data          0x00000000        0x0 d:/progra~2/stm32c~1/gnu-to~1/bin/../lib/gcc/arm-none-eabi/9.2.1/thumb/v6-m/nofp/crti.o
 .bss           0x00000000        0x0 d:/progra~2/stm32c~1/gnu-to~1/bin/../lib/gcc/arm-none-eabi/9.2.1/thumb/v6-m/nofp/crti.o
 .data          0x00000000        0x4 d:/progra~2/stm32c~1/gnu-to~1/bin/../lib/gcc/arm-none-eabi/9.2.1/thumb/v6-m/nofp/crtbegin.o
 .text          0x00000000       0x78 d:/progra~2/stm32c~1/gnu-to~1/bin/../lib/gcc/arm-none-eabi/9.2.1/../../../../arm-none-eabi/lib/thumb/v6-m/nofp/crt0.o
 .data          0x00000000        0x0 d:/progra~2/stm32c~1/gnu-to~1/bin/../lib/gcc/arm-none-eabi/9.2.1/../../../../arm-none-eabi/lib/thumb/v6-m/nofp/crt0.o
 .bss           0x00000000        0x0 d:/progra~2/stm32c~1/gnu-to~1/bin/../lib/gcc/arm-none-eabi/9.2.1/../../../../arm-none-eabi/lib/thumb/v6-m/nofp/crt0.o
 .ARM.extab     0x00000000        0x0 d:/progra~2/stm32c~1/gnu-to~1/bin/../lib/gcc/arm-none-eabi/9.2.1/../../../../arm-none-eabi/lib/thumb/v6-m/nofp/crt0.o
 .ARM.exidx     0x00000000        0x8 d:/progra~2/stm32c~1/gnu-to~1/bin/../lib/gcc/arm-none-eabi/9.2.1/../../../../arm-none-eabi/lib/thumb/v6-m/nofp/crt0.o
 .ARM.attributes
                0x00000000       0x1b d:/progra~2/stm32c~1/gnu-to~1/bin/../lib/gcc/arm-none-eabi/9.2.1/../../../../arm-none-eabi/lib/thumb/v6-m/nofp/crt0.o
 .text          0x00000000        0x0 CMakeFiles/L-ink_Card.elf.dir/Drivers/BSP/Components/ST25DV/st25dv.c.obj
 .data          0x00000000        0x0 CMakeFiles/L-ink_Card.elf.dir/Drivers/BSP/Components/ST25DV/st25dv.c.obj
 .bss           0x00000000        0x0 CMakeFiles/L-ink_Card.elf.dir/Drivers/BSP/Components/ST25DV/st25dv.c.obj
 .text.ST25DV_ReadICRev
                0x00000000       0x22 CMakeFiles/L-ink_Card.elf.dir/Drivers/BSP/Components/ST25DV/st25dv.c.obj
 .text.ST25DV_ReadITPulse
                0x00000000       0x3c CMakeFiles/L-ink_Card.elf.dir/Drivers/BSP/Components/ST25DV/st25dv.c.obj
Memory Configuration

Name             Origin             Length             Attributes
RAM              0x20000000         0x00002000         xrw
FLASH            0x08000000         0x00010000         xr
*default*        0x00000000         0xffffffff

Linker script and memory map

LOAD d:/progra~2/stm32c~1/gnu-to~1/bin/../lib/gcc/arm-none-eabi/9.2.1/thumb/v6-m/nofp/crti.o
LOAD d:/progra~2/stm32c~1/gnu-to~1/bin/../lib/gcc/arm-none-eabi/9.2.1/thumb/v6-m/nofp/crtbegin.o
LOAD d:/progra~2/stm32c~1/gnu-to~1/bin/../lib/gcc/arm-none-eabi/9.2.1/../../../../arm-none-eabi/lib/thumb/v6-m/nofp/crt0.o
LOAD CMakeFiles/L-ink_Card.elf.dir/Drivers/BSP/Components/ST25DV/st25dv.c.obj
LOAD CMakeFiles/L-ink_Card.elf.dir/Drivers/BSP/Components/ST25DV/st25dv_reg.c.obj
LOAD CMakeFiles/L-ink_Card.elf.dir/Drivers/BSP/E-Paper-Display/epd_w21.c.obj
LOAD CMakeFiles/L-ink_Card.elf.dir/Drivers/BSP/NFC04A1/nfc04a1.c.obj
LOAD CMakeFiles/L-ink_Card.elf.dir/Drivers/BSP/NFC04A1/nfc04a1_nfctag.c.obj
LOAD CMakeFiles/L-ink_Card.elf.dir/Drivers/BSP/ST25DV/app_nfc.c.obj
LOAD CMakeFiles/L-ink_Card.elf.dir/Drivers/STM32L0xx_HAL_Driver/Src/stm32l0xx_hal.c.obj
LOAD CMakeFiles/L-ink_Card.elf.dir/Drivers/STM32L0xx_HAL_Driver/Src/stm32l0xx_hal_cortex.c.obj
LOAD CMakeFiles/L-ink_Card.elf.dir/Drivers/STM32L0xx_HAL_Driver/Src/stm32l0xx_hal_dma.c.obj
LOAD CMakeFiles/L-ink_Card.elf.dir/Drivers/STM32L0xx_HAL_Driver/Src/stm32l0xx_hal_flash.c.obj
LOAD CMakeFiles/L-ink_Card.elf.dir/Drivers/STM32L0xx_HAL_Driver/Src/stm32l0xx_hal_flash_ex.c.obj
LOAD CMakeFiles/L-ink_Card.elf.dir/Drivers/STM32L0xx_HAL_Driver/Src/stm32l0xx_hal_flash_ramfunc.c.obj
LOAD CMakeFiles/L-ink_Card.elf.dir/Drivers/STM32L0xx_HAL_Driver/Src/stm32l0xx_hal_gpio.c.obj
LOAD CMakeFiles/L-ink_Card.elf.dir/Drivers/STM32L0xx_HAL_Driver/Src/stm32l0xx_hal_i2c.c.obj
LOAD CMakeFiles/L-ink_Card.elf.dir/Drivers/STM32L0xx_HAL_Driver/Src/stm32l0xx_hal_i2c_ex.c.obj
LOAD CMakeFiles/L-ink_Card.elf.dir/Drivers/STM32L0xx_HAL_Driver/Src/stm32l0xx_hal_pwr.c.obj
LOAD CMakeFiles/L-ink_Card.elf.dir/Drivers/STM32L0xx_HAL_Driver/Src/stm32l0xx_hal_pwr_ex.c.obj
LOAD CMakeFiles/L-ink_Card.elf.dir/Drivers/STM32L0xx_HAL_Driver/Src/stm32l0xx_hal_rcc.c.obj
LOAD CMakeFiles/L-ink_Card.elf.dir/Drivers/STM32L0xx_HAL_Driver/Src/stm32l0xx_hal_rcc_ex.c.obj
LOAD CMakeFiles/L-ink_Card.elf.dir/Drivers/STM32L0xx_HAL_Driver/Src/stm32l0xx_hal_tim.c.obj
LOAD CMakeFiles/L-ink_Card.elf.dir/Drivers/STM32L0xx_HAL_Driver/Src/stm32l0xx_hal_tim_ex.c.obj
LOAD CMakeFiles/L-ink_Card.elf.dir/Drivers/STM32L0xx_HAL_Driver/Src/stm32l0xx_hal_uart.c.obj
LOAD CMakeFiles/L-ink_Card.elf.dir/Drivers/STM32L0xx_HAL_Driver/Src/stm32l0xx_hal_uart_ex.c.obj
LOAD CMakeFiles/L-ink_Card.elf.dir/Src/custom_bus.c.obj
LOAD CMakeFiles/L-ink_Card.elf.dir/Src/gpio.c.obj
LOAD CMakeFiles/L-ink_Card.elf.dir/Src/main.c.obj
LOAD CMakeFiles/L-ink_Card.elf.dir/Src/stm32l0xx_hal_exti.c.obj
LOAD CMakeFiles/L-ink_Card.elf.dir/Src/stm32l0xx_hal_msp.c.obj
LOAD CMakeFiles/L-ink_Card.elf.dir/Src/stm32l0xx_it.c.obj
LOAD CMakeFiles/L-ink_Card.elf.dir/Src/syscalls.c.obj
LOAD CMakeFiles/L-ink_Card.elf.dir/Src/system_stm32l0xx.c.obj
LOAD CMakeFiles/L-ink_Card.elf.dir/Src/usart.c.obj
LOAD CMakeFiles/L-ink_Card.elf.dir/startup/startup_stm32l051xx.s.obj
START GROUP
LOAD d:/progra~2/stm32c~1/gnu-to~1/bin/../lib/gcc/arm-none-eabi/9.2.1/thumb/v6-m/nofp\libgcc.a
LOAD d:/progra~2/stm32c~1/gnu-to~1/bin/../lib/gcc/arm-none-eabi/9.2.1/../../../../arm-none-eabi/lib/thumb/v6-m/nofp\libg_nano.a
LOAD d:/progra~2/stm32c~1/gnu-to~1/bin/../lib/gcc/arm-none-eabi/9.2.1/../../../../arm-none-eabi/lib/thumb/v6-m/nofp\libc_nano.a
END GROUP
START GROUP
LOAD d:/progra~2/stm32c~1/gnu-to~1/bin/../lib/gcc/arm-none-eabi/9.2.1/thumb/v6-m/nofp\libgcc.a
LOAD d:/progra~2/stm32c~1/gnu-to~1/bin/../lib/gcc/arm-none-eabi/9.2.1/../../../../arm-none-eabi/lib/thumb/v6-m/nofp\libc_nano.a
LOAD d:/progra~2/stm32c~1/gnu-to~1/bin/../lib/gcc/arm-none-eabi/9.2.1/../../../../arm-none-eabi/lib/thumb/v6-m/nofp\libnosys.a
END GROUP
START GROUP
LOAD d:/progra~2/stm32c~1/gnu-to~1/bin/../lib/gcc/arm-none-eabi/9.2.1/thumb/v6-m/nofp\libgcc.a
LOAD d:/progra~2/stm32c~1/gnu-to~1/bin/../lib/gcc/arm-none-eabi/9.2.1/../../../../arm-none-eabi/lib/thumb/v6-m/nofp\libc_nano.a
LOAD d:/progra~2/stm32c~1/gnu-to~1/bin/../lib/gcc/arm-none-eabi/9.2.1/../../../../arm-none-eabi/lib/thumb/v6-m/nofp\libnosys.a
END GROUP
LOAD d:/progra~2/stm32c~1/gnu-to~1/bin/../lib/gcc/arm-none-eabi/9.2.1/thumb/v6-m/nofp/crtend.o
LOAD d:/progra~2/stm32c~1/gnu-to~1/bin/../lib/gcc/arm-none-eabi/9.2.1/thumb/v6-m/nofp/crtn.o
                0x20002000                _estack = 0x20002000
                0x00000200                _Min_Heap_Size = 0x200
                0x00000400                _Min_Stack_Size = 0x400

.isr_vector     0x08000000       0xc0
                0x08000000                . = ALIGN (0x4)
 *(.isr_vector)
 .isr_vector    0x08000000       0xc0 CMakeFiles/L-ink_Card.elf.dir/startup/startup_stm32l051xx.s.obj
                0x08000000                g_pfnVectors
                0x080000c0                . = ALIGN (0x4)

.text           0x080000c0     0x607c
                0x080000c0                . = ALIGN (0x4)
 *(.text)
 .text          0x080000c0       0x48 d:/progra~2/stm32c~1/gnu-to~1/bin/../lib/gcc/arm-none-eabi/9.2.1/thumb/v6-m/nofp/crtbegin.o
 .text          0x08000108      0x114 d:/progra~2/stm32c~1/gnu-to~1/bin/../lib/gcc/arm-none-eabi/9.2.1/thumb/v6-m/nofp\libgcc.a(_udivsi3.o)
                0x08000108                __aeabi_uidiv
                0x08000108                __udivsi3
                0x08000214                __aeabi_uidivmod
 .text          0x0800021c        0x4 d:/progra~2/stm32c~1/gnu-to~1/bin/../lib/gcc/arm-none-eabi/9.2.1/thumb/v6-m/nofp\libgcc.a(_dvmd_tls.o)
                0x0800021c                __aeabi_idiv0
                0x0800021c                __aeabi_ldiv0
 .text          0x08000220       0x40 d:/progra~2/stm32c~1/gnu-to~1/bin/../lib/gcc/arm-none-eabi/9.2.1/thumb/v6-m/nofp\libgcc.a(_aeabi_uldivmod.o)
                0x08000220                __aeabi_uldivmod
 .text          0x08000260      0x198 d:/progra~2/stm32c~1/gnu-to~1/bin/../lib/gcc/arm-none-eabi/9.2.1/thumb/v6-m/nofp\libgcc.a(_udivmoddi4.o)
                0x08000260                __udivmoddi4
 .text          0x080003f8       0x18 d:/progra~2/stm32c~1/gnu-to~1/bin/../lib/gcc/arm-none-eabi/9.2.1/thumb/v6-m/nofp\libgcc.a(_clzdi2.o)
                0x080003f8                __clzdi2
 .text          0x08000410       0x3c d:/progra~2/stm32c~1/gnu-to~1/bin/../lib/gcc/arm-none-eabi/9.2.1/thumb/v6-m/nofp\libgcc.a(_clzsi2.o)
                0x08000410                __clzsi2
 .text          0x0800044c       0x14 d:/progra~2/stm32c~1/gnu-to~1/bin/../lib/gcc/arm-none-eabi/9.2.1/thumb/v6-m/nofp\libgcc.a(_thumb1_case_shi.o)
                0x0800044c                __gnu_thumb1_case_shi
 *(.text*)
 .text.ST25DV_RegisterBusIO
                0x08000460       0x90 CMakeFiles/L-ink_Card.elf.dir/Drivers/BSP/Components/ST25DV/st25dv.c.obj
                0x08000460                ST25DV_RegisterBusIO
 .text.ST25DV_Init
                0x080004f0       0x46 CMakeFiles/L-ink_Card.elf.dir/Drivers/BSP/Components/ST25DV/st25dv.c.obj
                0x080004f0                ST25DV_Init
 .text.ST25DV_ReadID
                0x08000536       0x22 CMakeFiles/L-ink_Card.elf.dir/Drivers/BSP/Components/ST25DV/st25dv.c.obj
                0x08000536                ST25DV_ReadID
 .text.ST25DV_IsDeviceReady
                0x08000558       0x20 CMakeFiles/L-ink_Card.elf.dir/Drivers/BSP/Components/ST25DV/st25dv.c.obj
                0x08000558                ST25DV_IsDeviceReady
 .text.ST25DV_GetGPOStatus
                0x08000578       0x3e CMakeFiles/L-ink_Card.elf.dir/Drivers/BSP/Components/ST25DV/st25dv.c.obj
                0x08000578                ST25DV_GetGPOStatus
 .text.ST25DV_ConfigureGPO
                0x080005b6       0x26 CMakeFiles/L-ink_Card.elf.dir/Drivers/BSP/Components/ST25DV/st25dv.c.obj
                0x080005b6                ST25DV_ConfigureGPO
 .text.ST25DV_ReadData
                0x080005dc       0x34 CMakeFiles/L-ink_Card.elf.dir/Drivers/BSP/Components/ST25DV/st25dv.c.obj
                0x080005dc                ST25DV_ReadData
 .text.ST25DV_WriteData
                0x08000610       0xfc CMakeFiles/L-ink_Card.elf.dir/Drivers/BSP/Components/ST25DV/st25dv.c.obj
                0x08000610                ST25DV_WriteData
 .text.ST25DV_WriteRegister
                0x0800070c      0x100 CMakeFiles/L-ink_Card.elf.dir/Drivers/BSP/Components/ST25DV/st25dv.c.obj
                0x0800070c                ST25DV_WriteRegister
 .text.ST25DV_PresentI2CPassword
                0x0800080c       0xc0 CMakeFiles/L-ink_Card.elf.dir/Drivers/BSP/Components/ST25DV/st25dv.c.obj
                0x0800080c                ST25DV_PresentI2CPassword
 .text.ST25DV_WriteEHMode
                0x080008cc       0x30 CMakeFiles/L-ink_Card.elf.dir/Drivers/BSP/Components/ST25DV/st25dv.c.obj
                0x080008cc                ST25DV_WriteEHMode
 .text.ST25DV_ReadMBMode
                0x080008fc       0x4a CMakeFiles/L-ink_Card.elf.dir/Drivers/BSP/Components/ST25DV/st25dv.c.obj
                0x080008fc                ST25DV_ReadMBMode
 .text.ST25DV_WriteMBMode
                0x08000946       0x34 CMakeFiles/L-ink_Card.elf.dir/Drivers/BSP/Components/ST25DV/st25dv.c.obj
                0x08000946                ST25DV_WriteMBMode
 *fill*         0x0800097a        0x2 
 .text.ST25DV_ReadMailboxData
                0x0800097c       0x50 CMakeFiles/L-ink_Card.elf.dir/Drivers/BSP/Components/ST25DV/st25dv.c.obj
                0x0800097c                ST25DV_ReadMailboxData
 .text.ST25DV_ReadI2CSecuritySession_Dyn
                0x080009cc       0x4a CMakeFiles/L-ink_Card.elf.dir/Drivers/BSP/Components/ST25DV/st25dv.c.obj
                0x080009cc                ST25DV_ReadI2CSecuritySession_Dyn
 .text.ST25DV_SetEHENMode_Dyn
                0x08000a16       0x28 CMakeFiles/L-ink_Card.elf.dir/Drivers/BSP/Components/ST25DV/st25dv.c.obj
                0x08000a16                ST25DV_SetEHENMode_Dyn
 .text.ST25DV_ReadMBCtrl_Dyn
                0x08000a3e       0x96 CMakeFiles/L-ink_Card.elf.dir/Drivers/BSP/Components/ST25DV/st25dv.c.obj
                0x08000a3e                ST25DV_ReadMBCtrl_Dyn
 .text.ST25DV_SetMBEN_Dyn
                0x08000ad4       0x28 CMakeFiles/L-ink_Card.elf.dir/Drivers/BSP/Components/ST25DV/st25dv.c.obj
                0x08000ad4                ST25DV_SetMBEN_Dyn
 .text.ST25DV_ReadMBLength_Dyn
                0x08000afc       0x22 CMakeFiles/L-ink_Card.elf.dir/Drivers/BSP/Components/ST25DV/st25dv.c.obj
                0x08000afc                ST25DV_ReadMBLength_Dyn
 .text.ReadRegWrap
                0x08000b1e       0x6a CMakeFiles/L-ink_Card.elf.dir/Drivers/BSP/Components/ST25DV/st25dv.c.obj
 .text.WriteRegWrap
                0x08000b88       0xb2 CMakeFiles/L-ink_Card.elf.dir/Drivers/BSP/Components/ST25DV/st25dv.c.obj
 .text.ST25DV_ReadReg
                0x08000c3a       0x3e CMakeFiles/L-ink_Card.elf.dir/Drivers/BSP/Components/ST25DV/st25dv_reg.c.obj
                0x08000c3a                ST25DV_ReadReg
 .text.ST25DV_WriteReg
                0x08000c78       0x3e CMakeFiles/L-ink_Card.elf.dir/Drivers/BSP/Components/ST25DV/st25dv_reg.c.obj
                0x08000c78                ST25DV_WriteReg
 .text.ST25DV_GetICREF
                0x08000cb6       0x2a CMakeFiles/L-ink_Card.elf.dir/Drivers/BSP/Components/ST25DV/st25dv_reg.c.obj
                0x08000cb6                ST25DV_GetICREF
 .text.ST25DV_GetMB_MODE_RW
                0x08000ce0       0x40 CMakeFiles/L-ink_Card.elf.dir/Drivers/BSP/Components/ST25DV/st25dv_reg.c.obj
                0x08000ce0                ST25DV_GetMB_MODE_RW
 .text.ST25DV_SetMB_MODE_RW
                0x08000d20       0x66 CMakeFiles/L-ink_Card.elf.dir/Drivers/BSP/Components/ST25DV/st25dv_reg.c.obj
                0x08000d20                ST25DV_SetMB_MODE_RW
 *fill*         0x08000d86        0x2 
 .text.ST25DV_GetMBLEN_DYN_MBLEN
                0x08000d88       0x30 CMakeFiles/L-ink_Card.elf.dir/Drivers/BSP/Components/ST25DV/st25dv_reg.c.obj
                0x08000d88                ST25DV_GetMBLEN_DYN_MBLEN
 .text.ST25DV_SetMB_CTRL_DYN_MBEN
                0x08000db8       0x6c CMakeFiles/L-ink_Card.elf.dir/Drivers/BSP/Components/ST25DV/st25dv_reg.c.obj
                0x08000db8                ST25DV_SetMB_CTRL_DYN_MBEN
 .text.ST25DV_GetMB_CTRL_DYN_ALL
                0x08000e24       0x30 CMakeFiles/L-ink_Card.elf.dir/Drivers/BSP/Components/ST25DV/st25dv_reg.c.obj
                0x08000e24                ST25DV_GetMB_CTRL_DYN_ALL
 .text.ST25DV_GetGPO_ALL
                0x08000e54       0x2a CMakeFiles/L-ink_Card.elf.dir/Drivers/BSP/Components/ST25DV/st25dv_reg.c.obj
                0x08000e54                ST25DV_GetGPO_ALL
 .text.ST25DV_SetGPO_ALL
                0x08000e7e       0x2a CMakeFiles/L-ink_Card.elf.dir/Drivers/BSP/Components/ST25DV/st25dv_reg.c.obj
                0x08000e7e                ST25DV_SetGPO_ALL
 .text.ST25DV_SetEH_MODE
                0x08000ea8       0x66 CMakeFiles/L-ink_Card.elf.dir/Drivers/BSP/Components/ST25DV/st25dv_reg.c.obj
                0x08000ea8                ST25DV_SetEH_MODE
 *fill*         0x08000f0e        0x2 
 .text.ST25DV_SetEH_CTRL_DYN_EH_EN
                0x08000f10       0x6c CMakeFiles/L-ink_Card.elf.dir/Drivers/BSP/Components/ST25DV/st25dv_reg.c.obj
                0x08000f10                ST25DV_SetEH_CTRL_DYN_EH_EN
 .text.ST25DV_GetI2C_SSO_DYN_I2CSSO
                0x08000f7c       0x44 CMakeFiles/L-ink_Card.elf.dir/Drivers/BSP/Components/ST25DV/st25dv_reg.c.obj
                0x08000f7c                ST25DV_GetI2C_SSO_DYN_I2CSSO
 .text.SpiDelay
                0x08000fc0       0x4a CMakeFiles/L-ink_Card.elf.dir/Drivers/BSP/E-Paper-Display/epd_w21.c.obj
                0x08000fc0                SpiDelay
 .text.DriverDelay
                0x0800100a       0x18 CMakeFiles/L-ink_Card.elf.dir/Drivers/BSP/E-Paper-Display/epd_w21.c.obj
                0x0800100a                DriverDelay
 .text.SpiWrite
                0x08001022       0x9c CMakeFiles/L-ink_Card.elf.dir/Drivers/BSP/E-Paper-Display/epd_w21.c.obj
                0x08001022                SpiWrite
 .text.ReadBusy
                0x080010be       0x48 CMakeFiles/L-ink_Card.elf.dir/Drivers/BSP/E-Paper-Display/epd_w21.c.obj
 *fill*         0x08001106        0x2 
 .text.EpdW21WriteCMD
                0x08001108       0x4c CMakeFiles/L-ink_Card.elf.dir/Drivers/BSP/E-Paper-Display/epd_w21.c.obj
 .text.EpdW21WriteCMD_p1
                0x08001154       0x6c CMakeFiles/L-ink_Card.elf.dir/Drivers/BSP/E-Paper-Display/epd_w21.c.obj
 .text.EpdW21Write
                0x080011c0       0xa0 CMakeFiles/L-ink_Card.elf.dir/Drivers/BSP/E-Paper-Display/epd_w21.c.obj
 .text.EpdW21WriteDispRam
                0x08001260       0xcc CMakeFiles/L-ink_Card.elf.dir/Drivers/BSP/E-Paper-Display/epd_w21.c.obj
 .text.EpdW21WriteDispRamMono
                0x0800132c       0xc4 CMakeFiles/L-ink_Card.elf.dir/Drivers/BSP/E-Paper-Display/epd_w21.c.obj
 .text.EpdW21PowerOn
                0x080013f0       0x18 CMakeFiles/L-ink_Card.elf.dir/Drivers/BSP/E-Paper-Display/epd_w21.c.obj
 .text.EpdW21SetRamArea
                0x08001408       0x86 CMakeFiles/L-ink_Card.elf.dir/Drivers/BSP/E-Paper-Display/epd_w21.c.obj
 .text.EpdW21SetRamPointer
                0x0800148e       0x62 CMakeFiles/L-ink_Card.elf.dir/Drivers/BSP/E-Paper-Display/epd_w21.c.obj
 .text.EpdW21DispInit
                0x080014f0       0x70 CMakeFiles/L-ink_Card.elf.dir/Drivers/BSP/E-Paper-Display/epd_w21.c.obj
 .text.EpdW21Init
                0x08001560       0x38 CMakeFiles/L-ink_Card.elf.dir/Drivers/BSP/E-Paper-Display/epd_w21.c.obj
 .text.EpdW21Update
                0x08001598       0x1e CMakeFiles/L-ink_Card.elf.dir/Drivers/BSP/E-Paper-Display/epd_w21.c.obj
 .text.EpdW21WirteLUT
                0x080015b6       0x24 CMakeFiles/L-ink_Card.elf.dir/Drivers/BSP/E-Paper-Display/epd_w21.c.obj
 *fill*         0x080015da        0x2 
 .text.EpdInitFull
                0x080015dc       0x20 CMakeFiles/L-ink_Card.elf.dir/Drivers/BSP/E-Paper-Display/epd_w21.c.obj
                0x080015dc                EpdInitFull
 .text.EpdDisFull
                0x080015fc       0x44 CMakeFiles/L-ink_Card.elf.dir/Drivers/BSP/E-Paper-Display/epd_w21.c.obj
                0x080015fc                EpdDisFull
 .text.NFC04A1_GPO_Init
                0x08001640       0x70 CMakeFiles/L-ink_Card.elf.dir/Drivers/BSP/NFC04A1/nfc04a1.c.obj
                0x08001640                NFC04A1_GPO_Init
 .text.NFC04A1_NFCTAG_Init
                0x080016b0       0xb8 CMakeFiles/L-ink_Card.elf.dir/Drivers/BSP/NFC04A1/nfc04a1_nfctag.c.obj
                0x080016b0                NFC04A1_NFCTAG_Init
 .text.NFC04A1_NFCTAG_ConfigIT
                0x08001768       0x40 CMakeFiles/L-ink_Card.elf.dir/Drivers/BSP/NFC04A1/nfc04a1_nfctag.c.obj
                0x08001768                NFC04A1_NFCTAG_ConfigIT
 .text.NFC04A1_NFCTAG_PresentI2CPassword
                0x080017a8       0x28 CMakeFiles/L-ink_Card.elf.dir/Drivers/BSP/NFC04A1/nfc04a1_nfctag.c.obj
                0x080017a8                NFC04A1_NFCTAG_PresentI2CPassword
 .text.NFC04A1_NFCTAG_WriteEHMode
                0x080017d0       0x2c CMakeFiles/L-ink_Card.elf.dir/Drivers/BSP/NFC04A1/nfc04a1_nfctag.c.obj
                0x080017d0                NFC04A1_NFCTAG_WriteEHMode
 .text.NFC04A1_NFCTAG_ReadMBMode
                0x080017fc       0x24 CMakeFiles/L-ink_Card.elf.dir/Drivers/BSP/NFC04A1/nfc04a1_nfctag.c.obj
                0x080017fc                NFC04A1_NFCTAG_ReadMBMode
 .text.NFC04A1_NFCTAG_WriteMBMode
                0x08001820       0x2c CMakeFiles/L-ink_Card.elf.dir/Drivers/BSP/NFC04A1/nfc04a1_nfctag.c.obj
                0x08001820                NFC04A1_NFCTAG_WriteMBMode
 .text.NFC04A1_NFCTAG_ReadMailboxData
                0x0800184c       0x38 CMakeFiles/L-ink_Card.elf.dir/Drivers/BSP/NFC04A1/nfc04a1_nfctag.c.obj
                0x0800184c                NFC04A1_NFCTAG_ReadMailboxData
 .text.NFC04A1_NFCTAG_ReadI2CSecuritySession_Dyn
                0x08001884       0x24 CMakeFiles/L-ink_Card.elf.dir/Drivers/BSP/NFC04A1/nfc04a1_nfctag.c.obj
                0x08001884                NFC04A1_NFCTAG_ReadI2CSecuritySession_Dyn
 .text.NFC04A1_NFCTAG_SetEHENMode_Dyn
                0x080018a8       0x20 CMakeFiles/L-ink_Card.elf.dir/Drivers/BSP/NFC04A1/nfc04a1_nfctag.c.obj
                0x080018a8                NFC04A1_NFCTAG_SetEHENMode_Dyn
 .text.NFC04A1_NFCTAG_ReadMBCtrl_Dyn
                0x080018c8       0x24 CMakeFiles/L-ink_Card.elf.dir/Drivers/BSP/NFC04A1/nfc04a1_nfctag.c.obj
                0x080018c8                NFC04A1_NFCTAG_ReadMBCtrl_Dyn
 .text.NFC04A1_NFCTAG_SetMBEN_Dyn
                0x080018ec       0x20 CMakeFiles/L-ink_Card.elf.dir/Drivers/BSP/NFC04A1/nfc04a1_nfctag.c.obj
                0x080018ec                NFC04A1_NFCTAG_SetMBEN_Dyn
 .text.NFC04A1_NFCTAG_ReadMBLength_Dyn
                0x0800190c       0x24 CMakeFiles/L-ink_Card.elf.dir/Drivers/BSP/NFC04A1/nfc04a1_nfctag.c.obj
                0x0800190c                NFC04A1_NFCTAG_ReadMBLength_Dyn
 .text.MX_NFC_Init
                0x08001930        0xe CMakeFiles/L-ink_Card.elf.dir/Drivers/BSP/ST25DV/app_nfc.c.obj
                0x08001930                MX_NFC_Init
 .text.MX_NFC_Process
                0x0800193e        0xe CMakeFiles/L-ink_Card.elf.dir/Drivers/BSP/ST25DV/app_nfc.c.obj
                0x0800193e                MX_NFC_Process
 .text.MX_NFC4_MAILBOX_Init
                0x0800194c       0xec CMakeFiles/L-ink_Card.elf.dir/Drivers/BSP/ST25DV/app_nfc.c.obj
                0x0800194c                MX_NFC4_MAILBOX_Init
 .text.MX_NFC4_MAILBOX_Process
                0x08001a38       0xd4 CMakeFiles/L-ink_Card.elf.dir/Drivers/BSP/ST25DV/app_nfc.c.obj
                0x08001a38                MX_NFC4_MAILBOX_Process
 .text.BSP_GPO_Callback
                0x08001b0c       0x14 CMakeFiles/L-ink_Card.elf.dir/Drivers/BSP/ST25DV/app_nfc.c.obj
                0x08001b0c                BSP_GPO_Callback
 .text.HAL_Init
                0x08001b20       0x40 CMakeFiles/L-ink_Card.elf.dir/Drivers/STM32L0xx_HAL_Driver/Src/stm32l0xx_hal.c.obj
                0x08001b20                HAL_Init
 .text.HAL_InitTick
                0x08001b60       0x54 CMakeFiles/L-ink_Card.elf.dir/Drivers/STM32L0xx_HAL_Driver/Src/stm32l0xx_hal.c.obj
                0x08001b60                HAL_InitTick
 .text.HAL_IncTick
                0x08001bb4       0x18 CMakeFiles/L-ink_Card.elf.dir/Drivers/STM32L0xx_HAL_Driver/Src/stm32l0xx_hal.c.obj
                0x08001bb4                HAL_IncTick
 .text.HAL_GetTick
                0x08001bcc       0x14 CMakeFiles/L-ink_Card.elf.dir/Drivers/STM32L0xx_HAL_Driver/Src/stm32l0xx_hal.c.obj
                0x08001bcc                HAL_GetTick
 .text.HAL_Delay
                0x08001be0       0x3c CMakeFiles/L-ink_Card.elf.dir/Drivers/STM32L0xx_HAL_Driver/Src/stm32l0xx_hal.c.obj
                0x08001be0                HAL_Delay
 .text.NVIC_EnableIRQ
                0x08001c1c       0x2c CMakeFiles/L-ink_Card.elf.dir/Drivers/STM32L0xx_HAL_Driver/Src/stm32l0xx_hal_cortex.c.obj
 .text.NVIC_SetPriority
                0x08001c48       0xdc CMakeFiles/L-ink_Card.elf.dir/Drivers/STM32L0xx_HAL_Driver/Src/stm32l0xx_hal_cortex.c.obj
 .text.SysTick_Config
                0x08001d24       0x48 CMakeFiles/L-ink_Card.elf.dir/Drivers/STM32L0xx_HAL_Driver/Src/stm32l0xx_hal_cortex.c.obj
 .text.HAL_NVIC_SetPriority
                0x08001d6c       0x2a CMakeFiles/L-ink_Card.elf.dir/Drivers/STM32L0xx_HAL_Driver/Src/stm32l0xx_hal_cortex.c.obj
                0x08001d6c                HAL_NVIC_SetPriority
 .text.HAL_NVIC_EnableIRQ
                0x08001d96       0x20 CMakeFiles/L-ink_Card.elf.dir/Drivers/STM32L0xx_HAL_Driver/Src/stm32l0xx_hal_cortex.c.obj
                0x08001d96                HAL_NVIC_EnableIRQ
 .text.HAL_SYSTICK_Config
                0x08001db6       0x1a CMakeFiles/L-ink_Card.elf.dir/Drivers/STM32L0xx_HAL_Driver/Src/stm32l0xx_hal_cortex.c.obj
                0x08001db6                HAL_SYSTICK_Config
 .text.HAL_GPIO_Init
                0x08001dd0      0x2ec CMakeFiles/L-ink_Card.elf.dir/Drivers/STM32L0xx_HAL_Driver/Src/stm32l0xx_hal_gpio.c.obj
                0x08001dd0                HAL_GPIO_Init
 .text.HAL_GPIO_DeInit
                0x080020bc      0x1b4 CMakeFiles/L-ink_Card.elf.dir/Drivers/STM32L0xx_HAL_Driver/Src/stm32l0xx_hal_gpio.c.obj
                0x080020bc                HAL_GPIO_DeInit
 .text.HAL_GPIO_ReadPin
                0x08002270       0x3a CMakeFiles/L-ink_Card.elf.dir/Drivers/STM32L0xx_HAL_Driver/Src/stm32l0xx_hal_gpio.c.obj
                0x08002270                HAL_GPIO_ReadPin
 .text.HAL_GPIO_WritePin
                0x080022aa       0x3a CMakeFiles/L-ink_Card.elf.dir/Drivers/STM32L0xx_HAL_Driver/Src/stm32l0xx_hal_gpio.c.obj
                0x080022aa                HAL_GPIO_WritePin
 .text.HAL_I2C_Init
                0x080022e4      0x12c CMakeFiles/L-ink_Card.elf.dir/Drivers/STM32L0xx_HAL_Driver/Src/stm32l0xx_hal_i2c.c.obj
                0x080022e4                HAL_I2C_Init
 .text.HAL_I2C_DeInit
                0x08002410       0x60 CMakeFiles/L-ink_Card.elf.dir/Drivers/STM32L0xx_HAL_Driver/Src/stm32l0xx_hal_i2c.c.obj
                0x08002410                HAL_I2C_DeInit
 .text.HAL_I2C_MspInit
                0x08002470       0x10 CMakeFiles/L-ink_Card.elf.dir/Drivers/STM32L0xx_HAL_Driver/Src/stm32l0xx_hal_i2c.c.obj
                0x08002470                HAL_I2C_MspInit
 .text.HAL_I2C_MspDeInit
                0x08002480       0x10 CMakeFiles/L-ink_Card.elf.dir/Drivers/STM32L0xx_HAL_Driver/Src/stm32l0xx_hal_i2c.c.obj
                0x08002480                HAL_I2C_MspDeInit
 .text.HAL_I2C_Mem_Write
                0x08002490      0x25c CMakeFiles/L-ink_Card.elf.dir/Drivers/STM32L0xx_HAL_Driver/Src/stm32l0xx_hal_i2c.c.obj
                0x08002490                HAL_I2C_Mem_Write
 .text.HAL_I2C_Mem_Read
                0x080026ec      0x268 CMakeFiles/L-ink_Card.elf.dir/Drivers/STM32L0xx_HAL_Driver/Src/stm32l0xx_hal_i2c.c.obj
                0x080026ec                HAL_I2C_Mem_Read
 .text.HAL_I2C_IsDeviceReady
                0x08002954      0x234 CMakeFiles/L-ink_Card.elf.dir/Drivers/STM32L0xx_HAL_Driver/Src/stm32l0xx_hal_i2c.c.obj
                0x08002954                HAL_I2C_IsDeviceReady
 .text.HAL_I2C_GetState
                0x08002b88       0x18 CMakeFiles/L-ink_Card.elf.dir/Drivers/STM32L0xx_HAL_Driver/Src/stm32l0xx_hal_i2c.c.obj
                0x08002b88                HAL_I2C_GetState
 .text.HAL_I2C_GetError
                0x08002ba0       0x14 CMakeFiles/L-ink_Card.elf.dir/Drivers/STM32L0xx_HAL_Driver/Src/stm32l0xx_hal_i2c.c.obj
                0x08002ba0                HAL_I2C_GetError
 .text.I2C_RequestMemoryWrite
                0x08002bb4       0xc8 CMakeFiles/L-ink_Card.elf.dir/Drivers/STM32L0xx_HAL_Driver/Src/stm32l0xx_hal_i2c.c.obj
 .text.I2C_RequestMemoryRead
                0x08002c7c       0xc4 CMakeFiles/L-ink_Card.elf.dir/Drivers/STM32L0xx_HAL_Driver/Src/stm32l0xx_hal_i2c.c.obj
 .text.I2C_Flush_TXDR
                0x08002d40       0x44 CMakeFiles/L-ink_Card.elf.dir/Drivers/STM32L0xx_HAL_Driver/Src/stm32l0xx_hal_i2c.c.obj
 .text.I2C_WaitOnFlagUntilTimeout
                0x08002d84       0x7e CMakeFiles/L-ink_Card.elf.dir/Drivers/STM32L0xx_HAL_Driver/Src/stm32l0xx_hal_i2c.c.obj
 .text.I2C_WaitOnTXISFlagUntilTimeout
                0x08002e02       0x7e CMakeFiles/L-ink_Card.elf.dir/Drivers/STM32L0xx_HAL_Driver/Src/stm32l0xx_hal_i2c.c.obj
 .text.I2C_WaitOnSTOPFlagUntilTimeout
                0x08002e80       0x78 CMakeFiles/L-ink_Card.elf.dir/Drivers/STM32L0xx_HAL_Driver/Src/stm32l0xx_hal_i2c.c.obj
 .text.I2C_IsAcknowledgeFailed
                0x08002ef8       0xcc CMakeFiles/L-ink_Card.elf.dir/Drivers/STM32L0xx_HAL_Driver/Src/stm32l0xx_hal_i2c.c.obj
 .text.I2C_TransferConfig
                0x08002fc4       0x6c CMakeFiles/L-ink_Card.elf.dir/Drivers/STM32L0xx_HAL_Driver/Src/stm32l0xx_hal_i2c.c.obj
 .text.HAL_I2CEx_ConfigAnalogFilter
                0x08003030       0x98 CMakeFiles/L-ink_Card.elf.dir/Drivers/STM32L0xx_HAL_Driver/Src/stm32l0xx_hal_i2c_ex.c.obj
                0x08003030                HAL_I2CEx_ConfigAnalogFilter
 .text.HAL_I2CEx_ConfigDigitalFilter
                0x080030c8       0x98 CMakeFiles/L-ink_Card.elf.dir/Drivers/STM32L0xx_HAL_Driver/Src/stm32l0xx_hal_i2c_ex.c.obj
                0x080030c8                HAL_I2CEx_ConfigDigitalFilter
 .text.HAL_RCC_OscConfig
                0x08003160      0x6cc CMakeFiles/L-ink_Card.elf.dir/Drivers/STM32L0xx_HAL_Driver/Src/stm32l0xx_hal_rcc.c.obj
                0x08003160                HAL_RCC_OscConfig
 .text.HAL_RCC_ClockConfig
                0x0800382c      0x254 CMakeFiles/L-ink_Card.elf.dir/Drivers/STM32L0xx_HAL_Driver/Src/stm32l0xx_hal_rcc.c.obj
                0x0800382c                HAL_RCC_ClockConfig
 .text.HAL_RCC_GetSysClockFreq
                0x08003a80      0x10c CMakeFiles/L-ink_Card.elf.dir/Drivers/STM32L0xx_HAL_Driver/Src/stm32l0xx_hal_rcc.c.obj
                0x08003a80                HAL_RCC_GetSysClockFreq
 .text.HAL_RCC_GetHCLKFreq
                0x08003b8c       0x14 CMakeFiles/L-ink_Card.elf.dir/Drivers/STM32L0xx_HAL_Driver/Src/stm32l0xx_hal_rcc.c.obj
                0x08003b8c                HAL_RCC_GetHCLKFreq
 .text.HAL_RCC_GetPCLK1Freq
                0x08003ba0       0x2c CMakeFiles/L-ink_Card.elf.dir/Drivers/STM32L0xx_HAL_Driver/Src/stm32l0xx_hal_rcc.c.obj
                0x08003ba0                HAL_RCC_GetPCLK1Freq
 .text.HAL_RCC_GetPCLK2Freq
                0x08003bcc       0x2c CMakeFiles/L-ink_Card.elf.dir/Drivers/STM32L0xx_HAL_Driver/Src/stm32l0xx_hal_rcc.c.obj
                0x08003bcc                HAL_RCC_GetPCLK2Freq
 .text.HAL_RCCEx_PeriphCLKConfig
                0x08003bf8      0x26c CMakeFiles/L-ink_Card.elf.dir/Drivers/STM32L0xx_HAL_Driver/Src/stm32l0xx_hal_rcc_ex.c.obj
                0x08003bf8                HAL_RCCEx_PeriphCLKConfig
 .text.HAL_UART_Init
                0x08003e64       0xa8 CMakeFiles/L-ink_Card.elf.dir/Drivers/STM32L0xx_HAL_Driver/Src/stm32l0xx_hal_uart.c.obj
                0x08003e64                HAL_UART_Init
 .text.UART_SetConfig
                0x08003f0c      0x630 CMakeFiles/L-ink_Card.elf.dir/Drivers/STM32L0xx_HAL_Driver/Src/stm32l0xx_hal_uart.c.obj
                0x08003f0c                UART_SetConfig
 .text.UART_AdvFeatureConfig
                0x0800453c      0x168 CMakeFiles/L-ink_Card.elf.dir/Drivers/STM32L0xx_HAL_Driver/Src/stm32l0xx_hal_uart.c.obj
                0x0800453c                UART_AdvFeatureConfig
 .text.UART_CheckIdleState
                0x080046a4       0x88 CMakeFiles/L-ink_Card.elf.dir/Drivers/STM32L0xx_HAL_Driver/Src/stm32l0xx_hal_uart.c.obj
                0x080046a4                UART_CheckIdleState
 .text.UART_WaitOnFlagUntilTimeout
                0x0800472c       0x94 CMakeFiles/L-ink_Card.elf.dir/Drivers/STM32L0xx_HAL_Driver/Src/stm32l0xx_hal_uart.c.obj
                0x0800472c                UART_WaitOnFlagUntilTimeout
 .text.BSP_I2C1_Init
                0x080047c0       0x7c CMakeFiles/L-ink_Card.elf.dir/Src/custom_bus.c.obj
                0x080047c0                BSP_I2C1_Init
 .text.BSP_I2C1_DeInit
                0x0800483c       0x50 CMakeFiles/L-ink_Card.elf.dir/Src/custom_bus.c.obj
                0x0800483c                BSP_I2C1_DeInit
 .text.BSP_I2C1_IsReady
                0x0800488c       0x3c CMakeFiles/L-ink_Card.elf.dir/Src/custom_bus.c.obj
                0x0800488c                BSP_I2C1_IsReady
 .text.BSP_I2C1_WriteReg16
                0x080048c8       0x78 CMakeFiles/L-ink_Card.elf.dir/Src/custom_bus.c.obj
                0x080048c8                BSP_I2C1_WriteReg16
 .text.BSP_I2C1_ReadReg16
                0x08004940       0x78 CMakeFiles/L-ink_Card.elf.dir/Src/custom_bus.c.obj
                0x08004940                BSP_I2C1_ReadReg16
 .text.MX_I2C1_Init
                0x080049b8       0x9c CMakeFiles/L-ink_Card.elf.dir/Src/custom_bus.c.obj
                0x080049b8                MX_I2C1_Init
 .text.I2C1_MspInit
                0x08004a54       0x6c CMakeFiles/L-ink_Card.elf.dir/Src/custom_bus.c.obj
 .text.I2C1_MspDeInit
                0x08004ac0       0x34 CMakeFiles/L-ink_Card.elf.dir/Src/custom_bus.c.obj
 .text.MX_GPIO_Init
                0x08004af4      0x190 CMakeFiles/L-ink_Card.elf.dir/Src/gpio.c.obj
                0x08004af4                MX_GPIO_Init
 .text.main     0x08004c84       0x22 CMakeFiles/L-ink_Card.elf.dir/Src/main.c.obj
                0x08004c84                main
 *fill*         0x08004ca6        0x2 
 .text.SystemClock_Config
                0x08004ca8       0xd4 CMakeFiles/L-ink_Card.elf.dir/Src/main.c.obj
                0x08004ca8                SystemClock_Config
 .text.Error_Handler
                0x08004d7c        0xa CMakeFiles/L-ink_Card.elf.dir/Src/main.c.obj
                0x08004d7c                Error_Handler
 .text.HAL_EXTI_RegisterCallback
                0x08004d86       0x42 CMakeFiles/L-ink_Card.elf.dir/Src/stm32l0xx_hal_exti.c.obj
                0x08004d86                HAL_EXTI_RegisterCallback
 .text.HAL_EXTI_GetHandle
                0x08004dc8       0x24 CMakeFiles/L-ink_Card.elf.dir/Src/stm32l0xx_hal_exti.c.obj
                0x08004dc8                HAL_EXTI_GetHandle
 .text.HAL_EXTI_IRQHandler
                0x08004dec       0x48 CMakeFiles/L-ink_Card.elf.dir/Src/stm32l0xx_hal_exti.c.obj
                0x08004dec                HAL_EXTI_IRQHandler
 .text.HAL_MspInit
                0x08004e34       0x28 CMakeFiles/L-ink_Card.elf.dir/Src/stm32l0xx_hal_msp.c.obj
                0x08004e34                HAL_MspInit
 .text.NMI_Handler
                0x08004e5c        0xa CMakeFiles/L-ink_Card.elf.dir/Src/stm32l0xx_it.c.obj
                0x08004e5c                NMI_Handler
 .text.HardFault_Handler
                0x08004e66        0x6 CMakeFiles/L-ink_Card.elf.dir/Src/stm32l0xx_it.c.obj
                0x08004e66                HardFault_Handler
 .text.SVC_Handler
                0x08004e6c        0xa CMakeFiles/L-ink_Card.elf.dir/Src/stm32l0xx_it.c.obj
                0x08004e6c                SVC_Handler
 .text.PendSV_Handler
                0x08004e76        0xa CMakeFiles/L-ink_Card.elf.dir/Src/stm32l0xx_it.c.obj
                0x08004e76                PendSV_Handler
 .text.SysTick_Handler
                0x08004e80        0xe CMakeFiles/L-ink_Card.elf.dir/Src/stm32l0xx_it.c.obj
                0x08004e80                SysTick_Handler
 *fill*         0x08004e8e        0x2 
 .text.EXTI2_3_IRQHandler
                0x08004e90       0x18 CMakeFiles/L-ink_Card.elf.dir/Src/stm32l0xx_it.c.obj
                0x08004e90                EXTI2_3_IRQHandler
 .text._read    0x08004ea8       0x3a CMakeFiles/L-ink_Card.elf.dir/Src/syscalls.c.obj
                0x08004ea8                _read
 .text._write   0x08004ee2       0x38 CMakeFiles/L-ink_Card.elf.dir/Src/syscalls.c.obj
                0x08004ee2                _write
 *fill*         0x08004f1a        0x2 
 .text._sbrk    0x08004f1c       0x58 CMakeFiles/L-ink_Card.elf.dir/Src/syscalls.c.obj
                0x08004f1c                _sbrk
 .text._close   0x08004f74       0x14 CMakeFiles/L-ink_Card.elf.dir/Src/syscalls.c.obj
                0x08004f74                _close
 .text._fstat   0x08004f88       0x1c CMakeFiles/L-ink_Card.elf.dir/Src/syscalls.c.obj
                0x08004f88                _fstat
 .text._isatty  0x08004fa4       0x12 CMakeFiles/L-ink_Card.elf.dir/Src/syscalls.c.obj
                0x08004fa4                _isatty
 .text._lseek   0x08004fb6       0x16 CMakeFiles/L-ink_Card.elf.dir/Src/syscalls.c.obj
                0x08004fb6                _lseek
 .text.SystemInit
                0x08004fcc       0x7c CMakeFiles/L-ink_Card.elf.dir/Src/system_stm32l0xx.c.obj
                0x08004fcc                SystemInit
 .text.MX_USART1_UART_Init
                0x08005048       0x60 CMakeFiles/L-ink_Card.elf.dir/Src/usart.c.obj
                0x08005048                MX_USART1_UART_Init
 .text.HAL_UART_MspInit
                0x080050a8       0x88 CMakeFiles/L-ink_Card.elf.dir/Src/usart.c.obj
                0x080050a8                HAL_UART_MspInit
 .text.Reset_Handler
                0x08005130       0x50 CMakeFiles/L-ink_Card.elf.dir/startup/startup_stm32l051xx.s.obj
                0x08005130                Reset_Handler
 .text.Default_Handler
                0x08005180        0x2 CMakeFiles/L-ink_Card.elf.dir/startup/startup_stm32l051xx.s.obj
                0x08005180                ADC1_COMP_IRQHandler
                0x08005180                TIM6_IRQHandler
                0x08005180                PVD_IRQHandler
                0x08005180                I2C1_IRQHandler
                0x08005180                SPI1_IRQHandler
                0x08005180                I2C2_IRQHandler
                0x08005180                RTC_IRQHandler
                0x08005180                DMA1_Channel4_5_6_7_IRQHandler
                0x08005180                EXTI4_15_IRQHandler
                0x08005180                RCC_IRQHandler
                0x08005180                DMA1_Channel1_IRQHandler
                0x08005180                Default_Handler
                0x08005180                TIM22_IRQHandler
                0x08005180                EXTI0_1_IRQHandler
                0x08005180                SPI2_IRQHandler
                0x08005180                TIM21_IRQHandler
                0x08005180                WWDG_IRQHandler
                0x08005180                LPUART1_IRQHandler
                0x08005180                TIM2_IRQHandler
                0x08005180                DMA1_Channel2_3_IRQHandler
                0x08005180                USART2_IRQHandler
                0x08005180                FLASH_IRQHandler
                0x08005180                USART1_IRQHandler
                0x08005180                LPTIM1_IRQHandler
 *fill*         0x08005182        0x2 
 .text.__errno  0x08005184        0xc d:/progra~2/stm32c~1/gnu-to~1/bin/../lib/gcc/arm-none-eabi/9.2.1/../../../../arm-none-eabi/lib/thumb/v6-m/nofp\libg_nano.a(lib_a-errno.o)
                0x08005184                __errno
 .text.__libc_init_array
                0x08005190       0x48 d:/progra~2/stm32c~1/gnu-to~1/bin/../lib/gcc/arm-none-eabi/9.2.1/../../../../arm-none-eabi/lib/thumb/v6-m/nofp\libg_nano.a(lib_a-init.o)
                0x08005190                __libc_init_array
 .text.memset   0x080051d8       0x10 d:/progra~2/stm32c~1/gnu-to~1/bin/../lib/gcc/arm-none-eabi/9.2.1/../../../../arm-none-eabi/lib/thumb/v6-m/nofp\libg_nano.a(lib_a-memset.o)
                0x080051d8                memset
 .text.printf   0x080051e8       0x34 d:/progra~2/stm32c~1/gnu-to~1/bin/../lib/gcc/arm-none-eabi/9.2.1/../../../../arm-none-eabi/lib/thumb/v6-m/nofp\libg_nano.a(lib_a-printf.o)
                0x080051e8                iprintf
                0x080051e8                printf
 .text.std      0x0800521c       0x48 d:/progra~2/stm32c~1/gnu-to~1/bin/../lib/gcc/arm-none-eabi/9.2.1/../../../../arm-none-eabi/lib/thumb/v6-m/nofp\libg_nano.a(lib_a-findfp.o)
 .text._cleanup_r
                0x08005264       0x10 d:/progra~2/stm32c~1/gnu-to~1/bin/../lib/gcc/arm-none-eabi/9.2.1/../../../../arm-none-eabi/lib/thumb/v6-m/nofp\libg_nano.a(lib_a-findfp.o)
                0x08005264                _cleanup_r
 .text.__sfmoreglue
                0x08005274       0x2c d:/progra~2/stm32c~1/gnu-to~1/bin/../lib/gcc/arm-none-eabi/9.2.1/../../../../arm-none-eabi/lib/thumb/v6-m/nofp\libg_nano.a(lib_a-findfp.o)
                0x08005274                __sfmoreglue
 .text.__sfp_lock_acquire
                0x080052a0       0x10 d:/progra~2/stm32c~1/gnu-to~1/bin/../lib/gcc/arm-none-eabi/9.2.1/../../../../arm-none-eabi/lib/thumb/v6-m/nofp\libg_nano.a(lib_a-findfp.o)
                0x080052a0                __sfp_lock_acquire
 .text.__sfp_lock_release
                0x080052b0       0x10 d:/progra~2/stm32c~1/gnu-to~1/bin/../lib/gcc/arm-none-eabi/9.2.1/../../../../arm-none-eabi/lib/thumb/v6-m/nofp\libg_nano.a(lib_a-findfp.o)
                0x080052b0                __sfp_lock_release
 .text.__sinit_lock_acquire
                0x080052c0       0x10 d:/progra~2/stm32c~1/gnu-to~1/bin/../lib/gcc/arm-none-eabi/9.2.1/../../../../arm-none-eabi/lib/thumb/v6-m/nofp\libg_nano.a(lib_a-findfp.o)
                0x080052c0                __sinit_lock_acquire
 .text.__sinit_lock_release
                0x080052d0       0x10 d:/progra~2/stm32c~1/gnu-to~1/bin/../lib/gcc/arm-none-eabi/9.2.1/../../../../arm-none-eabi/lib/thumb/v6-m/nofp\libg_nano.a(lib_a-findfp.o)
                0x080052d0                __sinit_lock_release
 .text.__sinit  0x080052e0       0x70 d:/progra~2/stm32c~1/gnu-to~1/bin/../lib/gcc/arm-none-eabi/9.2.1/../../../../arm-none-eabi/lib/thumb/v6-m/nofp\libg_nano.a(lib_a-findfp.o)
                0x080052e0                __sinit
 .text.__sfp    0x08005350       0x90 d:/progra~2/stm32c~1/gnu-to~1/bin/../lib/gcc/arm-none-eabi/9.2.1/../../../../arm-none-eabi/lib/thumb/v6-m/nofp\libg_nano.a(lib_a-findfp.o)
                0x08005350                __sfp
 .text._fwalk_reent
                0x080053e0       0x40 d:/progra~2/stm32c~1/gnu-to~1/bin/../lib/gcc/arm-none-eabi/9.2.1/../../../../arm-none-eabi/lib/thumb/v6-m/nofp\libg_nano.a(lib_a-fwalk.o)
                0x080053e0                _fwalk_reent
 .text.__retarget_lock_init_recursive
                0x08005420        0x2 d:/progra~2/stm32c~1/gnu-to~1/bin/../lib/gcc/arm-none-eabi/9.2.1/../../../../arm-none-eabi/lib/thumb/v6-m/nofp\libg_nano.a(lib_a-lock.o)
                0x08005420                __retarget_lock_init_recursive
 .text.__retarget_lock_acquire_recursive
                0x08005422        0x2 d:/progra~2/stm32c~1/gnu-to~1/bin/../lib/gcc/arm-none-eabi/9.2.1/../../../../arm-none-eabi/lib/thumb/v6-m/nofp\libg_nano.a(lib_a-lock.o)
                0x08005422                __retarget_lock_acquire_recursive
 .text.__retarget_lock_release_recursive
                0x08005424        0x2 d:/progra~2/stm32c~1/gnu-to~1/bin/../lib/gcc/arm-none-eabi/9.2.1/../../../../arm-none-eabi/lib/thumb/v6-m/nofp\libg_nano.a(lib_a-lock.o)
                0x08005424                __retarget_lock_release_recursive
 *fill*         0x08005426        0x2 
 .text._malloc_r
                0x08005428       0xbc d:/progra~2/stm32c~1/gnu-to~1/bin/../lib/gcc/arm-none-eabi/9.2.1/../../../../arm-none-eabi/lib/thumb/v6-m/nofp\libg_nano.a(lib_a-nano-mallocr.o)
                0x08005428                _malloc_r
 .text.__sfputc_r
                0x080054e4       0x2a d:/progra~2/stm32c~1/gnu-to~1/bin/../lib/gcc/arm-none-eabi/9.2.1/../../../../arm-none-eabi/lib/thumb/v6-m/nofp\libg_nano.a(lib_a-nano-vfprintf.o)
 .text.__sfputs_r
                0x0800550e       0x24 d:/progra~2/stm32c~1/gnu-to~1/bin/../lib/gcc/arm-none-eabi/9.2.1/../../../../arm-none-eabi/lib/thumb/v6-m/nofp\libg_nano.a(lib_a-nano-vfprintf.o)
                0x0800550e                __sfputs_r
 *fill*         0x08005532        0x2 
 .text._vfprintf_r
                0x08005534      0x274 d:/progra~2/stm32c~1/gnu-to~1/bin/../lib/gcc/arm-none-eabi/9.2.1/../../../../arm-none-eabi/lib/thumb/v6-m/nofp\libg_nano.a(lib_a-nano-vfprintf.o)
                0x08005534                _vfprintf_r
                0x08005534                _vfiprintf_r
 .text._printf_common
                0x080057a8       0xde d:/progra~2/stm32c~1/gnu-to~1/bin/../lib/gcc/arm-none-eabi/9.2.1/../../../../arm-none-eabi/lib/thumb/v6-m/nofp\libg_nano.a(lib_a-nano-vfprintf_i.o)
                0x080057a8                _printf_common
 *fill*         0x08005886        0x2 
 .text._printf_i
                0x08005888      0x224 d:/progra~2/stm32c~1/gnu-to~1/bin/../lib/gcc/arm-none-eabi/9.2.1/../../../../arm-none-eabi/lib/thumb/v6-m/nofp\libg_nano.a(lib_a-nano-vfprintf_i.o)
                0x08005888                _printf_i
 .text._sbrk_r  0x08005aac       0x24 d:/progra~2/stm32c~1/gnu-to~1/bin/../lib/gcc/arm-none-eabi/9.2.1/../../../../arm-none-eabi/lib/thumb/v6-m/nofp\libg_nano.a(lib_a-sbrkr.o)
                0x08005aac                _sbrk_r
 .text.__sread  0x08005ad0       0x28 d:/progra~2/stm32c~1/gnu-to~1/bin/../lib/gcc/arm-none-eabi/9.2.1/../../../../arm-none-eabi/lib/thumb/v6-m/nofp\libg_nano.a(lib_a-stdio.o)
                0x08005ad0                __sread
 .text.__swrite
                0x08005af8       0x38 d:/progra~2/stm32c~1/gnu-to~1/bin/../lib/gcc/arm-none-eabi/9.2.1/../../../../arm-none-eabi/lib/thumb/v6-m/nofp\libg_nano.a(lib_a-stdio.o)
                0x08005af8                __swrite
 .text.__sseek  0x08005b30       0x2c d:/progra~2/stm32c~1/gnu-to~1/bin/../lib/gcc/arm-none-eabi/9.2.1/../../../../arm-none-eabi/lib/thumb/v6-m/nofp\libg_nano.a(lib_a-stdio.o)
                0x08005b30                __sseek
 .text.__sclose
                0x08005b5c        0xc d:/progra~2/stm32c~1/gnu-to~1/bin/../lib/gcc/arm-none-eabi/9.2.1/../../../../arm-none-eabi/lib/thumb/v6-m/nofp\libg_nano.a(lib_a-stdio.o)
                0x08005b5c                __sclose
 .text.__swbuf_r
                0x08005b68       0xac d:/progra~2/stm32c~1/gnu-to~1/bin/../lib/gcc/arm-none-eabi/9.2.1/../../../../arm-none-eabi/lib/thumb/v6-m/nofp\libg_nano.a(lib_a-wbuf.o)
                0x08005b68                __swbuf_r
 .text._write_r
                0x08005c14       0x28 d:/progra~2/stm32c~1/gnu-to~1/bin/../lib/gcc/arm-none-eabi/9.2.1/../../../../arm-none-eabi/lib/thumb/v6-m/nofp\libg_nano.a(lib_a-writer.o)
                0x08005c14                _write_r
 .text.__swsetup_r
                0x08005c3c       0xf0 d:/progra~2/stm32c~1/gnu-to~1/bin/../lib/gcc/arm-none-eabi/9.2.1/../../../../arm-none-eabi/lib/thumb/v6-m/nofp\libg_nano.a(lib_a-wsetup.o)
                0x08005c3c                __swsetup_r
 .text._close_r
                0x08005d2c       0x24 d:/progra~2/stm32c~1/gnu-to~1/bin/../lib/gcc/arm-none-eabi/9.2.1/../../../../arm-none-eabi/lib/thumb/v6-m/nofp\libg_nano.a(lib_a-closer.o)
                0x08005d2c                _close_r
 .text.__sflush_r
                0x08005d50      0x118 d:/progra~2/stm32c~1/gnu-to~1/bin/../lib/gcc/arm-none-eabi/9.2.1/../../../../arm-none-eabi/lib/thumb/v6-m/nofp\libg_nano.a(lib_a-fflush.o)
                0x08005d50                __sflush_r
 .text._fflush_r
                0x08005e68       0x80 d:/progra~2/stm32c~1/gnu-to~1/bin/../lib/gcc/arm-none-eabi/9.2.1/../../../../arm-none-eabi/lib/thumb/v6-m/nofp\libg_nano.a(lib_a-fflush.o)
                0x08005e68                _fflush_r
 .text._lseek_r
                0x08005ee8       0x28 d:/progra~2/stm32c~1/gnu-to~1/bin/../lib/gcc/arm-none-eabi/9.2.1/../../../../arm-none-eabi/lib/thumb/v6-m/nofp\libg_nano.a(lib_a-lseekr.o)
                0x08005ee8                _lseek_r
 .text.__swhatbuf_r
                0x08005f10       0x50 d:/progra~2/stm32c~1/gnu-to~1/bin/../lib/gcc/arm-none-eabi/9.2.1/../../../../arm-none-eabi/lib/thumb/v6-m/nofp\libg_nano.a(lib_a-makebuf.o)
                0x08005f10                __swhatbuf_r
 .text.__smakebuf_r
                0x08005f60       0x88 d:/progra~2/stm32c~1/gnu-to~1/bin/../lib/gcc/arm-none-eabi/9.2.1/../../../../arm-none-eabi/lib/thumb/v6-m/nofp\libg_nano.a(lib_a-makebuf.o)
                0x08005f60                __smakebuf_r
 .text.memchr   0x08005fe8       0x16 d:/progra~2/stm32c~1/gnu-to~1/bin/../lib/gcc/arm-none-eabi/9.2.1/../../../../arm-none-eabi/lib/thumb/v6-m/nofp\libg_nano.a(lib_a-memchr-stub.o)
                0x08005fe8                memchr
 *fill*         0x08005ffe        0x2 
 .text.__malloc_lock
                0x08006000       0x10 d:/progra~2/stm32c~1/gnu-to~1/bin/../lib/gcc/arm-none-eabi/9.2.1/../../../../arm-none-eabi/lib/thumb/v6-m/nofp\libg_nano.a(lib_a-mlock.o)
                0x08006000                __malloc_lock
 .text.__malloc_unlock
                0x08006010       0x10 d:/progra~2/stm32c~1/gnu-to~1/bin/../lib/gcc/arm-none-eabi/9.2.1/../../../../arm-none-eabi/lib/thumb/v6-m/nofp\libg_nano.a(lib_a-mlock.o)
                0x08006010                __malloc_unlock
 .text._free_r  0x08006020       0x94 d:/progra~2/stm32c~1/gnu-to~1/bin/../lib/gcc/arm-none-eabi/9.2.1/../../../../arm-none-eabi/lib/thumb/v6-m/nofp\libg_nano.a(lib_a-nano-freer.o)
                0x08006020                _free_r
 .text._read_r  0x080060b4       0x28 d:/progra~2/stm32c~1/gnu-to~1/bin/../lib/gcc/arm-none-eabi/9.2.1/../../../../arm-none-eabi/lib/thumb/v6-m/nofp\libg_nano.a(lib_a-readr.o)
                0x080060b4                _read_r
 .text._fstat_r
                0x080060dc       0x24 d:/progra~2/stm32c~1/gnu-to~1/bin/../lib/gcc/arm-none-eabi/9.2.1/../../../../arm-none-eabi/lib/thumb/v6-m/nofp\libg_nano.a(lib_a-fstatr.o)
                0x080060dc                _fstat_r
 .text._isatty_r
                0x08006100       0x24 d:/progra~2/stm32c~1/gnu-to~1/bin/../lib/gcc/arm-none-eabi/9.2.1/../../../../arm-none-eabi/lib/thumb/v6-m/nofp\libg_nano.a(lib_a-isattyr.o)
                0x08006100                _isatty_r
 *(.glue_7)
 .glue_7        0x08006124        0x0 linker stubs
 *(.glue_7t)
 .glue_7t       0x08006124        0x0 linker stubs
 *(.eh_frame)
 .eh_frame      0x08006124        0x0 d:/progra~2/stm32c~1/gnu-to~1/bin/../lib/gcc/arm-none-eabi/9.2.1/thumb/v6-m/nofp/crtbegin.o
 *(.init)
 .init          0x08006124        0x4 d:/progra~2/stm32c~1/gnu-to~1/bin/../lib/gcc/arm-none-eabi/9.2.1/thumb/v6-m/nofp/crti.o
                0x08006124                _init
 .init          0x08006128        0x8 d:/progra~2/stm32c~1/gnu-to~1/bin/../lib/gcc/arm-none-eabi/9.2.1/thumb/v6-m/nofp/crtn.o
 *(.fini)
 .fini          0x08006130        0x4 d:/progra~2/stm32c~1/gnu-to~1/bin/../lib/gcc/arm-none-eabi/9.2.1/thumb/v6-m/nofp/crti.o
                0x08006130                _fini
 .fini          0x08006134        0x8 d:/progra~2/stm32c~1/gnu-to~1/bin/../lib/gcc/arm-none-eabi/9.2.1/thumb/v6-m/nofp/crtn.o
                0x0800613c                . = ALIGN (0x4)
                0x0800613c                _etext = .

.vfp11_veneer   0x0800613c        0x0
 .vfp11_veneer  0x0800613c        0x0 linker stubs

.v4_bx          0x0800613c        0x0
 .v4_bx         0x0800613c        0x0 linker stubs

.iplt           0x0800613c        0x0
 .iplt          0x0800613c        0x0 d:/progra~2/stm32c~1/gnu-to~1/bin/../lib/gcc/arm-none-eabi/9.2.1/thumb/v6-m/nofp/crtbegin.o

.rodata         0x0800613c      0x140
                0x0800613c                . = ALIGN (0x4)
 *(.rodata)
 .rodata        0x0800613c       0x19 CMakeFiles/L-ink_Card.elf.dir/Drivers/BSP/ST25DV/app_nfc.c.obj
 *(.rodata*)
 *fill*         0x08006155        0x3 
 .rodata.LUTDefault_full
                0x08006158       0x1f CMakeFiles/L-ink_Card.elf.dir/Drivers/BSP/E-Paper-Display/epd_w21.c.obj
                0x08006158                LUTDefault_full
 *fill*         0x08006177        0x1 
 .rodata.UART_SetConfig
                0x08006178       0x48 CMakeFiles/L-ink_Card.elf.dir/Drivers/STM32L0xx_HAL_Driver/Src/stm32l0xx_hal_uart.c.obj
 .rodata.AHBPrescTable
                0x080061c0       0x10 CMakeFiles/L-ink_Card.elf.dir/Src/system_stm32l0xx.c.obj
                0x080061c0                AHBPrescTable
 .rodata.APBPrescTable
                0x080061d0        0x8 CMakeFiles/L-ink_Card.elf.dir/Src/system_stm32l0xx.c.obj
                0x080061d0                APBPrescTable
 .rodata.PLLMulTable
                0x080061d8        0x9 CMakeFiles/L-ink_Card.elf.dir/Src/system_stm32l0xx.c.obj
                0x080061d8                PLLMulTable
 *fill*         0x080061e1        0x3 
 .rodata._global_impure_ptr
                0x080061e4        0x4 d:/progra~2/stm32c~1/gnu-to~1/bin/../lib/gcc/arm-none-eabi/9.2.1/../../../../arm-none-eabi/lib/thumb/v6-m/nofp\libg_nano.a(lib_a-impure.o)
                0x080061e4                _global_impure_ptr
 .rodata.__sf_fake_stderr
                0x080061e8       0x20 d:/progra~2/stm32c~1/gnu-to~1/bin/../lib/gcc/arm-none-eabi/9.2.1/../../../../arm-none-eabi/lib/thumb/v6-m/nofp\libg_nano.a(lib_a-findfp.o)
                0x080061e8                __sf_fake_stderr
 .rodata.__sf_fake_stdin
                0x08006208       0x20 d:/progra~2/stm32c~1/gnu-to~1/bin/../lib/gcc/arm-none-eabi/9.2.1/../../../../arm-none-eabi/lib/thumb/v6-m/nofp\libg_nano.a(lib_a-findfp.o)
                0x08006208                __sf_fake_stdin
 .rodata.__sf_fake_stdout
                0x08006228       0x20 d:/progra~2/stm32c~1/gnu-to~1/bin/../lib/gcc/arm-none-eabi/9.2.1/../../../../arm-none-eabi/lib/thumb/v6-m/nofp\libg_nano.a(lib_a-findfp.o)
                0x08006228                __sf_fake_stdout
 .rodata._vfprintf_r.str1.1
                0x08006248       0x11 d:/progra~2/stm32c~1/gnu-to~1/bin/../lib/gcc/arm-none-eabi/9.2.1/../../../../arm-none-eabi/lib/thumb/v6-m/nofp\libg_nano.a(lib_a-nano-vfprintf.o)
 .rodata._printf_i.str1.1
                0x08006259       0x22 d:/progra~2/stm32c~1/gnu-to~1/bin/../lib/gcc/arm-none-eabi/9.2.1/../../../../arm-none-eabi/lib/thumb/v6-m/nofp\libg_nano.a(lib_a-nano-vfprintf_i.o)
                0x0800627c                . = ALIGN (0x4)
 *fill*         0x0800627b        0x1 

.ARM.extab
 *(.ARM.extab* .gnu.linkonce.armextab.*)

.ARM            0x0800627c        0x8
                0x0800627c                __exidx_start = .
 *(.ARM.exidx*)
 .ARM.exidx     0x0800627c        0x8 d:/progra~2/stm32c~1/gnu-to~1/bin/../lib/gcc/arm-none-eabi/9.2.1/thumb/v6-m/nofp\libgcc.a(_udivmoddi4.o)
                0x08006284                __exidx_end = .

.rel.dyn        0x08006284        0x0
 .rel.iplt      0x08006284        0x0 d:/progra~2/stm32c~1/gnu-to~1/bin/../lib/gcc/arm-none-eabi/9.2.1/thumb/v6-m/nofp/crtbegin.o

.preinit_array  0x08006284        0x0
                0x08006284                PROVIDE (__preinit_array_start = .)
 *(.preinit_array*)
                0x08006284                PROVIDE (__preinit_array_end = .)

.init_array     0x08006284        0x4
                0x08006284                PROVIDE (__init_array_start = .)
 *(SORT_BY_NAME(.init_array.*))
 *(.init_array*)
 .init_array    0x08006284        0x4 d:/progra~2/stm32c~1/gnu-to~1/bin/../lib/gcc/arm-none-eabi/9.2.1/thumb/v6-m/nofp/crtbegin.o
                0x08006288                PROVIDE (__init_array_end = .)

.fini_array     0x08006288        0x4
                [!provide]                PROVIDE (__fini_array_start = .)
 *(SORT_BY_NAME(.fini_array.*))
 *(.fini_array*)
 .fini_array    0x08006288        0x4 d:/progra~2/stm32c~1/gnu-to~1/bin/../lib/gcc/arm-none-eabi/9.2.1/thumb/v6-m/nofp/crtbegin.o
                [!provide]                PROVIDE (__fini_array_end = .)
                0x0800628c                _sidata = LOADADDR (.data)

.data           0x20000000     0x1428 load address 0x0800628c
                0x20000000                . = ALIGN (0x4)
                0x20000000                _sdata = .
 *(.data)
 *(.data*)
 .data.St25Dv_Drv
                0x20000000       0x1c CMakeFiles/L-ink_Card.elf.dir/Drivers/BSP/Components/ST25DV/st25dv.c.obj
                0x20000000                St25Dv_Drv
 .data.GDOControl
                0x2000001c        0x4 CMakeFiles/L-ink_Card.elf.dir/Drivers/BSP/E-Paper-Display/epd_w21.c.obj
                0x2000001c                GDOControl
 .data.softStart
                0x20000020        0x4 CMakeFiles/L-ink_Card.elf.dir/Drivers/BSP/E-Paper-Display/epd_w21.c.obj
                0x20000020                softStart
 .data.dummyLine
                0x20000024        0x2 CMakeFiles/L-ink_Card.elf.dir/Drivers/BSP/E-Paper-Display/epd_w21.c.obj
                0x20000024                dummyLine
 *fill*         0x20000026        0x2 
 .data.gateTime
                0x20000028        0x2 CMakeFiles/L-ink_Card.elf.dir/Drivers/BSP/E-Paper-Display/epd_w21.c.obj
                0x20000028                gateTime
 *fill*         0x2000002a        0x2 
 .data.ramDataEntryMode
                0x2000002c        0x2 CMakeFiles/L-ink_Card.elf.dir/Drivers/BSP/E-Paper-Display/epd_w21.c.obj
                0x2000002c                ramDataEntryMode
 *fill*         0x2000002e        0x2 
 .data.GPO_EXTI
                0x20000030        0x8 CMakeFiles/L-ink_Card.elf.dir/Drivers/BSP/NFC04A1/nfc04a1.c.obj
                0x20000030                GPO_EXTI
 .data.nfcBuffer
                0x20000038     0x1388 CMakeFiles/L-ink_Card.elf.dir/Src/main.c.obj
                0x20000038                nfcBuffer
 .data.SystemCoreClock
                0x200013c0        0x4 CMakeFiles/L-ink_Card.elf.dir/Src/system_stm32l0xx.c.obj
                0x200013c0                SystemCoreClock
 .data._impure_ptr
                0x200013c4        0x4 d:/progra~2/stm32c~1/gnu-to~1/bin/../lib/gcc/arm-none-eabi/9.2.1/../../../../arm-none-eabi/lib/thumb/v6-m/nofp\libg_nano.a(lib_a-impure.o)
                0x200013c4                _impure_ptr
 .data.impure_data
                0x200013c8       0x60 d:/progra~2/stm32c~1/gnu-to~1/bin/../lib/gcc/arm-none-eabi/9.2.1/../../../../arm-none-eabi/lib/thumb/v6-m/nofp\libg_nano.a(lib_a-impure.o)
                0x20001428                . = ALIGN (0x4)
                0x20001428                _edata = .

.igot.plt       0x20001428        0x0 load address 0x080076b4
 .igot.plt      0x20001428        0x0 d:/progra~2/stm32c~1/gnu-to~1/bin/../lib/gcc/arm-none-eabi/9.2.1/thumb/v6-m/nofp/crtbegin.o
                0x20001428                . = ALIGN (0x4)

.bss            0x20001428      0x154 load address 0x080076b4
                0x20001428                _sbss = .
                0x20001428                __bss_start__ = _sbss
 *(.bss)
 .bss           0x20001428       0x1c d:/progra~2/stm32c~1/gnu-to~1/bin/../lib/gcc/arm-none-eabi/9.2.1/thumb/v6-m/nofp/crtbegin.o
 *(.bss*)
 .bss.Nfctag_Drv
                0x20001444        0x4 CMakeFiles/L-ink_Card.elf.dir/Drivers/BSP/NFC04A1/nfc04a1_nfctag.c.obj
 .bss.NfcTagObj
                0x20001448       0x28 CMakeFiles/L-ink_Card.elf.dir/Drivers/BSP/NFC04A1/nfc04a1_nfctag.c.obj
 .bss.mblength  0x20001470        0x2 CMakeFiles/L-ink_Card.elf.dir/Drivers/BSP/ST25DV/app_nfc.c.obj
                0x20001470                mblength
 *fill*         0x20001472        0x2 
 .bss.mbctrldynstatus
                0x20001474        0x6 CMakeFiles/L-ink_Card.elf.dir/Drivers/BSP/ST25DV/app_nfc.c.obj
                0x20001474                mbctrldynstatus
 .bss.MB_mode   0x2000147a        0x1 CMakeFiles/L-ink_Card.elf.dir/Drivers/BSP/ST25DV/app_nfc.c.obj
                0x2000147a                MB_mode
 *fill*         0x2000147b        0x1 
 .bss.passwd    0x2000147c        0x8 CMakeFiles/L-ink_Card.elf.dir/Drivers/BSP/ST25DV/app_nfc.c.obj
                0x2000147c                passwd
 .bss.i2csso    0x20001484        0x1 CMakeFiles/L-ink_Card.elf.dir/Drivers/BSP/ST25DV/app_nfc.c.obj
                0x20001484                i2csso
 .bss.GPOActivated
                0x20001485        0x1 CMakeFiles/L-ink_Card.elf.dir/Drivers/BSP/ST25DV/app_nfc.c.obj
                0x20001485                GPOActivated
 *fill*         0x20001486        0x2 
 .bss.bufferIndex
                0x20001488        0x4 CMakeFiles/L-ink_Card.elf.dir/Drivers/BSP/ST25DV/app_nfc.c.obj
                0x20001488                bufferIndex
 .bss.uwTick    0x2000148c        0x4 CMakeFiles/L-ink_Card.elf.dir/Drivers/STM32L0xx_HAL_Driver/Src/stm32l0xx_hal.c.obj
                0x2000148c                uwTick
 .bss.hi2c1     0x20001490       0x4c CMakeFiles/L-ink_Card.elf.dir/Src/custom_bus.c.obj
                0x20001490                hi2c1
 .bss.I2C1InitCounter
                0x200014dc        0x4 CMakeFiles/L-ink_Card.elf.dir/Src/custom_bus.c.obj
 .bss.heap_end.6018
                0x200014e0        0x4 CMakeFiles/L-ink_Card.elf.dir/Src/syscalls.c.obj
 .bss.huart1    0x200014e4       0x80 CMakeFiles/L-ink_Card.elf.dir/Src/usart.c.obj
                0x200014e4                huart1
 .bss.__malloc_free_list
                0x20001564        0x4 d:/progra~2/stm32c~1/gnu-to~1/bin/../lib/gcc/arm-none-eabi/9.2.1/../../../../arm-none-eabi/lib/thumb/v6-m/nofp\libg_nano.a(lib_a-nano-mallocr.o)
                0x20001564                __malloc_free_list
 .bss.__malloc_sbrk_start
                0x20001568        0x4 d:/progra~2/stm32c~1/gnu-to~1/bin/../lib/gcc/arm-none-eabi/9.2.1/../../../../arm-none-eabi/lib/thumb/v6-m/nofp\libg_nano.a(lib_a-nano-mallocr.o)
                0x20001568                __malloc_sbrk_start
 *(COMMON)
 COMMON         0x2000156c        0x9 d:/progra~2/stm32c~1/gnu-to~1/bin/../lib/gcc/arm-none-eabi/9.2.1/../../../../arm-none-eabi/lib/thumb/v6-m/nofp\libg_nano.a(lib_a-lock.o)
                0x2000156c                __lock___atexit_recursive_mutex
                0x2000156d                __lock___arc4random_mutex
                0x2000156e                __lock___env_recursive_mutex
                0x2000156f                __lock___sinit_recursive_mutex
                0x20001570                __lock___malloc_recursive_mutex
                0x20001571                __lock___at_quick_exit_mutex
                0x20001572                __lock___dd_hash_mutex
                0x20001573                __lock___tz_mutex
                0x20001574                __lock___sfp_recursive_mutex
 *fill*         0x20001575        0x3 
 COMMON         0x20001578        0x4 d:/progra~2/stm32c~1/gnu-to~1/bin/../lib/gcc/arm-none-eabi/9.2.1/../../../../arm-none-eabi/lib/thumb/v6-m/nofp\libg_nano.a(lib_a-reent.o)
                0x20001578                errno
                0x2000157c                . = ALIGN (0x4)
                0x2000157c                _ebss = .
                0x2000157c                __bss_end__ = _ebss

._user_heap_stack
                0x2000157c      0x604 load address 0x080076b4
                0x20001580                . = ALIGN (0x8)
 *fill*         0x2000157c        0x4 
                0x20001580                PROVIDE (end = .)
                [!provide]                PROVIDE (_end = .)
                0x20001780                . = (. + _Min_Heap_Size)
 *fill*         0x20001580      0x200 
                0x20001b80                . = (. + _Min_Stack_Size)
 *fill*         0x20001780      0x400 
                0x20001b80                . = ALIGN (0x8)

/DISCARD/
 libc.a(*)
 libm.a(*)
 libgcc.a(*)

.ARM.attributes
                0x00000000       0x28
 *(.ARM.attributes)
 .ARM.attributes
                0x00000000       0x1e d:/progra~2/stm32c~1/gnu-to~1/bin/../lib/gcc/arm-none-eabi/9.2.1/thumb/v6-m/nofp/crti.o
 .ARM.attributes
                0x0000001e       0x2c d:/progra~2/stm32c~1/gnu-to~1/bin/../lib/gcc/arm-none-eabi/9.2.1/thumb/v6-m/nofp/crtbegin.o
 .ARM.attributes
                0x0000004a       0x2c CMakeFiles/L-ink_Card.elf.dir/Drivers/BSP/Components/ST25DV/st25dv.c.obj
 .ARM.attributes
                0x00000076       0x2c CMakeFiles/L-ink_Card.elf.dir/Drivers/BSP/Components/ST25DV/st25dv_reg.c.obj
 .ARM.attributes
                0x000000a2       0x2c CMakeFiles/L-ink_Card.elf.dir/Drivers/BSP/E-Paper-Display/epd_w21.c.obj
 .ARM.attributes
                0x000000ce       0x2c CMakeFiles/L-ink_Card.elf.dir/Drivers/BSP/NFC04A1/nfc04a1.c.obj
 .ARM.attributes
                0x000000fa       0x2c CMakeFiles/L-ink_Card.elf.dir/Drivers/BSP/NFC04A1/nfc04a1_nfctag.c.obj
 .ARM.attributes
                0x00000126       0x2c CMakeFiles/L-ink_Card.elf.dir/Drivers/BSP/ST25DV/app_nfc.c.obj
 .ARM.attributes
                0x00000152       0x2c CMakeFiles/L-ink_Card.elf.dir/Drivers/STM32L0xx_HAL_Driver/Src/stm32l0xx_hal.c.obj
 .ARM.attributes
                0x0000017e       0x2c CMakeFiles/L-ink_Card.elf.dir/Drivers/STM32L0xx_HAL_Driver/Src/stm32l0xx_hal_cortex.c.obj
 .ARM.attributes
                0x000001aa       0x2c CMakeFiles/L-ink_Card.elf.dir/Drivers/STM32L0xx_HAL_Driver/Src/stm32l0xx_hal_gpio.c.obj
 .ARM.attributes
                0x000001d6       0x2c CMakeFiles/L-ink_Card.elf.dir/Drivers/STM32L0xx_HAL_Driver/Src/stm32l0xx_hal_i2c.c.obj
 .ARM.attributes
                0x00000202       0x2c CMakeFiles/L-ink_Card.elf.dir/Drivers/STM32L0xx_HAL_Driver/Src/stm32l0xx_hal_i2c_ex.c.obj
 .ARM.attributes
                0x0000022e       0x2c CMakeFiles/L-ink_Card.elf.dir/Drivers/STM32L0xx_HAL_Driver/Src/stm32l0xx_hal_rcc.c.obj
 .ARM.attributes
                0x0000025a       0x2c CMakeFiles/L-ink_Card.elf.dir/Drivers/STM32L0xx_HAL_Driver/Src/stm32l0xx_hal_rcc_ex.c.obj
 .ARM.attributes
                0x00000286       0x2c CMakeFiles/L-ink_Card.elf.dir/Drivers/STM32L0xx_HAL_Driver/Src/stm32l0xx_hal_uart.c.obj
 .ARM.attributes
                0x000002b2       0x2c CMakeFiles/L-ink_Card.elf.dir/Src/custom_bus.c.obj
 .ARM.attributes
                0x000002de       0x2c CMakeFiles/L-ink_Card.elf.dir/Src/gpio.c.obj
 .ARM.attributes
                0x0000030a       0x2c CMakeFiles/L-ink_Card.elf.dir/Src/main.c.obj
 .ARM.attributes
                0x00000336       0x2c CMakeFiles/L-ink_Card.elf.dir/Src/stm32l0xx_hal_exti.c.obj
 .ARM.attributes
                0x00000362       0x2c CMakeFiles/L-ink_Card.elf.dir/Src/stm32l0xx_hal_msp.c.obj
 .ARM.attributes
                0x0000038e       0x2c CMakeFiles/L-ink_Card.elf.dir/Src/stm32l0xx_it.c.obj
 .ARM.attributes
                0x000003ba       0x2c CMakeFiles/L-ink_Card.elf.dir/Src/syscalls.c.obj
 .ARM.attributes
                0x000003e6       0x2c CMakeFiles/L-ink_Card.elf.dir/Src/system_stm32l0xx.c.obj
 .ARM.attributes
                0x00000412       0x2c CMakeFiles/L-ink_Card.elf.dir/Src/usart.c.obj
 .ARM.attributes
                0x0000043e       0x22 CMakeFiles/L-ink_Card.elf.dir/startup/startup_stm32l051xx.s.obj
 .ARM.attributes
                0x00000460       0x1e d:/progra~2/stm32c~1/gnu-to~1/bin/../lib/gcc/arm-none-eabi/9.2.1/thumb/v6-m/nofp\libgcc.a(_udivsi3.o)
 .ARM.attributes
                0x0000047e       0x1e d:/progra~2/stm32c~1/gnu-to~1/bin/../lib/gcc/arm-none-eabi/9.2.1/thumb/v6-m/nofp\libgcc.a(_dvmd_tls.o)
 .ARM.attributes
                0x0000049c       0x1e d:/progra~2/stm32c~1/gnu-to~1/bin/../lib/gcc/arm-none-eabi/9.2.1/thumb/v6-m/nofp\libgcc.a(_aeabi_uldivmod.o)
 .ARM.attributes
                0x000004ba       0x2c d:/progra~2/stm32c~1/gnu-to~1/bin/../lib/gcc/arm-none-eabi/9.2.1/thumb/v6-m/nofp\libgcc.a(_udivmoddi4.o)
 .ARM.attributes
                0x000004e6       0x1e d:/progra~2/stm32c~1/gnu-to~1/bin/../lib/gcc/arm-none-eabi/9.2.1/thumb/v6-m/nofp\libgcc.a(_clzdi2.o)
 .ARM.attributes
                0x00000504       0x1e d:/progra~2/stm32c~1/gnu-to~1/bin/../lib/gcc/arm-none-eabi/9.2.1/thumb/v6-m/nofp\libgcc.a(_clzsi2.o)
 .ARM.attributes
                0x00000522       0x2c d:/progra~2/stm32c~1/gnu-to~1/bin/../lib/gcc/arm-none-eabi/9.2.1/../../../../arm-none-eabi/lib/thumb/v6-m/nofp\libg_nano.a(lib_a-errno.o)
 .ARM.attributes
                0x0000054e       0x2c d:/progra~2/stm32c~1/gnu-to~1/bin/../lib/gcc/arm-none-eabi/9.2.1/../../../../arm-none-eabi/lib/thumb/v6-m/nofp\libg_nano.a(lib_a-impure.o)
 .ARM.attributes
                0x0000057a       0x2c d:/progra~2/stm32c~1/gnu-to~1/bin/../lib/gcc/arm-none-eabi/9.2.1/../../../../arm-none-eabi/lib/thumb/v6-m/nofp\libg_nano.a(lib_a-init.o)
 .ARM.attributes
                0x000005a6       0x2c d:/progra~2/stm32c~1/gnu-to~1/bin/../lib/gcc/arm-none-eabi/9.2.1/../../../../arm-none-eabi/lib/thumb/v6-m/nofp\libg_nano.a(lib_a-memset.o)
 .ARM.attributes
                0x000005d2       0x2c d:/progra~2/stm32c~1/gnu-to~1/bin/../lib/gcc/arm-none-eabi/9.2.1/../../../../arm-none-eabi/lib/thumb/v6-m/nofp\libg_nano.a(lib_a-printf.o)
 .ARM.attributes
                0x000005fe       0x2c d:/progra~2/stm32c~1/gnu-to~1/bin/../lib/gcc/arm-none-eabi/9.2.1/../../../../arm-none-eabi/lib/thumb/v6-m/nofp\libg_nano.a(lib_a-findfp.o)
 .ARM.attributes
                0x0000062a       0x2c d:/progra~2/stm32c~1/gnu-to~1/bin/../lib/gcc/arm-none-eabi/9.2.1/../../../../arm-none-eabi/lib/thumb/v6-m/nofp\libg_nano.a(lib_a-fwalk.o)
 .ARM.attributes
                0x00000656       0x2c d:/progra~2/stm32c~1/gnu-to~1/bin/../lib/gcc/arm-none-eabi/9.2.1/../../../../arm-none-eabi/lib/thumb/v6-m/nofp\libg_nano.a(lib_a-lock.o)
 .ARM.attributes
                0x00000682       0x2c d:/progra~2/stm32c~1/gnu-to~1/bin/../lib/gcc/arm-none-eabi/9.2.1/../../../../arm-none-eabi/lib/thumb/v6-m/nofp\libg_nano.a(lib_a-nano-mallocr.o)
 .ARM.attributes
                0x000006ae       0x2c d:/progra~2/stm32c~1/gnu-to~1/bin/../lib/gcc/arm-none-eabi/9.2.1/../../../../arm-none-eabi/lib/thumb/v6-m/nofp\libg_nano.a(lib_a-nano-vfprintf.o)
 .ARM.attributes
                0x000006da       0x2c d:/progra~2/stm32c~1/gnu-to~1/bin/../lib/gcc/arm-none-eabi/9.2.1/../../../../arm-none-eabi/lib/thumb/v6-m/nofp\libg_nano.a(lib_a-nano-vfprintf_i.o)
 .ARM.attributes
                0x00000706       0x2c d:/progra~2/stm32c~1/gnu-to~1/bin/../lib/gcc/arm-none-eabi/9.2.1/../../../../arm-none-eabi/lib/thumb/v6-m/nofp\libg_nano.a(lib_a-sbrkr.o)
 .ARM.attributes
                0x00000732       0x2c d:/progra~2/stm32c~1/gnu-to~1/bin/../lib/gcc/arm-none-eabi/9.2.1/../../../../arm-none-eabi/lib/thumb/v6-m/nofp\libg_nano.a(lib_a-stdio.o)
 .ARM.attributes
                0x0000075e       0x2c d:/progra~2/stm32c~1/gnu-to~1/bin/../lib/gcc/arm-none-eabi/9.2.1/../../../../arm-none-eabi/lib/thumb/v6-m/nofp\libg_nano.a(lib_a-wbuf.o)
 .ARM.attributes
                0x0000078a       0x2c d:/progra~2/stm32c~1/gnu-to~1/bin/../lib/gcc/arm-none-eabi/9.2.1/../../../../arm-none-eabi/lib/thumb/v6-m/nofp\libg_nano.a(lib_a-writer.o)
 .ARM.attributes
                0x000007b6       0x2c d:/progra~2/stm32c~1/gnu-to~1/bin/../lib/gcc/arm-none-eabi/9.2.1/../../../../arm-none-eabi/lib/thumb/v6-m/nofp\libg_nano.a(lib_a-wsetup.o)
 .ARM.attributes
                0x000007e2       0x2c d:/progra~2/stm32c~1/gnu-to~1/bin/../lib/gcc/arm-none-eabi/9.2.1/../../../../arm-none-eabi/lib/thumb/v6-m/nofp\libg_nano.a(lib_a-closer.o)
 .ARM.attributes
                0x0000080e       0x2c d:/progra~2/stm32c~1/gnu-to~1/bin/../lib/gcc/arm-none-eabi/9.2.1/../../../../arm-none-eabi/lib/thumb/v6-m/nofp\libg_nano.a(lib_a-fflush.o)
 .ARM.attributes
                0x0000083a       0x2c d:/progra~2/stm32c~1/gnu-to~1/bin/../lib/gcc/arm-none-eabi/9.2.1/../../../../arm-none-eabi/lib/thumb/v6-m/nofp\libg_nano.a(lib_a-lseekr.o)
 .ARM.attributes
                0x00000866       0x2c d:/progra~2/stm32c~1/gnu-to~1/bin/../lib/gcc/arm-none-eabi/9.2.1/../../../../arm-none-eabi/lib/thumb/v6-m/nofp\libg_nano.a(lib_a-makebuf.o)
 .ARM.attributes
                0x00000892       0x2c d:/progra~2/stm32c~1/gnu-to~1/bin/../lib/gcc/arm-none-eabi/9.2.1/../../../../arm-none-eabi/lib/thumb/v6-m/nofp\libg_nano.a(lib_a-memchr-stub.o)
 .ARM.attributes
                0x000008be       0x2c d:/progra~2/stm32c~1/gnu-to~1/bin/../lib/gcc/arm-none-eabi/9.2.1/../../../../arm-none-eabi/lib/thumb/v6-m/nofp\libg_nano.a(lib_a-mlock.o)
 .ARM.attributes
                0x000008ea       0x2c d:/progra~2/stm32c~1/gnu-to~1/bin/../lib/gcc/arm-none-eabi/9.2.1/../../../../arm-none-eabi/lib/thumb/v6-m/nofp\libg_nano.a(lib_a-nano-freer.o)
 .ARM.attributes
                0x00000916       0x2c d:/progra~2/stm32c~1/gnu-to~1/bin/../lib/gcc/arm-none-eabi/9.2.1/../../../../arm-none-eabi/lib/thumb/v6-m/nofp\libg_nano.a(lib_a-readr.o)
 .ARM.attributes
                0x00000942       0x2c d:/progra~2/stm32c~1/gnu-to~1/bin/../lib/gcc/arm-none-eabi/9.2.1/../../../../arm-none-eabi/lib/thumb/v6-m/nofp\libg_nano.a(lib_a-reent.o)
 .ARM.attributes
                0x0000096e       0x2c d:/progra~2/stm32c~1/gnu-to~1/bin/../lib/gcc/arm-none-eabi/9.2.1/../../../../arm-none-eabi/lib/thumb/v6-m/nofp\libg_nano.a(lib_a-fstatr.o)
 .ARM.attributes
                0x0000099a       0x2c d:/progra~2/stm32c~1/gnu-to~1/bin/../lib/gcc/arm-none-eabi/9.2.1/../../../../arm-none-eabi/lib/thumb/v6-m/nofp\libg_nano.a(lib_a-isattyr.o)
 .ARM.attributes
                0x000009c6       0x1e d:/progra~2/stm32c~1/gnu-to~1/bin/../lib/gcc/arm-none-eabi/9.2.1/thumb/v6-m/nofp\libgcc.a(_thumb1_case_shi.o)
 .ARM.attributes
                0x000009e4       0x1e d:/progra~2/stm32c~1/gnu-to~1/bin/../lib/gcc/arm-none-eabi/9.2.1/thumb/v6-m/nofp/crtn.o
OUTPUT(L-ink_Card.elf elf32-littlearm)

.debug_info     0x00000000    0x160bf
 .debug_info    0x00000000     0x248e CMakeFiles/L-ink_Card.elf.dir/Drivers/BSP/Components/ST25DV/st25dv.c.obj
 .debug_info    0x0000248e     0x2604 CMakeFiles/L-ink_Card.elf.dir/Drivers/BSP/Components/ST25DV/st25dv_reg.c.obj
 .debug_info    0x00004a92      0x7c4 CMakeFiles/L-ink_Card.elf.dir/Drivers/BSP/E-Paper-Display/epd_w21.c.obj
 .debug_info    0x00005256      0xdb8 CMakeFiles/L-ink_Card.elf.dir/Drivers/BSP/NFC04A1/nfc04a1.c.obj
 .debug_info    0x0000600e     0x2424 CMakeFiles/L-ink_Card.elf.dir/Drivers/BSP/NFC04A1/nfc04a1_nfctag.c.obj
 .debug_info    0x00008432     0x1618 CMakeFiles/L-ink_Card.elf.dir/Drivers/BSP/ST25DV/app_nfc.c.obj
 .debug_info    0x00009a4a      0x7ea CMakeFiles/L-ink_Card.elf.dir/Drivers/STM32L0xx_HAL_Driver/Src/stm32l0xx_hal.c.obj
 .debug_info    0x0000a234      0x926 CMakeFiles/L-ink_Card.elf.dir/Drivers/STM32L0xx_HAL_Driver/Src/stm32l0xx_hal_cortex.c.obj
 .debug_info    0x0000ab5a      0x720 CMakeFiles/L-ink_Card.elf.dir/Drivers/STM32L0xx_HAL_Driver/Src/stm32l0xx_hal_gpio.c.obj
 .debug_info    0x0000b27a     0x20b3 CMakeFiles/L-ink_Card.elf.dir/Drivers/STM32L0xx_HAL_Driver/Src/stm32l0xx_hal_i2c.c.obj
 .debug_info    0x0000d32d      0x969 CMakeFiles/L-ink_Card.elf.dir/Drivers/STM32L0xx_HAL_Driver/Src/stm32l0xx_hal_i2c_ex.c.obj
 .debug_info    0x0000dc96      0x942 CMakeFiles/L-ink_Card.elf.dir/Drivers/STM32L0xx_HAL_Driver/Src/stm32l0xx_hal_rcc.c.obj
 .debug_info    0x0000e5d8      0x526 CMakeFiles/L-ink_Card.elf.dir/Drivers/STM32L0xx_HAL_Driver/Src/stm32l0xx_hal_rcc_ex.c.obj
 .debug_info    0x0000eafe     0x165a CMakeFiles/L-ink_Card.elf.dir/Drivers/STM32L0xx_HAL_Driver/Src/stm32l0xx_hal_uart.c.obj
 .debug_info    0x00010158      0xcd4 CMakeFiles/L-ink_Card.elf.dir/Src/custom_bus.c.obj
 .debug_info    0x00010e2c      0xa6b CMakeFiles/L-ink_Card.elf.dir/Src/gpio.c.obj
 .debug_info    0x00011897     0x153b CMakeFiles/L-ink_Card.elf.dir/Src/main.c.obj
 .debug_info    0x00012dd2      0x2e6 CMakeFiles/L-ink_Card.elf.dir/Src/stm32l0xx_hal_exti.c.obj
 .debug_info    0x000130b8      0x820 CMakeFiles/L-ink_Card.elf.dir/Src/stm32l0xx_hal_msp.c.obj
 .debug_info    0x000138d8      0x73d CMakeFiles/L-ink_Card.elf.dir/Src/stm32l0xx_it.c.obj
 .debug_info    0x00014015     0x100f CMakeFiles/L-ink_Card.elf.dir/Src/syscalls.c.obj
 .debug_info    0x00015024      0x3bb CMakeFiles/L-ink_Card.elf.dir/Src/system_stm32l0xx.c.obj
 .debug_info    0x000153df      0xcbe CMakeFiles/L-ink_Card.elf.dir/Src/usart.c.obj
 .debug_info    0x0001609d       0x22 CMakeFiles/L-ink_Card.elf.dir/startup/startup_stm32l051xx.s.obj

.debug_abbrev   0x00000000     0x2d93
 .debug_abbrev  0x00000000      0x204 CMakeFiles/L-ink_Card.elf.dir/Drivers/BSP/Components/ST25DV/st25dv.c.obj
 .debug_abbrev  0x00000204      0x14f CMakeFiles/L-ink_Card.elf.dir/Drivers/BSP/Components/ST25DV/st25dv_reg.c.obj
 .debug_abbrev  0x00000353      0x238 CMakeFiles/L-ink_Card.elf.dir/Drivers/BSP/E-Paper-Display/epd_w21.c.obj
 .debug_abbrev  0x0000058b      0x20b CMakeFiles/L-ink_Card.elf.dir/Drivers/BSP/NFC04A1/nfc04a1.c.obj
 .debug_abbrev  0x00000796      0x23f CMakeFiles/L-ink_Card.elf.dir/Drivers/BSP/NFC04A1/nfc04a1_nfctag.c.obj
 .debug_abbrev  0x000009d5      0x211 CMakeFiles/L-ink_Card.elf.dir/Drivers/BSP/ST25DV/app_nfc.c.obj
 .debug_abbrev  0x00000be6      0x246 CMakeFiles/L-ink_Card.elf.dir/Drivers/STM32L0xx_HAL_Driver/Src/stm32l0xx_hal.c.obj
 .debug_abbrev  0x00000e2c      0x294 CMakeFiles/L-ink_Card.elf.dir/Drivers/STM32L0xx_HAL_Driver/Src/stm32l0xx_hal_cortex.c.obj
 .debug_abbrev  0x000010c0      0x1e5 CMakeFiles/L-ink_Card.elf.dir/Drivers/STM32L0xx_HAL_Driver/Src/stm32l0xx_hal_gpio.c.obj
 .debug_abbrev  0x000012a5      0x264 CMakeFiles/L-ink_Card.elf.dir/Drivers/STM32L0xx_HAL_Driver/Src/stm32l0xx_hal_i2c.c.obj
 .debug_abbrev  0x00001509      0x1d1 CMakeFiles/L-ink_Card.elf.dir/Drivers/STM32L0xx_HAL_Driver/Src/stm32l0xx_hal_i2c_ex.c.obj
 .debug_abbrev  0x000016da      0x243 CMakeFiles/L-ink_Card.elf.dir/Drivers/STM32L0xx_HAL_Driver/Src/stm32l0xx_hal_rcc.c.obj
 .debug_abbrev  0x0000191d      0x1f5 CMakeFiles/L-ink_Card.elf.dir/Drivers/STM32L0xx_HAL_Driver/Src/stm32l0xx_hal_rcc_ex.c.obj
 .debug_abbrev  0x00001b12      0x23d CMakeFiles/L-ink_Card.elf.dir/Drivers/STM32L0xx_HAL_Driver/Src/stm32l0xx_hal_uart.c.obj
 .debug_abbrev  0x00001d4f      0x276 CMakeFiles/L-ink_Card.elf.dir/Src/custom_bus.c.obj
 .debug_abbrev  0x00001fc5      0x197 CMakeFiles/L-ink_Card.elf.dir/Src/gpio.c.obj
 .debug_abbrev  0x0000215c      0x257 CMakeFiles/L-ink_Card.elf.dir/Src/main.c.obj
 .debug_abbrev  0x000023b3      0x154 CMakeFiles/L-ink_Card.elf.dir/Src/stm32l0xx_hal_exti.c.obj
 .debug_abbrev  0x00002507      0x169 CMakeFiles/L-ink_Card.elf.dir/Src/stm32l0xx_hal_msp.c.obj
 .debug_abbrev  0x00002670      0x183 CMakeFiles/L-ink_Card.elf.dir/Src/stm32l0xx_it.c.obj
 .debug_abbrev  0x000027f3      0x2a9 CMakeFiles/L-ink_Card.elf.dir/Src/syscalls.c.obj
 .debug_abbrev  0x00002a9c      0x126 CMakeFiles/L-ink_Card.elf.dir/Src/system_stm32l0xx.c.obj
 .debug_abbrev  0x00002bc2      0x1bf CMakeFiles/L-ink_Card.elf.dir/Src/usart.c.obj
 .debug_abbrev  0x00002d81       0x12 CMakeFiles/L-ink_Card.elf.dir/startup/startup_stm32l051xx.s.obj

.debug_aranges  0x00000000     0x1588
 .debug_aranges
                0x00000000      0x290 CMakeFiles/L-ink_Card.elf.dir/Drivers/BSP/Components/ST25DV/st25dv.c.obj
 .debug_aranges
                0x00000290      0x498 CMakeFiles/L-ink_Card.elf.dir/Drivers/BSP/Components/ST25DV/st25dv_reg.c.obj
 .debug_aranges
                0x00000728       0xb8 CMakeFiles/L-ink_Card.elf.dir/Drivers/BSP/E-Paper-Display/epd_w21.c.obj
 .debug_aranges
                0x000007e0       0x70 CMakeFiles/L-ink_Card.elf.dir/Drivers/BSP/NFC04A1/nfc04a1.c.obj
 .debug_aranges
                0x00000850      0x290 CMakeFiles/L-ink_Card.elf.dir/Drivers/BSP/NFC04A1/nfc04a1_nfctag.c.obj
 .debug_aranges
                0x00000ae0       0x40 CMakeFiles/L-ink_Card.elf.dir/Drivers/BSP/ST25DV/app_nfc.c.obj
 .debug_aranges
                0x00000b20       0xf8 CMakeFiles/L-ink_Card.elf.dir/Drivers/STM32L0xx_HAL_Driver/Src/stm32l0xx_hal.c.obj
 .debug_aranges
                0x00000c18       0xd8 CMakeFiles/L-ink_Card.elf.dir/Drivers/STM32L0xx_HAL_Driver/Src/stm32l0xx_hal_cortex.c.obj
 .debug_aranges
                0x00000cf0       0x58 CMakeFiles/L-ink_Card.elf.dir/Drivers/STM32L0xx_HAL_Driver/Src/stm32l0xx_hal_gpio.c.obj
 .debug_aranges
                0x00000d48      0x288 CMakeFiles/L-ink_Card.elf.dir/Drivers/STM32L0xx_HAL_Driver/Src/stm32l0xx_hal_i2c.c.obj
 .debug_aranges
                0x00000fd0       0x48 CMakeFiles/L-ink_Card.elf.dir/Drivers/STM32L0xx_HAL_Driver/Src/stm32l0xx_hal_i2c_ex.c.obj
 .debug_aranges
                0x00001018       0x80 CMakeFiles/L-ink_Card.elf.dir/Drivers/STM32L0xx_HAL_Driver/Src/stm32l0xx_hal_rcc.c.obj
 .debug_aranges
                0x00001098       0x58 CMakeFiles/L-ink_Card.elf.dir/Drivers/STM32L0xx_HAL_Driver/Src/stm32l0xx_hal_rcc_ex.c.obj
 .debug_aranges
                0x000010f0      0x1f8 CMakeFiles/L-ink_Card.elf.dir/Drivers/STM32L0xx_HAL_Driver/Src/stm32l0xx_hal_uart.c.obj
 .debug_aranges
                0x000012e8       0x80 CMakeFiles/L-ink_Card.elf.dir/Src/custom_bus.c.obj
 .debug_aranges
                0x00001368       0x20 CMakeFiles/L-ink_Card.elf.dir/Src/gpio.c.obj
 .debug_aranges
                0x00001388       0x38 CMakeFiles/L-ink_Card.elf.dir/Src/main.c.obj
 .debug_aranges
                0x000013c0       0x30 CMakeFiles/L-ink_Card.elf.dir/Src/stm32l0xx_hal_exti.c.obj
 .debug_aranges
                0x000013f0       0x20 CMakeFiles/L-ink_Card.elf.dir/Src/stm32l0xx_hal_msp.c.obj
 .debug_aranges
                0x00001410       0x48 CMakeFiles/L-ink_Card.elf.dir/Src/stm32l0xx_it.c.obj
 .debug_aranges
                0x00001458       0xb0 CMakeFiles/L-ink_Card.elf.dir/Src/syscalls.c.obj
 .debug_aranges
                0x00001508       0x28 CMakeFiles/L-ink_Card.elf.dir/Src/system_stm32l0xx.c.obj
 .debug_aranges
                0x00001530       0x30 CMakeFiles/L-ink_Card.elf.dir/Src/usart.c.obj
 .debug_aranges
                0x00001560       0x28 CMakeFiles/L-ink_Card.elf.dir/startup/startup_stm32l051xx.s.obj

.debug_ranges   0x00000000     0x1410
 .debug_ranges  0x00000000      0x280 CMakeFiles/L-ink_Card.elf.dir/Drivers/BSP/Components/ST25DV/st25dv.c.obj
 .debug_ranges  0x00000280      0x488 CMakeFiles/L-ink_Card.elf.dir/Drivers/BSP/Components/ST25DV/st25dv_reg.c.obj
 .debug_ranges  0x00000708       0xa8 CMakeFiles/L-ink_Card.elf.dir/Drivers/BSP/E-Paper-Display/epd_w21.c.obj
 .debug_ranges  0x000007b0       0x60 CMakeFiles/L-ink_Card.elf.dir/Drivers/BSP/NFC04A1/nfc04a1.c.obj
 .debug_ranges  0x00000810      0x280 CMakeFiles/L-ink_Card.elf.dir/Drivers/BSP/NFC04A1/nfc04a1_nfctag.c.obj
 .debug_ranges  0x00000a90       0x30 CMakeFiles/L-ink_Card.elf.dir/Drivers/BSP/ST25DV/app_nfc.c.obj
 .debug_ranges  0x00000ac0       0xe8 CMakeFiles/L-ink_Card.elf.dir/Drivers/STM32L0xx_HAL_Driver/Src/stm32l0xx_hal.c.obj
 .debug_ranges  0x00000ba8       0xc8 CMakeFiles/L-ink_Card.elf.dir/Drivers/STM32L0xx_HAL_Driver/Src/stm32l0xx_hal_cortex.c.obj
 .debug_ranges  0x00000c70       0x48 CMakeFiles/L-ink_Card.elf.dir/Drivers/STM32L0xx_HAL_Driver/Src/stm32l0xx_hal_gpio.c.obj
 .debug_ranges  0x00000cb8      0x278 CMakeFiles/L-ink_Card.elf.dir/Drivers/STM32L0xx_HAL_Driver/Src/stm32l0xx_hal_i2c.c.obj
 .debug_ranges  0x00000f30       0x38 CMakeFiles/L-ink_Card.elf.dir/Drivers/STM32L0xx_HAL_Driver/Src/stm32l0xx_hal_i2c_ex.c.obj
 .debug_ranges  0x00000f68       0x70 CMakeFiles/L-ink_Card.elf.dir/Drivers/STM32L0xx_HAL_Driver/Src/stm32l0xx_hal_rcc.c.obj
 .debug_ranges  0x00000fd8       0x48 CMakeFiles/L-ink_Card.elf.dir/Drivers/STM32L0xx_HAL_Driver/Src/stm32l0xx_hal_rcc_ex.c.obj
 .debug_ranges  0x00001020      0x1e8 CMakeFiles/L-ink_Card.elf.dir/Drivers/STM32L0xx_HAL_Driver/Src/stm32l0xx_hal_uart.c.obj
 .debug_ranges  0x00001208       0x70 CMakeFiles/L-ink_Card.elf.dir/Src/custom_bus.c.obj
 .debug_ranges  0x00001278       0x10 CMakeFiles/L-ink_Card.elf.dir/Src/gpio.c.obj
 .debug_ranges  0x00001288       0x28 CMakeFiles/L-ink_Card.elf.dir/Src/main.c.obj
 .debug_ranges  0x000012b0       0x20 CMakeFiles/L-ink_Card.elf.dir/Src/stm32l0xx_hal_exti.c.obj
 .debug_ranges  0x000012d0       0x10 CMakeFiles/L-ink_Card.elf.dir/Src/stm32l0xx_hal_msp.c.obj
 .debug_ranges  0x000012e0       0x38 CMakeFiles/L-ink_Card.elf.dir/Src/stm32l0xx_it.c.obj
 .debug_ranges  0x00001318       0xa0 CMakeFiles/L-ink_Card.elf.dir/Src/syscalls.c.obj
 .debug_ranges  0x000013b8       0x18 CMakeFiles/L-ink_Card.elf.dir/Src/system_stm32l0xx.c.obj
 .debug_ranges  0x000013d0       0x20 CMakeFiles/L-ink_Card.elf.dir/Src/usart.c.obj
 .debug_ranges  0x000013f0       0x20 CMakeFiles/L-ink_Card.elf.dir/startup/startup_stm32l051xx.s.obj

.debug_line     0x00000000     0xd5e3
 .debug_line    0x00000000     0x11b8 CMakeFiles/L-ink_Card.elf.dir/Drivers/BSP/Components/ST25DV/st25dv.c.obj
 .debug_line    0x000011b8     0x1ae9 CMakeFiles/L-ink_Card.elf.dir/Drivers/BSP/Components/ST25DV/st25dv_reg.c.obj
 .debug_line    0x00002ca1      0x5dc CMakeFiles/L-ink_Card.elf.dir/Drivers/BSP/E-Paper-Display/epd_w21.c.obj
 .debug_line    0x0000327d      0x4a5 CMakeFiles/L-ink_Card.elf.dir/Drivers/BSP/NFC04A1/nfc04a1.c.obj
 .debug_line    0x00003722      0xb83 CMakeFiles/L-ink_Card.elf.dir/Drivers/BSP/NFC04A1/nfc04a1_nfctag.c.obj
 .debug_line    0x000042a5      0x4e1 CMakeFiles/L-ink_Card.elf.dir/Drivers/BSP/ST25DV/app_nfc.c.obj
 .debug_line    0x00004786      0x5a1 CMakeFiles/L-ink_Card.elf.dir/Drivers/STM32L0xx_HAL_Driver/Src/stm32l0xx_hal.c.obj
 .debug_line    0x00004d27      0x6db CMakeFiles/L-ink_Card.elf.dir/Drivers/STM32L0xx_HAL_Driver/Src/stm32l0xx_hal_cortex.c.obj
 .debug_line    0x00005402      0x652 CMakeFiles/L-ink_Card.elf.dir/Drivers/STM32L0xx_HAL_Driver/Src/stm32l0xx_hal_gpio.c.obj
 .debug_line    0x00005a54     0x2d46 CMakeFiles/L-ink_Card.elf.dir/Drivers/STM32L0xx_HAL_Driver/Src/stm32l0xx_hal_i2c.c.obj
 .debug_line    0x0000879a      0x49f CMakeFiles/L-ink_Card.elf.dir/Drivers/STM32L0xx_HAL_Driver/Src/stm32l0xx_hal_i2c_ex.c.obj
 .debug_line    0x00008c39      0x9d7 CMakeFiles/L-ink_Card.elf.dir/Drivers/STM32L0xx_HAL_Driver/Src/stm32l0xx_hal_rcc.c.obj
 .debug_line    0x00009610      0x65c CMakeFiles/L-ink_Card.elf.dir/Drivers/STM32L0xx_HAL_Driver/Src/stm32l0xx_hal_rcc_ex.c.obj
 .debug_line    0x00009c6c     0x1731 CMakeFiles/L-ink_Card.elf.dir/Drivers/STM32L0xx_HAL_Driver/Src/stm32l0xx_hal_uart.c.obj
 .debug_line    0x0000b39d      0x513 CMakeFiles/L-ink_Card.elf.dir/Src/custom_bus.c.obj
 .debug_line    0x0000b8b0      0x350 CMakeFiles/L-ink_Card.elf.dir/Src/gpio.c.obj
 .debug_line    0x0000bc00      0x475 CMakeFiles/L-ink_Card.elf.dir/Src/main.c.obj
 .debug_line    0x0000c075      0x317 CMakeFiles/L-ink_Card.elf.dir/Src/stm32l0xx_hal_exti.c.obj
 .debug_line    0x0000c38c      0x2f2 CMakeFiles/L-ink_Card.elf.dir/Src/stm32l0xx_hal_msp.c.obj
 .debug_line    0x0000c67e      0x356 CMakeFiles/L-ink_Card.elf.dir/Src/stm32l0xx_it.c.obj
 .debug_line    0x0000c9d4      0x44e CMakeFiles/L-ink_Card.elf.dir/Src/syscalls.c.obj
 .debug_line    0x0000ce22      0x371 CMakeFiles/L-ink_Card.elf.dir/Src/system_stm32l0xx.c.obj
 .debug_line    0x0000d193      0x38f CMakeFiles/L-ink_Card.elf.dir/Src/usart.c.obj
 .debug_line    0x0000d522       0xc1 CMakeFiles/L-ink_Card.elf.dir/startup/startup_stm32l051xx.s.obj

.debug_str      0x00000000     0x613c
 .debug_str     0x00000000     0x1118 CMakeFiles/L-ink_Card.elf.dir/Drivers/BSP/Components/ST25DV/st25dv.c.obj
                               0x1237 (size before relaxing)
 .debug_str     0x00001118      0xdfb CMakeFiles/L-ink_Card.elf.dir/Drivers/BSP/Components/ST25DV/st25dv_reg.c.obj
                               0x1050 (size before relaxing)
 .debug_str     0x00001f13      0x39a CMakeFiles/L-ink_Card.elf.dir/Drivers/BSP/E-Paper-Display/epd_w21.c.obj
                                0x599 (size before relaxing)
 .debug_str     0x000022ad      0x75a CMakeFiles/L-ink_Card.elf.dir/Drivers/BSP/NFC04A1/nfc04a1.c.obj
                                0xbbe (size before relaxing)
 .debug_str     0x00002a07      0x999 CMakeFiles/L-ink_Card.elf.dir/Drivers/BSP/NFC04A1/nfc04a1_nfctag.c.obj
                               0x1953 (size before relaxing)
 .debug_str     0x000033a0      0x4ae CMakeFiles/L-ink_Card.elf.dir/Drivers/BSP/ST25DV/app_nfc.c.obj
                                0xf42 (size before relaxing)
 .debug_str     0x0000384e      0x415 CMakeFiles/L-ink_Card.elf.dir/Drivers/STM32L0xx_HAL_Driver/Src/stm32l0xx_hal.c.obj
                                0x80b (size before relaxing)
 .debug_str     0x00003c63      0x344 CMakeFiles/L-ink_Card.elf.dir/Drivers/STM32L0xx_HAL_Driver/Src/stm32l0xx_hal_cortex.c.obj
                                0x7b6 (size before relaxing)
 .debug_str     0x00003fa7      0x163 CMakeFiles/L-ink_Card.elf.dir/Drivers/STM32L0xx_HAL_Driver/Src/stm32l0xx_hal_gpio.c.obj
                                0x52e (size before relaxing)
 .debug_str     0x0000410a      0x8b8 CMakeFiles/L-ink_Card.elf.dir/Drivers/STM32L0xx_HAL_Driver/Src/stm32l0xx_hal_i2c.c.obj
                                0xfce (size before relaxing)
 .debug_str     0x000049c2      0x138 CMakeFiles/L-ink_Card.elf.dir/Drivers/STM32L0xx_HAL_Driver/Src/stm32l0xx_hal_i2c_ex.c.obj
                                0x906 (size before relaxing)
 .debug_str     0x00004afa      0x34f CMakeFiles/L-ink_Card.elf.dir/Drivers/STM32L0xx_HAL_Driver/Src/stm32l0xx_hal_rcc.c.obj
                                0x71c (size before relaxing)
 .debug_str     0x00004e49      0x22d CMakeFiles/L-ink_Card.elf.dir/Drivers/STM32L0xx_HAL_Driver/Src/stm32l0xx_hal_rcc_ex.c.obj
                                0x56e (size before relaxing)
 .debug_str     0x00005076      0x8c8 CMakeFiles/L-ink_Card.elf.dir/Drivers/STM32L0xx_HAL_Driver/Src/stm32l0xx_hal_uart.c.obj
                                0xe31 (size before relaxing)
 .debug_str     0x0000593e      0x13e CMakeFiles/L-ink_Card.elf.dir/Src/custom_bus.c.obj
                                0x95b (size before relaxing)
 .debug_str     0x00005a7c       0x59 CMakeFiles/L-ink_Card.elf.dir/Src/gpio.c.obj
                                0xa01 (size before relaxing)
 .debug_str     0x00005ad5       0x7f CMakeFiles/L-ink_Card.elf.dir/Src/main.c.obj
                                0xf83 (size before relaxing)
 .debug_str     0x00005b54       0xea CMakeFiles/L-ink_Card.elf.dir/Src/stm32l0xx_hal_exti.c.obj
                                0x39c (size before relaxing)
 .debug_str     0x00005c3e       0x59 CMakeFiles/L-ink_Card.elf.dir/Src/stm32l0xx_hal_msp.c.obj
                                0x812 (size before relaxing)
 .debug_str     0x00005c97       0xb0 CMakeFiles/L-ink_Card.elf.dir/Src/stm32l0xx_it.c.obj
                                0x7c5 (size before relaxing)
 .debug_str     0x00005d47      0x282 CMakeFiles/L-ink_Card.elf.dir/Src/syscalls.c.obj
                                0x8ca (size before relaxing)
 .debug_str     0x00005fc9       0x9a CMakeFiles/L-ink_Card.elf.dir/Src/system_stm32l0xx.c.obj
                                0x380 (size before relaxing)
 .debug_str     0x00006063       0x6c CMakeFiles/L-ink_Card.elf.dir/Src/usart.c.obj
                                0xa81 (size before relaxing)
 .debug_str     0x000060cf       0x6d CMakeFiles/L-ink_Card.elf.dir/startup/startup_stm32l051xx.s.obj
                                 0xc0 (size before relaxing)

.comment        0x00000000       0x79
 .comment       0x00000000       0x79 CMakeFiles/L-ink_Card.elf.dir/Drivers/BSP/Components/ST25DV/st25dv.c.obj
                                 0x7a (size before relaxing)
 .comment       0x00000079       0x7a CMakeFiles/L-ink_Card.elf.dir/Drivers/BSP/Components/ST25DV/st25dv_reg.c.obj
 .comment       0x00000079       0x7a CMakeFiles/L-ink_Card.elf.dir/Drivers/BSP/E-Paper-Display/epd_w21.c.obj
 .comment       0x00000079       0x7a CMakeFiles/L-ink_Card.elf.dir/Drivers/BSP/NFC04A1/nfc04a1.c.obj
 .comment       0x00000079       0x7a CMakeFiles/L-ink_Card.elf.dir/Drivers/BSP/NFC04A1/nfc04a1_nfctag.c.obj
 .comment       0x00000079       0x7a CMakeFiles/L-ink_Card.elf.dir/Drivers/BSP/ST25DV/app_nfc.c.obj
 .comment       0x00000079       0x7a CMakeFiles/L-ink_Card.elf.dir/Drivers/STM32L0xx_HAL_Driver/Src/stm32l0xx_hal.c.obj
 .comment       0x00000079       0x7a CMakeFiles/L-ink_Card.elf.dir/Drivers/STM32L0xx_HAL_Driver/Src/stm32l0xx_hal_cortex.c.obj
 .comment       0x00000079       0x7a CMakeFiles/L-ink_Card.elf.dir/Drivers/STM32L0xx_HAL_Driver/Src/stm32l0xx_hal_gpio.c.obj
 .comment       0x00000079       0x7a CMakeFiles/L-ink_Card.elf.dir/Drivers/STM32L0xx_HAL_Driver/Src/stm32l0xx_hal_i2c.c.obj
 .comment       0x00000079       0x7a CMakeFiles/L-ink_Card.elf.dir/Drivers/STM32L0xx_HAL_Driver/Src/stm32l0xx_hal_i2c_ex.c.obj
 .comment       0x00000079       0x7a CMakeFiles/L-ink_Card.elf.dir/Drivers/STM32L0xx_HAL_Driver/Src/stm32l0xx_hal_rcc.c.obj
 .comment       0x00000079       0x7a CMakeFiles/L-ink_Card.elf.dir/Drivers/STM32L0xx_HAL_Driver/Src/stm32l0xx_hal_rcc_ex.c.obj
 .comment       0x00000079       0x7a CMakeFiles/L-ink_Card.elf.dir/Drivers/STM32L0xx_HAL_Driver/Src/stm32l0xx_hal_uart.c.obj
 .comment       0x00000079       0x7a CMakeFiles/L-ink_Card.elf.dir/Src/custom_bus.c.obj
 .comment       0x00000079       0x7a CMakeFiles/L-ink_Card.elf.dir/Src/gpio.c.obj
 .comment       0x00000079       0x7a CMakeFiles/L-ink_Card.elf.dir/Src/main.c.obj
 .comment       0x00000079       0x7a CMakeFiles/L-ink_Card.elf.dir/Src/stm32l0xx_hal_exti.c.obj
 .comment       0x00000079       0x7a CMakeFiles/L-ink_Card.elf.dir/Src/stm32l0xx_hal_msp.c.obj
 .comment       0x00000079       0x7a CMakeFiles/L-ink_Card.elf.dir/Src/stm32l0xx_it.c.obj
 .comment       0x00000079       0x7a CMakeFiles/L-ink_Card.elf.dir/Src/syscalls.c.obj
 .comment       0x00000079       0x7a CMakeFiles/L-ink_Card.elf.dir/Src/system_stm32l0xx.c.obj
 .comment       0x00000079       0x7a CMakeFiles/L-ink_Card.elf.dir/Src/usart.c.obj

.debug_frame    0x00000000     0x5628
 .debug_frame   0x00000000      0x9f8 CMakeFiles/L-ink_Card.elf.dir/Drivers/BSP/Components/ST25DV/st25dv.c.obj
 .debug_frame   0x000009f8     0x1218 CMakeFiles/L-ink_Card.elf.dir/Drivers/BSP/Components/ST25DV/st25dv_reg.c.obj
 .debug_frame   0x00001c10      0x284 CMakeFiles/L-ink_Card.elf.dir/Drivers/BSP/E-Paper-Display/epd_w21.c.obj
 .debug_frame   0x00001e94      0x154 CMakeFiles/L-ink_Card.elf.dir/Drivers/BSP/NFC04A1/nfc04a1.c.obj
 .debug_frame   0x00001fe8      0x9fc CMakeFiles/L-ink_Card.elf.dir/Drivers/BSP/NFC04A1/nfc04a1_nfctag.c.obj
 .debug_frame   0x000029e4       0x9c CMakeFiles/L-ink_Card.elf.dir/Drivers/BSP/ST25DV/app_nfc.c.obj
 .debug_frame   0x00002a80      0x338 CMakeFiles/L-ink_Card.elf.dir/Drivers/STM32L0xx_HAL_Driver/Src/stm32l0xx_hal.c.obj
 .debug_frame   0x00002db8      0x2fc CMakeFiles/L-ink_Card.elf.dir/Drivers/STM32L0xx_HAL_Driver/Src/stm32l0xx_hal_cortex.c.obj
 .debug_frame   0x000030b4      0x110 CMakeFiles/L-ink_Card.elf.dir/Drivers/STM32L0xx_HAL_Driver/Src/stm32l0xx_hal_gpio.c.obj
 .debug_frame   0x000031c4      0xa04 CMakeFiles/L-ink_Card.elf.dir/Drivers/STM32L0xx_HAL_Driver/Src/stm32l0xx_hal_i2c.c.obj
 .debug_frame   0x00003bc8       0xd0 CMakeFiles/L-ink_Card.elf.dir/Drivers/STM32L0xx_HAL_Driver/Src/stm32l0xx_hal_i2c_ex.c.obj
 .debug_frame   0x00003c98      0x1a4 CMakeFiles/L-ink_Card.elf.dir/Drivers/STM32L0xx_HAL_Driver/Src/stm32l0xx_hal_rcc.c.obj
 .debug_frame   0x00003e3c       0xfc CMakeFiles/L-ink_Card.elf.dir/Drivers/STM32L0xx_HAL_Driver/Src/stm32l0xx_hal_rcc_ex.c.obj
 .debug_frame   0x00003f38      0x794 CMakeFiles/L-ink_Card.elf.dir/Drivers/STM32L0xx_HAL_Driver/Src/stm32l0xx_hal_uart.c.obj
 .debug_frame   0x000046cc      0x1bc CMakeFiles/L-ink_Card.elf.dir/Src/custom_bus.c.obj
 .debug_frame   0x00004888       0x30 CMakeFiles/L-ink_Card.elf.dir/Src/gpio.c.obj
 .debug_frame   0x000048b8       0x88 CMakeFiles/L-ink_Card.elf.dir/Src/main.c.obj
 .debug_frame   0x00004940       0x70 CMakeFiles/L-ink_Card.elf.dir/Src/stm32l0xx_hal_exti.c.obj
 .debug_frame   0x000049b0       0x2c CMakeFiles/L-ink_Card.elf.dir/Src/stm32l0xx_hal_msp.c.obj
 .debug_frame   0x000049dc       0xb8 CMakeFiles/L-ink_Card.elf.dir/Src/stm32l0xx_it.c.obj
 .debug_frame   0x00004a94      0x264 CMakeFiles/L-ink_Card.elf.dir/Src/syscalls.c.obj
 .debug_frame   0x00004cf8       0x4c CMakeFiles/L-ink_Card.elf.dir/Src/system_stm32l0xx.c.obj
 .debug_frame   0x00004d44       0x6c CMakeFiles/L-ink_Card.elf.dir/Src/usart.c.obj
 .debug_frame   0x00004db0       0x20 d:/progra~2/stm32c~1/gnu-to~1/bin/../lib/gcc/arm-none-eabi/9.2.1/thumb/v6-m/nofp\libgcc.a(_udivsi3.o)
 .debug_frame   0x00004dd0       0x3c d:/progra~2/stm32c~1/gnu-to~1/bin/../lib/gcc/arm-none-eabi/9.2.1/thumb/v6-m/nofp\libgcc.a(_udivmoddi4.o)
 .debug_frame   0x00004e0c       0x20 d:/progra~2/stm32c~1/gnu-to~1/bin/../lib/gcc/arm-none-eabi/9.2.1/../../../../arm-none-eabi/lib/thumb/v6-m/nofp\libg_nano.a(lib_a-errno.o)
 .debug_frame   0x00004e2c       0x2c d:/progra~2/stm32c~1/gnu-to~1/bin/../lib/gcc/arm-none-eabi/9.2.1/../../../../arm-none-eabi/lib/thumb/v6-m/nofp\libg_nano.a(lib_a-init.o)
 .debug_frame   0x00004e58       0x20 d:/progra~2/stm32c~1/gnu-to~1/bin/../lib/gcc/arm-none-eabi/9.2.1/../../../../arm-none-eabi/lib/thumb/v6-m/nofp\libg_nano.a(lib_a-memset.o)
 .debug_frame   0x00004e78       0x50 d:/progra~2/stm32c~1/gnu-to~1/bin/../lib/gcc/arm-none-eabi/9.2.1/../../../../arm-none-eabi/lib/thumb/v6-m/nofp\libg_nano.a(lib_a-printf.o)
 .debug_frame   0x00004ec8      0x170 d:/progra~2/stm32c~1/gnu-to~1/bin/../lib/gcc/arm-none-eabi/9.2.1/../../../../arm-none-eabi/lib/thumb/v6-m/nofp\libg_nano.a(lib_a-findfp.o)
 .debug_frame   0x00005038       0x58 d:/progra~2/stm32c~1/gnu-to~1/bin/../lib/gcc/arm-none-eabi/9.2.1/../../../../arm-none-eabi/lib/thumb/v6-m/nofp\libg_nano.a(lib_a-fwalk.o)
 .debug_frame   0x00005090       0xb0 d:/progra~2/stm32c~1/gnu-to~1/bin/../lib/gcc/arm-none-eabi/9.2.1/../../../../arm-none-eabi/lib/thumb/v6-m/nofp\libg_nano.a(lib_a-lock.o)
 .debug_frame   0x00005140       0x30 d:/progra~2/stm32c~1/gnu-to~1/bin/../lib/gcc/arm-none-eabi/9.2.1/../../../../arm-none-eabi/lib/thumb/v6-m/nofp\libg_nano.a(lib_a-nano-mallocr.o)
 .debug_frame   0x00005170       0x9c d:/progra~2/stm32c~1/gnu-to~1/bin/../lib/gcc/arm-none-eabi/9.2.1/../../../../arm-none-eabi/lib/thumb/v6-m/nofp\libg_nano.a(lib_a-nano-vfprintf.o)
 .debug_frame   0x0000520c       0x54 d:/progra~2/stm32c~1/gnu-to~1/bin/../lib/gcc/arm-none-eabi/9.2.1/../../../../arm-none-eabi/lib/thumb/v6-m/nofp\libg_nano.a(lib_a-nano-vfprintf_i.o)
 .debug_frame   0x00005260       0x2c d:/progra~2/stm32c~1/gnu-to~1/bin/../lib/gcc/arm-none-eabi/9.2.1/../../../../arm-none-eabi/lib/thumb/v6-m/nofp\libg_nano.a(lib_a-sbrkr.o)
 .debug_frame   0x0000528c       0x90 d:/progra~2/stm32c~1/gnu-to~1/bin/../lib/gcc/arm-none-eabi/9.2.1/../../../../arm-none-eabi/lib/thumb/v6-m/nofp\libg_nano.a(lib_a-stdio.o)
 .debug_frame   0x0000531c       0x48 d:/progra~2/stm32c~1/gnu-to~1/bin/../lib/gcc/arm-none-eabi/9.2.1/../../../../arm-none-eabi/lib/thumb/v6-m/nofp\libg_nano.a(lib_a-wbuf.o)
 .debug_frame   0x00005364       0x2c d:/progra~2/stm32c~1/gnu-to~1/bin/../lib/gcc/arm-none-eabi/9.2.1/../../../../arm-none-eabi/lib/thumb/v6-m/nofp\libg_nano.a(lib_a-writer.o)
 .debug_frame   0x00005390       0x2c d:/progra~2/stm32c~1/gnu-to~1/bin/../lib/gcc/arm-none-eabi/9.2.1/../../../../arm-none-eabi/lib/thumb/v6-m/nofp\libg_nano.a(lib_a-wsetup.o)
 .debug_frame   0x000053bc       0x2c d:/progra~2/stm32c~1/gnu-to~1/bin/../lib/gcc/arm-none-eabi/9.2.1/../../../../arm-none-eabi/lib/thumb/v6-m/nofp\libg_nano.a(lib_a-closer.o)
 .debug_frame   0x000053e8       0x68 d:/progra~2/stm32c~1/gnu-to~1/bin/../lib/gcc/arm-none-eabi/9.2.1/../../../../arm-none-eabi/lib/thumb/v6-m/nofp\libg_nano.a(lib_a-fflush.o)
 .debug_frame   0x00005450       0x2c d:/progra~2/stm32c~1/gnu-to~1/bin/../lib/gcc/arm-none-eabi/9.2.1/../../../../arm-none-eabi/lib/thumb/v6-m/nofp\libg_nano.a(lib_a-lseekr.o)
 .debug_frame   0x0000547c       0x54 d:/progra~2/stm32c~1/gnu-to~1/bin/../lib/gcc/arm-none-eabi/9.2.1/../../../../arm-none-eabi/lib/thumb/v6-m/nofp\libg_nano.a(lib_a-makebuf.o)
 .debug_frame   0x000054d0       0x20 d:/progra~2/stm32c~1/gnu-to~1/bin/../lib/gcc/arm-none-eabi/9.2.1/../../../../arm-none-eabi/lib/thumb/v6-m/nofp\libg_nano.a(lib_a-memchr-stub.o)
 .debug_frame   0x000054f0       0x40 d:/progra~2/stm32c~1/gnu-to~1/bin/../lib/gcc/arm-none-eabi/9.2.1/../../../../arm-none-eabi/lib/thumb/v6-m/nofp\libg_nano.a(lib_a-mlock.o)
 .debug_frame   0x00005530       0x2c d:/progra~2/stm32c~1/gnu-to~1/bin/../lib/gcc/arm-none-eabi/9.2.1/../../../../arm-none-eabi/lib/thumb/v6-m/nofp\libg_nano.a(lib_a-nano-freer.o)
 .debug_frame   0x0000555c       0x2c d:/progra~2/stm32c~1/gnu-to~1/bin/../lib/gcc/arm-none-eabi/9.2.1/../../../../arm-none-eabi/lib/thumb/v6-m/nofp\libg_nano.a(lib_a-readr.o)
 .debug_frame   0x00005588       0x48 d:/progra~2/stm32c~1/gnu-to~1/bin/../lib/gcc/arm-none-eabi/9.2.1/../../../../arm-none-eabi/lib/thumb/v6-m/nofp\libg_nano.a(lib_a-reent.o)
 .debug_frame   0x000055d0       0x2c d:/progra~2/stm32c~1/gnu-to~1/bin/../lib/gcc/arm-none-eabi/9.2.1/../../../../arm-none-eabi/lib/thumb/v6-m/nofp\libg_nano.a(lib_a-fstatr.o)
 .debug_frame   0x000055fc       0x2c d:/progra~2/stm32c~1/gnu-to~1/bin/../lib/gcc/arm-none-eabi/9.2.1/../../../../arm-none-eabi/lib/thumb/v6-m/nofp\libg_nano.a(lib_a-isattyr.o)
