:020000040800F2
:1000000000200020315100085D4E0008674E0008B6
:1000100000000000000000000000000000000000E0
:100020000000000000000000000000006D4E00080D
:100030000000000000000000774E0008814E00081C
:100040008151000881510008815100088151000848
:100050008151000881510008914E0008815100082B
:100060000000000081510008815100088151000802
:1000700081510008815100080000000081510008F2
:100080000000000081510008000000000000000096
:1000900081510008000000008151000881510008D2
:1000A00081510008815100088151000881510008E8
:1000B000815100088151000800000000000000008C
:1000C00010B5064C2378002B07D1054B002B02D02E
:1000D000044800E000BF0123237010BD2814002055
:1000E0000000000024610008044B10B5002B03D071
:1000F0000349044800E000BF10BDC04600000000F6
:100100002C14002024610008002243088B4274D381
:1001100003098B425FD3030A8B4244D3030B8B4208
:1001200028D3030C8B420DD3FF22090212BA030C11
:100130008B4202D31212090265D0030B8B4219D3F2
:1001400000E0090AC30B8B4201D3CB03C01A524112
:10015000830B8B4201D38B03C01A5241430B8B425A
:1001600001D34B03C01A5241030B8B4201D30B0343
:10017000C01A5241C30A8B4201D3CB02C01A52416A
:10018000830A8B4201D38B02C01A5241430A8B422D
:1001900001D34B02C01A5241030A8B4201D30B0216
:1001A000C01A5241CDD2C3098B4201D3CB01C01A30
:1001B000524183098B4201D38B01C01A524143093A
:1001C0008B4201D34B01C01A524103098B4201D328
:1001D0000B01C01A5241C3088B4201D3CB00C01A95
:1001E000524183088B4201D38B00C01A524143080D
:1001F0008B4201D34B00C01A5241411A00D2014632
:10020000524110467047FFE701B5002000F006F8A4
:1002100002BDC0460029F7D076E770477047C04658
:10022000002B11D1002A0FD1002900D1002802D0C3
:100230000021C943081C07B4024802A140180290DB
:1002400003BDC046D9FFFFFF03B4684601B502985D
:1002500000F006F8019B9E4602B00CBC7047C046F9
:10026000F0B557464E464546DE46E0B504000D0063
:100270009246994683B08B4230D82DD0494650469D
:1002800000F0BAF829000600200000F0B5F8331A93
:100290009846203B9B4633D45A46534693404246A9
:1002A0001F00534693401E00AF423AD8AF4200D1E0
:1002B00078E05B46A41BBD41002B00DA75E000220C
:1002C00000230092019301235A4693400193012396
:1002D00042469340009328E08242CFD90022002377
:1002E000009201930C9B002B01D01C605D60009874
:1002F000019903B03CBC90469946A246AB46F0BD7E
:10030000424620239B1A5246DA40414613004A4691
:100310008A40170042461F43534693401E00AF4297
:10032000C4D900220023009201934346002BD9D068
:10033000FB0772081A4346467B080EE0AB4201D128
:10034000A2420CD8A41A9D41012024196D4100211C
:10035000013E24184D41002E06D0AB42EED9013E9D
:1003600024196D41002EF8D1009801995B460019BF
:100370006941002B24DB2B005A464446D3402A0017
:10038000E2401C005B461500002B2ADB26009E4045
:10039000330026004746BE403200801A9941009043
:1003A00001919FE7A342BCD883E742462023002166
:1003B0009B1A0022009101920122DA40019286E705
:1003C000424620239B1A2A0046469A402300F340C7
:1003D000444613432A00E2401C005B461500002BF4
:1003E000D4DA42462F002023260097409B1ADE4095
:1003F0003B003343CDE7C04610B5002903D100F0E0
:1004000007F8203002E0081C00F002F810BDC046DA
:100410001C2101231B04984201D3000C10391B0A34
:10042000984201D3000A08391B09984201D30009F8
:10043000043902A2105C40187047C046040302024F
:1004400001010101000000000000000003B471463A
:10045000490840004900095E49008E4403BC7047CA
:1004600080B584B000AF786039600023FB607B68A2
:10047000002B03D101235B42FB6030E03B681A682C
:100480007B681A603B685A687B685A603B68DA6828
:100490007B68DA603B681A697B681A613B689A6816
:1004A0007B689A603B685A697B685A617B680E4A30
:1004B000DA617B680D4A9A617B687A681A627B68A8
:1004C0001B68002B03D101235B42FB6007E07B68C4
:1004D0001B689847031E02D001235B42FB60FB6848
:1004E0001800BD4604B080BD1F0B0008890B000832
:1004F00090B585B000AF78607B685B6A002B12D145
:100500000F243A197B681100180000F014F822003B
:10051000BB181B78242B06D0BB181B78262B02D0C7
:1005200001235B4203E07B6801225A62002318002A
:10053000BD4605B090BD80B582B000AF786039602F
:100540007B6818333A681100180000F0B4FB030010
:100550001800BD4602B080BD80B582B000AF7860A3
:1005600039607B689B683A681100A62098470300B1
:100570001800BD4602B080BD80B584B000AF786081
:1005800039607B6818330B22BA181100180000F08C
:1005900061FC0300FB60FB68002B01D0FB6806E0F8
:1005A0000B23FB181B789AB23B681A8000231800B3
:1005B000BD4604B080BD80B582B000AF78600A004F
:1005C000BB1C1A807B681833BA1C1100180000F09D
:1005D00056FC03001800BD4602B080BD90B585B042
:1005E00000AFF860B9601900BB1D1A803B1D0A1CE2
:1005F0001A80FB681C693B1D1888BA68BB1D1988E6
:100600000300A620A04703001800BD4605B090BD1A
:1006100090B58BB000AFF860B9601900BB1D1A80AF
:100620003B1D0A1C1A80BB68FB611A23FB183A1D8C
:1006300012881A801823FB18BA1D12881A801A23F0
:10064000FB181A8880235B009A4205D92223FB18E5
:10065000802252001A8005E02223FB181A22BA18C1
:1006600012881A80FB68DC682223FB181888FA6954
:100670001823FB1819880300A620A04703007B62FB
:100680007B6A002B20D1FB685B69984703007B6184
:10069000FB689B680121A620984703003B61FB682B
:1006A0005B69984703001A007B69D31A1A00A023DC
:1006B0005B009A4202D23B69002BE9D13B69002BD7
:1006C00002D003235B427B6222203B181B88FA691D
:1006D000D318FB611822BB18B9183A180988128878
:1006E0008A181A801A243B1939193A18098812886D
:1006F0008A1A1A803B191B88002B02D07B6A002BB8
:100700009DD07B6A1800BD460BB090BD90B58BB0F4
:1007100000AFF860B9601900BB1D1A803B1D0A1CB0
:100720001A802023FB183A1D12881A801E23FB18FA
:10073000BA1D12881A80BB68BB612023FB181A8877
:1007400080235B009A4204D92323FB1800221A70ED
:1007500005E02323FB182022BA1812881A70FB68C0
:10076000DC682323FB181B7898B2BA691E23FB1898
:1007700019880300AE20A04703007B627B6A002B30
:1007800020D1FB685B69984703007B61FB689B682D
:100790000121A620984703003B61FB685B699847ED
:1007A00003001A007B69D31A1A00A0235B009A4247
:1007B00002D23B69002BE9D13B69002B02D0032315
:1007C0005B427B6223203B181B78BA69D318BB615C
:1007D0003B181B7899B21E22BB18BA1812888A18C7
:1007E0001A803B181B789AB220203B1839180988C8
:1007F0008A1A1A803B181B88002B02D07B6A002BB8
:100800009BD07B6A1800BD460BB090BD90B58BB0F5
:1008100000AFF8603B1D19605A6014243B19002298
:100820001A6004330D220021180004F0D5FC3B1996
:1008300009221A722723FB1800221A7034E03B1D8C
:100840001A6827203B181B780321CB1ADB00DA40FB
:100850003B181B78D1B214243A19D1543B1D5A6865
:100860003B181B780321CB1ADB00DA403B181B78BE
:100870000433D1B23A19D1543B181A783B181B787B
:1008800009333919895C3A19D1543B181B781A1D60
:100890003B181B780D333919895C3A19D1543B1830
:1008A0001A783B1801321A702723FB181B78032B88
:1008B000C5D990231A011423F918F8681123FFF7FA
:1008C00025FF03001800BD460BB090BD80B584B075
:1008D00000AF78600A00FB1C1A700F217B18FA1C0D
:1008E00012781A707B6818337A181100180000F01B
:1008F000DBFA03001800BD4604B080BD80B584B0AB
:1009000000AF786039607B6818330B22BA18110089
:10091000180000F0E5F90300FB60FB68002B01D034
:10092000FB680CE00B23FB181B78002B03D03B6803
:1009300001221A7002E03B6800221A70002318009E
:10094000BD4604B080BD80B584B000AF78600A00B9
:10095000FB1C1A700B217B18FA1C12781A707B682A
:1009600018337A181100180000F0DAF90300FB6060
:10097000FB681800BD4604B080BD000090B585B08E
:1009800000AFF860B9601900BB1D1A803B1D0A1C3E
:100990001A80BB1D1A8880235B009A4202D901236A
:1009A0005B420DE0FB681C69BB1D1B88064A944630
:1009B000634499B23B1D1B88BA68A620A047030078
:1009C0001800BD4605B090BD0820000080B584B079
:1009D00000AF786039607B6818330B22BA181100B9
:1009E000180000F0CBFA0300FB60FB68002B01D07D
:1009F000FB680CE00B23FB181B78002B03D03B6833
:100A000001221A7002E03B6800221A7000231800CD
:100A1000BD4604B080BD80B584B000AF78600F21C2
:100A20007B1801221A707B6818337A18110018009D
:100A300000F06EFA03001800BD4604B080BD80B51A
:100A400084B000AF786039607B6818330B22BA1825
:100A50001100180000F0E6F90300FB60FB68002BB2
:100A600001D0FB6832E00B217B181B780122134078
:100A7000DAB23B681A707B181B785B10DBB201227C
:100A80001340DAB23B685A707B181B789B10DBB2BC
:100A900001221340DAB23B689A707B181B781B1155
:100AA000DBB201221340DAB23B68DA707B181B78A4
:100AB0005B11DBB201221340DAB23B681A717B187A
:100AC0001B789B09DAB23B685A7100231800BD46B7
:100AD00004B080BD80B584B000AF78600F217B1872
:100AE00001221A707B6818337A181100180000F080
:100AF00063F903001800BD4604B080BD80B582B024
:100B000000AF786039607B6818333A6811001800CC
:100B100000F03AF903001800BD4602B080BD90B560
:100B200087B000AFF86008007A6019000A243B190A
:100B3000021C1A8008203B180A1C1A80FB687B6183
:100B400021007B181A8880239B0113400BD07B69FE
:100B50001C693B1818887A687B1819880300A6203E
:100B6000A04703000CE07B691C690823FB18188868
:100B70007A680A23FB1819880300AE20A0470300F7
:100B80001800BD4607B090BD90B589B000AFF860C1
:100B900008007A6019000A243B19021C1A800820F8
:100BA0003B180A1C1A80FB68BB6121007B181A885D
:100BB00080239B0113400BD0BB69DC683B1818886D
:100BC0007A687B1819880300A620A047030030E04C
:100BD000BB69DC680823FB1818887A680A23FB18AD
:100BE00019880300AE20A0470300FB61FB69002BBE
:100BF0001ED1BB695B69984703007B61BB699B6839
:100C00000121AE20984703003B61BB695B699847AF
:100C100002007B69D21AA0235B009A4202D23B6990
:100C2000002BEBD13B69002B02D003235B42FB611D
:100C3000FB691800BD4609B090BDF0B585B000AFA6
:100C4000F86008007A6019000A26BB19021C1A8095
:100C500008257B190A1C1A80FB685C68FB68986889
:100C60007B191D887A68BB1919882B00A0470300DF
:100C70001800BD4605B0F0BDF0B585B000AFF86016
:100C800008007A6019000A26BB19021C1A80082580
:100C90007B190A1C1A80FB681C68FB6898687B1922
:100CA0001D887A68BB1919882B00A047030018001B
:100CB000BD4605B0F0BD80B582B000AF7860396048
:100CC0003A68786801231721FFF7B7FF031E02D0A7
:100CD00001235B4200E000231800BD4602B080BD46
:100CE00080B582B000AF786039603A6878680123D7
:100CF0000D21FFF7A2FF031E02D001235B420BE090
:100D00003B681B7801221340DAB23B681A703B68DB
:100D10001A783B681A7000231800BD4602B080BDE7
:100D200080B584B000AF786039600F23FA18786816
:100D300001230D21FFF781FF031E02D001235B4237
:100D40001DE03B681B785BB2012213405AB20F20B2
:100D50003B181B785BB201218B435BB213435BB240
:100D6000DAB23B181A703A18786801230D21FFF7A0
:100D700083FF031E02D001235B4200E00023180022
:100D8000BD4604B080BD000080B582B000AF786081
:100D900039603A68074978680123FFF74EFF031E60
:100DA00002D001235B4200E000231800BD4602B0E0
:100DB00080BDC0460720000080B584B000AF7860D9
:100DC00039600F23FA18164978680123FFF735FFB9
:100DD000031E02D001235B421DE03B681B785BB21F
:100DE000012213405AB20F203B181B785BB201213D
:100DF0008B435BB213435BB2DAB23B181A703A18FA
:100E0000074978680123FFF737FF031E02D001234B
:100E10005B4200E000231800BD4604B080BDC04620
:100E20000620000080B582B000AF786039603A6873
:100E3000074978680123FFF700FF031E02D0012352
:100E40005B4200E000231800BD4602B080BDC046F2
:100E50000620000080B582B000AF786039603A6843
:100E6000786801230021FFF7E8FE031E02D001236A
:100E70005B4200E000231800BD4602B080BD80B593
:100E800082B000AF786039603A6878680123002149
:100E9000FFF7F2FE031E02D001235B4200E00023B5
:100EA0001800BD4602B080BD80B584B000AF786048
:100EB00039600F23FA18786801230221FFF7BDFE7D
:100EC000031E02D001235B421DE03B681B785BB22E
:100ED000012213405AB20F203B181B785BB201214C
:100EE0008B435BB213435BB2DAB23B181A703A1809
:100EF000786801230221FFF7BFFE031E02D0012301
:100F00005B4200E000231800BD4604B080BD000035
:100F100080B584B000AF786039600F23FA181649A5
:100F200078680123FFF789FE031E02D001235B428C
:100F30001DE03B681B785BB2012213405AB20F20C0
:100F40003B181B785BB201218B435BB213435BB24E
:100F5000DAB23B181A703A18074978680123FFF78C
:100F60008BFE031E02D001235B4200E00023180029
:100F7000BD4604B080BDC0460220000080B582B0EE
:100F800000AF786039603A680C4978680123FFF750
:100F900054FE031E02D001235B420BE03B681B782A
:100FA00001221340DAB23B681A703B681A783B683A
:100FB0001A7000231800BD4602B080BD0420000056
:100FC00080B584B000AF0200FB1D1A7014E00F233F
:100FD000FB1800221A7005E00F217B181A787B1885
:100FE00001321A700F23FB181B78002BF4D0FB1D65
:100FF0001A78FB1D013A1A70FB1D1B78002BE6D1F5
:10100000C046C046BD4604B080BD80B582B000AFCA
:1010100078607B68180000F0E3FDC046BD4602B072
:1010200080BD80B584B000AF0200FB1D1A700120A6
:10103000FFF7C6FF0F23FB1800221A7035E0A0232C
:10104000DB0500224021180001F02FF90120FFF7F5
:10105000B7FFFB1D1B785BB2002B07DAA023DB0573
:1010600001222021180001F020F906E0A023DB0571
:1010700000222021180001F018F9FA1DFB1D1B7831
:10108000DB1813700120FFF79BFFA023DB05012273
:101090004021180001F009F90120FFF791FF0F210D
:1010A0007B181A787B1801321A700F23FB181B78F3
:1010B000072BC4D9C046C046BD4604B080BD80B52C
:1010C00082B000AF00237B6000237B6011E08023AF
:1010D0005A00A023DB051100180001F0C9F8031E17
:1010E00001D101230BE00A20FFF78FFF7B6801335A
:1010F0007B607A68C8235B009A42E8D3002318001B
:10110000BD4602B080BD000080B582B000AF0200D5
:10111000FB1D1A70A023DB0500228021180001F0BE
:10112000C4F80B4B00220121180001F0BEF8FB1D92
:101130001B781800FFF775FFA023DB050122802133
:10114000180001F0B2F8C046BD4602B080BDC046EE
:101150000004005080B582B000AF0200FB1D1A7081
:10116000BB1D0A1C1A70FFF7AAFFA023DB05002293
:101170008021180001F099F8104B0022012118007D
:1011800001F093F8FB1D1B781800FFF74AFF0B4B8B
:1011900001220121180001F088F8BB1D1B781800FE
:1011A000FFF73FFFA023DB0501228021180001F09B
:1011B0007CF8C046BD4602B080BDC0460004005069
:1011C00090B585B000AF78600A00FB1C1A700F2440
:1011D0003B1900221A707B68BB60A023DB0500224C
:1011E0008021180001F061F81C4B00220121180039
:1011F00001F05BF8BB681B781800FFF712FFBB68B3
:101200000133BB60154B01220121180001F04DF89C
:101210003B1900221A700DE0BB681B781800FFF71D
:1012200000FFBB680133BB600F217B181A787B1865
:1012300001321A700F23FB181A78FB1C1B78013B34
:101240009A42E9DBA023DB0501228021180001F08E
:101250002CF8C046BD4605B090BDC0460004005005
:1012600080B586B000AFB9607A600F217B18021C90
:101270001A7000237B6100233B617B181B780722D7
:101280001340DBB2002B07D07B181B780722934357
:10129000DAB27B1808321A700F22BB18BA1812780B
:1012A000D2081A70FFF70BFFA023DB050022802174
:1012B000180000F0FAFF1C4B00220121180000F07A
:1012C000F4FF2420FFF7ADFE174B01220121180087
:1012D00000F0EBFF00237B6116E000233B610AE096
:1012E0007B681B781800FFF79CFE7B6801337B60EE
:1012F0003B6901333B610F23FB181B783A699A4223
:10130000EEDB7B6901337B617B69BA689A42E4D882
:10131000A023DB0501228021180000F0C6FFC04693
:10132000BD4606B080BDC0460004005080B584B004
:1013300000AF39601100FB1D021C1A70BB1D0A1C96
:101340001A700023FB600023BB60FB1D1B78072283
:101350001340DBB2002B07D0FB1D1B780722934301
:10136000DAB2FB1D08321A70FB1DFA1D1278D20882
:101370001A70FFF7A4FEA023DB05002280211800CD
:1013800000F093FF194B00220121180000F08DFF9F
:101390002420FFF746FE154B01220121180000F022
:1013A00084FF0023FB6012E00023BB6007E0BB1D4D
:1013B0001B781800FFF735FEBB680133BB60FB1DCF
:1013C0001B78BA689A42F2DBFB680133FB60FB686A
:1013D0003A689A42E8D8A023DB0501228021180050
:1013E00000F063FFC046BD4604B080BD000400505D
:1013F00080B500AFC0212220FFF7ACFE2020FFF710
:1014000083FEC046BD4680BDB0B586B000AF0500C6
:101410000C0010001900FB1D2A1C1A70BB1D221C99
:101420001A707B1D021C1A703B1D0A1C1A701421B5
:101430007B1844221A707B18FA1D12785A707B1898
:10144000BA1D12789A700C243B1945221A703B1968
:101450007A1D12785A703B193A1D12789A703A190F
:101460002823FB181B78D3703B192C22BA1812784A
:101470001A717B1803211800FFF7A2FE3B19052102
:101480001800FFF79DFEC046BD4606B0B0BD90B542
:1014900085B000AF040008001100FB1D221C1A706B
:1014A000BB1D021C1A707B1D0A1C1A700C217B18B4
:1014B0004E221A707B18FA1D12785A7008243B19B4
:1014C0004F221A703B19BA1D12785A703B197A1DB7
:1014D00012789A707B1802211800FFF771FE3B19F1
:1014E00003211800FFF76CFEC046BD4605B090BD55
:1014F00080B582B002AF154B04211800FFF760FEE3
:10150000134B04211800FFF75BFE124B0221180059
:10151000FFF756FE104B02211800FFF751FE0F4B4C
:1015200002211800FFF74CFE0023019300230093D3
:101530000023C72218210020FFF766FF0022C721E1
:101540000020FFF7A4FFC046BD4680BD1C00002060
:101550002000002024000020280000202C00002073
:1015600080B500AF0B4B00220221180000F09DFE59
:101570006420FFF74AFD074B01220221180000F00A
:1015800094FE6420FFF741FDFFF7B2FFC046BD4661
:1015900080BDC0460004005080B500AFC7212220A6
:1015A000FFF7D8FD2020FFF7AFFDFF20FFF7ACFDD0
:1015B000C046BD4680BD80B582B000AF78600A00ED
:1015C000FB1C1A70FB1C1A787B6811001800FFF7CF
:1015D000F7FDC046BD4602B080BD000080B500AF3B
:1015E000FFF7BEFF044B1F211800FFF7E4FFFFF7D2
:1015F000FFFEC046BD4680BD5861000880B582B080
:1016000000AF78600A00FB1C1A700022C72100207E
:10161000FFF73DFFFB1C1B78002B05D1FF22C821E3
:10162000C820FFF783FE05E07B681A00C821C820A8
:10163000FFF716FEFFF7B0FFC046BD4602B080BD03
:1016400080B586B000AF3B1D08221A603B1D144ACE
:101650005A603B1D0222DA603B1D00229A603A1D4F
:10166000A023DB051100180000F0B2FB0D4A0E4B61
:101670001100180003F0A8FB0C4A0B4B00211800C6
:1016800003F081FB00220021062000F06FFB062002
:1016900000F081FB00231800BD4606B080BDC046A7
:1016A0000000111003000006300000200D1B000890
:1016B00080B58AB000AF78600C217B18214A1A608F
:1016C0007B18214A5A607B18204A9A607B18204A6E
:1016D0001A617B181F4ADA607B181F4A5A617A1810
:1016E0001E4B11001800FEF7BBFE03007B627B6AF5
:1016F000002B02D001235B421FE0194B194A1A60EC
:10170000174B1B681B68002B10D0154B1B681B6800
:10171000124A1000984703007B627B6A002B0BD0B3
:101720000F4B00221A6001235B4206E00C4B0022A3
:101730001A6001235B4200E000231800BD460AB096
:1017400080BDC046C14700083D4800088D480008DC
:1017500041490008C9480008CD1B00084814002072
:10176000441400200000002080B582B000AF7860F3
:101770000A00BB1C1A800A4B1B681B69002B02D194
:1017800001235B4208E0064B1B681B69BA1C1188E9
:10179000044A1000984703001800BD4602B080BDFF
:1017A000441400204814002080B584B000AFF860D5
:1017B0003B1D19605A603B1D044819685A68FFF7C1
:1017C00025F803001800BD4604B080BD4814002071
:1017D00080B582B000AF78600A00FB1C1A70FB1C59
:1017E0001A78054B11001800FFF770F80300180075
:1017F000BD4602B080BDC0464814002080B582B00E
:1018000000AF786039603A68044B11001800FFF7A8
:1018100075F803001800BD4602B080BD48140020D2
:1018200080B582B000AF78600A00FB1C1A70FB1C08
:101830001A78054B11001800FFF785F8030018000F
:10184000BD4602B080BDC0464814002090B585B0AA
:1018500000AFF860B9601900BB1D1A803B1D0A1C5F
:101860001A803B1D1C88BB1D1A88B96804482300D8
:10187000FFF784F803001800BD4605B090BDC046D0
:101880004814002080B582B000AF786039603A68B3
:10189000044B11001800FFF799F803001800BD462B
:1018A00002B080BD4814002080B582B000AF7860DF
:1018B000044B1800FFF7AFF803001800BD4602B054
:1018C00080BDC0464814002080B582B000AF78606B
:1018D00039603A68044B11001800FFF7B0F80300B4
:1018E0001800BD4602B080BD4814002080B582B00B
:1018F00000AF7860044B1800FFF7ECF80300180005
:10190000BD4602B080BDC0464814002080B582B0FC
:1019100000AF786039603A68044B11001800FFF797
:10192000EDF803001800BD4602B080BD4814002049
:1019300080B500AF00F00AF8C046BD4680BD80B556
:1019400000AF00F079F8C046BD4680BD80B500AF5D
:10195000C0460020FFF7ACFE031EFAD1324B19003F
:101960000020FFF78FFF304B1B78002B0BD12F4B44
:1019700000221A602D4B00225A602C4B19685A68BD
:101980000020FFF711FF00210020FFF721FF0020BA
:10199000FFF78AFF264B19000020FFF72FFF244B8B
:1019A0001B78002B24D1204B19000020FFF76AFF81
:1019B0001D4B1B78002B0BD11C4B00221A601B4BBC
:1019C00000225A60194B19685A680020FFF7ECFE94
:1019D00001210020FFF724FF144B7B221A60134BD8
:1019E0007B225A60114B19685A680020FFF7DCFE11
:1019F0000020FFF77BFF0F4B180003F0F5FBFFF70C
:101A00001FFE0A4B00221A60084B00225A60074B47
:101A100019685A680020FFF7C7FEB0210020FFF7C1
:101A2000A3FEC046BD4680BD841400207C14002067
:101A30007A1400203C61000880B500AF2C4B1B7865
:101A4000DBB2012B51D12B4B19000020FFF73CFFDB
:101A5000284B9B78012B45D1274B19000020FFF71D
:101A600055FF254B1B8801339AB2234B1A80224B1A
:101A70001B88032B03D1214B00221A6021E01E4B4F
:101A80001B88C82B1DD1A023DB05012204211800CF
:101A900000F00BFC194B1B681A00194BD118C82316
:101AA00000220020FFF7D2FE144B1B68C8331A0037
:101AB000124B1A60A023DB0500220421180000F05D
:101AC000F4FB0E4B1B680F4A93420BD10B4B0022C9
:101AD0001A600B4B01211800FFF790FD0A4B18000C
:101AE00000F07EF8024B00221A70C046BD4680BD51
:101AF0008514002074140020701400208814002025
:101B00003800002088130000B80B000080B500AF3B
:101B1000024B01221A70C046BD4680BD85140020CC
:101B200080B582B000AFFB1D00221A700B4B1A6803
:101B30000A4B40210A431A60002000F011F8031EEE
:101B400003D0FB1D01221A7001E003F073F9FB1DA5
:101B50001B781800BD4602B080BDC0460020024080
:101B600090B585B000AF78600F243B1900221A7041
:101B70000F4B1B68FA2291001800FEF7C5FA03000C
:101B8000180000F018F9031E03D03B1901221A7047
:101B900006E0796801235B420022180000F0E6F8B5
:101BA0000F23FB181B781800BD4605B090BDC0463A
:101BB000C013002080B500AF034B1B685A1C024BBA
:101BC0001A60C046BD4680BD8C14002080B500AFB1
:101BD000024B1B681800BD4680BDC0468C14002017
:101BE00080B584B000AF7860FFF7F0FF0300BB6002
:101BF0007B68FB60FB68013302D0FB680133FB604C
:101C0000C046FFF7E3FF0200BB68D31AFA689A42A6
:101C1000F7D8C046C046BD4604B080BD80B582B08E
:101C200000AF0200FB1D1A70FB1D1B781A001F235A
:101C30001A40044B012191400A001A60C046BD467B
:101C400002B080BD00E100E090B583B000AF0200BB
:101C50003960FB1D1A70FB1D1B787F2B32D92F4A70
:101C6000FB1D1B7819000F230B40083B9B08063314
:101C70009B00D31804331B68FA1D1278110003224D
:101C80000A40D200FF2191400A00D2431A401100BD
:101C90003B689B01FF221A40FB1D1B7818000323A1
:101CA0000340DB009A401D48FB1D1B781C000F23DE
:101CB0002340083B9B080A4306339B00C3180433A8
:101CC0001A6027E0164AFB1D1B785BB29B08C033E5
:101CD0009B009B58FA1D1278110003220A40D20083
:101CE000FF2191400A00D2431A4011003B689B013A
:101CF000FF221A40FB1D1B78180003230340DB0062
:101D00009A400748FB1D1B785BB29B080A43C0330F
:101D10009B001A50C046BD4603B090BD00ED00E0E8
:101D200000E100E080B582B000AF78607B685A1EA9
:101D300080235B049A4201D3012310E00A4B7A68A6
:101D4000013A5A6001235B4203211800FFF77CFF30
:101D5000054B00229A60044B07221A6000231800EA
:101D6000BD4602B080BDC04610E000E080B584B042
:101D700000AFB9607A600F217B18021C1A70BA6834
:101D80007B181B785BB211001800FFF75DFFC0469F
:101D9000BD4604B080BD80B582B000AF0200FB1D1F
:101DA0001A70FB1D1B785BB21800FFF737FFC046A7
:101DB000BD4602B080BD80B582B000AF78607B6860
:101DC0001800FFF7AFFF03001800BD4602B080BD4A
:101DD00080B586B000AF7860396000237B61002356
:101DE000FB6000233B614FE13B681B6801217A697E
:101DF00091400A001340FB60FB68002B00D140E1DA
:101E00003B685B68022B03D03B685B68122B23D1D5
:101E10007B69DA087B6808329200D3583B617B69A2
:101E2000072213409B000F229A401300DA433B69BC
:101E300013403B613B681A697B6907210B409B009B
:101E40009A4013003A6913433B617B69DA087B6867
:101E5000083292003969D1503B685B68012B0BD086
:101E60003B685B68022B07D03B685B68112B03D093
:101E70003B685B68122B30D17B689B683B617B6958
:101E80005B0003229A401300DA433B6913403B6135
:101E90003B68DA687B695B009A4013003A69134338
:101EA0003B617B683A699A607B685B683B610122B1
:101EB0007B699A401300DA433B6913403B613B68FE
:101EC0005B681B0901221A407B699A4013003A693A
:101ED00013433B617B683A695A607B681B683B61CE
:101EE0007B695B0003229A401300DA433B6913408D
:101EF0003B613B685B6803221A407B695B009A4048
:101F000013003A6913433B617B683A691A607B6846
:101F1000DB683B617B695B0003229A401300DA4374
:101F20003B6913403B613B689A687B695B009A4060
:101F300013003A6913433B617B683A69DA603B6896
:101F40005A6880235B05134000D19AE0544B5A6BCA
:101F5000534B01210A435A63524A7B699B0802335F
:101F60009B009B583B617B69032213409B000F221F
:101F70009A401300DA433B6913403B617A68A0231F
:101F8000DB059A4219D07B68474A934213D07B689D
:101F9000464A93420DD07B68454A934207D07B68FE
:101FA000444A934201D1052308E0062306E00323B7
:101FB00004E0022302E0012300E000237A69032108
:101FC0000A40920093403A6913433B6135497B696B
:101FD0009B0802339B003A695A50374B1B683B61A0
:101FE000FB68DA433B6913403B613B685A688023D6
:101FF0005B02134003D03A69FB6813433B612E4BED
:102000003A691A602C4B5B683B61FB68DA433B69B9
:1020100013403B613B685A6880239B02134003D006
:102020003A69FB6813433B61234B3A695A60224B80
:102030009B683B61FB68DA433B6913403B613B684B
:102040005A6880235B03134003D03A69FB6813434B
:102050003B61194B3A699A60174BDB683B61FB683F
:10206000DA433B6913403B613B685A6880239B031A
:10207000134003D03A69FB6813433B610E4B3A6946
:10208000DA607B6901337B613B681A687B69DA40FF
:10209000131E00D0A8E6C046C046BD4606B080BDAF
:1020A00000100240000001400004005000080050F1
:1020B000000C0050001C00500004014080B586B0A8
:1020C00000AF7860396000237B6100233B6100230F
:1020D000FB60B6E001227B699A403B6813403B619C
:1020E0003B69002B00D1A9E07B681A687B695B0023
:1020F000032199400B001A437B681A607B69DA0858
:102100007B6808329200D3587A6907210A4092000E
:102110000F2191400A00D1437A69D20819407B68A7
:1021200008329200D1507B689B687A695200032183
:1021300091400A00D2431A407B689A607B685B68D2
:1021400001217A6991400A00D2431A407B685A60A3
:102150007B68DB687A695200032191400A00D24310
:102160001A407B68DA603C4A7B699B0802339B001B
:102170009B58FB607B69032213409B000F229A400F
:10218000FB681340FB607A68A023DB059A4219D0F4
:102190007B68324A934213D07B68314A93420DD018
:1021A0007B68304A934207D07B682F4A934201D123
:1021B000052308E0062306E0032304E0022302E0EF
:1021C000012300E000237A6903210A409200934032
:1021D000FA689A4232D17B69032213409B000F2296
:1021E0009A401300FB601C4A7B699B0802339B00EA
:1021F0009A58FB68D94318487B699B080A40023308
:102200009B001A50194B1A683B69D943174B0A4077
:102210001A60164B5A683B69D943144B0A405A60FE
:10222000124B9A683B69D943104B0A409A600F4B96
:10223000DA683B69D9430D4B0A40DA607B690133A8
:102240007B613A687B69DA40131E00D042E7C046E2
:10225000C046BD4606B080BD0000014000040050ED
:1022600000080050000C0050001C00500004014009
:1022700080B584B000AF78600A00BB1C1A807B6810
:102280001B69BA1C1288134004D00F23FB180122CB
:102290001A7003E00F23FB1800221A700F23FB189B
:1022A0001B781800BD4604B080BD80B582B000AF79
:1022B000786008001100BB1C021C1A807B1C0A1CE1
:1022C0001A707B1C1B78002B04D0BB1C1A887B68FF
:1022D0009A6103E0BB1C1A887B689A62C046BD46BF
:1022E00002B080BD80B582B000AF78607B68002B03
:1022F00001D1012382E07B6841229B5CDBB2002B91
:1023000007D17B684022002199547B68180000F0B7
:10231000AFF87B684122242199547B681B681A68B6
:102320007B681B6801218A431A607B685A687B6856
:102330001B6834490A401A617B681B689A687B688D
:102340001B6831490A409A607B68DB68012B08D121
:102350007B689A687B681B68802109020A439A603F
:1023600007E07B689A687B681B68842109020A433E
:102370009A607B68DB68022B04D17B681B68802233
:1023800012015A607B681B685A687B681B681F498A
:102390000A435A607B681B68DA687B681B681A49C5
:1023A0000A40DA607B681A697B685B691A4311002E
:1023B0007B689B691A027B681B680A43DA607B684A
:1023C000D9697B681A6A7B681B680A431A607B6854
:1023D0001B681A687B681B6801210A431A607B68C6
:1023E00000225A647B684122202199547B68002294
:1023F0001A637B6842220021995400231800BD46CD
:1024000002B080BDFFFFFFF0FF7FFFFF00800002F2
:1024100080B582B000AF78607B68002B01D10123CA
:1024200022E07B684122242199547B681B681A684A
:102430007B681B6801218A431A607B68180000F0E2
:102440001FF87B6800225A647B684122002199545E
:102450007B6800221A637B684222002199547B68C2
:1024600040220021995400231800BD4602B080BDCF
:1024700080B582B000AF7860C046BD4602B080BD76
:1024800080B582B000AF7860C046BD4602B080BD66
:1024900090B589B002AFF8600C00100019000A2353
:1024A000FB18221C1A800823FB18021C1A80BB1D73
:1024B0000A1C1A80FB6841229B5CDBB2202B00D0F7
:1024C0000CE1BB6A002B04D02C23FB181B88002BCB
:1024D00005D1FB68802292005A640123FFE0FB686B
:1024E00040229B5C012B01D10223F8E0FB684022D3
:1024F00001219954FFF76AFB03007B6180231902D5
:10250000F8687B6900931923012200F03BFC031E4D
:1025100001D00123E3E0FB68412221219954FB68AB
:10252000422240219954FB6800225A64FB68BA6A2F
:102530005A62FB682C22BA1812885A85FB6800225E
:102540005A63BB1D1C880823FB181A880A23FB1832
:102550001988F8687B6901933B6B0093230000F0B6
:1025600029FB031E05D0FB6840220021995401235A
:10257000B5E0FB685B8D9BB2FF2B11D9FB68FF2296
:102580001A85FB681B8DDAB280235C040A23FB18D2
:102590001988F86800230093230000F013FD12E06F
:1025A000FB685B8D9AB2FB681A85FB681B8DDAB2FB
:1025B00080239C040A23FB181988F86800230093E1
:1025C000230000F0FFFC7A69396BFB68180000F00B
:1025D00018FC031E01D0012381E0FB685B6A1A78B6
:1025E000FB681B689A62FB685B6A5A1CFB685A624C
:1025F000FB685B8D9BB2013B9AB2FB685A85FB6816
:102600001B8D013B9AB2FB681A85FB685B8D9BB200
:10261000002B3AD0FB681B8D002B36D13A6BF86843
:102620007B69009313000022802100F0ABFB031EA6
:1026300001D0012353E0FB685B8D9BB2FF2B11D9C6
:10264000FB68FF221A85FB681B8DDAB280235C04CD
:102650000A23FB181988F86800230093230000F070
:10266000B1FC12E0FB685B8D9AB2FB681A85FB68CF
:102670001B8DDAB280239C040A23FB181988F868A2
:1026800000230093230000F09DFCFB685B8D9BB250
:10269000002B98D17A69396BFB68180000F0F0FBC9
:1026A000031E01D001231AE0FB681B682022DA61B7
:1026B000FB681B685A68FB681B680B490A405A6034
:1026C000FB68412220219954FB6842220021995441
:1026D000FB68402200219954002300E002231800E7
:1026E000BD4607B090BDC04600E800FE90B589B079
:1026F00002AFF8600C00100019000A23FB18221C1E
:102700001A800823FB18021C1A80BB1D0A1C1A80A1
:10271000FB6841229B5CDBB2202B00D010E1BB6A3E
:10272000002B04D02C23FB181B88002B05D1FB6841
:10273000802292005A64012303E1FB6840229B5CE3
:10274000012B01D10223FCE0FB68402201219954B6
:10275000FFF73CFA03007B6180231902F8687B696C
:1027600000931923012200F00DFB031E01D0012369
:10277000E7E0FB68412222219954FB684222402174
:102780009954FB6800225A64FB68BA6A5A62FB6873
:102790002C22BA1812885A85FB6800225A63BB1D86
:1027A0001C880823FB181A880A23FB181988F86864
:1027B0007B6901933B6B0093230000F05FFA031EDB
:1027C00005D0FB684022002199540123B9E0FB6841
:1027D0005B8D9BB2FF2B11D9FB68FF221A85FB682A
:1027E0001B8DDAB280235C040A23FB181988F86871
:1027F000564B0093230000F0E5FB12E0FB685B8D75
:102800009AB2FB681A85FB681B8DDAB280239C04A0
:102810000A23FB181988F8684C4B0093230000F03A
:10282000D1FB3A6BF8687B69009313000022042106
:1028300000F0A8FA031E01D0012382E0FB681B68A8
:102840005A6AFB685B6AD2B21A70FB685B6A5A1CF0
:10285000FB685A62FB681B8D013B9AB2FB681A85C4
:10286000FB685B8D9BB2013B9AB2FB685A85FB68A3
:102870005B8D9BB2002B3AD0FB681B8D002B36D1B1
:102880003A6BF8687B69009313000022802100F006
:1028900079FA031E01D0012353E0FB685B8D9BB2E4
:1028A000FF2B11D9FB68FF221A85FB681B8DDAB25A
:1028B00080235C040A23FB181988F868002300931E
:1028C000230000F07FFB12E0FB685B8D9AB2FB688F
:1028D0001A85FB681B8DDAB280239C040A23FB183F
:1028E0001988F86800230093230000F06BFBFB6855
:1028F0005B8D9BB2002B94D17A69396BFB68180011
:1029000000F0BEFA031E01D001231AE0FB681B6829
:102910002022DA61FB681B685A68FB681B680C4957
:102920000A405A60FB68412220219954FB684222E8
:1029300000219954FB68402200219954002300E0B3
:1029400002231800BD4607B090BDC0460024008099
:1029500000E800FE80B58AB002AFF8607A603B60A4
:102960000A23FB180A1C1A8000237B61FB684122A2
:102970009B5CDBB2202B00D0FEE0FB681B689A69F1
:1029800080231B021A4080231B029A4201D102239A
:10299000F3E0FB6840229B5C012B01D10223ECE0B9
:1029A000FB68402201219954FB684122242199545B
:1029B000FB6800225A64FB68DB68012B07D10A23FD
:1029C000FB181B889B059B0D6E4A1A4307E00A23E0
:1029D000FB181B889B059B0DA02292011A43FB68E4
:1029E0001B685A60FFF7F2F80300BB61FB681B68C5
:1029F0009B6920221340203B5A425341DAB21F23E5
:102A0000FB181A70FB681B689B6910221340103B6F
:102A10005A425341DAB21E23FB181A7035E03B6864
:102A200001331AD0FFF7D2F80200BB69D31A3A6813
:102A30009A4202D33B68002B0FD1FB684122202130
:102A40009954FB685B6C20221A43FB685A64FB684C
:102A500040220021995401238FE0FB681B689B6989
:102A600020221340203B5A425341DAB21F23FB1865
:102A70001A70FB681B689B6910221340103B5A4276
:102A80005341DAB21E23FB181A701F23FB181B7860
:102A9000002B04D11E23FB181B78002BBFD0FB6832
:102AA0001B689B6910221340102B1AD03A68F868F3
:102AB000BB69009313000022202100F063F9031E7C
:102AC00001D0012359E0FB681B682022DA61FB6812
:102AD000412220219954FB6840220021995400236F
:102AE0004BE03A68F868BB6900931300002220218C
:102AF00000F048F9031E01D001233EE0FB681B688B
:102B00001022DA61FB681B682022DA617B697A682F
:102B10009A4219D1FB681B685A68FB681B688021C0
:102B2000C9010A435A603A68F868BB690093130008
:102B30000022202100F026F9031E01D001231CE011
:102B4000FB681B682022DA617B6901337B617B694A
:102B50007A689A4200D92EE7FB68412220219954D5
:102B6000FB685B6C20221A43FB685A64FB684022B6
:102B700000219954012300E002231800BD4608B04B
:102B800080BDC0460020000280B582B000AF7860F2
:102B90007B6841229B5CDBB21800BD4602B080BD61
:102BA00080B582B000AF78607B685B6C1800BD4672
:102BB00002B080BDB0B586B002AFF8600C00100066
:102BC00019000A257B19221C1A800823FB18021CF5
:102BD0001A80BB1D0A1C1A80BB1D1B88DAB2802319
:102BE0005C047B191988F868234B0093230000F0DC
:102BF000E9F97A6A396AFB68180000F002F9031EE5
:102C000001D0012333E0BB1D1B88012B07D1082312
:102C1000FB181B88DAB2FB681B689A6219E008236C
:102C2000FB181B881B0A9BB2DAB2FB681B689A620E
:102C30007A6A396AFB68180000F0E3F8031E01D0D5
:102C4000012314E00823FB181B88DAB2FB681B6819
:102C50009A623A6AF8687B6A009313000022802126
:102C600000F090F8031E01D0012300E000231800BB
:102C7000BD4604B0B0BDC04600200080B0B586B0EF
:102C800002AFF8600C00100019000A257B19221C05
:102C90001A800823FB18021C1A80BB1D0A1C1A800C
:102CA000BB1D1B88DAB27B191988F868234B009387
:102CB000002300F087F97A6A396AFB68180000F08F
:102CC000A0F8031E01D0012333E0BB1D1B88012B9C
:102CD00007D10823FB181B88DAB2FB681B689A62CD
:102CE00019E00823FB181B881B0A9BB2DAB2FB68A9
:102CF0001B689A627A6A396AFB68180000F081F8EA
:102D0000031E01D0012314E00823FB181B88DAB24C
:102D1000FB681B689A623A6AF8687B6A0093130042
:102D20000022402100F02EF8031E01D0012300E014
:102D300000231800BD4604B0B0BDC046002000808E
:102D400080B582B000AF78607B681B689B69022207
:102D50001340022B03D17B681B6800229A627B68B8
:102D60001B689B6901221340012B07D07B681B68FD
:102D70009A697B681B6801210A439A61C046BD4677
:102D800002B080BD80B584B000AFF860B9603B6030
:102D9000FB1D1A7021E03B6801331ED0FEF716FFC1
:102DA0000200BB69D31A3A689A4202D33B68002BEF
:102DB00013D1FB685B6C20221A43FB685A64FB68E2
:102DC000412220219954FB68422200219954FB683A
:102DD00040220021995401230FE0FB681B689B6986
:102DE000BA681340BA68D31A5A425341DBB21A0088
:102DF000FB1D1B789A42CED000231800BD4604B0BC
:102E000080BD80B584B000AFF860B9607A602BE017
:102E10007A68B968FB68180000F06EF8031E01D0EC
:102E2000012329E0BB6801331ED0FEF7CFFE02006C
:102E30007B68D31ABA689A4202D3BB68002B13D1BD
:102E4000FB685B6C20221A43FB685A64FB684122D2
:102E500020219954FB68422200219954FB684022AA
:102E600000219954012307E0FB681B689B6902223B
:102E70001340022BCCD100231800BD4604B080BD06
:102E800080B584B000AFF860B9607A6028E07A68F5
:102E9000B968FB68180000F02FF8031E01D0012369
:102EA00026E0FEF793FE02007B68D31ABA689A42C6
:102EB00002D3BB68002B13D1FB685B6C20221A4342
:102EC000FB685A64FB68412220219954FB68422226
:102ED00000219954FB68402200219954012307E006
:102EE000FB681B689B6920221340202BCFD1002355
:102EF0001800BD4604B080BD80B584B000AFF86056
:102F0000B9607A60FB681B689B6910221340102B24
:102F100051D121E0BB6801331ED0FEF757FE0200FD
:102F20007B68D31ABA689A4202D3BB68002B13D1CC
:102F3000FB685B6C20221A43FB685A64FB684122E1
:102F400020219954FB68422200219954FB684022B9
:102F50000021995401232FE0FB681B689B69202204
:102F60001340202BD6D1FB681B681022DA61FB6866
:102F70001B682022DA61FB681800FFF7E1FEFB689E
:102F80001B685A68FB681B680D490A405A60FB6859
:102F90005B6C04221A43FB685A64FB6841222021BF
:102FA0009954FB68422200219954FB684022002179
:102FB0009954012300E000231800BD4604B080BDF1
:102FC00000E800FE90B585B000AFF8600800110081
:102FD0007B600A243B19021C1A8009203B180A1C3A
:102FE0001A70FB681B685B683A6A510D8022D20038
:102FF0000A400E490A43D2431A4011003B191B886C
:103000009B059A0D3B181B781804FF231B040340F3
:103010001A437B681A433B6A1A43FB681B680A43DE
:103020005A60C046BD4605B090BDC046FF63FF0371
:1030300080B582B000AF786039607B6841229B5CCC
:10304000DBB2202B38D17B6840229B5C012B01D165
:10305000022332E07B684022012199547B6841229F
:10306000242199547B681B681A687B681B680121BE
:103070008A431A607B681B681A687B681B68114961
:103080000A401A607B681B6819687B681B683A688D
:103090000A431A607B681B681A687B681B680121F9
:1030A0000A431A607B684122202199547B684022A0
:1030B00000219954002300E002231800BD4602B00D
:1030C00080BDC046FFEFFFFF80B584B000AF7860E1
:1030D00039607B6841229B5CDBB2202B39D17B6855
:1030E00040229B5C012B01D1022333E07B6840220C
:1030F000012199547B684122242199547B681B68E3
:103100001A687B681B6801218A431A607B681B6808
:103110001B68FB60FB68114A1340FB603B681B02A5
:10312000FA681343FB607B681B68FA681A607B6867
:103130001B681A687B681B6801210A431A607B6858
:103140004122202199547B68402200219954002378
:1031500000E002231800BD4604B080BDFFF0FFFF71
:10316000B0B58AB000AF78607B68002B02D1012334
:1031700000F056FBCD4BDB680C2213403B62CB4B7F
:10318000DA6880235B021340FB617B681B680122C5
:10319000134000D17CE03B6A082B07D03B6A0C2B24
:1031A00011D1FA6980235B029A420CD1BF4B1A6895
:1031B00080239B02134000D169E07B685B68002B91
:1031C00065D101232CE37B685A6880235B029A4215
:1031D00007D1B64B1A68B54B802149020A431A60E1
:1031E00027E07B685A68A023DB029A420ED1AF4BDE
:1031F0001A68AE4B8021C9020A431A60AB4B1A68A9
:10320000AA4B802149020A431A6012E0A74B1A68B0
:10321000A64BA7490A401A60A44B1A6880235B0298
:103220001340FB60FB68A14B1A68A04BA1490A4000
:103230001A607B685B68002B14D0FEF7C7FC0300A4
:10324000BB6108E0FEF7C2FC0200BB69D31A642B25
:1032500001D90323E4E2954B1A6880239B021340B3
:10326000F0D015E0FEF7B2FC0300BB6108E0FEF70A
:10327000ADFC0200BB69D31A642B01D90323CFE252
:103280008A4B1A6880239B021340F0D100E0C046AD
:103290007B681B680222134000D18AE07B68DB68F0
:1032A0007B613B6A042B05D03B6A0C2B3DD1FB694B
:1032B000002B3AD17D4B1B680422134004D07B695C
:1032C000002B01D10123ABE2784B5B687A4A1340B3
:1032D00019007B681B691A02744B0A435A60734BCE
:1032E0001B68092293431900704B7A690A431A60DC
:1032F00000F0C6FB01006D4BDB681B090F22134079
:103300006E4AD35C0A00DA406D4B1A6013257C19B3
:103310000020FEF725FC030023702A00BB181B7851
:10332000002B46D0BB181B787AE27B69002B27D094
:103330005E4B1B680922934319005C4B7A690A4370
:103340001A60FEF743FC0300BB6108E0FEF73EFC99
:103350000200BB69D31A022B01D9032360E2534B4D
:103360001B6804221340F1D0504B5B68524A134053
:1033700019007B681B691A024C4B0A435A6018E01B
:103380004A4B1A68494B01218A431A60FEF71EFC1A
:103390000300BB6108E0FEF719FC0200BB69D31A09
:1033A000022B01D903233BE2404B1B68042213404C
:1033B000F1D17B681B681022134000D19EE03B6A6C
:1033C000002B3FD1394B1A6880239B00134005D056
:1033D0007B689B69002B01D1012321E2334B5B68A1
:1033E000384A134019007B681A6A304B0A435A6006
:1033F0002E4B5B681B02190A7B68DB691A062B4B94
:103400000A435A607B681B6A5B0B013380221202FD
:103410009A40264BDB681B090F210B402749CB5CE8
:10342000DA40274B1A6013257C190020FEF798FB21
:10343000030023702A00BB181B78002B5ED0BB183A
:103440001B78EDE17B689B69002B3DD0174B1A6818
:10345000164B802149000A431A60FEF7B7FB0300B0
:10346000BB6108E0FEF7B2FB0200BB69D31A022B76
:1034700001D90323D4E10D4B1A6880239B0013402C
:10348000F0D00A4B5B680F4A134019007B681A6A38
:10349000064B0A435A60054B5B681B02190A7B689E
:1034A000DB691A06014B0A435A6027E0001002400C
:1034B000FFFFFEFFFFFFFBFFFFE0FFFFC061000813
:1034C000C0130020FF1FFFFFBE4B1A68BD4BBE4953
:1034D0000A401A60FEF77AFB0300BB6108E0FEF7C2
:1034E00075FB0200BB69D31A022B01D9032397E1B4
:1034F000B44B1A6880239B001340F0D17B681B6893
:103500000822134036D07B685B69002B19D0AD4B85
:103510001A6DAC4B01210A431A65FEF757FB0300F5
:10352000BB6108E0FEF752FB0200BB69D31A022B15
:1035300001D9032374E1A34B1B6D02221340F1D088
:1035400018E0A04B1A6D9F4B01218A431A65FEF7C4
:103550003DFB0300BB6108E0FEF738FB0200BB69DE
:10356000D31A022B01D903235AE1964B1B6D022279
:103570001340F1D17B681B680422134000D1AEE0F8
:1035800027203B1800221A708E4B9A6B80235B0514
:10359000134009D18B4B9A6B8A4B802149050A4312
:1035A0009A633B1801221A70884B1A6880235B00CB
:1035B00013401AD1854B1A68844B802149000A4375
:1035C0001A60FEF703FB0300BB6108E0FEF7FEFA9A
:1035D0000200BB69D31A642B01D9032320E17B4B82
:1035E0001A6880235B001340F0D07B689A688023C0
:1035F0005B009A4207D1734B1A6D724B80214900D0
:103600000A431A6531E07B689B68002B0CD16D4B37
:103610001A6D6C4B6C490A401A656A4B1A6D694BFE
:103620006B490A401A6520E07B689A68A023DB009A
:103630009A420ED1634B1A6D624B8021C9000A4336
:103640001A65604B1A6D5F4B802149000A431A6569
:103650000BE05C4B1A6D5B4B5B490A401A65594B9A
:103660001A6D584B5A490A401A657B689B68002BB3
:1036700015D0FEF7ABFA0300BB6109E0FEF7A6FA2E
:103680000200BB69D31A534A934201D90323C7E00E
:103690004C4B1A6D80239B001340EFD014E0FEF7D3
:1036A00095FA0300BB6109E0FEF790FA0200BB69DE
:1036B000D31A484A934201D90323B1E0414B1A6D12
:1036C00080239B001340EFD12723FB181B78012B8D
:1036D00005D13C4B9A6B3B4B3F490A409A637B6850
:1036E0005B6A002B00D19AE03B6A0C2B64D07B68AC
:1036F0005B6A022B45D1334B1A68324B37490A407B
:103700001A60FEF763FA0300BB6108E0FEF75EFA99
:103710000200BB69D31A022B01D9032380E0294B95
:103720001A6880239B041340F0D1264BDB682C4A97
:10373000134019007B689A6A7B68DB6A1A437B68CE
:103740001B6B1A431F4B0A43DA601E4B1A681D4B52
:10375000802149040A431A60FEF738FA0300BB616E
:1037600008E0FEF733FA0200BB69D31A022B01D935
:10377000032355E0134B1A6880239B041340F0D0B9
:103780004DE0104B1A680F4B14490A401A60FEF7BF
:103790001DFA0300BB6108E0FEF718FA0200BB69DE
:1037A000D31A022B01D903233AE0064B1A6880236F
:1037B0009B041340F0D132E07B685B6A012B11D18E
:1037C00001232DE000100240FFFEFFFF00700040CB
:1037D000FFFBFFFF88130000FFFFFFEFFFFFFFFE6F
:1037E000FFFF02FF104BDB68FB61FA6980235B027D
:1037F0001A407B689B6A9A420FD1FA69F0239B03B7
:103800001A407B68DB6A9A4207D1FA69C0231B041D
:103810001A407B681B6B9A4201D0012300E0002311
:103820001800BD460AB0B0BD00100240B0B584B06B
:1038300000AF786039607B68002B01D101230DE176
:10384000884B1B68012213403A689A4211D9854B74
:103850001B68012293431900824B3A680A431A609D
:10386000804B1B68012213403A689A4201D0012321
:10387000F4E07B681B680222134009D07A4BDB68B6
:10388000F022934319007B689A68774B0A43DA6009
:103890007B681B680122134000D189E07B685B686C
:1038A000022B07D1704B1A6880239B02134020D152
:1038B0000123D3E07B685B68032B07D16A4B1A684E
:1038C00080239B04134014D10123C7E07B685B680D
:1038D000012B06D1644B1B680422134009D101233C
:1038E000BCE0614B1A6880239B00134001D1012387
:1038F000B4E05D4BDB680322934319007B685A6890
:10390000594B0A43DA60FEF761F90300FB607B68FC
:103910005B68022B11D109E0FEF758F90200FB6841
:10392000D31A524A934201D9032397E04E4BDB68E6
:103930000C221340082BEFD13AE07B685B68032B25
:1039400011D109E0FEF742F90200FB68D31A474A99
:10395000934201D9032381E0434BDB680C221340DF
:103960000C2BEFD124E07B685B68012B1BD109E0B5
:10397000FEF72CF90200FB68D31A3C4A934201D9A6
:1039800003236BE0384BDB680C221340042BEFD190
:103990000EE0FEF71BF90200FB68D31A334A93428C
:1039A00001D903235AE0304BDB680C221340F0D1DD
:1039B0002C4B1B68012213403A689A4211D2294BC2
:1039C0001B68012293431900264B3A680A431A6088
:1039D000244B1B68012213403A689A4201D001230C
:1039E0003CE07B681B680422134009D01E4BDB6857
:1039F0001F4A134019007B68DA681B4B0A43DA60E0
:103A00007B681B68082213400AD0174BDB68194AF1
:103A1000134019007B681B69DA00134B0A43DA6014
:103A200000F02EF80100104BDB681B090F22134039
:103A3000114AD35C0A00DA40104B1A600B257C193E
:103A40000020FEF78DF8030023702A00BB181B78B6
:103A5000002B02D0BB181B7800E000231800BD46E5
:103A600004B0B0BD002002400010024088130000E6
:103A7000FFF8FFFFFFC7FFFFC0610008C013002071
:103A800080B586B000AF3C4BDB68FB60FB680C2266
:103A900013400C2B13D05CD8042B02D0082B0BD076
:103AA00057E0354B1B681022134002D0334B3B616B
:103AB0005DE0334B3B615AE0324B3B6157E0FB68C2
:103AC0009B0C0F221340304AD35CBB60FB689B0DFC
:103AD0000322134001337B60274BDA6880235B02AB
:103AE00013400FD0B9680A005201521A93019B1A71
:103AF000DB005B185B0279681800FCF705FB03002C
:103B00007B6123E01C4B1B68102213400FD0B96867
:103B10000A005201521A93019B1ADB005B181B0228
:103B200079681800FCF7F0FA03007B610EE0B968D1
:103B30000A005201521A93019B1ADB005B189B0288
:103B400079681800FCF7E0FA03007B617B693B6150
:103B50000DE0094B5B685B0B072213403B603B6841
:103B60000133802212029A4013003B61C0463B6938
:103B70001800BD4606B080BD0010024000093D009F
:103B80000024F40000127A00D861000880B500AF6C
:103B9000024B1B681800BD4680BDC046C013002004
:103BA00080B500AFFFF7F2FF0100064BDB681B0A90
:103BB00007221340044AD35CD9400B001800BD46CD
:103BC00080BDC04600100240D061000880B500AF43
:103BD000FFF7DCFF0100064BDB68DB0A072213401E
:103BE000044AD35CD9400B001800BD4680BDC046D6
:103BF00000100240D061000880B586B000AF786048
:103C00007B681B682022134000D1C6E017203B18B8
:103C100000221A70894B9A6B80235B05134009D1EF
:103C2000864B9A6B854B802149050A439A633B1862
:103C300001221A70824B1A6880235B0013401AD14C
:103C40007F4B1A687E4B802149000A431A60FDF7BA
:103C5000BDFF03003B6108E0FDF7B8FF02003B69D0
:103C6000D31A642B01D90323E3E0754B1A68802330
:103C70005B001340F0D0714B1A68C0239B031340C4
:103C8000FB607B685A68C0239B031340FA689A4222
:103C900013D07B685A68C0239B021A40C0239B0242
:103CA0009A420AD1654B1A6880239B021A408023EE
:103CB0009B029A4201D10123BBE0604B1A6DC023E5
:103CC0009B021340FB60FB68002B3BD07B685A686B
:103CD000C0239B021340FA689A4233D07B681B686A
:103CE000202213402ED0554B1B6D564A1340FB60CB
:103CF000524B1A6D514B802109030A431A654F4BF1
:103D00001A6D4E4B50490A401A654C4BFA681A65B9
:103D1000FA6880235B00134014D0FDF757FF0300BF
:103D20003B6109E0FDF752FF02003B69D31A474AA5
:103D3000934201D903237CE0404B1A6D80239B0002
:103D40001340EFD07B685A68C0239B021A40C023FF
:103D50009B029A420CD1394B1B683D4A1340190013
:103D60007B685A68C0239B031A40344B0A431A608D
:103D7000324B196D7B685A68C0239B021A402F4B47
:103D80000A431A651723FB181B78012B05D12B4B0F
:103D90009A6B2A4B2F490A409A637B681B68012261
:103DA000134009D0254BDB6C0322934319007B6839
:103DB0009A68224B0A43DA647B681B68022213402C
:103DC00009D01E4BDB6C0C22934319007B68DA6828
:103DD0001A4B0A43DA647B681B680422134009D03B
:103DE000164BDB6C1C4A134019007B681A69134B95
:103DF0000A43DA647B681B680822134009D00F4B22
:103E0000DB6C164A134019007B685A690B4B0A4356
:103E1000DA647B681B688022134009D0074BDB6C97
:103E20000F4A134019007B689A69044B0A43DA640D
:103E300000231800BD4606B080BDC04600100240F9
:103E400000700040FFFFFCFFFFFFF7FF881300003A
:103E5000FFFFCFFFFFFFFFEFFFF3FFFFFFCFFFFFEE
:103E6000FFFFF3FF80B582B000AF78607B68002B66
:103E700001D1012344E07B685B6F002B07D17B6895
:103E80007022002199547B68180001F00DF97B68BD
:103E900024225A677B681B681A687B681B680121AB
:103EA0008A431A607B68180000F030F80300012B89
:103EB00001D1012324E07B685B6A002B03D07B687F
:103EC000180000F03BFB7B681B685A687B681B6826
:103ED0000D490A405A607B681B689A687B681B68BA
:103EE0002A218A439A607B681B681A687B681B6872
:103EF00001210A431A607B68180000F0D3FB03001D
:103F00001800BD4602B080BDFFB7FFFFB0B58EB050
:103F100000AFF8611B2318229446BC44634410226E
:103F20001A700023FB62132318229446BC44634496
:103F300000221A7000237B62FB699A68FB691B6987
:103F40001A43FB695B691A43FB69DB6913437B63B3
:103F5000FB691B681B68C04A13401900FB691B689A
:103F60007A6B0A431A60FB691B685B68BB4A1340A3
:103F70001900FB69DA68FB691B680A435A60FB6930
:103F80009B697B63FB691B68B54A934204D0FB695C
:103F90001B6A7A6B13437B63FB691B689B68B14A9E
:103FA00013401900FB691B687A6B0A439A60FB692E
:103FB0001B68AD4A934236D1AC4BDB6C03221340F5
:103FC000032B20D027D8022B0DD024D8002B02D0D1
:103FD000012B10D01FE01B2318229446BC446344DD
:103FE00001221A70ABE01B2318229446BC446344A0
:103FF00002221A70A3E01B2318229446BC44634497
:1040000004221A709BE01B2318229446BC4463448C
:1040100008221A7093E01B2318229446BC44634480
:1040200010221A708BE0FB691B68914A934236D1CB
:104030008E4BDB6C0C2213400C2B20D027D8082B86
:104040000DD024D8002B02D0042B10D01FE01B234E
:1040500018229446BC44634400221A706FE01B236C
:1040600018229446BC44634402221A7067E01B2362
:1040700018229446BC44634404221A705FE01B2358
:1040800018229446BC44634408221A7057E01B234C
:1040900018229446BC44634410221A704FE0FB6916
:1040A0001B686F4A934243D1704BDA6CC0231B01EB
:1040B0001340C022120193422AD0C022120193421F
:1040C0002ED880221201934212D0802212019342F4
:1040D00026D8002B04D08022D200934210D01FE0BB
:1040E0001B2318229446BC44634400221A7026E025
:1040F0001B2318229446BC44634402221A701EE01B
:104100001B2318229446BC44634404221A7016E010
:104110001B2318229446BC44634408221A700EE004
:104120001B2318229446BC44634410221A7006E0F4
:104130001B2318229446BC44634410221A70FB6966
:104140001B68474A934200D098E01B2318229446EC
:10415000BC4463441B78082B1DD020DC042B15D0F5
:104160001DDC002B02D0022B05D018E0FFF718FD54
:1041700003007B621BE03D4B1B681022134002D002
:104180003C4B7B6213E03C4B7B6210E0FFF778FC1A
:1041900003007B620BE080231B027B6207E013239A
:1041A00018229446BC44634401221A70C0467B6ABC
:1041B000002B00D1A3E1FB695A6813005B009B1838
:1041C0007A6A9A4205D3FB695B681B037A6A9A4252
:1041D00007D9132318229446BC44634401221A7061
:1041E0008DE17B6A3B6100237B6139697A690B0051
:1041F0001B0E100005021D430B001C02FB695B68CF
:104200005B08BB600023FB60B868F968001969416E
:10421000FB695B683B6000237B603A687B68FBF767
:10422000FFFF02000B001300FB62FA6AC0239B0031
:104230009A4209D3FA6A80235B039A4204D2FB694B
:104240001B68FA6ADA605AE1132318229446BC44C8
:10425000634401221A7052E1F369FFEFFFCFFFFFC1
:1042600000480040FFF4FFFF00380140001002400A
:104270000044004000093D000024F400FB69DA69B5
:1042800080231B029A4200D0AAE01B2318229446E6
:10429000BC4463441B78082B6DD89A00A04BD318FC
:1042A0001B689F46FFF77CFC03005A00FB695B68B4
:1042B0005B08D218FB695B6819001000FBF724FF4C
:1042C00003009BB2FB625EE0FFF780FC03005A0034
:1042D000FB695B685B08D218FB695B68190010001A
:1042E000FBF712FF03009BB2FB624CE08D4B1B6897
:1042F000102213400ED0FB695B685B088A4A9A184B
:10430000FB695B6819001000FBF7FEFE03009BB21F
:10431000FB6238E0FB695B685B08844A9A18FB69BA
:104320005B6819001000FBF7EFFE03009BB2FB6215
:1043300029E0FFF7A5FB03005A00FB695B685B08F7
:10434000D218FB695B6819001000FBF7DDFE030063
:104350009BB2FB6217E0FB695B685B08802252023C
:104360009A18FB695B6819001000FBF7CDFE03008B
:104370009BB2FB6207E0132318229446BC446344BB
:1043800001221A70C046FB6A0F2B21D9FA6A8023DA
:104390005B029A421CD2FB6A9AB20A2018243B198B
:1043A0001B180F218A431A80FB6A5B089BB2072205
:1043B000134099B23B191B183A19121812880A4374
:1043C0001A80FB691B683A1912181288DA6096E0A5
:1043D000132318229446BC44634401221A708EE0D1
:1043E0001B2318229446BC4463441B78082B6AD8CC
:1043F0009A004F4BD3181B689F46FFF7D1FB020072
:10440000FB695B685B08D218FB695B6819001000E8
:10441000FBF77AFE03009BB2FB625CE0FFF7D6FB82
:104420000200FB695B685B08D218FB695B681900D6
:104430001000FBF769FE03009BB2FB624BE0394BB7
:104440001B68102213400ED0FB695B685B08394A79
:104450009A18FB695B6819001000FBF755FE030012
:104460009BB2FB6237E0FB695B685B08324A9A18D3
:10447000FB695B6819001000FBF746FE03009BB266
:10448000FB6228E0FFF7FCFA0200FB695B685B084F
:10449000D218FB695B6819001000FBF735FE0300BA
:1044A0009BB2FB6217E0FB695B685B08802212022B
:1044B0009A18FB695B6819001000FBF725FE0300E2
:1044C0009BB2FB6207E0132318229446BC4463446A
:1044D00001221A70C046FB6A0F2B09D9FA6A8023A1
:1044E0005B029A4204D2FB691B68FA6ADA6006E052
:1044F000132318229446BC44634401221A70FB69BA
:1045000000221A66FB6900225A6613231822944679
:10451000BC4463441B781800BD460EB0B0BDC04615
:10452000786100080010024000127A000048E8019B
:104530009C61000800093D000024F40080B582B0B1
:1045400000AF78607B685B6A012213400BD07B6808
:104550001B685B684A4A134019007B689A6A7B684B
:104560001B680A435A607B685B6A022213400BD0C7
:104570007B681B685B68434A134019007B68DA6AF2
:104580007B681B680A435A607B685B6A042213409D
:104590000BD07B681B685B683B4A134019007B6843
:1045A0001A6B7B681B680A435A607B685B6A082247
:1045B00013400BD07B681B685B68344A13401900BA
:1045C0007B685A6B7B681B680A435A607B685B6A2E
:1045D000102213400BD07B681B689B682C4A134049
:1045E00019007B689A6B7B681B680A439A607B683A
:1045F0005B6A202213400BD07B681B689B68254AAE
:10460000134019007B68DA6B7B681B680A439A6069
:104610007B685B6A402213401DD07B681B685B6827
:104620001D4A134019007B681A6C7B681B680A439B
:104630005A607B681A6C80235B039A420BD17B68BB
:104640001B685B68154A134019007B685A6C7B68CD
:104650001B680A435A607B685B6A802213400BD058
:104660007B681B685B680E4A134019007B689A6C74
:104670007B681B680A435A60C046BD4602B080BDD5
:10468000FFFFFDFFFFFFFEFFFFFFFBFFFF7FFFFFC1
:10469000FFEFFFFFFFDFFFFFFFFFEFFFFFFF9FFFCA
:1046A000FFFFF7FF80B586B002AF78607B6800221D
:1046B000DA67FDF78BFA0300FB607B681B681B68F9
:1046C00008221340082B0CD1FB68802291037868E4
:1046D000154A0092002200F029F8031E01D003239E
:1046E0001EE07B681B681B6804221340042B0CD15E
:1046F000FB688022D10378680B4A0092002200F008
:1047000015F8031E01D003230AE07B6820225A67B4
:104710007B6820229A677B687022002199540023CD
:104720001800BD4604B080BDFFFFFF0180B584B016
:1047300000AFF860B9603B60FB1D1A7029E0BB69EF
:10474000013326D0FDF742FA02003B68D31ABA695A
:104750009A4202D3BB69002B1BD1FB681B681A6805
:10476000FB681B6815490A401A60FB681B689A6859
:10477000FB681B6801218A439A60FB6820225A6704
:10478000FB6820229A67FB6870220021995403235A
:104790000FE0FB681B68DB69BA681340BA68D31A7C
:1047A0005A425341DBB21A00FB1D1B789A42C6D015
:1047B00000231800BD4604B080BDC0465FFEFFFF69
:1047C00080B582B000AF00237B60194B194A1A6094
:1047D000194B1B68591C184A1160002B23D1144B2C
:1047E0001800FEF7D1F9031E1DD1114B180000F07F
:1047F00031F97B68002B16D10D4B180000F0DCF866
:10480000031E03D008235B427B600CE0084B0021B1
:104810001800FEF70DFC031E03D008235B427B60EB
:1048200001E000237B607B681800BD4602B080BDBC
:104830009014002000540040DC14002080B582B0A9
:1048400000AF00237B600F4B1B68002B15D00D4B76
:104850001B685A1E0B4B1A600A4B1B68002B0CD1AD
:10486000094B180000F02CF9074B1800FDF7D0FD9C
:10487000031E02D008235B427B607B681800BD46A4
:1048800002B080BDDC1400209014002090B585B0EB
:1048900000AF02003960BB1D1A800023FB6080233B
:1048A0005C013A68BB1D198806482300FEF752F8E0
:1048B000031E02D003235B42FB60FB681800BD4669
:1048C00005B090BD90140020B0B58AB004AF0400CC
:1048D0000800BA6019000E257B19221C1A800C24CE
:1048E0003B19021C1A80BB1D0A1C1A8000237B6125
:1048F0003B191A887B191988104880235B010293A1
:10490000BB1D1B880193BB6800930223FDF7C0FD0C
:10491000031E0DD0094B1800FEF742F90300042BCB
:1049200003D166235B427B6102E004235B427B612F
:104930007B691800BD4606B0B0BDC046901400208B
:10494000B0B58AB004AF04000800BA6019000E25A3
:104950007B19221C1A800C243B19021C1A80BB1DD7
:104960000A1C1A8000237B613B191A887B1919885D
:10497000104880235B010293BB1D1B880193BB6819
:1049800000930223FDF7B2FE031E0DD0094B180061
:10499000FEF706F90300042B03D066235B427B611C
:1049A00002E004235B427B617B691800BD4606B0D0
:1049B000B0BDC0469014002090B585B000AF7860BF
:1049C0000F243B1900221A707B68204A1A607B680A
:1049D0001F4A5A607B6800229A607B680122DA6075
:1049E0007B6800221A617B6800225A617B68002282
:1049F0009A617B680022DA617B6800221A627B6818
:104A00001800FDF76FFC031E02D03B1901221A703B
:104A10007B6800211800FEF70BFB031E03D00F2359
:104A2000FB1801221A707B6800211800FEF74CFB6E
:104A3000031E03D00F23FB1801221A700F23FB184B
:104A40001B781800BD4605B090BDC046005400401C
:104A50001A06100080B588B000AF7860164BDA6A8D
:104A6000154B02210A43DA62134BDB6A0222134020
:104A7000BB60BB680C217B18C0221A607B18122215
:104A80005A607B1801229A607B180322DA607B1837
:104A900001221A617B18094A19001000FDF798F9E4
:104AA000054B9A6B044B802189030A439A63C046E5
:104AB000BD4608B080BDC046001002400004005052
:104AC00080B582B000AF7860074B9A6B064B074900
:104AD0000A409A63064BC0211800FDF7EFFAC04662
:104AE000BD4602B080BDC04600100240FFFFDFFFA0
:104AF0000004005090B589B000AF0C243B19180099
:104B000014231A00002100F067FB594BDA6A584B56
:104B100004210A43DA62564BDB6A04221340BB606D
:104B2000BB68534BDA6A524B01210A43DA62504B9D
:104B3000DB6A012213407B607B684D4BDA6A4C4B89
:104B400002210A43DA624A4BDB6A022213403B60CD
:104B50003B68A023DB050022F4211800FDF7A5FB2C
:104B6000444B002203211800FDF79FFB3B19C02294
:104B700012021A603B1903225A603B1900229A6004
:104B80003B193D4A19001000FDF722F93B193B4A39
:104B90001A603B1903225A603B1900229A603A19A5
:104BA000A023DB0511001800FDF712F93B19F422D0
:104BB0001A603B1901225A603B1900229A603B1986
:104BC0000022DA603A19A023DB0511001800FDF776
:104BD000FFF83B1908221A603B19294A5A603B1911
:104BE00000229A603A19A023DB0511001800FDF796
:104BF000EFF83B1903221A603B1901225A603B1956
:104C000000229A603B190022DA603B19194A190008
:104C10001000FDF7DDF83B19802252001A603B19A5
:104C200000225A603B1900229A603A19A023DB0542
:104C300011001800FDF7CCF83B1938221A603B1917
:104C400003225A603B1900229A603B19094A190055
:104C50001000FDF7BDF8002200210620FDF786F8C0
:104C60000620FDF798F8C046BD4609B090BDC04685
:104C7000001002400004005000080050039800009B
:104C80000000111080B500AFFCF74AFF00F00CF8EF
:104C9000FFF730FF00F0D8F9FCF74AFEFCF79EFC66
:104CA000FCF74DFEFCE7000090B59BB000AF34244C
:104CB0003B19180034231A00002100F08DFA20233C
:104CC000FB18180014231A00002100F085FA3B1D80
:104CD00018001C231A00002100F07EFA254B1B68E7
:104CE000254A1A40234B802109010A431A602100FA
:104CF0007B1802221A607B180122DA607B181022CE
:104D00001A617B1800225A627B181800FEF728FAF5
:104D1000031E01D000F032F820217B180F221A6008
:104D20007B1801225A607B1800229A607B180022AF
:104D3000DA607B1800221A617B1800211800FEF748
:104D400075FD031E01D000F019F83B1D09221A6001
:104D50003B1D00229A603B1D00225A613B1D18003A
:104D6000FEF74AFF031E01D000F008F8C046BD461A
:104D70001BB090BD00700040FFE7FFFF80B500AFA3
:104D8000C046BD4680BD80B586B000AFF8607A6091
:104D90000B203B180A1C1A701723FB1800221A70EC
:104DA0003B181B78002B03D1FB687A685A6004E03B
:104DB0001723FB1801221A70C0461723FB181B7813
:104DC0001800BD4606B080BD80B582B000AF7860E7
:104DD00039607B68002B01D1012303E07B683A68CE
:104DE0001A6000231800BD4602B080BD80B584B0B3
:104DF00000AF78607B681B681F221340FB600122B4
:104E0000FB689A401300BB60094B5B69BA681340AA
:104E100009D0074BBA685A617B685B68002B02D0E7
:104E20007B685B689847C046BD4604B080BDC046FD
:104E30000004014080B500AF074B5A6B064B0121BF
:104E40000A435A63044B9A6B034B802149050A437A
:104E50009A63C046BD4680BD0010024080B500AFD9
:104E6000C046BD4680BD80B500AFFEE780B500AF4F
:104E7000C046BD4680BD80B500AFC046BD4680BDC2
:104E800080B500AFFCF796FEC046BD4680BD000071
:104E900080B500AF034B1800FFF7A8FFC046BD4622
:104EA00080BDC0463000002080B586B000AFF860FD
:104EB000B9607A6000237B610AE000E000BF010076
:104EC000BB685A1CBA60CAB21A707B6901337B6135
:104ED0007A697B689A42F0DB7B681800BD4606B0B1
:104EE00080BD80B586B000AFF860B9607A600023FD
:104EF0007B6109E0BB685A1CBA601B78180000E0AF
:104F000000BF7B6901337B617A697B689A42F1DB80
:104F10007B681800BD4606B080BD000080B584B037
:104F200000AF7860114B1B68002B02D10F4B104A69
:104F30001A600E4B1B68FB600C4B1A687B68D2181A
:104F40006B469A4207D900F01DF903000C221A6043
:104F500001235B4206E0054B1A687B68D218034BBD
:104F60001A60FB681800BD4604B080BDE014002044
:104F70008015002080B582B000AF786001235B42CD
:104F80001800BD4602B080BD80B582B000AF786029
:104F900039603B68802292015A6000231800BD46A8
:104FA00002B080BD80B582B000AF786001231800E8
:104FB000BD4602B080BD80B584B000AFF860B96076
:104FC0007A6000231800BD4604B080BD80B500AFF4
:104FD000174B1A68164B802149000A431A60144B7C
:104FE000DA68134B13490A40DA60114B1A68104B08
:104FF00011490A401A600E4B9A680D4B01218A43F1
:105000009A600B4B1A680A4B0C490A401A60084B0D
:10501000DA68074B0A490A40DA60054B00221A6138
:10502000084B802212059A60C046BD4680BDC0462E
:10503000001002400C40FF88F6FFF6FEFFFFFBFF6A
:10504000FFFF02FF00ED00E080B500AF144B154AF2
:105050001A60134BE12252025A60114B00229A60EF
:105060000F4B0022DA600E4B00221A610C4B0C220F
:105070005A610B4B00229A61094B0022DA61084BFE
:1050800000221A62064B00225A62054B1800FEF7F6
:10509000E9FE031E01D0FFF771FEC046BD4680BD8C
:1050A000E41400200038014090B589B000AF78606A
:1050B0000C243B19180014231A00002100F08CF86E
:1050C0007B681B68184A93422AD1184B5A6B174BBE
:1050D0008021C9010A435A63144BDA6A134B012138
:1050E0000A43DA62114BDB6A01221340BB60BB68E2
:1050F0003B19C022D2001A6021007B1802225A609C
:105100007B1800229A607B180322DA607B18042245
:105110001A617A18A023DB0511001800FCF758FE6D
:10512000C046BD4609B090BD0038014000100240A5
:105130000D488546002103E00C4B5B584350043179
:105140000B480C4B42189A42F6D30B4A02E000235C
:1051500013600432094B9A42F9D3FFF737FF00F08E
:1051600017F8FFF78FFDFEE7002000208C62000893
:105170000000002028140020281400207C150020A6
:10518000FEE70000014B18687047C046C4130020BA
:1051900070B500260C4D0D4C641BA410A64209D11D
:1051A000002600F0BFFF0A4D0A4C641BA410A64263
:1051B00005D170BDB300EB5898470136EEE7B30058
:1051C000EB5898470136F2E78462000884620008D1
:1051D000846200088862000803008218934200D1AC
:1051E000704719700133F9E70FB40B4B13B51C6806
:1051F000002C05D0A369002B02D1200000F070F82C
:1052000005AB2000049AA168019300F093F916BC45
:1052100008BC04B01847C046C4130020002310B5D2
:105220000400036043608360818143661900C2818A
:1052300003614361836108225C30FFF7CDFF054BBA
:105240006362054B2462A362044BE362044B236355
:1052500010BDC046D15A0008F95A0008315B000859
:105260005D5B000810B5024900F0BAF810BDC046F9
:10527000695E000870B568254A1E55430E00290076
:10528000743100F0D1F8041E08D000212A0001601A
:1052900046600C30A0606832FFF79EFF200070BDB2
:1052A00010B5024800F0BDF810BDC04674150020CE
:1052B00010B5024800F0B6F810BDC04674150020C5
:1052C00010B5024800F0ADF810BDC0466F150020C3
:1052D00010B5024800F0A6F810BDC0466F150020BA
:1052E00013B50400FFF7ECFFA369002B02D0FFF712
:1052F000EFFF13BDA364E3642365134B134A1B68DC
:10530000A2620193A34201D10123A361200000F016
:105310001FF86060200000F01BF8A060200000F083
:1053200017F800220421E0606068FFF777FF012290
:105330000921A068FFF772FF02221221E068FFF73F
:105340006DFF0123A361D2E7E46100086552000804
:10535000F8B50700FFF7A4FF1F4B1E68B369002BC9
:1053600002D13000FFF7BCFF4836B4687368013BD8
:1053700004D53368002B22D03668F6E70C22A55EF0
:10538000002D1AD12000154B5830E360656600F0FF
:1053900047F8FFF78DFF2000082229002560A5604F
:1053A000656025616561A5615C30FFF715FF656388
:1053B000A563A564E5642000F8BD6834D7E704213F
:1053C0003800FFF757FF041E3060D5D1FFF770FF9C
:1053D0000C233B60EFE7C046E46100080100FFFFDB
:1053E000F7B5040006000027019148346368A568FA
:1053F0000093009B013B009304D52468002CF5D159
:105400003800FEBDAB89012B08D90E22AB5E0133FB
:1054100004D029003000019B984707436835E8E72E
:105420007047704770470000F8B50323CD1C9D43BB
:10543000083506000C2D1FD20C25A9421ED83000BD
:1054400000F0DEFD25490A681400002C1AD1244F13
:105450003B68002B04D12100300000F027FB3860AE
:105460002900300000F022FB431C2BD10C2330001C
:10547000336000F0CDFD03E0002DDEDA0C23336055
:105480000020F8BD23685B1B19D40B2B03D92360C4
:10549000E418256003E06368A2420ED10B6030007F
:1054A00000F0B6FD200007220B30231D9043C21AE6
:1054B0009842E6D01B1AA350E3E75360EFE72200BF
:1054C0006468C2E70323C41C9C43A042E1D0211AB4
:1054D000300000F0EBFA431CDBD1C7E76415002075
:1054E00068150020936810B5013B9360002B04DA27
:1054F0009469A34207DB0A2905D01368581C106081
:105500001970080010BD00F02FFB0100F9E7F8B595
:1055100006000F001400D518AC4201D1002007E0AE
:1055200021783A003000FFF7DDFF0134431CF3D14E
:10553000F8BD0000F0B5A1B006000C001F000392FA
:10554000002804D08369002B01D1FFF7C9FE8E4BE0
:105550009C421CD17468636EDB0705D4A3899B054C
:1055600002D4A06DFFF75DFFA3891B0702D5236955
:10557000002B1DD12100300000F060FB002817D067
:10558000636EDB070DD50120404221B0F0BD7F4B9B
:105590009C4201D1B468DEE77D4B9C42DBD1F468CC
:1055A000D9E7A3899B05EED4A06DFFF73BFFEAE79F
:1055B000002308AD6B6120336B761033AB76079711
:1055C000039F3B78002B01D0252B4ED1039BFB1A68
:1055D0000593039B9F420DD0059B21003000039A49
:1055E000FFF795FF431C00D1B5E06A69059B94461F
:1055F00063446B613B78002B00D1ACE001227B1C43
:105600000393002352426A6004A9543252182B605B
:10561000EB60AB601370AB65039B052219785D48A6
:1056200000F0E2FC039B5F1C002820D12A68D3060F
:1056300004D5532304A95B1820211970130704D53E
:10564000532304A95B182B211970039B1B782A2B69
:1056500016D00021EB68039F3A78781C303A8446D4
:10566000092A4FD9002911D117E00137A9E7494B81
:105670002A68C01A0123834013432B600397CBE7AA
:10568000079B191D1B680791002B01DB0B9304E09E
:105690005B42EB60022313432B603B782E2B0AD135
:1056A0007B782A2B37D1079B02371A1D1B6807927C
:1056B000002B2DDB099303223978374800F094FC46
:1056C000002807D0344B2A68C01A40238340134374
:1056D00001372B6039787B1C0622304803932976EA
:1056E00000F082FC002845D02D4B002B27D107224B
:1056F000079B07339343083307936B69049A9B18FE
:105700006B615DE70A214B4367469B180939A3E7A4
:1057100001235B42CEE700231A0001376B60397822
:10572000781C30398446092903D9002BC3D009924B
:10573000C1E70A235A4367465218093BEFE707AB14
:105740000093220029003000164B00E000BF0490B7
:10575000049B0133D1D1636EDB0705D4A3899B057C
:1057600002D4A06DFFF75EFEA3895B0600D50AE7B1
:105770000D980AE707AB0093220029003000094B7F
:1057800000F082F8E3E7C0460862000828620008DB
:10579000E8610008486200084E6200085262000892
:1057A000000000000F550008F7B5150001938A6846
:1057B0000B690C000090934200DA130022002B606A
:1057C00043321278002A01D001332B6023689B06F4
:1057D00002D52B6802332B602268062317001F4076
:1057E0001A4227D0230043331B785A1E9341226864
:1057F000920630D4220001990098089E4332B047A7
:10580000431C25D0062320682A68E1680025034050
:10581000042B03D18D1AEB43DB171D40A3682269CB
:10582000934201DD9B1AED180027BD4220D10020D4
:1058300010E00137E3682A689B1ABB42D2DD2200E0
:10584000012301990098089E1932B047431CF0D1FA
:1058500001204042FEBD3020E11843310870210094
:105860005A1C45310978A218433202331170C1E73E
:105870002200012301990098089E1A32B047431C68
:10588000E6D00137D1E70000F0B58BB006920A00F0
:1058900043320793059004920A7E0C00109B782AED
:1058A00006D8622A08D8002A00D1C0E0582A52D06F
:1058B00026004236327022E0100063381528F7D8EF
:1058C000FAF7C4FD16001F00F6FFF6FFF6FFF6FF1D
:1058D0001F00F6FFF6FFF6FFF6FFA80036009A005D
:1058E000F6FFF6FFB900F6FF3600F6FFF6FF9E0062
:1058F00026001A684236111D19601368337001239F
:10590000A7E0086819680A1D05060BD50D681A601E
:10591000002D03DA2D23049A6D421370614B0A2780
:10592000039332E00D681A604106F1D52DB2EFE71E
:105930000D681968081D18602E0601D50D6803E072
:105940006D06FBD50D68ADB2564B0A2703936F2A3F
:1059500017D1082715E045310A70524A03921A6898
:10596000216820CA1A60080650D5CB0702D520232B
:10597000194321601027002D03D1202322689A4368
:1059800022602300002243331A706368A360002B57
:1059900003DB0422216891432160002D02D1049E83
:1059A000002B0CD0049E28003900FAF733FC039B2F
:1059B000013E5B5C33702B0005009F42F3D9082F3A
:1059C00009D12368DB0706D563682269934202DCAC
:1059D0003023013E3370049B9B1B2361079B2100F6
:1059E00000930598069B09AAFFF7DEFE431C35D1FC
:1059F000012040420BB0F0BD202209680A4322601A
:105A00002200782145321170274AA7E74806ACD515
:105A1000ADB2AAE71A680D68101D496918601368CD
:105A20002E0601D5196002E06D06FBD51980002312
:105A3000049E2361D2E71A68111D196016680021BF
:105A40003000626800F0D0FA002801D0801B60604E
:105A5000636823610023049A1370BFE7236932004F
:105A600006990598079DA847431CC1D023689B074A
:105A700015D4099BE0689842BCDA1800BAE7220006
:105A8000012306990598079E1932B047431CAFD0F1
:105A90000135E368099A9B1AAB42F0DCE9E700257F
:105AA000F7E7C046596200086A620008002370B533
:105AB000064D040008002B60FFF730FA431C03D1A9
:105AC0002B68002B00D0236070BDC04678150020E5
:105AD00070B50C000E25495F00F0ECFA002803DBDE
:105AE000636D1B18636570BDA389024A1340A381CF
:105AF000F9E7C046FFEFFFFFF8B51F008B890500EF
:105B00000C001600DB0505D50E23C95E002202231A
:105B100000F0EAF9A389054A28001340A381320066
:105B20000E23E15E3B0000F075F8F8BDFFEFFFFFCC
:105B300070B50C000E25495F00F0D6F9A389421C10
:105B400003D1054A1340A38170BD80225201134343
:105B5000A3816065F8E7C046FFEFFFFF10B50E2395
:105B6000C95E00F0E3F810BDF8B505000E001400A2
:105B7000002804D08369002B01D1FFF7B1FB224B31
:105B80009C422ED16C68A369A360A3891B0732D500
:105B90002369002B2FD023682269F7B2981A636912
:105BA000F6B2834205DC2100280000F05DF90028F0
:105BB00027D1A3680130013BA36023685A1C2260EF
:105BC0001F706369834204D0A389DB0707D50A2EBF
:105BD00005D12100280000F047F9002811D130003C
:105BE000F8BD0A4B9C4201D1AC68CCE7084B9C4203
:105BF000C9D1EC68C7E72100280000F01FF8002891
:105C0000C9D001267642EAE7086200082862000847
:105C1000E861000870B50400080011001A000023B4
:105C2000054D2B60FFF75DF9431C03D12B68002B5A
:105C300000D0236070BDC04678150020374B70B58A
:105C40001D6806000C00002D05D0AB69002B02D1A9
:105C50002800FFF745FB324B9C420FD16C680C23A8
:105C6000E25E93B211072DD4D90611D40923012085
:105C7000336037331343A381404270BD294B9C42AC
:105C800001D1AC68EBE7284B9C42E8D1EC68E6E731
:105C90005B0713D5616B002908D023004433994278
:105CA00002D0300000F0BCF9002363632422A389F2
:105CB0009343A38100236360236923600823A2899F
:105CC0001343A3812369002B0BD1A0218022A38938
:105CD000890092000B40934203D02100300000F075
:105CE0003FF90C22A35E01201A0099B20240034240
:105CF0000FD00022A26062695242A2610020226994
:105D00008242BAD10A06B8D540221343A381013892
:105D1000B3E7880700D46269A260EFE7C4130020EC
:105D20000862000828620008E8610008002370B5D6
:105D3000064D040008002B60FFF71CF9431C03D13B
:105D40002B68002B00D0236070BDC0467815002062
:105D5000F7B58B8905000C001A075FD44A68002A42
:105D600004DC0A6C002A01DC0020FEBDE76A002F7B
:105D7000FAD0002280212E682A601A0049010A40C8
:105D80000B4234D0606DA3895B0706D56368C01AE7
:105D9000636B002B01D0236CC01A0200216A002320
:105DA0002800E76AB847A189431C06D12B681D2B40
:105DB00031D82C4ADA40D3072DD5002363602369FC
:105DC0002360CB0405D5431C02D12B68002B00D1E6
:105DD0006065616B2E600029C6D023004433994270
:105DE00002D0280000F01CF900206063BDE7012309
:105DF0002800216AB847431CC5D12B68002BC2D0AC
:105E00001D2B01D0162B01D12E60ADE74023A289B6
:105E10001343A381A9E740230B43FAE70F69002F3F
:105E2000A2D00A680F60D21B019200229B0700D10A
:105E30004A69A260019B002B00DC95E73A0028002C
:105E4000019B216AA66AB047002806DC4023012096
:105E5000A28940421343A38187E7019B3F181B1A85
:105E60000193E7E7010040200B6970B505000C00C5
:105E7000002B02D10025280070BD002804D08369C2
:105E8000002B01D1FFF72CFA144B9C421BD16C68FC
:105E90000C22A35E002BEDD0626ED20704D49B05CA
:105EA00002D4A06DFFF7BDFA28002100FFF750FFD4
:105EB000636E0500DB07DED4A3899B05DBD4A06DF0
:105EC000FFF7B0FAD7E7064B9C4201D1AC68DFE799
:105ED000044B9C42DCD1EC68DAE7C046086200085B
:105EE00028620008E861000870B50400080011008D
:105EF0001A000023054D2B60FFF75DF8431C03D10A
:105F00002B68002B00D0236070BDC04678150020A0
:105F100070B50E001D000E23C95E140096B0002956
:105F200007DA00232B60B3891B0611D48023DB0022
:105F30000FE06A4600F0D2F80028F2DBF023019966
:105F40001B021940054BC9184B4259412960EDE726
:105F500040230020236016B070BDC04600E0FFFF64
:105F6000F7B502268B8905000C00334206D02300CA
:105F700047332360236101236361F7BD6A4601ABA8
:105F8000FFF7C6FF009907002800FFF74DFA002829
:105F900008D10C22A35E9A05EFD4032293431E433B
:105FA000A681E4E70F4BAB628023A28920601343F4
:105FB000A381009B20616361019B002B0DD0280011
:105FC0000E23E15E00F09CF8002806D00322A3898E
:105FD00093431A0001231343A381A0890743A78198
:105FE000CBE7C04665520008C9B28218904201D181
:105FF0000020704703788B42FBD00130F6E70000A9
:1060000010B50248FFF70DFA10BDC046701500200C
:1060100010B50248FFF706FA10BDC0467015002003
:1060200070B50500002910D00C1F2368002B00DA82
:10603000E4182800FFF7E4FF1D4A1368002B05D180
:10604000636014602800FFF7E3FF70BDA34208D926
:10605000216860188342F3D118685B684118216099
:10606000EEE71A005B68002B01D0A342F9D9116852
:106070005018A0420BD120680918501811608342B3
:10608000E0D118685B68411811605360DAE7A042FC
:1060900002D90C232B60D5E721686018834203D115
:1060A00018685B684118216063605460CAE7C046A5
:1060B0006415002070B50400080011001A000023C8
:1060C000054D2B60FEF7F0FE431C03D12B68002B1F
:1060D00000D0236070BDC04678150020002370B545
:1060E000064D0400080011002B60FEF74DFF431C15
:1060F00003D12B68002B00D0236070BD78150020E1
:10610000002370B5064D040008002B60FEF74AFF1F
:10611000431C03D12B68002B00D0236070BDC04608
:1061200078150020F8B5C046F8BC08BC9E467047FC
:0C613000F8B5C046F8BC08BC9E4670479D
:10613C000A0D0A0D4D61696C626F782069732061DC
:10614C0063746976617465640000000032666644AD
:10615C0066AA1180081118811811881188118800FD
:10616C0000FFFFFFFF5FAFFFFF2F0000A4420008FE
:10617C00C8420008EC42000876430008324300088D
:10618C00764300087643000876430008564300081F
:10619C00FA4300081C4400083E440008C6440008AA
:1061AC0084440008C6440008C6440008C6440008DD
:1061BC00A6440008000000000000000001020304D7
:1061CC000607080900000000010203040304060886
:1061DC000C10182030000000C81300200000000034
:1061EC0000000000000000000000000000000000A3
:1061FC000000000000000000000000000000000093
:10620C000000000000000000000000000000000082
:10621C000000000000000000000000000000000072
:10622C000000000000000000000000000000000062
:10623C00000000000000000000000000232D302BA7
:10624C002000686C4C00656667454647003031326B
:10625C0033343536373839414243444546003031C2
:10626C003233343536373839616263646566000021
:08627C00E49FFF7F0100000018
:04628400E900000825
:04628800C100000849
:10628C00F1040008370500085905000879050008D5
:10629C00B7050008DD0500081106000801C700005D
:1062AC000CD7D69D3A1A00003B08000011010000E3
:1062BC000300000600000000FFFFFFFFFFFFFFFFD1
:1062CC00FFFFFFFFFFFFFFFFFFFFFFFFFFFFFFFFD2
:1062DC00FFFFFFFFFFFFFFFFFFFFFFFFFFFFFFFFC2
:1062EC00FFFFFFFFFFFFFFFFFFFFFFFFFFFFFFFFB2
:1062FC00FFFFFFFFFFFFFFFFFFFFFFFFFFFFFFFFA2
:1068CC00FFFFFFFFFFFFFFFFFF803FF803FFFFFF0E
:1068DC00FFFFFFFFFFFFFFFE007FFFFFFFFFFFFF3C
:1068EC00FFFF803FF801FFFFFFFFFFFFFFFFFFFFF0
:1068FC00FE007FFFFFFFFFFFFFFFFFC03FF801FF20
:10690C00FFFFFFFFFFFFFFFFFFFE003FFFFFFFFF4B
:10691C00FFFFFFFFC01FF801FFFFFFFFFFFFFFFF9F
:10692C00FFFFFF003FFFFFFFFFFFFFFFFFC01FFC4C
:10693C0001FFFFFFFFFFE00FFFFFFFFF003FFFFF27
:10694C00FFFFFFFFFFFFC01FFC00000000003FE047
:10695C000F803FFFFF003FFFFFFFFFFFFFFFFFC068
:10696C001FFC00000000003FE00F803FFFFF003FD6
:10697C00FFFFFFFFFFFFFFFFC01FFC000000000038
:10698C003FF00F803FFFFF003FFFFFFFFFFFFFFFC8
:10699C00FFE00FFC00000000001FF00FC03FFFFFE6
:1069AC00001FFFFFFFFFFFFFFFFFE00FFC000000D9
:1069BC0000001FF000003FFFFF801FFFFFFFFFFFE5
:1069CC00FFFFFFE00FFE00000000001FF000003F83
:1069DC00FFFF801FFFFFFFFFFFFFFFFFE00FFE0029
:1069EC00000000001FF000001FFFFF000FFFFFFF63
:1069FC00FFFFFFFFFFE00FFE007FE007FFFFF0004F
:106A0C00001000000000000FFFFFFFFFFFFBF00F66
:106A1C00FE007FF007FFFFF80000100000000000F0
:106A2C000FFFFFFFFFFFF9F007FE007FF007FFFFEE
:106A3C00F800001000000000000FFFFFFFFFFFF93F
:106A4C00F007FF007FF007FFFFF8000010000000C8
:106A5C0000000FFFFFFFFFFFF8F007FF007FF003C0
:106A6C00FFFFF8000008000000000007FFFFFFFF19
:106A7C00FFF87007FF007FF003FFFFF8000008002D
:106A8C000000000007FFFFFFFFFFF87007FF003F4B
:106A9C00F003FFFFFC03E008000000000007FFFF0D
:106AAC00FFFFFFF83807FF003FF803FFFFFC03E090
:106ABC0008000000000007FFFFFFFFFFF83803FF8E
:106ACC0000000000001FFC03F0080000000000079D
:106ADC00FFFFFFFFFFF81803FF80000000001FFC02
:106AEC0001F00FFFFFE007FFFFFFFFFFFFFFF018B4
:106AFC0003FF80000000001FFC01F007FFFFE00710
:106B0C00FFFFFFFFFFFFFFF00803FF800000000006
:106B1C000FFC01F007FFFFE007FFFFFFFFFFFFFF88
:106B2C00F008039F80000000000FFE01F007FFFF3C
:106B3C00E007FFFFFFFFFFFFFFF804018F8000005D
:106B4C0000000FFE01F007FFFFE003FFFFFFFFFF58
:106B5C00FFFFF800010780000000000FFE00F8079F
:106B6C0080000000000FFFFFFFFFFFFC000103C0CF
:106B7C00000000000FFE00F807C0000000000FFF2F
:106B8C00FFFFFFFFFE000001C01FFC00FFFFFE0027
:106B9C00F803C0000000000FFFFFFFFFFFFF000025
:106BAC0000C00FFC00FFFFFE00F803C00000000057
:106BBC000FFFFFFFFFFFFF000000C00FFE00FFFFF5
:106BCC00FF00F803C00000000007FFFFFFFFFFFFFE
:106BDC00800001C00FFE00FFFFFF00FC03C000009F
:106BEC00000007FFFFFFFFFFFFC00001E00FFE00EA
:106BFC00FFFFFF007C03E00000000007FFFFFFFF2A
:106C0C00FFFFC00003E00FFE007FFFFF000001E06C
:106C1C000000000007FFFFFFFFFFFFE00007E00F91
:106C2C00FE007FFFFF000001E001F800FFFFFFFF07
:106C3C00FFFFFFFFE0000F6007FE007FFFFF8000FB
:106C4C0001F001F801FFFFFFFFFFFFFFFFF0001F46
:106C5C00200000000003FF800001F800F800FFFF97
:106C6C00FFFFFFFFFFFFF8003F000000000003FFE5
:106C7C00800001F800FC00FFFFFFFFFFFFFFFFF8A3
:106C8C00007F000000000003FF800001FC007C007E
:106C9C00FFFFFFFFFFFFFFFFFC007F000000000075
:106CAC0003FF800000FE003C00FFFFFFFFFFFFFF23
:106CBC00FFFC007F000000000001FF800000FF00CF
:106CCC001C00FFFFFFFFFFFFFFFFFE007E00000028
:106CDC00000001FFC00000FF001FFFFFFFFFFFFFD0
:106CEC00FFFFFFFE003E000000000001FFC03E0061
:106CFC00FF800FFFFFFFFFFFFFFFFFFF0000000003
:106D0C000000000001FFC01F00FF8007FFFFFFFF16
:106D1C00FFFFFFFFFF0000000003FF801FFFFFC00D
:106D2C001F00C000000000007FFFFFFFFFFF0000FE
:106D3C00000003FF801FFFFFC01F00400000000089
:106D4C00007FFFFFFFFFFF0000000001FF801FFF1F
:106D5C00FFC01F004000000000007FFFFFFFFFFF8F
:106D6C000000000001FFC01FFFFFE01F00400000FB
:106D7C000000007FFFFFFFFFFF8000000001FFC04D
:106D8C001FFFFFE01F806000000000007FFFFFFF7F
:106D9C00FFFF8000000001FFC01FFFFFE00F8060BD
:106DAC0000000000007FFFFFFFFFFF8000000001DC
:106DBC00FFC00FFFFFE00F802000000000003FFF2E
:106DCC00FFFFFFFF8000002000FFC00FFFFFE00F60
:106DDC00802000000000003FFFFFFFFFFFFFC01FEF
:106DEC00F000000000003FF00F803FFE001FFFFF8F
:106DFC00FFFFFFFFFFFFFFE01FF800000000003F58
:106E0C00F00F803FFF001FFFFFFFFFFFFFFFFFFFA3
:106E1C00E00FF800000000003FF00FC03FFF800FB4
:106E2C00FFFFFFFFFFFFFFFFFFE00FFC0000000074
:106E3C00003FF007C038038007FF803FFFFFFFFFD4
:106E4C00FFFFE00FFE00000000003FF007C018033A
:106E5C00C007FF803FFFFFFFFFFFFFE00FFE0000BA
:106E6C000000001FF007C01801C003FF801FFFFFC8
:106E7C00FFFFFFFFE00FFF00000000001FF8000005
:106E8C001801E003FF801FFFFFFFFFFFFFF007FF6C
:106E9C00801FFC07FFFFF800001801E01FFF801F98
:106EAC00FFFFFFFFFFF00007FF801FFE03FFFFF84F
:106EBC0000001C00000000001FFFFFFFFFFFF000A0
:106ECC0007FFC00FFC00FFFFF800001C00000000D3
:106EDC00001FFFFFFFFFFFF000000FC00FFC007F43
:106EEC00FFF800000C00000000001FFFFFFFFFFF79
:106EFC00F0000007E007F8007FFFF800000C00002E
:106F0C000000000FFFFFFFFFFFF000000FE007F88D
:106F1C0000FFFFFC00000C00000000000FFFFFFF53
:106F2C00FFFFF000000FF003F000FFFFFC00000C6F
:106F3C0000000000000FFFFFFFFFFFF000000FF04C
:106F4C0003F001FFFFFFFFFFFE00000000000FFF3A
:106F5C00FFFFFFFFF000000FF801E001FFFFFFFF54
:106F6C00FFFE00000000000FFFFFFFFFFFFF00000F
:106F7C000FF801E003FFFFFFFFFFFE000000000021
:106F8C0007FFFFFFFFFFFFFFC00FFC00E003FFFF49
:106F9C00FFFFFFFFFFFFFFFFFFFFFFFFFFFFFFFFF5
:106FAC00FFFF8FFC03FC07FFFFFFFFFFFFFFFFFF4F
:106FBC00FFFFFFFFFFFFFFFFFFFFFFFFFE3FFF0F86
:106FCC00FFFFFFFFFFFFFFFFFFFFFFFFFFFFFFFFC5
:106FDC00FFFFFFFFFFFFFFFFCFFFFFFFFFFFFFFFE5
:106FEC00FFFFFFFFFFFFFFFFFFFFFFFFFFFFFFFFA5
:106FFC00FFFFFFFFFFFFFFFFFFFFFFFFFFFFFFFF95
:10700C00FFFFFFFFFFFFFFFFFFFFFFFFFFFFFFFF84
:10701C00FFFFFFFFFFFFFFFFFFFFFFFFFFFFFFFF74
:10764C0000002000C81300200000000008620008A1
:10765C0028620008E861000800000000000000003B
:10766C00000000000000000000000000000000000E
:10767C0000000000000000000000000000000000FE
:10768C0000000000000000000000000000000000EE
:10769C0000000000000000000000000000000000DE
:0876AC000000000000000000D6
:04000005080051316D
:00000001FF
